:100000000EC100003DC100003BC1000039C100002D
:1000100037C1000035C1000033C1000031C100000C
:100020002FC100002DC100002BC1000029C100001C
:1000300027C1000025C1000023C1000021C100002C
:100040001FC100001DC100001BC1000019C100003C
:1000500017C1000015C1000013C100005AC4000000
:100060000FC1000023C30000F8C2000009C1000056
:1000700007C1000005C1000003C1000001C100006C
:10008000FFC00000FDC00000FBC00000F9C0000080
:10009000F7C00000F5C00000F3C000008BC40000F2
:1000A000EFC00000EDC00000EBC00000E9C00000A0
:1000B000E7C00000E5C00000E3C00000E1C00000B0
:1000C000DFC00000DDC00000DBC00000D9C00000C0
:1000D000D7C00000D5C00000D3C00000D1C00000D0
:1000E000CFC00000BB03BE03AD03B103B503F503EE
:1000F000C203C603CC03D003D403DA03DE03E20356
:10010000F503E803EC03F003570D930DA50DB70DB0
:10011000100E6E0F730F00002100240027002A002C
:100120002D003000330001010000040107010A0125
:1001300000002200250028002B002E003100340092
:1001400002010000050108010B0105050505070571
:1001500008080808020202020A0A08080404040443
:10016000010101010101010103030303030303036F
:10017000040707070C0C0C0C0C0C0C0C02020202FE
:1001800006060606060606060B0B0B0B0B0B0B0BE7
:100190000102102020080810204010204080020199
:1001A000020108040201010204081020408080407E
:1001B000201008040201800402018040201008047D
:1001C000020108040201010204081020408001021B
:1001D00004081020408000000A0B02090C0D0E08D4
:1001E0000703040100000000000000000000000000
:1001F00000000000000000000000000000000000FF
:1002000000001211100000000000000000000000BB
:10021000000000000000000000000000FC0F11249E
:100220001FBECFEFD1E2DEBFCDBF00E00CBF13E0B9
:10023000A0E0B2E0E8E7F7E200E00BBF02C0079001
:100240000D92A23AB107D9F728E0A2EAB3E001C0C3
:100250001D92A63EB207E1F711E0CFE0D1E000E049
:1002600006C021970109802FFE010E94A813CE30FD
:10027000D10780E00807A9F70E943F0A0C94BA133F
:10028000BFCEFC01538D448D252F30E0842F90E0AC
:10029000821B930B541710F0CF9608950197089581
:1002A000FC01918D828D981761F0828DDF01A80F7E
:1002B000B11D5D968C91928D9F5F9F73928F90E0A0
:1002C00008958FEF9FEF0895FC01918D828D98170F
:1002D00031F0828DE80FF11D858D90E008958FEF4C
:1002E0009FEF0895FC01918D228D892F90E0805C15
:1002F0009F4F821B91098F739927089581E694E09F
:10030000F1DF21E0892B09F420E0822F0895FC0120
:10031000848DDF01A80FB11DA35ABF4F2C91848D8E
:1003200090E001968F739927848FA689B7892C93C3
:10033000A089B1898C9180648C93938D848D98135E
:1003400006C00288F389E02D80818F7D8083089527
:10035000EF92FF920F931F93CF93DF93EC0181E015
:10036000888F9B8D8C8D981305C0E889F9898081D1
:1003700085FD23C0F62E0B8D10E00F5F1F4F0F730E
:100380001127E02E8C8DE8120BC00FB607FCFACFB8
:10039000E889F989808185FFF5CFCE01B8DFF2CFFA
:1003A0008B8DFE01E80FF11DE35AFF4FF0820B8F9A
:1003B000EA89FB898081806207C0EE89FF896083BA
:1003C000E889F98980818064808381E090E0DF9111
:1003D000CF911F910F91FF90EF900895CF93DF93EE
:1003E000EC01888D8823C1F0EA89FB89808185FD35
:1003F00005C0A889B9898C9186FD0EC00FB607FC8F
:10040000F5CF808185FFF2CFA889B9898C9185FFCE
:10041000EDCFCE017CDFE8CFDF91CF91089580E072
:1004200090E0892B19F06ADF811125C080E090E00F
:10043000892B41F080E090E0892B21F00E940000A0
:1004400081111CC080E090E0892B41F080E090E0B9
:10045000892B21F00E940000811113C080E090E000
:10046000892BA1F080E090E0892B81F00E940000B0
:1004700081110AC008950E940000D8CF0E94000098
:10048000E1CF0E940000EACF0C94000008953FB72E
:10049000F8948091570490915804A0915904B09118
:1004A0005A0426B5A89B05C02F3F19F00196A11D3F
:1004B000B11D3FBFBA2FA92F982F8827820F911DFA
:1004C000A11DB11DBC01CD0142E0660F771F881F41
:1004D000991F4A95D1F7089585ED8093BC008091CE
:1004E000BC0084FDFCCF1092310408954091E603D6
:1004F000262F30E0240F311D21323105DCF420910C
:1005000031042430C9F4FC0180E090E0861758F4EF
:100510003091E6032191DC01AC53BC4FA30FB11D18
:100520002C930196F3CF8091E603680F6093E60366
:1005300080E0089581E0089582E008950895E091B3
:100540005C0480915B04E81730F4F0E0EE5CFB4F54
:10055000808190E008958FEF9FEF089590915C0463
:1005600080915B04981750F4E92FF0E0EE5CFB4FAC
:10057000208130E09F5F90935C0402C02FEF3FEF3B
:10058000C901089580915B0490E020915C04821B76
:1005900091090895CF92DF92EF92FF920F931F93EC
:1005A000CF93DF937C01262F972F8A0180916004DF
:1005B000882391F0C62FD72F6E01C40ED51ECC15FF
:1005C000DD0569F06991D701ED91FC910190F08111
:1005D000E02DC7011995F3CF642F822F87DFC80163
:1005E000DF91CF911F910F91FF90EF90DF90CF900F
:1005F0000895CF93DF931F92CDB7DEB76983209123
:1006000060042223D1F020915D04203240F021E0EB
:1006100030E0FC013383228380E090E014C08091BD
:100620005E04E82FF0E0EC55FC4F998190838F5FDA
:1006300080935E0480935D0404C061E0CE01019666
:1006400055DF81E090E00F90DF91CF9108950895FC
:1006500080E090E008950E94B6131F920F920FB6AB
:100660000F9211240BB60F922F933F934F935F93EA
:100670006F937F938F939F93AF93BF93EF93FF936A
:1006800081E694E044DEFF91EF91BF91AF919F919D
:100690008F917F916F915F914F913F912F910F902B
:1006A0000BBE0F900FBE0F901F9018951F920F92C8
:1006B0000FB60F9211240BB60F922F938F939F9327
:1006C000EF93FF93E0917104F09172048081E091C7
:1006D0007704F091780482FD12C0908180917A04B1
:1006E0008F5F8F7320917B04821751F0E0917A0421
:1006F000F0E0EF59FB4F958F80937A0401C0808121
:10070000FF91EF919F918F912F910F900BBE0F90C2
:100710000FBE0F901F901895362F90E0FC01EA5203
:10072000FE4F4491FC01E057FE4F2491FC01E65B33
:10073000FE4F9491992309F46BC0442309F455C0EA
:1007400050E0FA013197E231F10508F04EC08827F8
:10075000EE58FF4F8F4F0C94A813809180008F7735
:1007600007C0809180008F7D03C080918000877FCB
:10077000809380003AC084B58F7702C084B58F7DA6
:1007800084BD33C08091B0008F7703C08091B000EA
:100790008F7D8093B00029C0809190008F7707C033
:1007A000809190008F7D03C080919000877F80931F
:1007B00090001BC08091A0008F7707C08091A0009F
:1007C0008F7D03C08091A000877F8093A0000DC023
:1007D000809120018F7707C0809120018F7D03C019
:1007E00080912001877F80932001E92FF0E0EE0FB8
:1007F000FF1FE05DFE4FA591B4918FB7F894EC9187
:10080000311103C020952E2301C02E2B2C938FBFB6
:100810000895CF93DF9390E0FC01E057FE4F2491C1
:10082000FC01E65BFE4F8491882361F190E0880F24
:10083000991FFC01EA5EFE4FC591D491FC01E05D79
:10084000FE4FA591B491611109C09FB7F8948881BA
:10085000209582238883EC912E230BC0623061F4B3
:100860009FB7F8943881822F809583238883EC91F9
:100870002E2B2C939FBF06C08FB7F894E8812E2BA8
:1008800028838FBFDF91CF9108958F929F92AF926F
:10089000BF92CF92DF92EF92FF926B017C01F7DD66
:1008A0004B015C01C114D104E104F104E9F0EFDD76
:1008B000DC01CB0188199909AA09BB09883E93403C
:1008C000A105B10578F321E0C21AD108E108F108C9
:1008D00088EE880E83E0981EA11CB11CC114D104BF
:1008E000E104F10421F7DECFFF90EF90DF90CF908D
:1008F000BF90AF909F908F9008952FB7F89460911C
:1009000053047091540480915504909156042FBF64
:1009100008951F920F920FB60F9211242F933F93B9
:100920008F939F93AF93BF938091530490915404FE
:10093000A0915504B09156043091520423E0230F46
:100940002D3720F40196A11DB11D05C026E8230F07
:100950000296A11DB11D20935204809353049093DD
:100960005404A0935504B093560480915704909179
:100970005804A0915904B0915A040196A11DB11DCB
:100980008093570490935804A0935904B0935A0449
:10099000BF91AF919F918F913F912F910F900FBE7B
:1009A0000F901F901895DC01ED91FC910190F08162
:1009B000E02D19941F920F920FB60F9211240BB6CF
:1009C0000F922F933F934F935F936F937F938F93E8
:1009D0009F93AF93BF93EF93FF938091B900887F6C
:1009E000803609F49CC068F5883209F45BC090F445
:1009F000803109F454C038F4882309F4F6C08830F3
:100A000009F44DC0F5C0883109F44CC0803209F4B6
:100A10005DC0EEC0803409F468C048F4803309F446
:100A200055C0883309F0E4C080932F04D8C08035C6
:100A300009F44FC0883509F45DC0883409F0D8C086
:100A4000D6C0883909F4C7C0A8F4883709F467C04C
:100A500038F4883609F463C0803709F460C0C8C030
:100A6000883809F4B8C0803909F45FC0803809F0CB
:100A7000BFC05BC0803B09F486C038F4803A09F4FB
:100A800066C0883A09F47FC0B3C0803C09F4A7C0AF
:100A9000883C09F4A4C0883B09F48AC0A9C08091AD
:100AA0002C0410C090912E0480912D04981770F59D
:100AB000E0912E0481E08E0F80932E04F0E0E55F3C
:100AC000FB4F80818093BB0085EC86C080932F0410
:100AD0008EC0E0912E0481E08E0F80932E048091D1
:100AE000BB00F0E0E55FFB4F808390912E04809186
:100AF0002D046EC0E0912E0481E08E0F80932E04B1
:100B00008091BB00F0E0E55FFB4F80838091300473
:100B100081116DC081E080932B0484EA61C083E081
:100B20008093310410920A04CFCF80910A0480325E
:100B300008F051C0E0910A0481E08E0F80930A040E
:100B40008091BB00F0E0E651FC4F8083BDCF85EC87
:100B50008093BC001092310480910A04803230F4FA
:100B6000E0910A04F0E0E651FC4F108260910A0423
:100B700070E0E091E803F091E9038AEE93E01995C3
:100B800010920A0435C084E0809331041092E70388
:100B90001092E603E091E403F091E503199580914A
:100BA000E603811105C081E08093E6031092C4033F
:100BB000E091E70381E08E0F8093E703F0E0EC53D0
:100BC000FC4F80818093BB009091E7038091E60306
:100BD000981708F479CF85E88093BC0009C085ECAC
:100BE0008093BC001092310403C010922F0474DC77
:100BF000FF91EF91BF91AF919F918F917F916F91F5
:100C00005F914F913F912F910F900BBE0F900FBEB0
:100C10000F901F9018951092310481E0809330045A
:100C200010922B0461E084E177DD61E085E174DD01
:100C3000E9EBF0E080818E7F808380818D7F8083EF
:100C400088E48093B80085E48093BC0008952091E7
:100C50005D0490915F04213208F04AC08091310414
:100C60008111FCCF32E03093310431E03093300415
:100C70003FEF30932F0410922E0420932D04A4EA0A
:100C8000B3E04BE054E0FA013E2F341B321718F466
:100C90003D913193F9CF10922C0420912C04990F9F
:100CA000922B90932C0490912B04913061F410922C
:100CB0002B0490912C049093BB009091BC0093FD69
:100CC000F8CF95EC01C095EE9093BC009091310463
:100CD0009230E1F390912F049F3F79F080912F049F
:100CE000803241F080912F04803331F084E005C0E0
:100CF00081E003C082E001C083E010925E041092A4
:100D00005D04109260040895FC01248131E0309369
:100D1000600420935F0410925E0410925D0483854A
:100D2000682B8EEF94E065DC8EEF94E090CF0F930C
:100D30001F93CF938C01C62FE7DF6C2F6460C8012F
:100D4000E3DF6C2F6B7FC801DFDF83EC90E001975E
:100D5000F1F7CF911F910F910895FF920F931F9379
:100D6000CF93DF931F92CDB7DEB78C01F62E962F6F
:100D7000907F692F642BC8014983D9DF80E1F89EF9
:100D8000B00111244981642BC8010F90DF91CF91EC
:100D90001F910F91FF90CBCF41E0DFDF81E090E02A
:100DA00008950F931F93CF93DF931F92CDB7DEB7B4
:100DB0008C01DC018C9191E09093600480935F043E
:100DC00010925E0410925D0411968D919C91129781
:100DD000DC01ED91FC910190F081E02D49831995A2
:100DE000F80181819281DC01ED91FC910190F0810B
:100DF000E02D4981642F1995F801818192810F902E
:100E0000DF91CF911F910F9122CF0F931F93CF931B
:100E1000DF93EC01CB01BA0126E636E646E65FE356
:100E20000E9441139B01AC0160E27CEB8EEB95E4E8
:100E30000E949F1120E030E040E85FE30E943611FD
:100E400020E030E040E05FE30E9437110E9475121D
:100E50000E940C12062F888191E090936004809389
:100E60005F0410925E0410925D0489819A81DC0116
:100E7000ED91FC910190F081E02D60E01995898160
:100E80009A81E5DE8881909131049111FCCF91E047
:100E900090933104909330042FEF20932F041092FD
:100EA0002E0410922D0490932C0490912C04880F02
:100EB000892B80932C0480912B04813061F4109253
:100EC0002B0480912C048093BB008091BC0083FD97
:100ED000F8CF85EC01C085EE8093BC008091310491
:100EE0008130E1F380912E04811103C080912E04A2
:100EF00001C081E0ABE0B4E022E334E0F9019E2FD1
:100F0000921B981718F49D919193F9CF10925C045D
:100F100080935B0489819A81DC01ED91FC910284CC
:100F2000F385E02D1995182F8F76482F406160E0EA
:100F3000CE0137DF402F6EEFCE0133DF412F60E06F
:100F4000CE012FDF65E070E080E090E09EDC412F75
:100F5000406A60E0CE01DF91CF911F910F9121CFC8
:100F60008F929F92AF92BF92CF92DF92EF92FF92B9
:100F70000F931F93CF93DF938C016A017B018091C4
:100F8000A2039091A303D80112962D913C9113973F
:100F900082179307D9F0880F991FFC01EC57FD4F7A
:100FA00061E08081B9DBD8011296ED91FC91139735
:100FB000EE0FFF1FEC57FD4F60E08081ADDBF801C5
:100FC000828193819093A3038093A203D801CD9152
:100FD000DC9183E0CC0FDD1F8A95E1F7C050DE4F36
:100FE00068818091D00898DB6A818091D20894DB77
:100FF0006C818091D40890DB6E818091D6088CDB67
:1010000061E070E080E090E040DCCAE0812C912C4F
:101010005401D8011296ED91FC911397E058FD4FC1
:101020009081963308F0965380917B00292F287089
:10103000877F822B80937B009770906490937C00D5
:1010400080917A00806480937A0080917A0086FD96
:10105000FCCF609178008091790070E0782B072EAA
:10106000000C880B990B0E943A129B01AC01C50140
:10107000B4010E9437114B015C01C15051F620E0D0
:1010800030E040E251E40E949F11A70196010E94C6
:1010900041136B017C018EE580937C0080917B0085
:1010A000877F80937B0080917A00806880937A00AC
:1010B00062E070E080E090E0E8DB80917A0080649C
:1010C00080937A0080917A0086FDFCCF2091780091
:1010D0008091790030E0382B032E000C440B550B27
:1010E00064EB7BE281E190E00E94E910CA01B90162
:1010F0000E943A122FE632E143E85AE30E9441137C
:1011000020E030EC4FE754E40E949F119B01AC01BA
:10111000C701B6010E944113DF91CF911F910F913A
:10112000FF90EF90DF90CF90BF90AF909F908F9007
:101130000895CF92DF92EF92FF920F931F93CF9378
:10114000DF936C017A018B01C0E0D0E0CE15DF05A2
:1011500089F0D8016D918D01D601ED91FC9101903E
:10116000F081E02DC6011995892B11F47E0102C092
:101170002196ECCFC701DF91CF911F910F91FF9086
:10118000EF90DF90CF9008956115710579F0FB0124
:1011900001900020E9F73197AF01461B570BDC01A6
:1011A000ED91FC910280F381E02D199480E090E0B4
:1011B00008958F929F92AF92BF920F931F93CF93F8
:1011C000DF93CDB7DEB7A1970FB6F894DEBF0FBEA1
:1011D000CDBF19A2423008F44AE08E010F5D1F4FC7
:1011E000842E912CA12CB12CA50194010E940511F3
:1011F000E62FB901CA0101501109EA3014F4E05D8B
:1012000001C0E95CD801EC93232B242B252B61F73B
:10121000B80181E694E0B8DFA1960FB6F894DEBF7E
:101220000FBECDBFDF91CF911F910F91BF90AF90B7
:101230009F908F900895EF92FF921F93CF93DF932B
:101240001F92CDB7DEB77C01152FDC018C9191E0A8
:101250009093600480935F0410925E0410925D048A
:1012600011968D919C911297DC01ED91FC91B4E067
:101270006B9F90011124B9016A5F7F4F0190F0814B
:10128000E02D4983199560E070E0F701818192813A
:101290008ADB60E070E0D70111968D919C911297E6
:1012A00082DB4981642F712FF701818192817BDB81
:1012B000612F70E0D70111968D919C91129773DB8D
:1012C000F701818192810F90DF91CF911F91FF9063
:1012D000EF90BDCC63E973E081E694E055CFBC01AB
:1012E00080E090E04AE065CF8F929F92AF92BF92EC
:1012F000CF92DF92EF92FF92CF93DF936B017C014D
:101300009B01AC010E94A413882319F066E973E0E5
:1013100026C046015701E894B7F82FEF3FEF4FE79B
:101320005FE7C501B4010E94A41381110CC02FEF27
:101330003FEF4FE75FE7C501B401FDD718161CF476
:101340006AE973E00CC02FEF3FEF4FE75FE4C7019E
:10135000B6010E943D1318167CF46EE973E081E635
:1013600094E0DF91CF91FF90EF90DF90CF90BF900E
:10137000AF909F908F9008CF2FEF3FEF4FE75FEC3C
:10138000C701B601D8D787FDE8CF20E030E0A9013A
:10139000C701B601D0D787FF11C0E0916104F09179
:1013A00062040190F081E02D6DE281E694E01995F0
:1013B000EC01F7FAF094F7F8F09402C0C0E0D0E046
:1013C0002AE037ED43EA5BE3C701B60150D74B0192
:1013D0005C010E940C126B017C010E9438129B017F
:1013E000AC01C501B40142D74B015C014AE0C70121
:1013F000B601DFDEC80FD91FE0916104F0916204ED
:101400000190F081E02D6EE281E694E01995C80F1D
:10141000D91F20E030E040E251E4C501B4010E9450
:1014200041134B015C01F8D76B01E12CF12C4AE030
:10143000C701B601BEDEC80FD91FC701B6010E94A1
:1014400038129B01AC01C501B40110D720E030E097
:1014500040E251E40E944113DFD780E090E04AE08F
:10146000A8DE8C0F9D1FDF91CF91FF90EF90DF9052
:10147000CF90BF90AF909F908F90089585CECF93DF
:10148000DF9300D01F92CDB7DEB7789484B5826029
:1014900084BD84B5816084BD85B5826085BD85B518
:1014A000816085BD80916E00816080936E00109296
:1014B0008100809181008260809381008091810011
:1014C00081608093810080918000816080938000A2
:1014D0008091B10084608093B1008091B000816000
:1014E0008093B00080919100826080939100809100
:1014F0009100816080939100809190008160809341
:1015000090008091A10082608093A1008091A10051
:1015100081608093A1008091A00081608093A000F1
:10152000809121018260809321018091210181605D
:10153000809321018091200181608093200180911E
:101540007A00846080937A0080917A008260809330
:101550007A0080917A00816080937A0080917A008D
:10156000806880937A001092C10010925C041092FF
:101570005B0410925E0410925D044DDBE0917104F7
:10158000F091720412E01083E0916D04F0916E040A
:101590001082E0916F04F09170048FEC80831092C0
:1015A0007904E0917504F091760486E08083E091FF
:1015B0007304F0917404808180618083E0917304EE
:1015C000F0917404808188608083E0917304F091CD
:1015D0007404808180688083E0917304F0917404C6
:1015E00080818F7D80838091DF0888608093DF0811
:1015F0001093E20862E370E080E090E046D96091E9
:10160000E5088AED98E080DB68EE73E080E090E02A
:101610003CD960E38AED98E08ADBABE4EA2EA6E4ED
:10162000FA2EC7010197F1F760E38AED98E07FDBBE
:10163000C7010197F1F760E38AED98E078DB83E575
:1016400092E00197F1F760E28AED98E070DB60913B
:10165000DF08606240E08AED98E07FDB84E0809301
:10166000E00840E06CE08AED98E077DB40E061E084
:101670008AED98E072DBBBE3EB2EBFE1FB2EC701E6
:101680000197F1F71093E10840E066E08AED98E0F9
:1016900064DB40E062E08AED98E05FDBC701019720
:1016A000F1F71092E50860E08AED98E02DDB40E06C
:1016B00061E08AED98E051DBC7010197F1F740E066
:1016C00060E88AED98E049DB6CEB72E08AED98E027
:1016D000D5DE60E087E39DD860E088E39AD860E0DB
:1016E00089E397D860E08AE394D861E08BE291D8EF
:1016F00061E08DE28ED861E08FE28BD861E081E31A
:1017000088D861E08AE285D861E08CE282D861E025
:101710008EE27FD861E080E37CD860E08AE20E94BC
:101720008C0360E08CE20E948C0360E08EE20E94F9
:101730008C0360E080E30E948C0360E08BE20E94F7
:101740008C0360E08DE20E948C0360E08FE20E94D7
:101750008C0360E081E30E948C0360E086E359D84B
:101760000AEC18E010925C0410925B0410925E0484
:1017700010925D0450DA40E860E0C80112DB6AE0D4
:1017800070E080E090E081D840E050E06AE774E4E7
:10179000C8013BDB40E050E068EC74E4C80135DB95
:1017A0000D5F1F4F28E0003D1207E1F600E215E053
:1017B0002AE035E03C832B83E12CF12C60E070E0E3
:1017C00052E0C52ED12C89E090E066246394712C00
:1017D00025E030E0812C912CFAE7AF2EF4E4BF2E07
:1017E000AB81BC8111961C921E9213961C921E9284
:1017F000129715961C921E92149717961C921E9281
:10180000169719961C921E9218971B961C921E9260
:101810001A97FD01148615861686178650961D9216
:101820001D921D921C92539755961C921E9254978E
:10183000F8011182108258961D921D921D921C92E1
:101840005B97FD01148E158E168E178ED8011A9691
:101850001D921D921D921C921D97F80116861786E7
:10186000108A118A52968D929D92AD92BC92559794
:10187000168A178A108E118E203131052CF0FFEF59
:101880006F1A7F0A20E030E019014FEF241A340A62
:10189000AB81BC8111963C932E9313967C926E92F1
:1018A0001297803191052CF0BFEFCB1ADB0A80E054
:1018B00090E02C01EFEF4E1A5E0AAB81BC811596C9
:1018C0009C938E9314971796DC92CE921697603164
:1018D00071052CF0BFEFEB1AFB0A60E070E09B0192
:1018E0002F5F3F4FEB81FC8171876087F386E28633
:1018F000D8011D921C92C701880F991F8E0D9F1D44
:1019000040E050E08653974F29833A8394DCEB8183
:10191000FC81F096FC83EB83005D1F4F29813A81A7
:10192000EA5CF84009F48FC0B901C201910158CFB7
:101930004CEE51E568EF7FE3C80112DBD8019096C9
:101940006D937D938D939C939397005D1F4FB8E0AB
:101950000A3C1B0769F700E010E040E050E060E857
:101960007FE3C801825F9A4FFBDAF801E65FFA4F26
:1019700064A375A386A397A3005D1F4F003CE3E01B
:101980001E0759F70EE115E022E135E03C832B8379
:10199000EE24E394F12C85E0282E312C570131E020
:1019A000A31AB108D801CD90DC90C114D10409F478
:1019B00058C026E636E646E150E4EB81FC81608DB6
:1019C000718D828D938DB7D418160CF43FC080E3CF
:1019D0008A9DF0018B9DF00D1124E65FFA4F14866D
:1019E000158616861786108A118A128A138A158A16
:1019F000148A178A168A108E118E128E138E148EE8
:101A0000158E168E178E14A615A616A617A68285F5
:101A100093859C01220F331F820F931F40E050E0FB
:101A200060858653974F07DC62EC72E081E694E0B4
:101A300025DDC70154DC6EEC72E081E694E01EDD2A
:101A400049DC0E940F020AE015E072CFF6013197DF
:101A5000E730F10508F054C28827EC57FF4F8F4F4D
:101A600077C6AB81BC8158968D909D90AD90BC900F
:101A70005B9720E030E040E850E4C501B401FDD5BB
:101A800087FD06C022E030E0F801318320830FC0DB
:101A900026E636E646E350E4C501B4014CD41816F8
:101AA0000CF02EC2E1E0F0E0D801ED93FC93D801F8
:101AB0008D919C91019709F036C062EC72E081E64D
:101AC00094E0DCDCC7010BDC65ED72E081E694E0BC
:101AD000D5DCEB81FC81608D718D828D938D04DC72
:101AE0006CED72E081E694E0C9DC6FED72E081E6B6
:101AF00094E0C4DCAB81BC815C966D917D918D914D
:101B00009C915F97F1DB6CED72E081E694E0B6DCCE
:101B100067EE72E081E694E0B1DCEB81FC818685C2
:101B20009785DDDBECC162EC72E081E694E0A6DC37
:101B3000C701D5DB6EEE72E081E694E09FDCCADB84
:101B4000E3E0F0E0D801ED93FC9362EC72E081E613
:101B500094E094DCC701C3DB6EEF72E081E694E0B1
:101B60008DDCB8DBE4E0F0E0D801ED93FC93AB81D1
:101B7000BC8118968D909D90AD90BC901B97811460
:101B80009104A104B104A9F558968D919D910D90F1
:101B9000BC91A02DEB81FC8184839583A683B783C0
:101BA0000E947D04DC01CB018053984FAF4FBF4FA3
:101BB000EB81FC8180879187A287B38762EC72E01A
:101BC00081E694E05BDCC7018ADB68E073E081E6D4
:101BD00094E054DCAB81BC8158966D917D918D91E0
:101BE0009C915B9781DB68E173E081E694E046DCE1
:101BF000FBC120E030E0A901EB81FC81648975899B
:101C00008689978998D3811108C00E947D04681540
:101C100079058A059B0508F084C1D8012D923C9274
:101C200026E636E646E350E4EB81FC81608D718D5B
:101C3000828D938D80D3181694F162EC72E081E668
:101C400094E01CDCC7014BDB6FE273E081E694E0BB
:101C500015DC40DBAB81BC811F961C921E921E9747
:101C600012968D919C9113979C01220F331F820F26
:101C7000931F40E050E06C918653974FDCDA26E0EA
:101C800030E0F8013183208380E090E0A0E7B0E409
:101C9000EB81FC81808F918FA28FB38F31C1AB819B
:101CA000BC811E968D919C911F97892BC9F4EEEEF5
:101CB000F2E01F96FC93EE931E9712968D919C91E5
:101CC00013979C01220F331F820F931F4EEE52E099
:101CD0006C918653974FAFDAD8012D923C9210C188
:101CE00020E030E0A901EB81FC8164897589868957
:101CF000978921D3811110C0AB81BC8118968D903A
:101D00009D90AD90BC901B970E947D04681579054D
:101D10008A059B0508F06AC120E030E04AE754E4F8
:101D2000EB81FC81648D758D868D978DAAD42B01F6
:101D30003C010E947D044B015C01F801808D918D76
:101D4000A28DB38DA5019401281B390B4A0B5B0BA7
:101D5000CA01B9018DD39B01AC01C301B20191D479
:101D600020E03AEB4BE55AE4EAD29B01AC01AB81AF
:101D7000BC8150966D917D918D919C91539777D2B6
:101D8000EB81FC81608B718B828B938BD801589691
:101D90008D929D92AD92BC925B9720E030E04AE735
:101DA00054E4648D758D868D978D6BD44B015C01E9
:101DB00020E030E0A90161D418160CF07BC0F801D6
:101DC0004488558866887788A3019201C501B401CB
:101DD000B2D2882309F46EC0A5019401C301B201F7
:101DE00045D215D36B019B0177FF04C0222733270F
:101DF000261B370BB901330F880B990B3BD32DEC06
:101E00003CEC4CE45EE33DD402D3DB012FEF3FE03A
:101E1000A7D420ED37E040E050E0DBD1AB81BC81BE
:101E20001E968D919C911F971C141D0484F48F3F66
:101E3000BFE09B07E8F41216130614F021E030E02F
:101E4000280F391FEB81FC813787268711C0CD28E9
:101E500079F0009769F01216130614F021E030E0D3
:101E6000821B930BAB81BC811F969C938E931E9714
:101E7000EB81FC81868597858115904140F0EFEFDD
:101E8000FFE0AB81BC811F96FC93EE931E97AB8164
:101E9000BC811E964D915C911F9712968D919C91DD
:101EA00013979C01220F331F820F931F6C9186534F
:101EB000974FC1D962EC72E081E694E0DFDAC701A6
:101EC0000EDA64E473E081E694E0D8DAEB81FC8119
:101ED000608971898289938907DA11C0E7E0F0E0AF
:101EE000D801ED93FC9362EC72E081E694E0C6DAEF
:101EF000C701F5D960E573E081E694E0BFDAEAD97D
:101F0000FFEFEF1AFF0A005D1F4F2B813C81205D20
:101F10003F4F3C832B8335E1E316F10409F03ECDBE
:101F200090CDAB81BC8158962D913D914D915C91A6
:101F30005B9714966D917D918D919C91179796D199
:101F400020E030E04AE754E49CD3EB81FC81248D0F
:101F5000358D468D578DF3D1AB81BC8154966D93F1
:101F60007D938D939C93579762EC72E081E694E0A9
:101F700085DAC701B4D96AE573E081E694E07EDAD8
:101F8000EB81FC816489758986899789ADD969E679
:101F900073E081E694E072DA6FE673E081E694E044
:101FA0006DDAAB81BC8114966D917D918D919C9180
:101FB00017979AD96AE773E081E694E05FDAEB81DC
:101FC000FC81608D718D828D938D8ED965E873E073
:101FD00081E694E053DAAB81BC815C966D917D9192
:101FE0008D919C915F9780D975D917CE24E030E010
:101FF000F8013183208390CECF93DF931092640455
:102000001092630488EE93E0A0E0B0E08093650452
:1020100090936604A0936704B093680420E932E0CB
:10202000309362042093610425EC30E030936E0419
:1020300020936D0424EC30E03093700420936F04FF
:1020400020EC30E0309372042093710421EC30E0F6
:10205000309374042093730422EC30E030937604C0
:102060002093750426EC30E03093780420937704B5
:1020700010927A0410927B0410927C0410927D04DA
:10208000CEEFD4E010920105109200058093020576
:1020900090930305A0930405B093050582EA92E0AE
:1020A0009093FF048093FE041092DD081092DC08E8
:1020B00084EB92E09093DB088093DA088FE38093BF
:1020C000DE0880E18093E30882E08093E4081092C8
:1020D000E50861E08AE20E94090461E08CE20E9466
:1020E000090461E08EE20E94090461E080E30E943D
:1020F00009048AE290E09093D1088093D0088CE2A2
:1021000090E09093D3088093D2088EE290E0909371
:10211000D5088093D40880E390E09093D70880930B
:10212000D60880E48093CA08D093CC08C093CB082B
:1021300081E48093CD08D093CF08C093CE08EAE025
:10214000F5E0AAE1B5E040E050E06AE774E411820E
:1021500010821382128215821482178216821186CF
:1021600010861386128614861586168617861D928B
:102170001D921D921C921397158A148A178A168A2B
:10218000108E118E128E138E148E158E168E178E43
:1021900050961D921D921D921C92539754961D921B
:1021A0001D921D921C92579758964D935D936D9377
:1021B0007C935B975C961D921D921D921C925F977B
:1021C000F096D09688E0EA3CF80709F6DF91CF91C7
:1021D0000895052E97FB16F400940FD057FD05D0F7
:1021E00014D007FC02D046F408C0509540953095B5
:1021F00021953F4F4F4F5F4F089590958095709573
:1022000061957F4F8F4F9F4F0895A1E21A2EAA1B11
:10221000BB1BFD010DC0AA1FBB1FEE1FFF1FA21796
:10222000B307E407F50720F0A21BB30BE40BF50B93
:10223000661F771F881F991F1A9469F7609570951C
:10224000809590959B01AC01BD01CF010895A29F9F
:10225000B001B39FC001A39F700D811D1124911D7A
:10226000B29F700D811D1124911D08955058BB27F8
:10227000AA270ED0B1C1A2D130F0A7D120F031F4FD
:102280009F3F11F41EF497C10EF4E095E7FB64C183
:10229000E92FB3D180F3BA17620773078407950754
:1022A00018F071F49EF5E2C10EF4E0950B2EBA2FF2
:1022B000A02D0B01B90190010C01CA01A00111244C
:1022C000FF27591B99F0593F50F4503E68F11A16F8
:1022D000F040A22F232F342F4427585FF3CF469589
:1022E00037952795A795F0405395C9F77EF41F16AB
:1022F000BA0B620B730B840BBAF09150A1F0FF0F75
:10230000BB1F661F771F881FC2F70EC0BA0F621F60
:10231000731F841F48F4879577956795B795F79550
:102320009E3F08F0B3CF9395880F08F09927EE0FE2
:10233000979587950895ECD008F481E008950CD026
:102340004BC143D140F03AD130F021F45F3F19F056
:1023500003C151118CC12FC150D198F39923C9F3F6
:102360005523B1F3951B550BBB27AA27621773079B
:10237000840738F09F5F5F4F220F331F441FAA1F4F
:10238000A9F333D00E2E3AF0E0E830D0915050400F
:10239000E695001CCAF729D0FE2F27D0660F771FBD
:1023A000881FBB1F261737074807AB07B0E809F09F
:1023B000BB0B802DBF01FF2793585F4F2AF09E3F34
:1023C000510568F0C9C053C15F3FECF3983EDCF3A0
:1023D000869577956795B795F7959F5FC9F7880FAD
:1023E000911D9695879597F90895E1E0660F771FFF
:1023F000881FBB1F621773078407BA0720F0621B90
:10240000730B840BBA0BEE1F88F7E095089504D088
:102410006894B1112CC10895F8D088F09F5790F0BE
:10242000B92F9927B751A0F0D1F0660F771F881FF9
:10243000991F1AF0BA95C9F712C0B13081F016D1C0
:10244000B1E0089513C1672F782F8827B85F39F05E
:10245000B93FCCF3869577956795B395D9F73EF458
:1024600090958095709561957F4F8F4F9F4F089500
:10247000E89409C097FB3EF490958095709561951E
:102480007F4F8F4F9F4F9923A9F0F92F96E9BB27D4
:102490009395F695879577956795B795F111F8CF50
:1024A000FAF4BB0F11F460FF1BC06F5F7F4F8F4FBB
:1024B0009F4F16C0882311F096E911C0772321F0B1
:1024C0009EE8872F762F05C0662371F096E8862F49
:1024D00070E060E02AF09A95660F771F881FDAF7A0
:1024E000880F9695879597F90895A9D080F09F3722
:1024F00040F491110EF0BBC060E070E080E89FEB0B
:10250000089526F41B16611D711D811D2BC045C049
:10251000990F0008550FAA0BE0E8FEEF16161706F4
:10252000E807F907C0F012161306E407F50798F05C
:10253000621B730B840B950B39F40A2661F0232B75
:10254000242B252B21F408950A2609F4A140A695F1
:102550008FEF811D811D089597F99F6780E870E0D6
:1025600060E00895882371F4772321F09850872B39
:10257000762F07C0662311F499270DC09051862B42
:1025800070E060E02AF09A95660F771F881FDAF7EF
:10259000880F9695879597F908959F3F31F0915050
:1025A00020F4879577956795B795880F911D969537
:1025B000879597F908959FEF80EC089500240A9479
:1025C0001616170618060906089500240A9412160E
:1025D0001306140605060895092E0394000C11F441
:1025E000882352F0BB0F40F4BF2B11F460FF04C0EE
:1025F0006F5F7F4F8F4F9F4F089557FD9058440F47
:10260000551F59F05F3F71F04795880F97FB991F51
:1026100061F09F3F79F0879508951216130614060E
:10262000551FF2CF4695F1DF08C01616170618069B
:10263000991FF1CF86957105610508940895E5DF2E
:10264000A0F0BEE7B91788F4BB279F3860F41616D0
:10265000B11D672F782F8827985FF7CF86957795DC
:102660006795B11D93959639C8F30895E894BB27F3
:1026700066277727CB0197F908954ADF08F48FEF93
:1026800008950BD0A9CF9ADF28F09FDF18F095238B
:1026900009F062CF90CF1124EACFAFDFA0F3959F6E
:1026A000D1F3950F50E0551F629FF001729FBB2739
:1026B000F00DB11D639FAA27F00DB11DAA1F649FE5
:1026C0006627B00DA11D661F829F2227B00DA11D98
:1026D000621F739FB00DA11D621F839FA00D611D1E
:1026E000221F749F3327A00D611D231F849F600D3F
:1026F000211D822F762F6A2F11249F5750408AF078
:10270000E1F088234AF0EE0FFF1FBB1F661F771F03
:10271000881F91505040A9F79E3F510570F01CCF83
:10272000A6CF5F3FECF3983EDCF3869577956795EF
:10273000B795F795E7959F5FC1F7FE2B880F911D21
:102740009695879597F90895E3DE880B990B089580
:10275000EE0FFF1F881F8BBF0790F691E02D199495
:1027600076DDB7FF0895821B930B089581E090E01A
:08277000F89400C0F894FFCFBB
:102778000000000000000000010000000000000050
:10278800000001000000000001000100000000003E
:10279800000000000100000001000000010000002E
:1027A800000001000100000001000100010000001C
:1027B800000000000000010001000000000001000E
:1027C80000000100000001000100010000000100FC
:1027D80000000000010001000100000001000100EC
:1027E80000000100010001000100010001000100DA
:1027F8003738393A2B002D002F0031000000000037
:10280800A80199084101EE0172015001640100001C
:102818000000F902CA0228039E02C202AE029F0209
:1028280000000000CC0699082803270348656C6C53
:102838006F004261747465726965203A2000205205
:102848004553455400204C4F573A2000205600204D
:102858004C6F61643A20002050574D3A20002050B8
:1028680052454449534348415247494E4700204343
:1028780048415247494E470020494E495420766FF7
:102888006C746167653A200020494E49542072658E
:1028980073697374616E63652074696D6572002075
:1028A80044495343484152474520636F6D706C65F6
:1028B800746564002043617061636974793A20002B
:1028C8002046494E49534845440020726573697350
:1028D80074616E6365203A2000206D4F686D00209A
:1028E800696E69742056203A2000206C6F6164205C
:1028F80056203A20002063757272656E742041205C
:102908003A20000D0A006E616E00696E66006F76EF
:02291800660057
:020000023000CC
:10E000000D9489F10D94B2F10D94B2F10D94B2F129
:10E010000D94B2F10D94B2F10D94B2F10D94B2F1F0
:10E020000D94B2F10D94B2F10D94B2F10D94B2F1E0
:10E030000D94B2F10D94B2F10D94B2F10D94B2F1D0
:10E040000D94B2F10D94B2F10D94B2F10D94B2F1C0
:10E050000D94B2F10D94B2F10D94B2F10D94B2F1B0
:10E060000D94B2F10D94B2F10D94B2F10D94B2F1A0
:10E070000D94B2F10D94B2F10D94B2F10D94B2F190
:10E080000D94B2F10D94B2F10D94B2F10D94B2F180
:10E090000D94B2F10D94B2F10D94B2F10D94B2F170
:10E0A0000D94B2F10D94B2F10D94B2F10D94B2F160
:10E0B0000D94B2F10D94B2F10D94B2F10D94B2F150
:10E0C0000D94B2F10D94B2F10D94B2F10D94B2F140
:10E0D0000D94B2F10D94B2F10D94B2F10D94B2F130
:10E0E0000D94B2F141546D656761323536300041AF
:10E0F000726475696E6F206578706C6F72657220DE
:10E1000073746B3530305632206279204D4C530099
:10E11000426F6F746C6F616465723E004875683F52
:10E1200000436F6D70696C6564206F6E203D200048
:10E130004350552054797065202020203D20005FF9
:10E140005F4156525F415243485F5F3D2000415658
:10E1500052204C696243205665723D20004743437C
:10E160002056657273696F6E203D20004350552024
:10E1700049442020202020203D20004C6F7720663D
:10E18000757365202020203D20004869676820665F
:10E190007573652020203D200045787420667573D6
:10E1A00065202020203D20004C6F636B2066757336
:10E1B000652020203D20004D617220203720323024
:10E1C000313300312E362E3800342E332E350056A2
:10E1D00023202020414444522020206F7020636F70
:10E1E00064652020202020696E73747275637469E1
:10E1F0006F6E2061646472202020496E74657272B3
:10E20000757074006E6F20766563746F7200726A49
:10E210006D702020006A6D70200057686174207056
:10E220006F72743A00506F7274206E6F7420737541
:10E2300070706F72746564004D7573742062652030
:10E2400061206C6574746572002000577269747483
:10E25000696E672045450052656164696E672045B7
:10E26000450045452065727220636E743D00504F35
:10E27000525400303D5A65726F2061646472003FF1
:10E280003D43505520737461747300403D454550C3
:10E29000524F4D207465737400423D426C696E6B41
:10E2A000204C454400453D44756D70204545505215
:10E2B0004F4D00463D44756D7020464C415348001B
:10E2C000483D48656C70004C3D4C69737420492F83
:10E2D0004F20506F72747300513D51756974005234
:10E2E0003D44756D702052414D00563D73686F7707
:10E2F00020696E7465727275707420566563746FF0
:10E30000727300593D506F727420626C696E6B00BD
:10E310002A0011241FBECFEFD1E2DEBFCDBF01E046
:10E320000CBF12E0A0E0B2E0EEE1FDEF03E00BBFB6
:10E3300002C007900D92A030B107D9F712E0A0E01B
:10E34000B2E001C01D92AE30B107E1F70F9460F367
:10E350000D948DFE01E20EBF0FEF0DBF11241FBE05
:10E360000D9460F30D9400F020E030E040ED57E0B4
:10E3700005C0FA013197F1F72F5F3F4F2817390792
:10E38000C0F308959C01260F311DC901A0E0B0E043
:10E390002F5F3F4FABBFFC018791882361F08093D3
:10E3A000C6008091C00086FFFCCF8091C0008064D1
:10E3B0008093C000EACF08958DE08093C6008091DD
:10E3C000C00086FFFCCF8091C00080648093C000B5
:10E3D0008AE08093C6008091C00086FFFCCF8091C8
:10E3E000C00080648093C00008950F94C2F10F9420
:10E3F000DCF10895FC019081992359F09093C600B7
:10E400008091C00086FFFCCF8091C0008064809323
:10E41000C0003196992379F70895282F982F929567
:10E420009F70892F805D8A3308F0895F8093C600D2
:10E430008091C00086FFFCCF8091C00080648093F3
:10E44000C000822F8F70982F905D9A3308F0995FEB
:10E450009093C6008091C00086FFFCCF8091C000E1
:10E4600080648093C00008959C01FB01853691056E
:10E470001CF46330710594F0C90164E670E00F94F8
:10E480002EFE605D7F4F6093C6008091C00086FFC6
:10E49000FCCF8091C00080648093C0002B30310598
:10E4A00014F43297B4F0C90164E670E00F942EFEC4
:10E4B0006AE070E00F942EFE605D7F4F6093C600AF
:10E4C0008091C00086FFFCCF8091C0008064809363
:10E4D000C000C9016AE070E00F942EFEC0968093E0
:10E4E000C6008091C00086FFFCCF8091C000806490
:10E4F0008093C00008951F93182F8EE692EE60E07F
:10E500000F94C2F11093C6008091C00086FFFCCF2B
:10E510008091C00080648093C0000F94DCF11F9153
:10E5200008952F923F924F925F926F927F928F92B7
:10E530009F92AF92BF92CF92DF92EF92FF920F9392
:10E540001F93DF93CF93CDB7DEB762970FB6F894E2
:10E55000DEBF0FBECDBF382E622ECA01DB015C01CB
:10E560006D01772420E2222E2E010894411C511CBB
:10E570008BC081E0A81680E0B80681E0C80680E084
:10E58000D80628F0C601AA27BB270F940DF2BB2797
:10E59000AD2D9C2D8B2D0F940DF28A2D0F940DF225
:10E5A0002092C6008091C00086FFFCCF8091C00001
:10E5B00080648093C0009DE29093C6008091C0006B
:10E5C00086FFFCCF8091C00080648093C0002092C1
:10E5D000C6008091C00086FFFCCF8091C00080649F
:10E5E0008093C00019828601750188249924A1E0D6
:10E5F0003A1651F03A1620F0B2E03B1661F409C029
:10E600000BBFF701779007C0C7010F9477FE782EF4
:10E6100002C0F7017080872D0F940DF22092C60082
:10E620008091C00086FFFCCF8091C0008064809301
:10E63000C000872D8052F401EF70F0708F3520F408
:10E64000E40DF51D708204C0E40DF51D8EE280839B
:10E650000894E11CF11C011D111D0894811C911CE2
:10E6600090E18916910409F0C2CF80E190E0A0E02A
:10E67000B0E0A80EB91ECA1EDB1E198AC2010F9493
:10E68000FAF10F94DCF16A94662009F072CF629679
:10E690000FB6F894DEBF0FBECDBFCF91DF911F91B3
:10E6A0000F91FF90EF90DF90CF90BF90AF909F9031
:10E6B0008F907F906F905F904F903F902F90089534
:10E6C0002F923F924F925F926F927F928F929F9282
:10E6D000AF92BF92CF92DF92EF92FF920F931F9370
:10E6E000DF93CF93CDB7DEB7CD53D1400FB6F894BB
:10E6F000DEBF0FBECDBF01E20EBF0FEF0DBF94B75F
:10E70000F894A89514BE80916000886180936000A1
:10E7100010926000789493FF05C0E0910002F091A0
:10E7200001021995279A2F9A8091C00082608093E8
:10E73000C00080E18093C40088E18093C1000000A4
:10E74000EE24FF24870144E0A42EB12CCC24DD2448
:10E7500024C0C5010197F1F70894E11CF11C011DCB
:10E76000111D21E2E2162EE4F20620E0020720E06D
:10E77000120718F031E0C32ED12CC801B70127ECE5
:10E780003BE140E050E00F9441FE611571058105C9
:10E79000910519F485B1805885B98091C00087FD35
:10E7A00003C0C114D104A9F2A6014F5F5F4FC25E3E
:10E7B000DE4F59834883CE51D140C25EDE4F8881FF
:10E7C0009981CE51D140019711F00D9410FEC05D9A
:10E7D000DE4F19821882C053D14060E0C15DDE4F28
:10E7E0001882CF52D14088249924C35DDE4F19820C
:10E7F0001882CD52D140C05EDE4F188219821A8233
:10E800001B82C052D140CE5CDE4F188219821A8220
:10E810001B82C253D140EE24FF2487010BBFF701B6
:10E8200007911691C45CDE4F19830883CC53D14005
:10E830000D940BFEC25EDE4F28813981CE51D1404E
:10E840002130310509F52091C600C25EDE4F1982E4
:10E850001882CE51D14022C02F5F3F4F4F4F5F4FA4
:10E86000213082E138078AE7480780E0580780F0C6
:10E87000C45CDE4FE881F981CC53D140EF5FFF4F9C
:10E8800019F0EE27FF27099420E030E040E050E047
:10E890008091C00087FFE0CF2091C600C35DDE4FAE
:10E8A00048815981CD52D1404F5F5F4FC35DDE4FEC
:10E8B00059834883CD52D140213209F063C64A3092
:10E8C000510508F05FC60894811C911C53E0851621
:10E8D000910409F059C600E010E018C081E280936D
:10E8E000C6008091C00086FFFCCF8091C00080648C
:10E8F0008093C0002F5F3F4F2931310579F70F9486
:10E90000DCF10F5F1F4F0530110519F020E030E0FA
:10E91000E5CF10920A0210920B0210920C02109294
:10E920000D02109206021092070210920802109235
:10E930000902109202021092030210920402109235
:10E9400005028FEE90EE60E00F94F5F180E191EE1C
:10E9500060E00F94C2F18091C00087FFFCCF9091DE
:10E96000C600903608F09F759032B8F09093C600BC
:10E970008091C00086FFFCCF8091C00080648093AE
:10E98000C000A0E2A093C6008091C00086FFFCCF2B
:10E990008091C00080648093C000983409F4D7C18E
:10E9A0009934B8F4923409F459C1933458F490333B
:10E9B00019F1903308F4E3C59F33A1F1903409F0C5
:10E9C000DEC5BDC0953409F470C1963409F0D7C5D1
:10E9D00098C1923509F42BC2933538F49C3409F46C
:10E9E000F5C1913509F0CBC518C2963509F445C279
:10E9F000993509F0C4C567C483E792EE62E00F94CD
:10EA0000F5F110920602109207021092080210927D
:10EA1000090210920A0210920B0210920C0210923C
:10EA20000D0213C18FE792EE62E00F94F5F18FEEC5
:10EA300090EE60E00F94F5F181E291EE60E00F94CA
:10EA4000C2F187EB91EE60E00F94F5F180E391EE77
:10EA500060E00F94C2F184EE90EE60E00F94F5F167
:10EA60008FE391EE60E00F94C2F186E090E061E008
:10EA700070E00F9434F20F94DCF18DE591EE60E0DC
:10EA80000F94C2F189EC91EE60E00F94F5F18EE401
:10EA900091EE60E00F94C2F183EC91EE60E00F9490
:10EAA000F5F18CE691EE60E00F94C2F18EE10F94E7
:10EAB0000DF288E90F940DF281E00F940DF20F949E
:10EAC000DCF18BE791EE60E00F94C2F119E0E0E039
:10EAD000F0E010935700E4918E2F0F940DF20F94F5
:10EAE000DCF18AE891EE60E00F94C2F1E3E0F0E03F
:10EAF00010935700E4918E2F0F940DF20F94DCF1D8
:10EB000089E991EE60E00F94C2F1E2E0F0E0109349
:10EB10005700E4918E2F0F940DF20F94DCF188EAE8
:10EB200091EE60E00F94C2F1E1E0F0E01093570045
:10EB30001491812F0F940DF20F94DCF107CF8BE825
:10EB400092EE62E00F94F5F18BE492EE60E00F94A8
:10EB5000F5F10F94DCF100E010E019C0C8016F2D51
:10EB60000F947FFEFF2031F489E492EE60E00F9471
:10EB7000C2F10BC0F092C6008091C00086FFFCCFAE
:10EB80008091C00080648093C0000F5F1F4FC80158
:10EB900081519F41A0E0B0E0ABBFFC01F790BAE229
:10EBA000FB1621F0E2E000301E07C1F60F94DCF105
:10EBB0000F94DCF187E592EE60E00F94F5F10F948D
:10EBC000DCF1CC24DD2400E010E01EC0C8010F946D
:10EBD00077FEF82E882331F489E492EE60E00F94FA
:10EBE000C2F10BC08093C6008091C00086FFFCCFAD
:10EBF0008091C00080648093C000FE1419F00894D6
:10EC0000C11CD11C0F5F1F4FC80181519F41A0E063
:10EC1000B0E0ABBFFC01E790FAE2EF1621F022E092
:10EC20000030120799F60F94DCF10F94DCF182E6C4
:10EC300092EE60E00F94C2F1C60161E070E00F94C3
:10EC400034F20F94DCF10F94DCF110920202109276
:10EC50000302109204021092050278CE89E992EE26
:10EC600062E00F94F5F1279A2F9A16C02F9880E052
:10EC700090E0E0EDF7E03197F1F7019684369105E9
:10EC8000C1F72F9A80E090E0E0EDF7E03197F1F7DF
:10EC9000019684369105C1F78091C00087FFE6CFC9
:10ECA0008091C00087FFFCCF64C485EA92EE62E0E9
:10ECB0000F94F5F140910202509103026091040219
:10ECC0007091050281E020E10F9491F2809102029F
:10ECD00090910302A0910402B091050280509F4FD1
:10ECE000AF4FBF4F8093020290930302A0930402A0
:10ECF000B093050280509041A040B04008F426CE69
:10ED0000A4CF83EB92EE62E00F94F5F140910602FE
:10ED100050910702609108027091090280E020E1A1
:10ED20000F9491F28091060290910702A09108023F
:10ED3000B091090280509F4FAF4FBF4F80930602A2
:10ED400090930702A0930802B0930902FFCD80ECD4
:10ED500092EE62E00F94F5F183E792EE60E00F949B
:10ED6000F5F18FE792EE60E00F94F5F18BE892EE0B
:10ED700060E00F94F5F189E992EE60E00F94F5F10F
:10ED800085EA92EE60E00F94F5F183EB92EE60E09D
:10ED90000F94F5F180EC92EE60E00F94F5F187ECC2
:10EDA00092EE60E00F94F5F188ED92EE60E00F9442
:10EDB000F5F18FED92EE60E00F94F5F18AEE92EEB0
:10EDC00060E00F94F5F183E093EEBDCD87EC92EE19
:10EDD00062E00F94F5F181E40F947BF282E40F94EA
:10EDE0007BF283E40F947BF284E40F947BF285E45E
:10EDF0000F947BF286E40F947BF287E40F947BF20E
:10EE000088E40F947BF28AE40F947BF28BE40F94F6
:10EE10007BF28CE40F947BF299CD88ED92EE62E068
:10EE20000F94F5F1772473948824992409C48FED05
:10EE300092EE62E00F94F5F140910A0250910B02BC
:10EE400060910C0270910D0282E020E10F9491F22A
:10EE500080910A0290910B02A0910C02B0910D02D8
:10EE600080509F4FAF4FBF4F80930A0290930B0289
:10EE7000A0930C02B0930D0269CD8AEE92EE62E08F
:10EE80000F94F5F184EE90EE60E00F94F5F18FECC5
:10EE900091EE60E00F94F5F1662477244301CC5D98
:10EEA000DE4F19821882C452D140D401C301B695F5
:10EEB000A79597958795CA5DDE4F88839983AA8326
:10EEC000BB83C652D140CC5DDE4FA881B981C4520C
:10EED000D1401196CC5DDE4FB983A883C452D14096
:10EEE000CD0162E070E00F9434F2B0E2B093C6005E
:10EEF0008091C00086FFFCCF8091C0008064809329
:10EF0000C000EDE2E093C6008091C00086FFFCCF18
:10EF10008091C00080648093C000F0E2F093C6004E
:10EF20008091C00086FFFCCF8091C00080648093F8
:10EF3000C000CA5DDE4FE880F9800A811B81C6529D
:10EF4000D140BB27A12F902F8F2D0F940DF2CA5DBA
:10EF5000DE4F8881C652D1400F940DF2B0E2FB2EF5
:10EF6000F092C6008091C00086FFFCCF8091C00067
:10EF700080648093C0000DE30093C6008091C000C0
:10EF800086FFFCCF8091C00080648093C00010E2B7
:10EF90001093C6008091C00086FFFCCF8091C00016
:10EFA00080648093C0008BBEF3012791C65DDE4F65
:10EFB0002883CA52D140A22EBB24CC24DD2408943D
:10EFC000611C711C811C911C8BBEF3018791282E42
:10EFD0003324442455240894611C711C811C911C09
:10EFE0008BBEF3013791C55DDE4F3883CB52D140E4
:10EFF0000894611C711C811C911C8BBEF30147910C
:10F00000C45DDE4F4883CC52D140ADEFEA2EAFEF66
:10F01000FA2EAFEF0A2FAFEF1A2F6E0C7F1C801E57
:10F02000911E142D032DF22CEE24EA0CFB1C0C1D5A
:10F030001D1D0F940DF220E22093C6008091C000A8
:10F0400086FFFCCF8091C00080648093C000C65DC5
:10F05000DE4F8881CA52D1400F940DF230E23093D6
:10F06000C6008091C00086FFFCCF8091C000806404
:10F070008093C000C45DDE4F8881CC52D1400F9494
:10F080000DF240E24093C6008091C00086FFFCCFA5
:10F090008091C00080648093C000C55DDE4F888190
:10F0A000CB52D1400F940DF250E25093C6008091A4
:10F0B000C00086FFFCCF8091C00080648093C000B8
:10F0C0008FEFE8168FEFF80680E0080780E018075A
:10F0D00031F484E092EE60E00F94C2F1DFC0D80119
:10F0E000C7018070907CA070B0708050904CA040A0
:10F0F000B040D1F52FEF3FE340E050E0E222F322B1
:10F1000004231523CA5DDE4FA880B980CA80DB8046
:10F11000C652D140AE0CBF1CC01ED11EAA0CBB1CD7
:10F12000CC1CDD1C8EE092EE60E00F94C2F1BB2798
:10F13000A12F902F8F2D0F940DF28E2D0F940DF285
:10F1400030E23093C6008091C00086FFFCCF8091F2
:10F15000C00080648093C0004EE34093C60080915D
:10F16000C00086FFFCCF87C08EE09EEFA0E0B0E03D
:10F17000E822F9220A231B239CE0E91694E9F90608
:10F1800090E0090790E0190709F088C0C45DDE4FE0
:10F19000A881CC52D140EA2EFF2400E010E0102FCD
:10F1A0000F2DFE2CEE24C55DDE4FB881CB52D14031
:10F1B000EB0EF11C011D111DD601C501817090706F
:10F1C000A070B070DC0199278827E80EF91E0A1F8D
:10F1D0001B1F20EF30E040E050E0A222B322C42207
:10F1E000D52241E1AA0CBB1CCC1CDD1C4A95D1F7F1
:10F1F000EA0CFB1C0C1D1D1D81E090E0A0E0B0E0BE
:10F20000282239224A225B2235E1220C331C441C7D
:10F21000551C3A95D1F7E20CF31C041D151D57013E
:10F220006801AA0CBB1CCC1CDD1C85E192EE60E0E1
:10F230000F94C2F1C801AA27BB270F940DF2BB2778
:10F24000A12F902F8F2D0F940DF28E2D0F940DF274
:10F2500090E29093C6008091C00086FFFCCF809121
:10F26000C00080648093C000AEE3A093C60080918C
:10F27000C00086FFFCCF8091C00080648093C000F6
:10F28000C601AA27BB270F940DF2BB27AD2D9C2DDD
:10F290008B2D0F940DF28A2D0F940DF20F94DCF14B
:10F2A000CC5DDE4FE881F981C452D140F99709F471
:10F2B0004DCBF4E0EF2EF12C012D112D6E0C7F1CA7
:10F2C000801E911EF2CD83E093EE62E00F94F5F183
:10F2D0008AE192EE60E00F94C2F18091C00087FF56
:10F2E000FCCF1091C6001F751093C6008091C0001E
:10F2F00086FFFCCF8091C00080648093C0000F9493
:10F30000DCF1812F81548A3108F036C1163409F4BA
:10F3100095C0173490F4133409F44EC0143430F40B
:10F320001134F1F0123409F01DC130C0143409F465
:10F3300059C0153409F016C16BC01A3409F4C4C0A1
:10F340001B3438F4173409F48FC0183409F00AC19B
:10F35000A1C01B3409F4D2C01C3409F003C1E8C0B9
:10F360008FEF81B90DC082B1809582B980E090E0C5
:10F37000E0EDF7E03197F1F70196883C9105C1F790
:10F380008091C00087FFEFCF12B8EFC08FEF84B934
:10F390000DC085B1809585B980E090E0E0EDF7E0A3
:10F3A0003197F1F70196883C9105C1F78091C00033
:10F3B00087FFEFCF15B8D9C08FEF87B90DC088B1DF
:10F3C000809588B980E090E0E0EDF7E03197F1F7C3
:10F3D0000196883C9105C1F78091C00087FFEFCF6F
:10F3E00018B8C3C08FEF8AB90DC08BB180958BB9A7
:10F3F00080E090E0E0EDF7E03197F1F70196883C8E
:10F400009105C1F78091C00087FFEFCF1BB8ADC059
:10F410008FEF8DB90DC08EB180958EB980E090E0F0
:10F42000E0EDF7E03197F1F70196883C9105C1F7DF
:10F430008091C00087FFEFCF1EB897C08FEF80BBD1
:10F440000DC081B3809581BB80E090E0E0EDF7E0F6
:10F450003197F1F70196883C9105C1F78091C00082
:10F4600087FFEFCF11BA81C08FEF83BB0DC084B38C
:10F47000809584BB80E090E0E0EDF7E03197F1F714
:10F480000196883C9105C1F78091C00087FFEFCFBE
:10F4900014BA6BC08FEF809301010FC080910201FD
:10F4A00080958093020180E090E0E0EDF7E03197F5
:10F4B000F1F70196883C9105C1F78091C00087FF64
:10F4C000EDCF1092020151C08FEF809304010FC065
:10F4D0008091050180958093050180E090E0E0ED4A
:10F4E000F7E03197F1F70196883C9105C1F78091DB
:10F4F000C00087FFEDCF1092050137C08FEF8093DA
:10F5000007010FC08091080180958093080180E079
:10F5100090E0E0EDF7E03197F1F70196883C910536
:10F52000C1F78091C00087FFEDCF109208011DC088
:10F530008FEF80930A010FC080910B01809580931B
:10F540000B0180E090E0E0EDF7E03197F1F70196F4
:10F55000883C9105C1F78091C00087FFEDCF1092E4
:10F560000B0103C085E292EEEEC98091C00087FFD7
:10F57000FCCF8091C600EAC988E392EEE4C98CE131
:10F5800091EEE1C988249924933011F1943028F444
:10F59000913089F09230B8F408C0953061F195301F
:10F5A000F0F0963009F048C043C02B3109F042C951
:10F5B00091E06BE13FC96227C15DDE4F2883CF52E6
:10F5C000D14092E037C9B22FA0E0622793E032C960
:10F5D000822F90E0A82BB92B622794E02BC92E3004
:10F5E00009F039C3622795E0C05DDE4F19821882A9
:10F5F000C053D1401FC9E1E0F0E0EC0FFD1FC05D3A
:10F60000DE4F08811981C053D140E00FF11F2083E4
:10F610000F5F1F4FC05DDE4F19830883C053D14079
:10F6200062270A171B0709F005C9D80196E002C92D
:10F63000261709F010C303C0973009F0FBC87724E0
:10F640009981933109F412C19431C8F4963009F4C8
:10F65000D8C0973050F4923009F406C1933009F4C1
:10F660006DC0913009F059C253C0913109F477C08F
:10F67000923108F0BBC0903109F04FC2F5C098310B
:10F6800009F487C0993150F4953109F4EFC09531F0
:10F6900008F4C6C1963109F040C2C2C19A3109F4DA
:10F6A0006CC09A3108F491C09B3109F45BC09D3164
:10F6B00009F033C29D81903359F48F81882311F46E
:10F6C0009EE11CC0813011F091E018C098E916C08D
:10F6D000892F807591F0903539F4E0E0F0E089E011
:10F6E0008093570094910AC0983539F4E3E0F0E034
:10F6F00089E080935700949101C090E01A821B82A8
:10F700008D818C831D829E831F8227E030E009C299
:10F710001A8288E08B8381E48C8386E58D8382E581
:10F720008E8389E48F8383E5888780E589878FE5E9
:10F730008A8782E38B872BE030E0F3C18A818139AD
:10F7400041F0823941F0803911F48FE005C080E04A
:10F7500003C082E001C08AE01A828B8344C0772410
:10F76000739482C08D81882311F48EE12CC0813086
:10F7700011F081E028C088E926C01A82E1E0F0E0BB
:10F7800089E08093570084918B831C8224E030E0D1
:10F79000C8C18B81803589F48C81883039F4E2E0EE
:10F7A000F0E089E08093570084910DC0E0E0F0E044
:10F7B00089E080935700849106C0E3E0F0E089E09F
:10F7C0008093570084911A82DFCF8D81836C99E0FA
:10F7D000E1E0F0E0082E90935700E89507B600FCB2
:10F7E000FDCF1A821B8223E030E09BC180EC8A832C
:10F7F000CE5CDE4F188219821A821B82C253D1401E
:10F800008EC18A8190E0A0E0B0E0582F44273327D2
:10F8100022278B8190E0A0E0B0E0DC0199278827C7
:10F82000282B392B4A2B5B2B8D8190E0A0E0B0E098
:10F83000282B392B4A2B5B2B8C8190E0A0E0B0E089
:10F84000BA2FA92F982F8827282B392B4A2B5B2BCF
:10F85000220F331F441F551FC05EDE4F288339839C
:10F860004A835B83C052D1401A8259C13A81C95C34
:10F87000DE4F3883C753D140CA5CDE4F1882C6536F
:10F88000D1408B81C82EDD24CA5CDE4F488159816E
:10F89000C653D140C42AD52A933109F082C0CE5C28
:10F8A000DE4F88819981AA81BB81C253D1408050AB
:10F8B000904CA340B04030F583E0CE5CDE4FE88052
:10F8C000F9800A811B81C253D140F70100935B008C
:10F8D00080935700E89507B600FCFDCFCE5CDE4F65
:10F8E000088119812A813B81C253D14000501F4FAA
:10F8F0002F4F3F4FCE5CDE4F088319832A833B8313
:10F90000C253D140C05EDE4F488159816A817B81FC
:10F91000C052D140DE011B9631E08C9111962C91A2
:10F9200011971296C75CDE4F2883C953D140C85C3B
:10F93000DE4F1882C853D14090E0C85CDE4FE881AA
:10F94000F981C853D1408E2B9F2B0C01FA01609393
:10F950005B0030935700E89511244E5F5F4F6F4F67
:10F960007F4F0EEFE02E0FEFF02ECE0CDF1CC114F8
:10F97000D10499F685E0C05EDE4F088119812A81A5
:10F980003B81C052D140F80120935B008093570027
:10F99000E89507B600FCFDCF81E180935700E8951C
:10F9A00035C0C05EDE4F88819981AA81BB81C0527B
:10F9B000D140B695A795979587957C018601ABE0D8
:10F9C000AA2EB12CAC0EBD1E0BC0D5016D915D01F0
:10F9D000C7010F947FFE0894E11CF11C01501040F8
:10F9E0000115110591F7A60160E070E0440F551F65
:10F9F000661F771FC05EDE4FE880F9800A811B8199
:10FA0000C052D1404E0D5F1D601F711F1A82C05E33
:10FA1000DE4F488359836A837B83C052D1407FC0C5
:10FA2000FA80C55CDE4FF882CB53D140C65CDE4F16
:10FA30001882CA53D1408B81C82EDD24C65CDE4FAC
:10FA400008811981CA53D140C02AD12A1A828981DA
:10FA5000BE016D5F7F4F843121F59601C05EDE4FA0
:10FA6000E880F9800A811B81C052D1400BBFF701A9
:10FA700087919691DB018C9311969C936E5F7F4FDB
:10FA8000D801C7010296A11DB11DC05EDE4F88835B
:10FA90009983AA83BB83C052D14022503040F1F6F3
:10FAA00036C0C05EDE4F288139814A815B81C052F9
:10FAB000D1400894C108D108760100E010E0089414
:10FAC000C11CD11C0894E11CF11C011D111DE20E8A
:10FAD000F31E041F151F21BDBB27A52F942F832FB5
:10FAE00082BD2F5F3F4F4F4F5F4FF89A80B5DB01CC
:10FAF0008D93BD012E153F054007510761F7C05E8C
:10FB0000DE4F288339834A835B83C052D1409601FC
:10FB10002D5F3F4FFB01108204C080EC8A8322E0FE
:10FB200030E08BE18093C6008091C00086FFFCCF5F
:10FB30008091C00080648093C000C15DDE4FF88179
:10FB4000CF52D140F093C6008091C00086FFFCCF19
:10FB50008091C00080648093C000432F3093C60022
:10FB60008091C00086FFFCCF8091C00080648093AC
:10FB7000C000922F2093C6008091C00086FFFCCF6A
:10FB80008091C00080648093C0008EE08093C600A6
:10FB90008091C00086FFFCCF8091C000806480937C
:10FBA000C00065E1C15DDE4FE880CF52D1406E25D7
:10FBB00069276427FE01319610C090819093C6009A
:10FBC0008091C00086FFFCCF31968091C000806498
:10FBD0008093C0006927215030402115310569F715
:10FBE0006093C6008091C00086FFFCCF8091C0006A
:10FBF00080648093C00085B1805885B9772081F4F6
:10FC0000C15DDE4F0881CF52D1400F5FC15DDE4F35
:10FC10000883CF52D14090E0A0E0B0E00D941AF4F8
:10FC200027982F9880E090E020ED37E0F901319798
:10FC3000F1F7019684369105C9F700008091C00064
:10FC40008D7F8093C00081E180935700E895EE2777
:10FC5000FF270994FFCF90E00D941AF497FB092E2B
:10FC600007260AD077FD04D02ED006D000201AF443
:10FC7000709561957F4F0895F6F7909581959F4F08
:10FC80000895A1E21A2EAA1BBB1BFD010DC0AA1FDD
:10FC9000BB1FEE1FFF1FA217B307E407F50720F0F5
:10FCA000A21BB30BE40BF50B661F771F881F991F70
:10FCB0001A9469F760957095809590959B01AC01B9
:10FCC000BD01CF010895AA1BBB1B51E107C0AA1FAC
:10FCD000BB1FA617B70710F0A61BB70B881F991FED
:10FCE0005A95A9F780959095BC01CD010895F99991
:10FCF000FECF92BD81BDF89A992780B50895262F31
:10FD0000F999FECF1FBA92BD81BD20BD0FB6F89400
:0EFD1000FA9AF99A0FBE01960895F894FFCF63
:040000033000E000E9
:00000001FF