:1000000017C1000046C1000044C1000042C1000009
:1000100040C100003EC100003CC100003AC10000E8
:1000200038C1000036C1000034C1000032C10000F8
:1000300030C100002EC100002CC100002AC1000008
:1000400028C1000026C1000024C1000022C1000018
:1000500020C100001EC100001CC10000A5C300009B
:1000600018C100000C94DF0B0C94B50B12C10000FA
:1000700010C100000EC100000CC100000AC1000048
:1000800008C1000006C1000004C1000002C1000058
:1000900000C10000FEC00000FCC00000D6C300008C
:1000A000F8C00000F6C00000F4C00000F2C000007C
:1000B000F0C00000EEC00000ECC00000EAC000008C
:1000C000E8C00000E6C00000E4C00000E2C000009C
:1000D000E0C00000DEC00000DCC00000DAC00000AC
:1000E000D8C00000E702EA02D902DD02E1022103E2
:1000F000EE02F202F802FC02000306030A030E03FA
:100100002103140318031C0356077307B507D2070E
:10011000CF090A08DF081709BE110B1245125A123F
:100120006F12D4137F1593150000210024002700BF
:100130002A002D00300033000101000004010701F6
:100140000A0100002200250028002B002E003100AB
:10015000340002010000050108010B010505050539
:10016000070508080808020202020A0A080804042F
:10017000040401010101010101010303030303035D
:100180000303040707070C0C0C0C0C0C0C0C0202EC
:10019000020206060606060606060B0B0B0B0B0BE9
:1001A0000B0B010210202008081020401020408076
:1001B000020102010804020101020408102040802B
:1001C00080402010080402018004020180402010B9
:1001D0000804020108040201010204081020408002
:1001E000010204081020408000000A0B02090C0DD7
:1001F0000E080703040100000000000000000000DA
:1002000000000000000000000000000000000000EE
:1002100000000000121110000000000000000000AB
:1002200000000000000000000000000000003B167D
:1002300011241FBECFEFD1E2DEBFCDBF00E00CBF67
:1002400014E0A0E0B2E0E0E2F4E300E00BBF02C0A3
:1002500007900D92AE38B107D9F72AE0AEE8B4E0C6
:1002600001C01D92AC3DB207E1F711E0C8E1D1E059
:1002700000E006C021970109802FFE010E94FC19B1
:10028000C731D10780E00807A9F70E94420E0C94FD
:100290000E1AB6CEFC01918D828D981761F0828D79
:1002A000DF01A80FB11D5D968C91928D9F5F9F73AA
:1002B000928F90E008958FEF9FEF0895FC01918D4C
:1002C000828D981731F0828DE80FF11D858D90E0B9
:1002D00008958FEF9FEF0895FC01918D228D892F56
:1002E00090E0805C9F4F821B91098F73992708953E
:1002F00080E090E0892B21F00E94420B811125C003
:1003000080E090E0892B41F080E090E0892B21F0A3
:100310000E94000081111CC080E090E0892B41F018
:1003200080E090E0892B21F00E940000811113C031
:1003300080E090E0892BA1F080E090E0892B81F0B3
:100340000E94000081110AC008950E940000D8CFC9
:100350000E940000E1CF0E940000EACF0C94000050
:1003600008953FB7F8948091430590914405A0917A
:100370004505B091460526B5A89B05C02F3F19F04D
:100380000196A11DB11D3FBFBA2FA92F982F882715
:10039000820F911DA11DB11DBC01CD0142E0660F70
:1003A000771F881F991F4A95D1F7089585ED80938F
:1003B000BC008091BC0084FDFCCF10921D05089507
:1003C0004091D204262F30E0240F311D2132310517
:1003D000DCF420911D052430C9F4FC0180E090E09C
:1003E000861758F43091D2042191DC01A055BB4FFF
:1003F000A30FB11D2C930196F3CF8091D204680F07
:100400006093D20480E0089581E0089582E0089529
:100410000895E091480580914705E81730F4F0E031
:10042000E25EFA4F808190E008958FEF9FEF08958C
:100430009091480580914705981750F4E92FF0E016
:10044000E25EFA4F208130E09F5F9093480502C042
:100450002FEF3FEFC90108958091470590E020916B
:100460004805821B91090895CF92DF92EF92FF9287
:100470000F931F93CF93DF937C01262F972F8A0131
:1004800080915205882391F0C62FD72F6E01C40E9C
:10049000D51ECC15DD0569F06991D701ED91FC9170
:1004A0000190F081E02DC7011995F3CF642F822FC1
:1004B00087DFC801DF91CF911F910F91FF90EF90DF
:1004C000DF90CF900895CF93DF931F92CDB7DEB723
:1004D0006983209152052223D1F020914F052032CB
:1004E00040F021E030E0FC013383228380E090E0A3
:1004F00014C080915005E82FF0E0E057FB4F998140
:1005000090838F5F8093500580934F0504C061E016
:10051000CE01019655DF81E090E00F90DF91CF9101
:100520000895089580E090E008950E940A1AFC0161
:10053000848DDF01A80FB11DA35ABF4F2C91848D6C
:1005400090E001968F739927848FA689B7892C93A1
:10055000A089B1898C9180648C93938D848D98133C
:1005600006C00288F389E02D80818F7D8083089505
:10057000362F90E0FC01E851FE4F4491FC01EE550E
:10058000FE4F2491FC01E45AFE4F9491992309F403
:100590006BC0442309F455C050E0FA013197E231B1
:1005A000F10508F04EC08827EE58FF4F8F4F0C948E
:1005B000FC19809180008F7707C0809180008F7D2B
:1005C00003C080918000877F809380003AC084B50B
:1005D0008F7702C084B58F7D84BD33C08091B00019
:1005E0008F7703C08091B0008F7D8093B00029C0C9
:1005F000809190008F7707C0809190008F7D03C01D
:1006000080919000877F809390001BC08091A00014
:100610008F7707C08091A0008F7D03C08091A000DC
:10062000877F8093A0000DC0809120018F7707C045
:10063000809120018F7D03C080912001877F80936E
:100640002001E92FF0E0EE0FFF1FEE5BFE4FA591BA
:10065000B4918FB7F894EC91311103C020952E23FB
:1006600001C02E2B2C938FBF0895CF93DF9390E082
:10067000FC01EE55FE4F2491FC01E45AFE4F84919B
:10068000882361F190E0880F991FFC01E85DFE4F1F
:10069000C591D491FC01EE5BFE4FA591B49161111F
:1006A00009C09FB7F8948881209582238883EC91B4
:1006B0002E230BC0623061F49FB7F8943881822FEB
:1006C000809583238883EC912E2B2C939FBF06C0AB
:1006D0008FB7F894E8812E2B28838FBFDF91CF91BD
:1006E0000895863308F0865390917B00282F287058
:1006F000977F922B90937B008770806480937C001F
:1007000080917A00806480937A0080917A0086FDDF
:10071000FCCF809178002091790090E0922B089591
:100720008F929F92AF92BF92CF92DF92EF92FF9201
:100730006B017C0116DE4B015C01C114D104E104A4
:10074000F104E9F00EDEDC01CB0188199909AA0950
:10075000BB09883E9340A105B10578F321E0C21A98
:10076000D108E108F10888EE880E83E0981EA11CEC
:10077000B11CC114D104E104F10421F7DECFFF90D4
:10078000EF90DF90CF90BF90AF909F908F900895A3
:100790002FB7F89460913F05709140058091410515
:1007A000909142052FBF08951F920F920FB60F929E
:1007B00011242F933F938F939F93AF93BF93809177
:1007C0003F0590914005A0914105B09142053091BF
:1007D0003E0523E0230F2D3720F40196A11DB11D06
:1007E00005C026E8230F0296A11DB11D20933E05EA
:1007F00080933F0590934005A0934105B093420537
:100800008091430590914405A0914505B09146051E
:100810000196A11DB11D8093430590934405A093BB
:100820004505B0934605BF91AF919F918F913F9140
:100830002F910F900FBE0F901F901895DC01ED9136
:10084000FC910190F081E02D19941F920F920FB648
:100850000F9211240BB60F922F933F934F935F93F8
:100860006F937F938F939F93AF93BF93EF93FF9378
:100870008091B900887F803609F49CC068F5883281
:1008800009F45BC090F4803109F454C038F4882333
:1008900009F4F6C0883009F44DC0F5C0883109F478
:1008A0004CC0803209F45DC0EEC0803409F468C0E9
:1008B00048F4803309F455C0883309F0E4C08093CC
:1008C0001B05D8C0803509F44FC0883509F45DC0D8
:1008D000883409F0D8C0D6C0883909F4C7C0A8F454
:1008E000883709F467C038F4883609F463C0803764
:1008F00009F460C0C8C0883809F4B8C0803909F468
:100900005FC0803809F0BFC05BC0803B09F486C07F
:1009100038F4803A09F466C0883A09F47FC0B3C05D
:10092000803C09F4A7C0883C09F4A4C0883B09F4C2
:100930008AC0A9C08091180510C090911A058091B5
:100940001905981770F5E0911A0581E08E0F8093D4
:100950001A05F0E0E950FB4F80818093BB0085ECE5
:1009600086C080931B058EC0E0911A0581E08E0F32
:1009700080931A058091BB00F0E0E950FB4F808323
:1009800090911A05809119056EC0E0911A0581E0D9
:100990008E0F80931A058091BB00F0E0E950FB4F69
:1009A000808380911C0581116DC081E080931705C3
:1009B00084EA61C083E080931D051092F604CFCFD6
:1009C0008091F604803208F051C0E091F60481E095
:1009D0008E0F8093F6048091BB00F0E0EA52FB4F4B
:1009E0008083BDCF85EC8093BC0010921D05809163
:1009F000F604803230F4E091F604F0E0EA52FB4F66
:100A000010826091F60470E0E091D404F091D50476
:100A100086ED94E019951092F60435C084E0809339
:100A20001D051092D3041092D204E091D004F091ED
:100A3000D10419958091D204811105C081E0809381
:100A4000D2041092B004E091D30481E08E0F809321
:100A5000D304F0E0E055FB4F80818093BB00909180
:100A6000D3048091D204981708F479CF85E8809355
:100A7000BC0009C085EC8093BC0010921D0503C02A
:100A800010921B0593DCFF91EF91BF91AF919F9165
:100A90008F917F916F915F914F913F912F910F9027
:100AA0000BBE0F900FBE0F901F90189510921D0552
:100AB00081E080931C051092170561E084E158DD08
:100AC00061E085E155DDE9EBF0E080818E7F808398
:100AD00080818D7F808388E48093B80085E4809353
:100AE000BC00089520914F0590915105213208F0E6
:100AF0004AC080911D058111FCCF32E030931D0565
:100B000031E030931C053FEF30931B0510921A051E
:100B100020931905A0E9B4E047EF54E0FA013E2F15
:100B2000341B321718F43D913193F9CF1092180508
:100B300020911805990F922B909318059091170505
:100B4000913061F410921705909118059093BB00B5
:100B50009091BC0093FDF8CF95EC01C095EE909379
:100B6000BC0090911D059230E1F390911B059F3FD1
:100B700079F080911B05803241F080911B05803314
:100B800031F084E005C081E003C082E001C083E071
:100B90001092500510924F05109252050895FC01D5
:100BA000248131E030935205209351051092500575
:100BB00010924F058385682B80EF95E084DC80EFF1
:100BC00095E090CF0F931F93CF938C01C62FE7DF53
:100BD0006C2F6460C801E3DF6C2F6B7FC801DFDF1F
:100BE00083EC90E00197F1F7CF911F910F91089559
:100BF0000F931F93CF938C01C62F607F6160E2DF5C
:100C000080E1C89FB00111246160C801DBDF81E091
:100C100090E0CF911F910F9108950F931F93CF9361
:100C2000DF931F92CDB7DEB78C01DC018C9191E090
:100C300090935205809351051092500510924F05E4
:100C400011968D919C911297DC01ED91FC91019090
:100C5000F081E02D49831995F80181819281DC01B1
:100C6000ED91FC910190F081E02D4981642F19955F
:100C7000F801818192810F90DF91CF911F910F91A7
:100C800031CF0F931F93CF93DF93EC01CB01BA01C8
:100C900026E636E646E65FE30E9495199B01AC0125
:100CA00060E27CEB8EEB95E40E94F31720E030E0ED
:100CB00040E85FE30E948A1720E030E040E05FE315
:100CC0000E948B170E94C9180E946018062F888105
:100CD00091E0909352058093510510925005109227
:100CE0004F0589819A81DC01ED91FC910190F081A1
:100CF000E02D60E0199589819A81F4DE88819091D8
:100D00001D059111FCCF91E090931D0590931C055A
:100D10002FEF20931B0510921A051092190590933E
:100D2000180590911805880F892B809318058091DC
:100D30001705813061F41092170580911805809392
:100D4000BB008091BC0083FDF8CF85EC01C085EE2F
:100D50008093BC0080911D058130E1F380911A05DC
:100D6000811103C080911A0501C081E0A7EFB4E0B2
:100D70002EE135E0F9019E2F921B981718F49D91F2
:100D80009193F9CF109248058093470589819A8104
:100D9000DC01ED91FC910284F385E02D1995182F6B
:100DA0008F76482F406160E0CE0137DF402F6EEF35
:100DB000CE0133DF412F60E0CE012FDF65E070E030
:100DC00080E090E0ADDC412F406A60E0CE01DF9131
:100DD000CF911F910F9121CF1092DB0A60E080ED3F
:100DE0009AE0DDDED5DCDC01CB01885A944EAF4FB2
:100DF000BF4F8093000290930102A0930202B09330
:100E000003020895CF92DF92EF92FF92CF938091E9
:100E10000C0290910D028F3F2FEF9207E9F48EEFB5
:100E20009FEF90930D0280930C02CAD660E081E0A0
:100E3000CED664E273E080ED9AE023D761E085E0EE
:100E4000C6D663E373E080ED9AE01BD7CF91FF90A5
:100E5000EF90DF90CF90C0CF97FD74C2C09000029A
:100E6000D0900102E0900202F090030291DC6C1538
:100E70007D058E059F0508F065C280910C0290915A
:100E80000D022DE3289FF001299FF00D1124E4505D
:100E9000FA4F01A0F2A1E02DE830F10508F07FC281
:100EA0008827EC57FF4F8F4F0C94FC1989D660E0D0
:100EB00083E08DD669E373E080ED9AE0E2D660E0EE
:100EC0008BE085D660910C0270910D026F5F7F4FB1
:100ED000072E000C880B990BA5D661E081E077D630
:100EE00061E473E03AC06CD660E083E070D66EE4F3
:100EF00073E080ED9AE0C5D660E08BE068D6609143
:100F00000C0270910D026F5F7F4F072E000C880B53
:100F1000990B88D661E083E05AD664E973E080EDEE
:100F20009AE0AFD661E088E052D680910C029091B1
:100F30000D022DE3289FF001299FF00D1124E450AC
:100F4000FA4F45A556A567A570A980ED9AE05BD537
:100F500061E08CE03CD66BE973E080ED9AE0CF91E4
:100F6000FF90EF90DF90CF908CC62AD660E083E0B0
:100F70002ED66EE473E080ED9AE083D660E08BE0DD
:100F800026D660910C0270910D026F5F7F4F072E85
:100F9000000C880B990B46D661E081E018D667E516
:100FA00073E0BDCF0DD660E083E011D66EE473E050
:100FB00080ED9AE066D660E08BE009D660910C0285
:100FC00070910D026F5F7F4F072E000C880B990BFD
:100FD00029D661E081E0FBD56DE673E080ED9AE013
:100FE00050D661E08AE0F3D580910C0290910D0219
:100FF0002DE3289FF001299FF00D1124E450FA4FB2
:1010000045A556A567A570A980ED9AE0FCD461E0DE
:101010008EE0A0CFD5D560E081E0D9D56EE573E054
:1010200080ED9AE02ED660E085E0D1D560910C028B
:1010300070910D026F5F7F4F072E000C880B990B8C
:10104000F1D560E088E0C3D580910C0290910D024B
:101050002DE3289FF001299FF00D1124E450FA4F51
:10106000C5A0D6A0E7A0F0A420E030E0A901C70108
:10107000B6010E94911920E030E040E05FE387FD77
:1010800005C0C701B6010E948B1704C0C701B60195
:101090000E948A170E945B18C5D560E08CE097D546
:1010A00063E673E080ED9AE0ECD561E080E08FD5F7
:1010B00080910C0290910D02CDE3C89FF001C99F71
:1010C000F00D1124E450FA4F45A556A567A570A967
:1010D00080ED9AE098D461E084E079D56BE973E023
:1010E00080ED9AE0CED561E086E071D580910C026A
:1010F00090910D02C89FF001C99FF00D1124E4509A
:10110000FA4FC1A4D2A4E3A4F4A420E030E0A901E2
:10111000C701B6010E94911920E030E040E05FE392
:1011200087FD05C0C701B6010E948B1704C0C70127
:10113000B6010E948A170E945B1874D561E089E0AD
:1011400046D567E673E080ED9AE09BD561E08AE0E2
:101150003ED560E080ED9AE04BDD61E08CE037D574
:1011600080910C0290910D022DE3289FF001299FA0
:10117000F00D1124E450FA4FC1A8D2A8E3A8F4A8B6
:1011800020E030E0A901C701B6010E94911920E0DA
:1011900030E040E05FE387FD05C0C701B6010E9473
:1011A0008B1704C0C701B6010E948A170E945B1802
:1011B00039D561E08FE00BD569E673E0CECE00D57E
:1011C00060E083E004D56EE473E080ED9AE059D5E9
:1011D00060E08BE0FCD460910C0270910D026F5FB7
:1011E0007F4F072E000C880B990B1CD561E080E027
:1011F000EED46BE673E080ED9AE043D561E08BE0DE
:10120000E6D480910C0290910D022DE3289FF0010D
:10121000299FF00D1124E450FA4F45A556A567A566
:1012200070A980ED9AE0EFD361E08FE093CEC8D44F
:1012300060E083E0CCD466E773E080ED9AE021D5EE
:1012400060E08CE0C4D460910C0270910D026F5F7D
:101250007F4F072E000C880B990BE4D461E082E0ED
:10126000B6D480910C0290910D022DE3289FF001DD
:10127000299FF00D1124E450FA4FC5A0D6A0E7A095
:10128000F0A420E030E0A901C701B6010E94911945
:1012900020E030E040E05FE387FD05C0C701B60114
:1012A0000E948B1704C0C701B6010E948A170E94D2
:1012B0005B18B8D461E086E08AD463E673E080ED21
:1012C0009AE0DFD461E08AE082D480910C029091B0
:1012D0000D022DE3289FF001299FF00D1124E45009
:1012E000FA4FC1A4D2A4E3A4F4A420E030E0A90101
:1012F000C701B6010E94911920E030E040E05FE3B1
:1013000087FD05C0C701B6010E948B1704C0C70145
:10131000B6010E948A170E945B1884D461E08DE0B8
:1013200056D467E673E080ED9AE0ABD461E08EE0DE
:101330004ED460E080ED9AE0CF91FF90EF90DF9087
:10134000CF9056CCC0900002D0900102E0900202F3
:10135000F09003021DDA6C157D058E059F05F8F0EF
:10136000CD28CE28CF28D9F08EEF9FEF90930D0295
:1013700080930C021092000210920102109202025D
:10138000109203021DD488E08093DB0A60E080EDB8
:101390009AE0CF91FF90EF90DF90CF9000CCCF916B
:1013A000FF90EF90DF90CF9008950F931F93CF930E
:1013B000DF938C01EB0177FD1EC080914D058823E2
:1013C000E1F010924D0580910C0290910D022DE3F9
:1013D000289FF001299FF00D1124E450FA4F12A22A
:1013E00011A2D6D96093490570934A0580934B05A5
:1013F00090934C0502C0C0E0D0E047E050E020E010
:1014000030E08DE3C00FD11FD7FD06C0C431D10538
:101410002CF0C0E0D0E002C0C3E1D0E08C9FF0012E
:101420008D9FF00D1124E450FA4F61A172A1641751
:10143000750791F02F5F3F4F2431310541F447305C
:10144000510501F745E050E020E030E0DBCF2531E9
:101450003105C4F2CFEFDFEFCE01DF91CF911F91C5
:101460000F9108958EE580937C0080917B00877FAB
:1014700080937B0080917A00806880937A0062E09C
:1014800070E080E090E04CD980917A008064809395
:101490007A0080917A0086FDFCCF209178008091BF
:1014A000790030E0382B032E000C440B550B64EB15
:1014B0007BE281E190E00E943D17CA01B9010895E5
:1014C0008F929F92AF92BF92CF92DF92EF92FF9254
:1014D0000F931F93CF93DF938C016A017B0160917F
:1014E0008E0470918F04DC0112968D919C9113975C
:1014F00068177907D9F0660F771FFB01EC56FD4F8F
:1015000061E0808135D8D8011296ED91FC91139756
:10151000EE0FFF1FEC56FD4F60E0808129D8F801E7
:101520008281938190938F0480938E04D801CD9112
:10153000DC9183E0CC0FDD1F8A95E1F7C05FDD4FC2
:1015400068818091C60A14D86A818091C80A10D82F
:101550006C818091CA0A0CD86E818091CC0A08D81F
:1015600061E070E080E090E0DBD8CAE0812C912C53
:101570005401D8011296ED91FC911397E057FD4F5D
:101580008081AFD8BC01990F880B990B0E948E18EF
:101590009B01AC01C501B4010E948B174B015C019A
:1015A000C15039F720E030E040E251E40E94F317E7
:1015B000A70196010E9495196B017C0153DF0E94DF
:1015C0008E182FE632E143E85AE30E94951920E095
:1015D00030E040E85AE30E9495199B01AC01C70135
:1015E000B6010E949519DF91CF911F910F91FF9045
:1015F000EF90DF90CF90BF90AF909F908F90089525
:10160000FC011486158616861786108A118A128A9E
:10161000138A148A158A168A178A108E118E128ED2
:10162000138E10A2148E158E168E178E12A211A272
:1016300014A213A215A216A217A210A611A612A6F2
:1016400013A614A611AE12AE13AE14AE8285938506
:101650009C01220F331F820F931F40E050E06085F2
:101660008054954F71C1FC01538D448D252F30E07E
:10167000842F90E0821B930B541710F0CF9608959F
:101680000197089583E595E00E946C0121E0892B84
:1016900009F420E0822F0895EF92FF920F931F9399
:1016A000CF93DF93EC0181E0888F9B8D8C8D981315
:1016B00005C0E889F989808185FD24C0F62E0B8D4F
:1016C00010E00F5F1F4F0F731127E02E8C8DE81273
:1016D0000CC00FB607FCFACFE889F989808185FF35
:1016E000F5CFCE010E949702F1CF8B8DFE01E80F5E
:1016F000F11DE35AFF4FF0820B8FEA89FB8980814D
:10170000806207C0EE89FF896083E889F98980815A
:101710008064808381E090E0DF91CF911F910F91F1
:10172000FF90EF900895CF93DF93EC01888D88238D
:10173000C9F0EA89FB89808185FD05C0A889B9893E
:101740008C9186FD0FC00FB607FCF5CF808185FF19
:10175000F2CFA889B9898C9185FFEDCFCE010E9487
:101760009702E7CFDF91CF9108951F920F920FB6A6
:101770000F9211240BB60F922F933F934F935F93C9
:101780006F937F938F939F93AF93BF93EF93FF9349
:1017900083E595E00E949702FF91EF91BF91AF9191
:1017A0009F918F917F916F915F914F913F912F9179
:1017B0000F900BBE0F900FBE0F901F9018951F92A9
:1017C0000F920FB60F9211240BB60F922F938F9397
:1017D0009F93EF93FF93E0916305F09164058081FF
:1017E000E0916905F0916A0582FD12C090818091B7
:1017F0006C058F5F8F7320916D05821751F0E0911A
:101800006C05F0E0ED5AFA4F958F80936C0501C09E
:101810008081FF91EF919F918F912F910F900BBE3F
:101820000F900FBE0F901F901895DC01ED91FC9169
:101830000190F081E02D1994CF92DF92EF92FF9208
:101840000F931F93CF93DF936C017A018B01C0E05C
:10185000D0E0CE15DF0589F0D8016D918D01D6015C
:10186000ED91FC910190F081E02DC6011995892B35
:1018700011F47E0102C02196ECCFC701DF91CF9118
:101880001F910F91FF90EF90DF90CF900895611519
:10189000710579F0FB0101900020E9F73197AF0164
:1018A000461B570BDC01ED91FC910280F381E02D8A
:1018B000199480E090E008954F925F926F927F922A
:1018C000EF92FF920F931F93CF93DF93CDB7DEB7C5
:1018D000A1970FB6F894DEBF0FBECDBF7C01FA0111
:1018E000CB0119A2223008F42AE08E010F5D1F4FB0
:1018F000422E512C612C712CBF01A30192010E9438
:101900005917F901CA01015011096A3014F4605DD8
:1019100001C0695CD8016C93232B242B252B61F724
:10192000B801C701B4DFA1960FB6F894DEBF0FBEB1
:10193000CDBFDF91CF911F910F91FF90EF907F90DE
:101940006F905F904F900895EF92FF921F93CF9307
:10195000DF931F92CDB7DEB77C01152FDC018C9190
:1019600091E090935205809351051092500510928A
:101970004F0511968D919C911297DC01ED91FC9190
:10198000B4E06B9F90011124B9016A5F7F4F019011
:10199000F081E02D4983199560E070E0F7018181C5
:1019A00092810E941E0460E070E0D70111968D9133
:1019B0009C9112970E941E044981642F712FF70198
:1019C000818192810E941E04612F70E0D7011196DF
:1019D0008D919C9112970E941E04F7018181928142
:1019E0000F90DF91CF911F91FF90EF907BC86EE732
:1019F00074E083E595E04BCFAC0160E070E02AE055
:101A000083E595E059CF8F929F92AF92BF92CF928C
:101A1000DF92EF92FF920F931F93CF93DF93EC012E
:101A20006A017B019A01AB01C701B6010E94F81956
:101A3000882319F061E874E027C046015701E89453
:101A4000B7F82FEF3FEF4FE75FE7C501B4010E9402
:101A5000F81981110DC02FEF3FEF4FE75FE7C50188
:101A6000B4010E94EF1718161CF465E874E00CC06E
:101A70002FEF3FEF4FE75FE4C701B6010E949119D6
:101A8000181684F469E874E0CE01DF91CF911F91BC
:101A90000F91FF90EF90DF90CF90BF90AF909F900D
:101AA0008F90F5CE2FEF3FEF4FE75FECC701B60108
:101AB0000E94EF1787FDE6CF20E030E0A901C701C3
:101AC000B6010E94EF1787FF09C06DE2CE01ADDEBF
:101AD0008C01F7FAF094F7F8F09402C000E010E0FF
:101AE0002AE037ED43EA5BE3C701B6010E948B179A
:101AF0006B017C010E9460184B015C010E948C18F4
:101B00009B01AC01C701B6010E948A176B017C01E1
:101B10002AE0B501A401CE01CFDE080F191F6EE245
:101B2000CE0183DE080F191F20E030E040E251E4CF
:101B3000C701B6010E9495194B015C010E94601813
:101B40006B01E12CF12C2AE0B701A601CE01B4DE35
:101B5000080F191FC701B6010E948C189B01AC0128
:101B6000C501B4010E948A1720E030E040E251E450
:101B70000E9495190E946018AB0160E070E02AE0B5
:101B8000CE019ADE800F911FDF91CF911F910F91AF
:101B9000FF90EF90DF90CF90BF90AF909F908F908D
:101BA0000895CF93C82F682F607F80ED9AE00AD800
:101BB00080E1C89FB001112480ED9AE0CF9102C866
:101BC00081E0EFDF8BE39FE10197F1F70895CF9379
:101BD000DF93CDB7DEB728970FB6F894DEBF0FBE00
:101BE000CDBF98E0ECEEF2E0DE01119601900D928F
:101BF0009A95E1F79091D80A961710F46FEF690F54
:101C0000FE013196E60FF11DE60FF11D9081890F5F
:101C1000806828960FB6F894DEBF0FBECDBFDF9167
:101C2000CF91BFCFCF92DF92EF92FF92CF93DF930E
:101C3000AB01BC0177FF1BC06A017B016DE280ED47
:101C40009AE0F3DDEC0144275527BA014C195D09F0
:101C50006E097F092AE080ED9AE02EDE8C0F9D1F31
:101C6000DF91CF91FF90EF90DF90CF9008952AE021
:101C700080ED9AE0DF91CF91FF90EF90DF90CF90D1
:101C80001BCE05CECF93DF93CDB7DEB728970FB627
:101C9000F894DEBF0FBECDBF789484B5826084BD5A
:101CA00084B5816084BD85B5826085BD85B5816060
:101CB00085BD80916E00816080936E0010928100DE
:101CC0008091810082608093810080918100816099
:101CD000809381008091800081608093800080915A
:101CE000B10084608093B1008091B00081608093E6
:101CF000B00080919100826080939100809191006A
:101D00008160809391008091900081608093900029
:101D10008091A10082608093A1008091A1008160E8
:101D20008093A1008091A00081608093A0008091A9
:101D30002101826080932101809121018160809343
:101D400021018091200181608093200180917A009F
:101D5000846080937A0080917A00826080937A0018
:101D600080917A00816080937A0080917A00806807
:101D700080937A001092C100109248051092470596
:101D80001092500510924F050E945605E091630590
:101D9000F091640582E08083E0915F05F091600539
:101DA0001082E0916105F09162058FEC80831092C2
:101DB0006B05E0916705F091680586E08083E0910E
:101DC0006505F0916605808180618083E0916505FD
:101DD000F0916605808188608083E0916505F091CF
:101DE0006605808180688083E0916505F0916605D5
:101DF00080818F7D808380E4D4DE04E012E0D8010E
:101E00006D918D0180ED9AE00E94F805B2E00C30F2
:101E10001B07A9F78091D50A88608093D50A12E044
:101E20001093D80A62E370E080E090E00E94900393
:101E30006091DB0A80ED9AE00E94CF0568EE73E0C6
:101E400080E090E00E94900360E380ED9AE00E94C1
:101E5000E205ABE4EA2EA6E4FA2EC7010197F1F7FA
:101E600060E380ED9AE00E94E205C7010197F1F777
:101E700060E380ED9AE00E94E20583E592E001973D
:101E8000F1F760E280ED9AE00E94E2058091D50AC8
:101E9000806287DE84E08093D60A8CE082DE90DE6A
:101EA0001093D70A86E07DDE82E07BDE8BE39FE144
:101EB0000197F1F70E94020760E087E30E94350373
:101EC00060E088E30E94350360E089E30E94350307
:101ED00060E08AE30E94350361E08BE20E943503F3
:101EE00061E08DE20E94350361E08FE20E943503DC
:101EF00061E081E30E94350361E08AE20E943503DC
:101F000061E08CE20E94350361E08EE20E943503BD
:101F100061E080E30E94350360E08AE20E94B8023B
:101F200060E08CE20E94B80260E08EE20E94B8029B
:101F300060E080E30E94B80260E08BE20E94B80299
:101F400060E08DE20E94B80260E08FE20E94B80279
:101F500060E081E30E94B80260E086E30E943503FE
:101F600000EC1AE0109248051092470510925005B7
:101F700010924F050E94560540E860E0C8010E949B
:101F80000D066AE070E080E090E00E94900340E07F
:101F900050E06AE774E4C8010E94410640E050E066
:101FA00068EC74E4C8010E9441060D5F1F4FEAE02F
:101FB000063C1E07B9F60CE116E02CEF35E03A833B
:101FC0002983E12CF12C60E070E052E0C52ED12C89
:101FD00089E090E066246394712C25E030E0812C48
:101FE000912CFAE7AF2EF4E4BF2EA981BA811196A5
:101FF0001C921E9213961C921E92129715961C927A
:102000001E92149717961C921E92169719961C9260
:102010001E9218971B961C921E921A97FD01148609
:1020200015861686178650961D921D921D921C923B
:102030005397148A158A168A178A58961D921D92EC
:102040001D921C925B97148E158E168E178ED801DA
:102050001C9212961C921E92119714961C921E921C
:102060001397F801158216821782108619961D9211
:102070001D921D921C921C97158616861786108A33
:1020800051961D921D921D921C925497858A968A94
:10209000A78AB08E59961D921D921D921C925C9734
:1020A000203131052CF0BFEF6B1A7B0A20E030E0C5
:1020B0001901EFEF2E1A3E0AA981BA8111963C93BD
:1020C0002E9313967C926E921297803191052CF08C
:1020D000BFEFCB1ADB0A80E090E02C01EFEF4E1A45
:1020E0005E0AA981BA8115969C938E9314971796D0
:1020F000DC92CE921697603171052CF0BFEFEB1A8F
:10210000FB0A60E070E09B012F5F3F4FE981FA819D
:1021100071876087F386E286D80114961C921E921E
:102120001397C701880F991F8E0D9F1D40E050E047
:102130008054954F2D833E8307DCE981FA81FD961B
:10214000FA83E983035C1F4F2D813E81E05CFA40F6
:1021500009F48CC0B901C201910147CF40E050E0C1
:1021600060E070E4C501ACD96B017C01D8012D9110
:102170003D914D915D918D010E9495199B01AC019E
:10218000C701B601C7D6F50165A776A787A790ABAB
:10219000FDE3AF0EB11C22E00C3E1207F9F6A12CB4
:1021A000B12C40E050E060E87FE3C50180509A4FD9
:1021B00087D96B017C01850104501A4F22E835E173
:1021C0004DE25CE30E9495199B01AC01C701B60189
:1021D000A2D6D801D1966D937D938D939C93D4977D
:1021E000BDE3AB0EB11CE4ECAE16E4E0BE06C9F6EE
:1021F0002CE136E038872F830CEFC02E05E0D02E7F
:10220000EE24E394F12C212C312C80914D05811189
:1022100034C0EF81F88581819281892B09F04DC00E
:10222000AF81B8851196ED91FC911297E830F105D8
:1022300008F49EC0FFEF2F1A3F0A2FEFE21AF20AAE
:102240003DE3C30ED11C4F815885435C5F4F5887D7
:102250004F8354E125163104C1F680914D05882342
:1022600009F471C40E9402070E9478010CE912E08F
:102270009CEFA92E95E0B92E71CF80910C02909120
:102280000D028215930529F63DE3329D8001339DB1
:10229000100D112404501A4F23E333E343E350E4B9
:1022A000D8019D966D917D918D919C91D0970E94C2
:1022B000911918160CF4BBC4ACCF23E333E343E10C
:1022C00050E4658576858785908989D618160CF443
:1022D000A7CF80914D0520910C0230910D028823EB
:1022E00019F02215330531F12215330549F0FDE3CC
:1022F000F29FC001F39F900D112484509A4F80D912
:102300000E94EC0621E020934D050E94C803DC01E9
:10231000CB01885A944EAF4FBF4F8093490590939D
:102320004A05A0934B05B0934C0530920D022092C4
:102330000C0210C08090490590904A05A0904B0572
:10234000B0904C050E94C803681579058A059B0565
:1023500008F07DC460E873E083E595E092DCC70196
:102360004BDB6CE873E083E595E08BDC40DB58CF1A
:102370008827E457FF4F8F4F0C94FC19EF81F885A5
:1023800085849684A784B08820E030E040E650E45D
:10239000C501B401C6D787FD03C0E4E0F0E071C217
:1023A00023E333E343E350E4C501B401BAD787FD27
:1023B00041CFE1E0F0E0AF81B8851296FC93EE9357
:1023C00011970E94EC0680914D05811105C0309255
:1023D0000D0220920C021FC01092490510924A056E
:1023E00010924B0510924C0510924D0520910C0255
:1023F00030910D02FDE3F29FC001F39F900D112477
:1024000084509A4FFDD880910C0290910D02821554
:102410009305E9F60FCFAF81B88511968D919C9108
:102420001297019791F560E873E083E595E029DC68
:10243000C701E2DA63E973E083E595E022DCEF812E
:10244000F885458556856785708983E595E0DBDAF3
:102450006AE973E083E595E014DC6DE973E083E5F8
:1024600095E00FDCAF81B88551964D915D916D91EE
:102470007C91549783E595E0C6DA6AE973E083E5D9
:1024800095E0FFDB65EA73E030C360E873E083E565
:1024900095E0F7DBC701B0DA6CEA73E083E595E01D
:1024A000F0DBA5DAE3E0F0E0AF81B8851296FC93AB
:1024B000EE93119760E873E083E595E0E2DBC701F6
:1024C0009BDA6CEB73E083E595E0DBDB90DAE4E02C
:1024D000F0E0AF81B8851296FC93EE931197D60188
:1024E0005C968D909D90AD90BC905F978114910407
:1024F000A104B10409F064C00E94C803DC01CB014F
:1025000084529A4FAF4FBF4FF601848F958FA68F9D
:10251000B78F0E94EC0680914D05811131C0309239
:102520000D0220920C02D6011A968D919C911B9758
:102530009C01220F331F820F931F4FE851E0189622
:102540006C918054954F00DA60E873E083E595E084
:1025500098DBC70151DA66EC73E083E595E091DB27
:102560006DED73E083E595E08CDB0E94320AD6D5F1
:102570002FE632E143E85AE3D8D6AB01BC01EDC007
:102580001092490510924A0510924B0510924C0585
:1025900010924D0520910C0230910D02BDE3B29FC7
:1025A000C001B39F900D112484509A4F29D8809177
:1025B0000C0290910D028215930509F0B0CF3ACE2E
:1025C00020E030E0A901EF81F8856185728583857F
:1025D000948505D58111E0C00E94C803681579056E
:1025E0008A059B0508F4D8C0AF81B8852C91822F4D
:1025F00090E01D964D915D916D917C915097DC011D
:102600001396AA0FBB1FAA0FBB1F3DE3329DF0011B
:10261000339DF00D1124AE0FBF1FA450BA4F4D9340
:102620005D936D937C931397AF81B88551964D91CF
:102630005D916D917C9154970596880F991F880F35
:10264000991FE80FF91FE450FA4F408351836283CA
:1026500073832F5F2C93223008F484C0D6011C961C
:102660002D913D914D915C911F9750966D917D916B
:102670008D919C9153974ED49F7720E030E04AE7AC
:1026800054E453D64B015C01F6012489358946890F
:102690005789608D718D828D938D3CD49B01AC01E7
:1026A0005F77C501B4019FD4AF81B88519966D934A
:1026B0007D938D939C931C9760E873E083E595E090
:1026C000E0DAC70199D969EE73E083E595E0D9DADC
:1026D000EF81F885418552856385748583E595E0B2
:1026E00092D968EF73E083E595E0CBDA80D96FE0AB
:1026F00074E083E595E0C5DAD6011C964D915D91B5
:102700006D917C911F9783E595E07DD968E174E038
:1027100083E595E0B6DAF6014489558966897789BB
:1027200083E595E070D963D961E274E083E595E0D3
:10273000A8DAD60150964D915D916D917C91539799
:1027400083E595E060D96AE274E083E595E099DA83
:10275000F601408D518D628D738D83E595E053D9DF
:1027600046D91AC00E94C803DC01CB0184529A4F9B
:10277000AF4FBF4FF601848F958FA68FB78F82859D
:1027800093859C01220F331F820F931F4BE056E06D
:1027900060858054954FD8D8E5E0F0E0AF81B885EA
:1027A0001296FC93EE93119723E333E343E350E453
:1027B000AF81B8851D966D917D918D919C915097BB
:1027C0000ED418168CF160E873E083E595E059DAD1
:1027D000C70112D963E374E083E595E052DA07D9C3
:1027E000EF81F88514821382D6011A968D919C91FF
:1027F0001B979C01220F331F820F931F40E050E074
:1028000018966C918054954F9FD826E030E0EF8168
:10281000F8853283218380E090E0A0E7B0E48587EB
:102820009687A787B08B06CDAF81B88513968D911B
:102830009C911497892B61F5EBE0F6E01496FC93DC
:10284000EE9313970E94C803AF81B88559966D9394
:102850007D938D939C935C978C91823080F013963E
:102860004D915C911497F601828593859C01220F0E
:10287000331F820F931F60858054954F65D8E5E024
:10288000F0E0AF81B8851296FC93EE931197D2CC0D
:10289000AF81B8858C91823068F4F601848C958C78
:1028A000A68CB78C0E94C803681579058A059B051C
:1028B00008F0DAC120E030E04AE754E4AF81B8859F
:1028C00051966D917D918D919C9154972ED52B01B0
:1028D0003C010E94C8034B015C01EF81F885818DAA
:1028E000928DA38DB48DA5019401281B390B4A0B41
:1028F0005B0BCA01B90110D49B01AC01C301B20149
:1029000014D520E03AEB4BE55AE46DD39B01AC01C2
:10291000AF81B88515966D917D918D919C91189799
:10292000FAD2EF81F8856583768387839087818EDD
:10293000928EA38EB48E8081823008F48DC020E008
:1029400030E04AE754E46189728983899489EDD43F
:102950004B015C0120E030E0A901E3D418160CF033
:102960007BC0AF81B88555962D913D914D915C917D
:10297000589729833A834B835C83C501B4012FD3D5
:10298000882309F469C0EF81F8856380748083012E
:10299000A501940169817A818B819C81BBD28BD303
:1029A0005B019B0177FF04C022273327261B370BCF
:1029B000B901330F880B990BB1D32DEC3CEC4CE4EF
:1029C0005EE3B3D478D3DB012FEF3FE01DD520EDDC
:1029D00037E040E050E051D21A141B0474F4FFEFCA
:1029E0006F16FFE07F06B4F41216130614F021E010
:1029F00030E08301020F131F0DC0AB2859F01614ED
:102A0000170464F41216130614F021E030E0830179
:102A1000021B130B011520E112072CF417FF05C050
:102A200000E010E002C00FEF1FE060167106A1F099
:102A3000AF81B88514961C930E931397F601828587
:102A400093859C01220F331F820F931FA80160857D
:102A50008054954F0E94A40C60E873E083E595E0F4
:102A600010D9C7010E94FC0C68E474E083E595E08E
:102A700008D9AF81B88515964D915D916D917C9186
:102A8000189783E595E00E94030D64E574E083E503
:102A900095E0F7D820E030E04AE754E4EF81F8858C
:102AA000658576858785908940D4AB01BC0183E537
:102AB00095E00E94030D6EE574E083E595E0E1D8B2
:102AC00020E030E04AE754E4AF81B88551966D913B
:102AD0007D918D919C91549728D4AB01BC0183E5E5
:102AE00095E00E94030D68E674E083E595E0C9D89F
:102AF000EF81F885838194810E94FC0C21C0809134
:102B00000C0290910D0297FF06C00E94EC063092D5
:102B10000D0220920C02E7E0F0E0AF81B88512963A
:102B2000FC93EE93119760E873E083E595E0A9D8F4
:102B3000C7010E94FC0C64E774E083E595E0A1D82E
:102B40000E94F70C77CB0E94710320910E02309106
:102B50000F022F3F3F4FA1F49C012E513109223823
:102B6000310530F422E030E030930F0220930E0262
:102B7000805A91098A3A910570F483E090E007C089
:102B8000843E924044F010924E058FEF9FEF909359
:102B90000F0280930E0200910E0210910F020F3F60
:102BA000EFEF1E0761F00E94EC0660910C0270913D
:102BB0000D0277FF04C081E080934E051FC0809115
:102BC0004E0581114FCB0230110579F03CF401150F
:102BD000110549F10130110531F144CB03301105E4
:102BE00081F004301105F9F03DCB81E080934E0572
:102BF0000E94EC0660910C0270910D0281E090E061
:102C00000BC081E080934E050E94EC0660910C029F
:102C100070910D028FEF9FEF0E94D50990930D02E6
:102C200080930C021FCB81E080934E051BCB10924A
:102C30004D050E94C8036093490570934A0580932F
:102C40004B0590934C05C8010E94000BE2CA1092FC
:102C50004D05FDE3F29DC001F39D900D11248450BC
:102C60009A4F0E94000B76CB24E030E0EF81F8858C
:102C7000328321831FCECF93DF931092560510929B
:102C8000550588EE93E0A0E0B0E08093570590935F
:102C90005805A0935905B0935A0528EF32E03093B8
:102CA00054052093530525EC30E0309360052093C4
:102CB0005F0524EC30E0309362052093610520EC41
:102CC00030E0309364052093630521EC30E03093CD
:102CD00066052093650522EC30E03093680520936B
:102CE000670526EC30E030936A0520936905109261
:102CF0006C0510926D0510926E0510926F05C0EF75
:102D0000D5E01092F3051092F2058093F4059093AC
:102D1000F505A093F605B093F7058AE093E090934C
:102D2000F1058093F0051092D30A1092D20A8CE13B
:102D300093E09093D10A8093D00A8FE38093D40AD2
:102D400080E18093D90A82E08093DA0A1092DB0A4C
:102D500061E08AE20E94350361E08CE20E94350363
:102D600061E08EE20E94350361E080E30E9435035A
:102D70008AE290E09093C70A8093C60A8CE290E0C2
:102D80009093C90A8093C80A8EE290E09093CB0A90
:102D90008093CA0A80E390E09093CD0A8093CC0A96
:102DA00080E48093C00AD093C20AC093C10A81E430
:102DB0008093C30AD093C50AC093C40AECEFF5E030
:102DC000ACE1B6E040E050E06AE774E411821082C2
:102DD000138212821582148217821682118610863F
:102DE000138612861486158616861786108A118A0F
:102DF000128A138A148A158A168A178A108E118EDF
:102E0000128E138E148E158E168E178E1C9212969D
:102E10001C921E92119714961C921E92139715964F
:102E20001D921D921D921C92189719961D921D922B
:102E30001D921C921C971D961D921D921D921C9214
:102E4000509751961D921D921D921C925497559623
:102E50004D935D936D937C93589759961D921D9257
:102E60001D921C925C97FD96DD968AE0E03CF80787
:102E700009F0ACCFDF91CF910895052E97FB16F4A2
:102E800000940FD057FD05D014D007FC02D046F4B3
:102E900008C050954095309521953F4F4F4F5F4F5B
:102EA000089590958095709561957F4F8F4F9F4FB6
:102EB0000895A1E21A2EAA1BBB1BFD010DC0AA1F7B
:102EC000BB1FEE1FFF1FA217B307E407F50720F093
:102ED000A21BB30BE40BF50B661F771F881F991F0E
:102EE0001A9469F760957095809590959B01AC0157
:102EF000BD01CF010895A29FB001B39FC001A39F60
:102F0000700D811D1124911DB29F700D811D112422
:102F1000911D08955058BB27AA270ED0B1C1A2D148
:102F200030F0A7D120F031F49F3F11F41EF497C187
:102F30000EF4E095E7FB64C1E92FB3D180F3BA1733
:102F4000620773078407950718F071F49EF5E2C1D4
:102F50000EF4E0950B2EBA2FA02D0B01B9019001B4
:102F60000C01CA01A0011124FF27591B99F0593FF8
:102F700050F4503E68F11A16F040A22F232F342F40
:102F80004427585FF3CF469537952795A795F0408E
:102F90005395C9F77EF41F16BA0B620B730B840BA3
:102FA000BAF09150A1F0FF0FBB1F661F771F881F5B
:102FB000C2F70EC0BA0F621F731F841F48F48795B3
:102FC00077956795B795F7959E3F08F0B3CF9395A2
:102FD000880F08F09927EE0F979587950895ECD004
:102FE00008F481E008950CD04BC143D140F03AD1B0
:102FF00030F021F45F3F19F003C151118CC12FC192
:1030000050D198F39923C9F35523B1F3951B550B70
:10301000BB27AA2762177307840738F09F5F5F4FAB
:10302000220F331F441FAA1FA9F333D00E2E3AF0EC
:10303000E0E830D091505040E695001CCAF729D006
:10304000FE2F27D0660F771F881FBB1F2617370755
:103050004807AB07B0E809F0BB0B802DBF01FF2785
:1030600093585F4F2AF09E3F510568F0C9C053C185
:103070005F3FECF3983EDCF3869577956795B795BF
:10308000F7959F5FC9F7880F911D9695879597F9DA
:103090000895E1E0660F771F881FBB1F6217730753
:1030A0008407BA0720F0621B730B840BBA0BEE1F68
:1030B00088F7E095089504D06894B1112CC1089563
:1030C000F8D088F09F5790F0B92F9927B751A0F00A
:1030D000D1F0660F771F881F991F1AF0BA95C9F7AC
:1030E00012C0B13081F016D1B1E0089513C1672F3D
:1030F000782F8827B85F39F0B93FCCF3869577955C
:103100006795B395D9F73EF4909580957095619544
:103110007F4F8F4F9F4F0895E89409C097FB3EF46F
:1031200090958095709561957F4F8F4F9F4F992314
:10313000A9F0F92F96E9BB279395F6958795779592
:103140006795B795F111F8CFFAF4BB0F11F460FF52
:103150001BC06F5F7F4F8F4F9F4F16C0882311F0AA
:1031600096E911C0772321F09EE8872F762F05C0BE
:10317000662371F096E8862F70E060E02AF09A9559
:10318000660F771F881FDAF7880F9695879597F94E
:103190000895A9D080F09F3740F491110EF0BBC084
:1031A00060E070E080E89FEB089526F41B16611D37
:1031B000711D811D2BC045C0990F0008550FAA0B2A
:1031C000E0E8FEEF16161706E807F907C0F012163A
:1031D0001306E407F50798F0621B730B840B950B3D
:1031E00039F40A2661F0232B242B252B21F4089592
:1031F0000A2609F4A140A6958FEF811D811D08952F
:1032000097F99F6780E870E060E00895882371F483
:10321000772321F09850872B762F07C0662311F46F
:1032200099270DC09051862B70E060E02AF09A95A6
:10323000660F771F881FDAF7880F9695879597F99D
:1032400008959F3F31F0915020F4879577956795C9
:10325000B795880F911D9695879597F908959FEFDB
:1032600080EC089500240A9416161706180609061D
:10327000089500240A9412161306140605060895EC
:10328000092E0394000C11F4882352F0BB0F40F474
:10329000BF2B11F460FF04C06F5F7F4F8F4F9F4FB4
:1032A000089557FD9058440F551F59F05F3F71F036
:1032B0004795880F97FB991F61F09F3F79F087959D
:1032C0000895121613061406551FF2CF4695F1DF26
:1032D00008C0161617061806991FF1CF86957105B6
:1032E000610508940895E5DFA0F0BEE7B91788F4FA
:1032F000BB279F3860F41616B11D672F782F8827DB
:10330000985FF7CF869577956795B11D9395963918
:10331000C8F30895E894BB2766277727CB0197F970
:1033200008954ADF08F48FEF08950BD0A9CF9ADFF4
:1033300028F09FDF18F0952309F062CF90CF112479
:10334000EACFAFDFA0F3959FD1F3950F50E0551F63
:10335000629FF001729FBB27F00DB11D639FAA27EA
:10336000F00DB11DAA1F649F6627B00DA11D661F39
:10337000829F2227B00DA11D621F739FB00DA11D5A
:10338000621F839FA00D611D221F749F3327A00D14
:10339000611D231F849F600D211D822F762F6A2FB0
:1033A00011249F5750408AF0E1F088234AF0EE0F35
:1033B000FF1FBB1F661F771F881F91505040A9F742
:1033C0009E3F510570F01CCFA6CF5F3FECF3983EB7
:1033D000DCF3869577956795B795F795E7959F5FA9
:1033E000C1F7FE2B880F911D9695879597F9089543
:1033F000E3DE880B990B0895EE0FFF1F881F8BBF2C
:103400000790F691E02D199476DDB7FF0895821BA1
:10341000930B089581E090E0F89400C0F894FFCFFA
:10342000581B0000000E1111110A1B00FFFFFFFFC7
:10343000000000000000000001000000000000008B
:103440000000010000000000010001000000000079
:103450000000000001000000010000000100000069
:103460000000010001000000010001000100000057
:103470000000000000000100010000000000010049
:103480000000010000000100010001000000010037
:103490000000000001000100010000000100010027
:1034A0000000010001000100010001000100010015
:1034B0003738393A2B002D002F0031002422A33C4D
:1034C00089A18D3C739E6E3C60B2153C2DD2D63CDA
:1034D000912DA63CB079A83C0745A63CB5A48D3CEF
:1034E0005B24923C8F91A83C94B77B3CCFD2AA3C02
:1034F000344B0B3C2A8CE83BFE8E873C7B2E933C66
:10350000D134BF3CD134BF3C698FD13C0000400076
:1035100014005400000000004C0B1C0C330B930BE8
:103520006C014A015E010000000063023402920255
:1035300008022C021802090200000000F8051C0C09
:1035400092029102426174746572792054657374B9
:103550006572005665722032004261747465722093
:1035600000456D7074792020536C6F7421004261A6
:103570007474657279200050726544697300426109
:10358000742D006D4168006D004100526543686113
:103590007267696E670042617474657269652000C4
:1035A0004261747465726965203A20002052455367
:1035B000455400204C4F573A2000205600204C6FB5
:1035C00061643A20002050574D3A20002050524567
:1035D0004449534348415247494E470020434841DC
:1035E0005247494E470020494E495420726573693D
:1035F0007374616E63652074696D657200202D2D92
:103600002D20564343203A2000207265736973745D
:10361000616E6365203A2000206D4F686D20284957
:1036200045432036313936302D32303033290020B1
:1036300020562D31203A20002020492D31203A20DB
:10364000002020562D32203A20002020492D322003
:103650003A20002044495343484152474520636F74
:103660006D706C657465640020436170616369749A
:10367000793A2000202D2D2D2056203A2000202D93
:103680002D2D2041203A2000202D2D2D2050574D4A
:10369000203A20002046494E4953484544000D0A2F
:0E36A000006E616E00696E66006F7666000057
:020000023000CC
:10E000000D9489F10D94B2F10D94B2F10D94B2F129
:10E010000D94B2F10D94B2F10D94B2F10D94B2F1F0
:10E020000D94B2F10D94B2F10D94B2F10D94B2F1E0
:10E030000D94B2F10D94B2F10D94B2F10D94B2F1D0
:10E040000D94B2F10D94B2F10D94B2F10D94B2F1C0
:10E050000D94B2F10D94B2F10D94B2F10D94B2F1B0
:10E060000D94B2F10D94B2F10D94B2F10D94B2F1A0
:10E070000D94B2F10D94B2F10D94B2F10D94B2F190
:10E080000D94B2F10D94B2F10D94B2F10D94B2F180
:10E090000D94B2F10D94B2F10D94B2F10D94B2F170
:10E0A0000D94B2F10D94B2F10D94B2F10D94B2F160
:10E0B0000D94B2F10D94B2F10D94B2F10D94B2F150
:10E0C0000D94B2F10D94B2F10D94B2F10D94B2F140
:10E0D0000D94B2F10D94B2F10D94B2F10D94B2F130
:10E0E0000D94B2F141546D656761323536300041AF
:10E0F000726475696E6F206578706C6F72657220DE
:10E1000073746B3530305632206279204D4C530099
:10E11000426F6F746C6F616465723E004875683F52
:10E1200000436F6D70696C6564206F6E203D200048
:10E130004350552054797065202020203D20005FF9
:10E140005F4156525F415243485F5F3D2000415658
:10E1500052204C696243205665723D20004743437C
:10E160002056657273696F6E203D20004350552024
:10E1700049442020202020203D20004C6F7720663D
:10E18000757365202020203D20004869676820665F
:10E190007573652020203D200045787420667573D6
:10E1A00065202020203D20004C6F636B2066757336
:10E1B000652020203D20004D617220203720323024
:10E1C000313300312E362E3800342E332E350056A2
:10E1D00023202020414444522020206F7020636F70
:10E1E00064652020202020696E73747275637469E1
:10E1F0006F6E2061646472202020496E74657272B3
:10E20000757074006E6F20766563746F7200726A49
:10E210006D702020006A6D70200057686174207056
:10E220006F72743A00506F7274206E6F7420737541
:10E2300070706F72746564004D7573742062652030
:10E2400061206C6574746572002000577269747483
:10E25000696E672045450052656164696E672045B7
:10E26000450045452065727220636E743D00504F35
:10E27000525400303D5A65726F2061646472003FF1
:10E280003D43505520737461747300403D454550C3
:10E29000524F4D207465737400423D426C696E6B41
:10E2A000204C454400453D44756D70204545505215
:10E2B0004F4D00463D44756D7020464C415348001B
:10E2C000483D48656C70004C3D4C69737420492F83
:10E2D0004F20506F72747300513D51756974005234
:10E2E0003D44756D702052414D00563D73686F7707
:10E2F00020696E7465727275707420566563746FF0
:10E30000727300593D506F727420626C696E6B00BD
:10E310002A0011241FBECFEFD1E2DEBFCDBF01E046
:10E320000CBF12E0A0E0B2E0EEE1FDEF03E00BBFB6
:10E3300002C007900D92A030B107D9F712E0A0E01B
:10E34000B2E001C01D92AE30B107E1F70F9460F367
:10E350000D948DFE01E20EBF0FEF0DBF11241FBE05
:10E360000D9460F30D9400F020E030E040ED57E0B4
:10E3700005C0FA013197F1F72F5F3F4F2817390792
:10E38000C0F308959C01260F311DC901A0E0B0E043
:10E390002F5F3F4FABBFFC018791882361F08093D3
:10E3A000C6008091C00086FFFCCF8091C0008064D1
:10E3B0008093C000EACF08958DE08093C6008091DD
:10E3C000C00086FFFCCF8091C00080648093C000B5
:10E3D0008AE08093C6008091C00086FFFCCF8091C8
:10E3E000C00080648093C00008950F94C2F10F9420
:10E3F000DCF10895FC019081992359F09093C600B7
:10E400008091C00086FFFCCF8091C0008064809323
:10E41000C0003196992379F70895282F982F929567
:10E420009F70892F805D8A3308F0895F8093C600D2
:10E430008091C00086FFFCCF8091C00080648093F3
:10E44000C000822F8F70982F905D9A3308F0995FEB
:10E450009093C6008091C00086FFFCCF8091C000E1
:10E4600080648093C00008959C01FB01853691056E
:10E470001CF46330710594F0C90164E670E00F94F8
:10E480002EFE605D7F4F6093C6008091C00086FFC6
:10E49000FCCF8091C00080648093C0002B30310598
:10E4A00014F43297B4F0C90164E670E00F942EFEC4
:10E4B0006AE070E00F942EFE605D7F4F6093C600AF
:10E4C0008091C00086FFFCCF8091C0008064809363
:10E4D000C000C9016AE070E00F942EFEC0968093E0
:10E4E000C6008091C00086FFFCCF8091C000806490
:10E4F0008093C00008951F93182F8EE692EE60E07F
:10E500000F94C2F11093C6008091C00086FFFCCF2B
:10E510008091C00080648093C0000F94DCF11F9153
:10E5200008952F923F924F925F926F927F928F92B7
:10E530009F92AF92BF92CF92DF92EF92FF920F9392
:10E540001F93DF93CF93CDB7DEB762970FB6F894E2
:10E55000DEBF0FBECDBF382E622ECA01DB015C01CB
:10E560006D01772420E2222E2E010894411C511CBB
:10E570008BC081E0A81680E0B80681E0C80680E084
:10E58000D80628F0C601AA27BB270F940DF2BB2797
:10E59000AD2D9C2D8B2D0F940DF28A2D0F940DF225
:10E5A0002092C6008091C00086FFFCCF8091C00001
:10E5B00080648093C0009DE29093C6008091C0006B
:10E5C00086FFFCCF8091C00080648093C0002092C1
:10E5D000C6008091C00086FFFCCF8091C00080649F
:10E5E0008093C00019828601750188249924A1E0D6
:10E5F0003A1651F03A1620F0B2E03B1661F409C029
:10E600000BBFF701779007C0C7010F9477FE782EF4
:10E6100002C0F7017080872D0F940DF22092C60082
:10E620008091C00086FFFCCF8091C0008064809301
:10E63000C000872D8052F401EF70F0708F3520F408
:10E64000E40DF51D708204C0E40DF51D8EE280839B
:10E650000894E11CF11C011D111D0894811C911CE2
:10E6600090E18916910409F0C2CF80E190E0A0E02A
:10E67000B0E0A80EB91ECA1EDB1E198AC2010F9493
:10E68000FAF10F94DCF16A94662009F072CF629679
:10E690000FB6F894DEBF0FBECDBFCF91DF911F91B3
:10E6A0000F91FF90EF90DF90CF90BF90AF909F9031
:10E6B0008F907F906F905F904F903F902F90089534
:10E6C0002F923F924F925F926F927F928F929F9282
:10E6D000AF92BF92CF92DF92EF92FF920F931F9370
:10E6E000DF93CF93CDB7DEB7CD53D1400FB6F894BB
:10E6F000DEBF0FBECDBF01E20EBF0FEF0DBF94B75F
:10E70000F894A89514BE80916000886180936000A1
:10E7100010926000789493FF05C0E0910002F091A0
:10E7200001021995279A2F9A8091C00082608093E8
:10E73000C00080E18093C40088E18093C1000000A4
:10E74000EE24FF24870144E0A42EB12CCC24DD2448
:10E7500024C0C5010197F1F70894E11CF11C011DCB
:10E76000111D21E2E2162EE4F20620E0020720E06D
:10E77000120718F031E0C32ED12CC801B70127ECE5
:10E780003BE140E050E00F9441FE611571058105C9
:10E79000910519F485B1805885B98091C00087FD35
:10E7A00003C0C114D104A9F2A6014F5F5F4FC25E3E
:10E7B000DE4F59834883CE51D140C25EDE4F8881FF
:10E7C0009981CE51D140019711F00D9410FEC05D9A
:10E7D000DE4F19821882C053D14060E0C15DDE4F28
:10E7E0001882CF52D14088249924C35DDE4F19820C
:10E7F0001882CD52D140C05EDE4F188219821A8233
:10E800001B82C052D140CE5CDE4F188219821A8220
:10E810001B82C253D140EE24FF2487010BBFF701B6
:10E8200007911691C45CDE4F19830883CC53D14005
:10E830000D940BFEC25EDE4F28813981CE51D1404E
:10E840002130310509F52091C600C25EDE4F1982E4
:10E850001882CE51D14022C02F5F3F4F4F4F5F4FA4
:10E86000213082E138078AE7480780E0580780F0C6
:10E87000C45CDE4FE881F981CC53D140EF5FFF4F9C
:10E8800019F0EE27FF27099420E030E040E050E047
:10E890008091C00087FFE0CF2091C600C35DDE4FAE
:10E8A00048815981CD52D1404F5F5F4FC35DDE4FEC
:10E8B00059834883CD52D140213209F063C64A3092
:10E8C000510508F05FC60894811C911C53E0851621
:10E8D000910409F059C600E010E018C081E280936D
:10E8E000C6008091C00086FFFCCF8091C00080648C
:10E8F0008093C0002F5F3F4F2931310579F70F9486
:10E90000DCF10F5F1F4F0530110519F020E030E0FA
:10E91000E5CF10920A0210920B0210920C02109294
:10E920000D02109206021092070210920802109235
:10E930000902109202021092030210920402109235
:10E9400005028FEE90EE60E00F94F5F180E191EE1C
:10E9500060E00F94C2F18091C00087FFFCCF9091DE
:10E96000C600903608F09F759032B8F09093C600BC
:10E970008091C00086FFFCCF8091C00080648093AE
:10E98000C000A0E2A093C6008091C00086FFFCCF2B
:10E990008091C00080648093C000983409F4D7C18E
:10E9A0009934B8F4923409F459C1933458F490333B
:10E9B00019F1903308F4E3C59F33A1F1903409F0C5
:10E9C000DEC5BDC0953409F470C1963409F0D7C5D1
:10E9D00098C1923509F42BC2933538F49C3409F46C
:10E9E000F5C1913509F0CBC518C2963509F445C279
:10E9F000993509F0C4C567C483E792EE62E00F94CD
:10EA0000F5F110920602109207021092080210927D
:10EA1000090210920A0210920B0210920C0210923C
:10EA20000D0213C18FE792EE62E00F94F5F18FEEC5
:10EA300090EE60E00F94F5F181E291EE60E00F94CA
:10EA4000C2F187EB91EE60E00F94F5F180E391EE77
:10EA500060E00F94C2F184EE90EE60E00F94F5F167
:10EA60008FE391EE60E00F94C2F186E090E061E008
:10EA700070E00F9434F20F94DCF18DE591EE60E0DC
:10EA80000F94C2F189EC91EE60E00F94F5F18EE401
:10EA900091EE60E00F94C2F183EC91EE60E00F9490
:10EAA000F5F18CE691EE60E00F94C2F18EE10F94E7
:10EAB0000DF288E90F940DF281E00F940DF20F949E
:10EAC000DCF18BE791EE60E00F94C2F119E0E0E039
:10EAD000F0E010935700E4918E2F0F940DF20F94F5
:10EAE000DCF18AE891EE60E00F94C2F1E3E0F0E03F
:10EAF00010935700E4918E2F0F940DF20F94DCF1D8
:10EB000089E991EE60E00F94C2F1E2E0F0E0109349
:10EB10005700E4918E2F0F940DF20F94DCF188EAE8
:10EB200091EE60E00F94C2F1E1E0F0E01093570045
:10EB30001491812F0F940DF20F94DCF107CF8BE825
:10EB400092EE62E00F94F5F18BE492EE60E00F94A8
:10EB5000F5F10F94DCF100E010E019C0C8016F2D51
:10EB60000F947FFEFF2031F489E492EE60E00F9471
:10EB7000C2F10BC0F092C6008091C00086FFFCCFAE
:10EB80008091C00080648093C0000F5F1F4FC80158
:10EB900081519F41A0E0B0E0ABBFFC01F790BAE229
:10EBA000FB1621F0E2E000301E07C1F60F94DCF105
:10EBB0000F94DCF187E592EE60E00F94F5F10F948D
:10EBC000DCF1CC24DD2400E010E01EC0C8010F946D
:10EBD00077FEF82E882331F489E492EE60E00F94FA
:10EBE000C2F10BC08093C6008091C00086FFFCCFAD
:10EBF0008091C00080648093C000FE1419F00894D6
:10EC0000C11CD11C0F5F1F4FC80181519F41A0E063
:10EC1000B0E0ABBFFC01E790FAE2EF1621F022E092
:10EC20000030120799F60F94DCF10F94DCF182E6C4
:10EC300092EE60E00F94C2F1C60161E070E00F94C3
:10EC400034F20F94DCF10F94DCF110920202109276
:10EC50000302109204021092050278CE89E992EE26
:10EC600062E00F94F5F1279A2F9A16C02F9880E052
:10EC700090E0E0EDF7E03197F1F7019684369105E9
:10EC8000C1F72F9A80E090E0E0EDF7E03197F1F7DF
:10EC9000019684369105C1F78091C00087FFE6CFC9
:10ECA0008091C00087FFFCCF64C485EA92EE62E0E9
:10ECB0000F94F5F140910202509103026091040219
:10ECC0007091050281E020E10F9491F2809102029F
:10ECD00090910302A0910402B091050280509F4FD1
:10ECE000AF4FBF4F8093020290930302A0930402A0
:10ECF000B093050280509041A040B04008F426CE69
:10ED0000A4CF83EB92EE62E00F94F5F140910602FE
:10ED100050910702609108027091090280E020E1A1
:10ED20000F9491F28091060290910702A09108023F
:10ED3000B091090280509F4FAF4FBF4F80930602A2
:10ED400090930702A0930802B0930902FFCD80ECD4
:10ED500092EE62E00F94F5F183E792EE60E00F949B
:10ED6000F5F18FE792EE60E00F94F5F18BE892EE0B
:10ED700060E00F94F5F189E992EE60E00F94F5F10F
:10ED800085EA92EE60E00F94F5F183EB92EE60E09D
:10ED90000F94F5F180EC92EE60E00F94F5F187ECC2
:10EDA00092EE60E00F94F5F188ED92EE60E00F9442
:10EDB000F5F18FED92EE60E00F94F5F18AEE92EEB0
:10EDC00060E00F94F5F183E093EEBDCD87EC92EE19
:10EDD00062E00F94F5F181E40F947BF282E40F94EA
:10EDE0007BF283E40F947BF284E40F947BF285E45E
:10EDF0000F947BF286E40F947BF287E40F947BF20E
:10EE000088E40F947BF28AE40F947BF28BE40F94F6
:10EE10007BF28CE40F947BF299CD88ED92EE62E068
:10EE20000F94F5F1772473948824992409C48FED05
:10EE300092EE62E00F94F5F140910A0250910B02BC
:10EE400060910C0270910D0282E020E10F9491F22A
:10EE500080910A0290910B02A0910C02B0910D02D8
:10EE600080509F4FAF4FBF4F80930A0290930B0289
:10EE7000A0930C02B0930D0269CD8AEE92EE62E08F
:10EE80000F94F5F184EE90EE60E00F94F5F18FECC5
:10EE900091EE60E00F94F5F1662477244301CC5D98
:10EEA000DE4F19821882C452D140D401C301B695F5
:10EEB000A79597958795CA5DDE4F88839983AA8326
:10EEC000BB83C652D140CC5DDE4FA881B981C4520C
:10EED000D1401196CC5DDE4FB983A883C452D14096
:10EEE000CD0162E070E00F9434F2B0E2B093C6005E
:10EEF0008091C00086FFFCCF8091C0008064809329
:10EF0000C000EDE2E093C6008091C00086FFFCCF18
:10EF10008091C00080648093C000F0E2F093C6004E
:10EF20008091C00086FFFCCF8091C00080648093F8
:10EF3000C000CA5DDE4FE880F9800A811B81C6529D
:10EF4000D140BB27A12F902F8F2D0F940DF2CA5DBA
:10EF5000DE4F8881C652D1400F940DF2B0E2FB2EF5
:10EF6000F092C6008091C00086FFFCCF8091C00067
:10EF700080648093C0000DE30093C6008091C000C0
:10EF800086FFFCCF8091C00080648093C00010E2B7
:10EF90001093C6008091C00086FFFCCF8091C00016
:10EFA00080648093C0008BBEF3012791C65DDE4F65
:10EFB0002883CA52D140A22EBB24CC24DD2408943D
:10EFC000611C711C811C911C8BBEF3018791282E42
:10EFD0003324442455240894611C711C811C911C09
:10EFE0008BBEF3013791C55DDE4F3883CB52D140E4
:10EFF0000894611C711C811C911C8BBEF30147910C
:10F00000C45DDE4F4883CC52D140ADEFEA2EAFEF66
:10F01000FA2EAFEF0A2FAFEF1A2F6E0C7F1C801E57
:10F02000911E142D032DF22CEE24EA0CFB1C0C1D5A
:10F030001D1D0F940DF220E22093C6008091C000A8
:10F0400086FFFCCF8091C00080648093C000C65DC5
:10F05000DE4F8881CA52D1400F940DF230E23093D6
:10F06000C6008091C00086FFFCCF8091C000806404
:10F070008093C000C45DDE4F8881CC52D1400F9494
:10F080000DF240E24093C6008091C00086FFFCCFA5
:10F090008091C00080648093C000C55DDE4F888190
:10F0A000CB52D1400F940DF250E25093C6008091A4
:10F0B000C00086FFFCCF8091C00080648093C000B8
:10F0C0008FEFE8168FEFF80680E0080780E018075A
:10F0D00031F484E092EE60E00F94C2F1DFC0D80119
:10F0E000C7018070907CA070B0708050904CA040A0
:10F0F000B040D1F52FEF3FE340E050E0E222F322B1
:10F1000004231523CA5DDE4FA880B980CA80DB8046
:10F11000C652D140AE0CBF1CC01ED11EAA0CBB1CD7
:10F12000CC1CDD1C8EE092EE60E00F94C2F1BB2798
:10F13000A12F902F8F2D0F940DF28E2D0F940DF285
:10F1400030E23093C6008091C00086FFFCCF8091F2
:10F15000C00080648093C0004EE34093C60080915D
:10F16000C00086FFFCCF87C08EE09EEFA0E0B0E03D
:10F17000E822F9220A231B239CE0E91694E9F90608
:10F1800090E0090790E0190709F088C0C45DDE4FE0
:10F19000A881CC52D140EA2EFF2400E010E0102FCD
:10F1A0000F2DFE2CEE24C55DDE4FB881CB52D14031
:10F1B000EB0EF11C011D111DD601C501817090706F
:10F1C000A070B070DC0199278827E80EF91E0A1F8D
:10F1D0001B1F20EF30E040E050E0A222B322C42207
:10F1E000D52241E1AA0CBB1CCC1CDD1C4A95D1F7F1
:10F1F000EA0CFB1C0C1D1D1D81E090E0A0E0B0E0BE
:10F20000282239224A225B2235E1220C331C441C7D
:10F21000551C3A95D1F7E20CF31C041D151D57013E
:10F220006801AA0CBB1CCC1CDD1C85E192EE60E0E1
:10F230000F94C2F1C801AA27BB270F940DF2BB2778
:10F24000A12F902F8F2D0F940DF28E2D0F940DF274
:10F2500090E29093C6008091C00086FFFCCF809121
:10F26000C00080648093C000AEE3A093C60080918C
:10F27000C00086FFFCCF8091C00080648093C000F6
:10F28000C601AA27BB270F940DF2BB27AD2D9C2DDD
:10F290008B2D0F940DF28A2D0F940DF20F94DCF14B
:10F2A000CC5DDE4FE881F981C452D140F99709F471
:10F2B0004DCBF4E0EF2EF12C012D112D6E0C7F1CA7
:10F2C000801E911EF2CD83E093EE62E00F94F5F183
:10F2D0008AE192EE60E00F94C2F18091C00087FF56
:10F2E000FCCF1091C6001F751093C6008091C0001E
:10F2F00086FFFCCF8091C00080648093C0000F9493
:10F30000DCF1812F81548A3108F036C1163409F4BA
:10F3100095C0173490F4133409F44EC0143430F40B
:10F320001134F1F0123409F01DC130C0143409F465
:10F3300059C0153409F016C16BC01A3409F4C4C0A1
:10F340001B3438F4173409F48FC0183409F00AC19B
:10F35000A1C01B3409F4D2C01C3409F003C1E8C0B9
:10F360008FEF81B90DC082B1809582B980E090E0C5
:10F37000E0EDF7E03197F1F70196883C9105C1F790
:10F380008091C00087FFEFCF12B8EFC08FEF84B934
:10F390000DC085B1809585B980E090E0E0EDF7E0A3
:10F3A0003197F1F70196883C9105C1F78091C00033
:10F3B00087FFEFCF15B8D9C08FEF87B90DC088B1DF
:10F3C000809588B980E090E0E0EDF7E03197F1F7C3
:10F3D0000196883C9105C1F78091C00087FFEFCF6F
:10F3E00018B8C3C08FEF8AB90DC08BB180958BB9A7
:10F3F00080E090E0E0EDF7E03197F1F70196883C8E
:10F400009105C1F78091C00087FFEFCF1BB8ADC059
:10F410008FEF8DB90DC08EB180958EB980E090E0F0
:10F42000E0EDF7E03197F1F70196883C9105C1F7DF
:10F430008091C00087FFEFCF1EB897C08FEF80BBD1
:10F440000DC081B3809581BB80E090E0E0EDF7E0F6
:10F450003197F1F70196883C9105C1F78091C00082
:10F4600087FFEFCF11BA81C08FEF83BB0DC084B38C
:10F47000809584BB80E090E0E0EDF7E03197F1F714
:10F480000196883C9105C1F78091C00087FFEFCFBE
:10F4900014BA6BC08FEF809301010FC080910201FD
:10F4A00080958093020180E090E0E0EDF7E03197F5
:10F4B000F1F70196883C9105C1F78091C00087FF64
:10F4C000EDCF1092020151C08FEF809304010FC065
:10F4D0008091050180958093050180E090E0E0ED4A
:10F4E000F7E03197F1F70196883C9105C1F78091DB
:10F4F000C00087FFEDCF1092050137C08FEF8093DA
:10F5000007010FC08091080180958093080180E079
:10F5100090E0E0EDF7E03197F1F70196883C910536
:10F52000C1F78091C00087FFEDCF109208011DC088
:10F530008FEF80930A010FC080910B01809580931B
:10F540000B0180E090E0E0EDF7E03197F1F70196F4
:10F55000883C9105C1F78091C00087FFEDCF1092E4
:10F560000B0103C085E292EEEEC98091C00087FFD7
:10F57000FCCF8091C600EAC988E392EEE4C98CE131
:10F5800091EEE1C988249924933011F1943028F444
:10F59000913089F09230B8F408C0953061F195301F
:10F5A000F0F0963009F048C043C02B3109F042C951
:10F5B00091E06BE13FC96227C15DDE4F2883CF52E6
:10F5C000D14092E037C9B22FA0E0622793E032C960
:10F5D000822F90E0A82BB92B622794E02BC92E3004
:10F5E00009F039C3622795E0C05DDE4F19821882A9
:10F5F000C053D1401FC9E1E0F0E0EC0FFD1FC05D3A
:10F60000DE4F08811981C053D140E00FF11F2083E4
:10F610000F5F1F4FC05DDE4F19830883C053D14079
:10F6200062270A171B0709F005C9D80196E002C92D
:10F63000261709F010C303C0973009F0FBC87724E0
:10F640009981933109F412C19431C8F4963009F4C8
:10F65000D8C0973050F4923009F406C1933009F4C1
:10F660006DC0913009F059C253C0913109F477C08F
:10F67000923108F0BBC0903109F04FC2F5C098310B
:10F6800009F487C0993150F4953109F4EFC09531F0
:10F6900008F4C6C1963109F040C2C2C19A3109F4DA
:10F6A0006CC09A3108F491C09B3109F45BC09D3164
:10F6B00009F033C29D81903359F48F81882311F46E
:10F6C0009EE11CC0813011F091E018C098E916C08D
:10F6D000892F807591F0903539F4E0E0F0E089E011
:10F6E0008093570094910AC0983539F4E3E0F0E034
:10F6F00089E080935700949101C090E01A821B82A8
:10F700008D818C831D829E831F8227E030E009C299
:10F710001A8288E08B8381E48C8386E58D8382E581
:10F720008E8389E48F8383E5888780E589878FE5E9
:10F730008A8782E38B872BE030E0F3C18A818139AD
:10F7400041F0823941F0803911F48FE005C080E04A
:10F7500003C082E001C08AE01A828B8344C0772410
:10F76000739482C08D81882311F48EE12CC0813086
:10F7700011F081E028C088E926C01A82E1E0F0E0BB
:10F7800089E08093570084918B831C8224E030E0D1
:10F79000C8C18B81803589F48C81883039F4E2E0EE
:10F7A000F0E089E08093570084910DC0E0E0F0E044
:10F7B00089E080935700849106C0E3E0F0E089E09F
:10F7C0008093570084911A82DFCF8D81836C99E0FA
:10F7D000E1E0F0E0082E90935700E89507B600FCB2
:10F7E000FDCF1A821B8223E030E09BC180EC8A832C
:10F7F000CE5CDE4F188219821A821B82C253D1401E
:10F800008EC18A8190E0A0E0B0E0582F44273327D2
:10F8100022278B8190E0A0E0B0E0DC0199278827C7
:10F82000282B392B4A2B5B2B8D8190E0A0E0B0E098
:10F83000282B392B4A2B5B2B8C8190E0A0E0B0E089
:10F84000BA2FA92F982F8827282B392B4A2B5B2BCF
:10F85000220F331F441F551FC05EDE4F288339839C
:10F860004A835B83C052D1401A8259C13A81C95C34
:10F87000DE4F3883C753D140CA5CDE4F1882C6536F
:10F88000D1408B81C82EDD24CA5CDE4F488159816E
:10F89000C653D140C42AD52A933109F082C0CE5C28
:10F8A000DE4F88819981AA81BB81C253D1408050AB
:10F8B000904CA340B04030F583E0CE5CDE4FE88052
:10F8C000F9800A811B81C253D140F70100935B008C
:10F8D00080935700E89507B600FCFDCFCE5CDE4F65
:10F8E000088119812A813B81C253D14000501F4FAA
:10F8F0002F4F3F4FCE5CDE4F088319832A833B8313
:10F90000C253D140C05EDE4F488159816A817B81FC
:10F91000C052D140DE011B9631E08C9111962C91A2
:10F9200011971296C75CDE4F2883C953D140C85C3B
:10F93000DE4F1882C853D14090E0C85CDE4FE881AA
:10F94000F981C853D1408E2B9F2B0C01FA01609393
:10F950005B0030935700E89511244E5F5F4F6F4F67
:10F960007F4F0EEFE02E0FEFF02ECE0CDF1CC114F8
:10F97000D10499F685E0C05EDE4F088119812A81A5
:10F980003B81C052D140F80120935B008093570027
:10F99000E89507B600FCFDCF81E180935700E8951C
:10F9A00035C0C05EDE4F88819981AA81BB81C0527B
:10F9B000D140B695A795979587957C018601ABE0D8
:10F9C000AA2EB12CAC0EBD1E0BC0D5016D915D01F0
:10F9D000C7010F947FFE0894E11CF11C01501040F8
:10F9E0000115110591F7A60160E070E0440F551F65
:10F9F000661F771FC05EDE4FE880F9800A811B8199
:10FA0000C052D1404E0D5F1D601F711F1A82C05E33
:10FA1000DE4F488359836A837B83C052D1407FC0C5
:10FA2000FA80C55CDE4FF882CB53D140C65CDE4F16
:10FA30001882CA53D1408B81C82EDD24C65CDE4FAC
:10FA400008811981CA53D140C02AD12A1A828981DA
:10FA5000BE016D5F7F4F843121F59601C05EDE4FA0
:10FA6000E880F9800A811B81C052D1400BBFF701A9
:10FA700087919691DB018C9311969C936E5F7F4FDB
:10FA8000D801C7010296A11DB11DC05EDE4F88835B
:10FA90009983AA83BB83C052D14022503040F1F6F3
:10FAA00036C0C05EDE4F288139814A815B81C052F9
:10FAB000D1400894C108D108760100E010E0089414
:10FAC000C11CD11C0894E11CF11C011D111DE20E8A
:10FAD000F31E041F151F21BDBB27A52F942F832FB5
:10FAE00082BD2F5F3F4F4F4F5F4FF89A80B5DB01CC
:10FAF0008D93BD012E153F054007510761F7C05E8C
:10FB0000DE4F288339834A835B83C052D1409601FC
:10FB10002D5F3F4FFB01108204C080EC8A8322E0FE
:10FB200030E08BE18093C6008091C00086FFFCCF5F
:10FB30008091C00080648093C000C15DDE4FF88179
:10FB4000CF52D140F093C6008091C00086FFFCCF19
:10FB50008091C00080648093C000432F3093C60022
:10FB60008091C00086FFFCCF8091C00080648093AC
:10FB7000C000922F2093C6008091C00086FFFCCF6A
:10FB80008091C00080648093C0008EE08093C600A6
:10FB90008091C00086FFFCCF8091C000806480937C
:10FBA000C00065E1C15DDE4FE880CF52D1406E25D7
:10FBB00069276427FE01319610C090819093C6009A
:10FBC0008091C00086FFFCCF31968091C000806498
:10FBD0008093C0006927215030402115310569F715
:10FBE0006093C6008091C00086FFFCCF8091C0006A
:10FBF00080648093C00085B1805885B9772081F4F6
:10FC0000C15DDE4F0881CF52D1400F5FC15DDE4F35
:10FC10000883CF52D14090E0A0E0B0E00D941AF4F8
:10FC200027982F9880E090E020ED37E0F901319798
:10FC3000F1F7019684369105C9F700008091C00064
:10FC40008D7F8093C00081E180935700E895EE2777
:10FC5000FF270994FFCF90E00D941AF497FB092E2B
:10FC600007260AD077FD04D02ED006D000201AF443
:10FC7000709561957F4F0895F6F7909581959F4F08
:10FC80000895A1E21A2EAA1BBB1BFD010DC0AA1FDD
:10FC9000BB1FEE1FFF1FA217B307E407F50720F0F5
:10FCA000A21BB30BE40BF50B661F771F881F991F70
:10FCB0001A9469F760957095809590959B01AC01B9
:10FCC000BD01CF010895AA1BBB1B51E107C0AA1FAC
:10FCD000BB1FA617B70710F0A61BB70B881F991FED
:10FCE0005A95A9F780959095BC01CD010895F99991
:10FCF000FECF92BD81BDF89A992780B50895262F31
:10FD0000F999FECF1FBA92BD81BD20BD0FB6F89400
:0EFD1000FA9AF99A0FBE01960895F894FFCF63
:040000033000E000E9
:00000001FF