:1000000007C1000036C1000034C1000032C1000049
:1000100030C100002EC100002CC100002AC1000028
:1000200028C1000026C1000024C1000022C1000038
:1000300020C100001EC100001CC100001AC1000048
:1000400018C1000016C1000014C1000012C1000058
:1000500010C100000EC100000CC1000032C600003B
:1000600008C100006CC3000041C3000002C10000D1
:1000700000C10000FEC00000FCC00000FAC000008B
:10008000F8C00000F6C00000F4C00000F2C000009C
:10009000F0C00000EEC00000ECC0000063C600002D
:1000A000E8C00000E6C00000E4C00000E2C00000BC
:1000B000E0C00000DEC00000DCC00000DAC00000CC
:1000C000D8C00000D6C00000D4C00000D2C00000DC
:1000D000D0C00000CEC00000CCC00000CAC00000EC
:1000E000C8C000009F05A205910595059905D90591
:1000F000A605AA05B005B405B805BE05C205C60526
:10010000D905CC05D005D405000021002400270026
:100110002A002D0030003300010100000401070116
:100120000A0100002200250028002B002E003100CB
:10013000340002010000050108010B010505050559
:10014000070508080808020202020A0A080804044F
:10015000040401010101010101010303030303037D
:100160000303040707070C0C0C0C0C0C0C0C02020C
:10017000020206060606060606060B0B0B0B0B0B09
:100180000B0B010210202008081020401020408096
:10019000020102010804020101020408102040804B
:1001A00080402010080402018004020180402010D9
:1001B0000804020108040201010204081020408022
:1001C000010204081020408000000A0B02090C0DF7
:1001D0000E080703040100000000000000000000FA
:1001E000000000000000000000000000000000000F
:1001F00000000000121110000000000000000000CC
:100200000000000000000000000000000000C40921
:1002100011241FBECFEFD1E2DEBFCDBF00E00CBF87
:1002200013E0A0E0B2E0E8ECFFE100E00BBF02C0A9
:1002300007900D92A832B107D9F727E0A8E2B3E002
:1002400001C01D92AC3CB207E1F711E0C8E0D1E07B
:1002500000E006C021970109802FFE010E94D60F01
:10026000C730D10780E00807A9F70E94990A0C94CB
:10027000E20FC6CECF92DF92EF92FF920F931F93C1
:10028000CF93DF936C017A018B01C0E0D0E0CE15F3
:10029000DF0589F0D8016D918D01D601ED91FC91BA
:1002A0000190F081E02DC6011995892B11F47E0192
:1002B00002C02196ECCFC701DF91CF911F910F9122
:1002C000FF90EF90DF90CF90089589E793E09ED262
:1002D00021E0892B09F420E0822F0895EF92FF920C
:1002E0000F931F93CF93DF93EC0181E0888F9B8D59
:1002F0008C8D981305C0E889F989808185FD23C01C
:10030000F62E0B8D10E00F5F1F4F0F731127E02E9D
:100310008C8DE8120BC00FB607FCFACFE889F9897B
:10032000808185FFF5CFCE01BAD3F2CF8B8DFE0150
:10033000E80FF11DE35AFF4FF0820B8FEA89FB892A
:100340008081806207C0EE89FF896083E889F9892E
:1003500080818064808381E090E0DF91CF911F9164
:100360000F91FF90EF900895CF93DF93EC01888D6C
:100370008823C1F0EA89FB89808185FD05C0A889B1
:10038000B9898C9186FD0EC00FB607FCF5CF808130
:1003900085FFF2CFA889B9898C9185FFEDCFCE0179
:1003A0007ED3E8CFDF91CF910895009761F0FC01F3
:1003B00001900020E9F73197AF01481B590BBC01B0
:1003C00089E793E057CF80E090E008958F929F9265
:1003D000AF92BF920F931F93CF93DF93CDB7DEB74A
:1003E000A1970FB6F894DEBF0FBECDBF19A2423061
:1003F00008F44AE08E010F5D1F4F842E912CA12C32
:10040000B12CA50194010E94B40FE62FB901CA01D5
:1004100001501109EA3014F4E05D01C0E95CD80133
:10042000EC93232B242B252B61F7C801BEDFA1966B
:100430000FB6F894DEBF0FBECDBFDF91CF911F91F5
:100440000F91BF90AF909F908F900895AECF4F9235
:100450005F926F927F928F929F92AF92BF92CF9254
:10046000DF92EF92FF926B017C01B42E9B01AC01F5
:100470000E94B00F882319F08CEB92E027C0260170
:100480003701E89477F82FEF3FEF4FE75FE7C301BD
:10049000B2010E94B00F81110DC02FEF3FEF4FE767
:1004A0005FE7C301B2010E94AC0D18161CF480EC8A
:1004B00092E00CC02FEF3FEF4FE75FE4C701B601BA
:1004C0000E94490F18167CF484EC92E0FF90EF90A4
:1004D000DF90CF90BF90AF909F908F907F906F9064
:1004E0005F904F9062CF2FEF3FEF4FE75FECC70178
:1004F000B6010E94AC0D87FDE7CF20E030E0A901F6
:10050000C701B6010E94AC0D87FF11C0E0917903CD
:10051000F0917A030190F081E02D6DE289E793E09C
:1005200019954C01F7FAF094F7F8F09402C0812C79
:10053000912CA12C60E070E080E09FE3AB1441F0CF
:1005400020E030E040E251E40E94B00DA394F6CFE9
:100550009B01AC01C701B6010E94480D2B013C0173
:100560000E94180E6B017C010E94440E9B01AC019D
:10057000C301B2010E94470D2B013C014AE0C701B3
:10058000B60124DF7C01E80CF91CBB2069F0E09186
:100590007903F0917A030190F081E02D6EE289E712
:1005A00093E01995E80EF91EDB2CDD2019F120E00F
:1005B00030E040E251E4C301B2010E944D0F2B0133
:1005C0003C010E94180E4B01A12CB12C4AE0C50140
:1005D000B401FCDEE80EF91EC501B4010E94440E10
:1005E0009B01AC01C301B2010E94470D2B013C01EC
:1005F000DA94DBCFC701FF90EF90DF90CF90BF90F0
:10060000AF909F908F907F906F905F904F900895E4
:10061000CF93DF93EC01888191E0909378038093EE
:100620007703109276031092750389819A81DC0119
:10063000ED91FC910190F081E02D60E019958981A8
:100640009A81C1D48881909152039111FCCF91E09D
:1006500090935203909351032FEF209350031092E5
:100660004F0310924E0390934D0390914D03880FCA
:10067000892B80934D0380914C03813061F410925B
:100680004C0380914D038093BB008091BC0083FD9F
:10069000F8CF85EC01C085EE8093BC0080915203B9
:1006A0008130E1F380914F03811103C080914F03AA
:1006B00001C081E0ACE2B3E025E533E0F9019E2F13
:1006C000921B981718F49D919193F9CF10925403AF
:1006D0008093530389819A81DC01ED91FC9102841E
:1006E000F385E02D1995DF91CF9108951F920F9218
:1006F0000FB60F9211240BB60F922F933F934F9387
:100700005F936F937F938F939F93AF93BF93EF9379
:10071000FF9389E793E0C3D1FF91EF91BF91AF9130
:100720009F918F917F916F915F914F913F912F9109
:100730000F900BBE0F900FBE0F901F9018951F9239
:100740000F920FB60F9211240BB60F922F938F9327
:100750009F93EF93FF93E0918903F0918A03808147
:10076000E0918F03F091900382FD12C090818091FF
:1007700092038F5F8F7320919303821751F0E09162
:100780009203F0E0E758FC4F958F8093920301C0ED
:100790008081FF91EF919F918F912F910F900BBED0
:1007A0000F900FBE0F901F901895FC01538D448D34
:1007B000252F30E0842F90E0821B930B541710F00C
:1007C000CF96089501970895FC01918D828D981719
:1007D00061F0828DDF01A80FB11D5D968C91928D25
:1007E0009F5F9F73928F90E008958FEF9FEF089522
:1007F000FC01918D828D981731F0828DE80FF11DEB
:10080000858D90E008958FEF9FEF0895FC01918D05
:10081000228D892F90E0805C9F4F821B91098F73FE
:100820009927089580E090E0892B19F04EDD811121
:1008300025C080E090E0892B41F080E090E0892B9A
:1008400021F00E94000081111CC080E090E0892B03
:1008500041F080E090E0892B21F00E94000081119E
:1008600013C080E090E0892BA1F080E090E0892B1C
:1008700081F00E94000081110AC008950E940000CA
:10088000D8CF0E940000E1CF0E940000EACF0C9474
:1008900000000895863308F0865390917B00282F3E
:1008A0002870977F922B90937B0087708064809351
:1008B0007C0080917A00806480937A0080917A0035
:1008C00086FDFCCF809178002091790090E0922BFA
:1008D00008953FB7F8948091C8079091C907A091F7
:1008E000CA07B091CB0726B5A89B05C02F3F19F0CA
:1008F0000196A11DB11D3FBFBA2FA92F982F8827A0
:10090000820F911DA11DB11DBC01CD0142E0660FFA
:10091000771F881F991F4A95D1F7089585ED809319
:10092000BC008091BC0084FDFCCF1092520308955E
:100930004091A207262F30E0240F311D21323105CE
:10094000DCF4209152032430C9F4FC0180E090E0F3
:10095000861758F43091A2072191DC01A058B84FB6
:10096000A30FB11D2C930196F3CF8091A207680FBE
:100970006093A20780E0089581E0089582E00895E1
:100980000895E091540380915303E81730F4F0E0A8
:10099000EB5AFC4F808190E008958FEF9FEF089510
:1009A0009091540380915303981750F4E92FF0E08D
:1009B000EB5AFC4F208130E09F5F9093540302C0BC
:1009C0002FEF3FEFC90108958091530390E02091EC
:1009D0005403821B91090895CF92DF92EF92FF9208
:1009E0000F931F93CF93DF937C01262F972F8A01BC
:1009F00080917803882391F0C62FD72F6E01C40E03
:100A0000D51ECC15DD0569F06991D701ED91FC91FA
:100A10000190F081E02DC7011995F3CF642F822F4B
:100A200087DFC801DF91CF911F910F91FF90EF9069
:100A3000DF90CF900895CF93DF931F92CDB7DEB7AD
:100A40006983209178032223D1F02091750320320D
:100A500040F021E030E0FC013383228380E090E02D
:100A600014C080917603E82FF0E0E05AF84F9981A6
:100A700090838F5F809376038093750304C061E059
:100A8000CE01019655DF81E090E00F90DF91CF918C
:100A90000895089580E090E008950E94DE0FFC0123
:100AA000848DDF01A80FB11DA35ABF4F2C91848DF7
:100AB00090E001968F739927848FA689B7892C932C
:100AC000A089B1898C9180648C93938D848D9813C7
:100AD00006C00288F389E02D80818F7D8083089590
:100AE000362F90E0FC01E853FE4F4491FC01EE5795
:100AF000FE4F2491FC01E45CFE4F9491992309F48C
:100B00006BC0442309F455C050E0FA013197E2313B
:100B1000F10508F04EC08827EE58FF4F8F4F0C9418
:100B2000D60F809180008F7707C0809180008F7DE5
:100B300003C080918000877F809380003AC084B595
:100B40008F7702C084B58F7D84BD33C08091B000A3
:100B50008F7703C08091B0008F7D8093B00029C053
:100B6000809190008F7707C0809190008F7D03C0A7
:100B700080919000877F809390001BC08091A0009F
:100B80008F7707C08091A0008F7D03C08091A00067
:100B9000877F8093A0000DC0809120018F7707C0D0
:100BA000809120018F7D03C080912001877F8093F9
:100BB0002001E92FF0E0EE0FFF1FEE5DFE4FA59143
:100BC000B4918FB7F894EC91311103C020952E2386
:100BD00001C02E2B2C938FBF0895CF93DF9390E00D
:100BE000FC01EE57FE4F2491FC01E45CFE4F849122
:100BF000882361F190E0880F991FFC01E85FFE4FA8
:100C0000C591D491FC01EE5DFE4FA591B4916111A7
:100C100009C09FB7F8948881209582238883EC913E
:100C20002E230BC0623061F49FB7F8943881822F75
:100C3000809583238883EC912E2B2C939FBF06C035
:100C40008FB7F894E8812E2B28838FBFDF91CF9147
:100C500008958F929F92AF92BF92CF92DF92EF92C0
:100C6000FF926B017C0135DE4B015C01C114D104A4
:100C7000E104F104E9F02DDEDC01CB0188199909CA
:100C8000AA09BB09883E9340A105B10578F321E08C
:100C9000C21AD108E108F10888EE880E83E0981E98
:100CA000A11CB11CC114D104E104F10421F7DECF71
:100CB000FF90EF90DF90CF90BF90AF909F908F907C
:100CC00008951F920F920FB60F9211242F933F9306
:100CD0008F939F93AF93BF938091280390912903A3
:100CE000A0912A03B0912B033091C70723E0230F73
:100CF0002D3720F40196A11DB11D05C026E8230F54
:100D00000296A11DB11D2093C707809328039093DD
:100D10002903A0932A03B0932B038091C8079091D5
:100D2000C907A091CA07B091CB070196A11DB11DBB
:100D30008093C8079093C907A093CA07B093CB07C5
:100D4000BF91AF919F918F913F912F910F900FBEC7
:100D50000F901F901895DC01ED91FC910190F081AE
:100D6000E02D19941F920F920FB60F9211240BB61B
:100D70000F922F933F934F935F936F937F938F9334
:100D80009F93AF93BF93EF93FF938091B900887FB8
:100D9000803609F49CC068F5883209F45BC090F491
:100DA000803109F454C038F4882309F4F6C088303F
:100DB00009F44DC0F5C0883109F44CC0803209F403
:100DC0005DC0EEC0803409F468C048F4803309F493
:100DD00055C0883309F0E4C080935003D8C08035F3
:100DE00009F44FC0883509F45DC0883409F0D8C0D3
:100DF000D6C0883909F4C7C0A8F4883709F467C099
:100E000038F4883609F463C0803709F460C0C8C07C
:100E1000883809F4B8C0803909F45FC0803809F017
:100E2000BFC05BC0803B09F486C038F4803A09F447
:100E300066C0883A09F47FC0B3C0803C09F4A7C0FB
:100E4000883C09F4A4C0883B09F48AC0A9C08091F9
:100E50004D0310C090914F0380914E03981770F589
:100E6000E0914F0381E08E0F80934F03F0E0E45D4B
:100E7000FC4F80818093BB0085EC86C0809350033B
:100E80008EC0E0914F0381E08E0F80934F038091DD
:100E9000BB00F0E0E45DFC4F808390914F038091B4
:100EA0004E036EC0E0914F0381E08E0F80934F039D
:100EB0008091BB00F0E0E45DFC4F808380915103A2
:100EC00081116DC081E080934C0384EA61C083E0AE
:100ED000809352031092C607CFCF8091C60780320D
:100EE00008F051C0E091C60781E08E0F8093C607DD
:100EF0008091BB00F0E0EA55F84F8083BDCF85ECD0
:100F00008093BC00109252038091C607803230F467
:100F1000E091C607F0E0EA55F84F10826091C607ED
:100F200070E0E091A407F091A50786EA97E0199593
:100F30001092C60735C084E0809352031092A30735
:100F40001092A207E091A007F091A1071995809156
:100F5000A207811105C081E08093A207109280074B
:100F6000E091A30781E08E0F8093A307F0E0E058A3
:100F7000F84F80818093BB009091A3078091A207D6
:100F8000981708F479CF85E88093BC0009C085ECF8
:100F90008093BC001092520303C010925003BEDC39
:100FA000FF91EF91BF91AF919F918F917F916F9141
:100FB0005F914F913F912F910F900BBE0F900FBEFD
:100FC0000F901F901895209175039091770321320F
:100FD00008F04AC0809152038111FCCF32E0309377
:100FE000520331E0309351033FEF3093500310929E
:100FF0004F0320934E03A0E6B7E04CE253E0FA0122
:101000003E2F341B321718F43D913193F9CF1092D3
:101010004D0320914D03990F922B90934D03909186
:101020004C03913061F410924C0390914D039093D6
:10103000BB009091BC0093FDF8CF95EC01C095EEFC
:101040009093BC00909152039230E1F39091500341
:101050009F3F79F080915003803241F0809150039E
:10106000803331F084E005C081E003C082E001C03C
:1010700083E010927603109275031092780308951E
:10108000FC01248131E030937803209377031092A0
:101090007603109275038385682B86E194E0CBDCA0
:1010A00086E194E090CF0F931F93CF938C01C62FCE
:1010B0006460E6DF6C2F6B7FC801E2DF83EC90E0B9
:1010C0000197F1F7CF911F910F9108950F931F93FF
:1010D000CF93DF938C01C62FD62FD07FD1606D2F99
:1010E000CFDF6D2FC801DFDF80E1C89FB001112481
:1010F000C62FC1606C2FC801C3DF6C2FC801D3DFBE
:1011000081E090E0DF91CF911F910F9108950F93AF
:101110001F93CF93DF931F92CDB7DEB78C01DC0115
:101120008C9191E0909378038093770310927603EB
:101130001092750311968D919C911297DC01ED919F
:10114000FC910190F081E02D49831995F80181818E
:101150009281DC01ED91FC910190F081E02D4981BB
:10116000642F1995F801818192810F90DF91CF91C1
:101170001F910F9128CFCF92DF92EF92FF920F93A2
:101180001F93CF93DF93EC016A017B018BED92E01B
:101190005DD942E0C701B6015AD988EC92E005D981
:1011A00026E636E646E65FE3C701B60176D69B0142
:1011B000AC0160E27CEB8EEB95E4D2D420E030E031
:1011C00040E85FE364D46B017C0183EF92E03ED999
:1011D00042E0C701B6013BD988EC92E0E6D820E0B6
:1011E00030E040E05FE3C701B60152D48AD520D594
:1011F000062F89E093E02AD9602F70E080E090E02C
:101200004AE0E4D888EC92E0D0D8CE0101DA182F79
:101210008F76482F406160E0CE0179DF402F6EEF7E
:10122000CE0175DF412F60E0CE0171DF65E070E037
:1012300080E090E00EDD412F406A60E0CE0167DF84
:101240008BE193E003D9CE01E3D9682F70E080E011
:1012500090E040E1BBD888EC92E0DF91CF911F9104
:101260000F91FF90EF90DF90CF909FC88F929F9249
:10127000AF92BF92CF92DF92EF92FF920F931F93A4
:10128000CF93DF938C016A017B0180915E0790917F
:101290005F07D80112962D913C91139782179307FF
:1012A000D9F0880F991FFC01EC54FD4F61E080815B
:1012B00017DCD8011296ED91FC911397EE0FFF1FEA
:1012C000EC54FD4F60E080810BDCF801828193815A
:1012D00090935F0780935E07D801CD91DC9183E006
:1012E000CC0FDD1F8A95E1F7C05DDD4F68818091ED
:1012F0002204F6DB6A8180912404F2DB6C81809108
:101300002604EEDB6E8180912804EADBD801129678
:10131000ED91FC911397E055FD4F8081BBDACAE057
:10132000812C912C5401D8011296ED91FC911397C8
:10133000E055FD4F8081AEDABC01990F880B990B07
:10134000A5D49B01AC01C501B401A2D34B015C0142
:10135000C15049F720E030E040E251E401D4A70158
:1013600096019BD52AE038E240EA5BE396D5DF910F
:10137000CF911F910F91FF90EF90DF90CF90BF9092
:10138000AF909F908F900895CF93DF9310927C033E
:1013900010927B0388EE93E0A0E0B0E080937D03A1
:1013A00090937E03A0937F03B093800324E032E008
:1013B00030937A032093790325EC30E03093860351
:1013C0002093850324EC30E0309388032093870337
:1013D00020EC30E030938A032093890321EC30E045
:1013E00030938C0320938B0322EC30E030938E03F8
:1013F00020938D0326EC30E03093900320938F03ED
:1014000010929203109293031092940310929503FA
:10141000C6E1D4E0109219041092180480931A04C3
:1014200090931B04A0931C04B0931D0486E192E0EA
:101430009093170480931604109255071092540746
:1014400088E292E090935307809352078FE3809352
:10145000560780E180935B0782E080935C071092DF
:101460005D0761E08AE2B9DB61E08CE2B6DB61E056
:101470008EE2B3DB61E080E3B0DB8AE290E0909340
:101480002304809322048CE290E0909325048093BF
:1014900024048EE290E0909327048093260480E356
:1014A00090E0909329048093280480E480934C0773
:1014B000D0934E07C0934D0781E480934F07D0939C
:1014C0005107C0935007ECE2F4E080E090E0AAE717
:1014D000B4E4118210821382128215821482178260
:1014E0001682118610861386128615861486178634
:1014F0001686108A118A128A138A148A158A168A05
:10150000178A108E118E128E138E148E158E168ED3
:10151000178E80A391A3A2A3B3A314A215A216A20F
:1015200017A2B89627E0EC34F20799F6DF91CF9135
:101530000895789484B5826084BD84B5816084BD4B
:1015400085B5826085BD85B5816085BD80916E0061
:10155000816080936E001092810080918100826092
:1015600080938100809181008160809381008091CF
:1015700080008160809380008091B10084608093BE
:10158000B1008091B00081608093B00080919100A3
:10159000826080939100809191008160809391009E
:1015A000809190008160809390008091A100826082
:1015B0008093A1008091A10081608093A10080911F
:1015C000A00081608093A0008091210182608093BF
:1015D000210180912101816080932101809120016E
:1015E00081608093200180917A00846080937A00EA
:1015F00080917A00826080937A0080917A00816085
:1016000080937A0080917A00806880937A001092AB
:10161000C100E0918903F0918A0382E08083E09128
:101620008503F09186031082E0918703F09188038F
:101630008FEC808310929103E0918D03F0918E03E3
:1016400086E08083E0918B03F0918C038081806140
:101650008083E0918B03F0918C038081886080838C
:10166000E0918B03F0918C03808180688083E0910E
:101670008B03F0918C0380818F7D8083ECE2F4E01A
:1016800040E050E080E090E0A9E0B0E061E070E090
:1016900025E030E0C12CD12CCAE7EC2EC4E4FC2EAE
:1016A00000EA1FE0118210821382128215821482D6
:1016B0001782168211861086138612861586148666
:1016C000108A118A128A138A148A158A168A178A2E
:1016D000108E118E128E138E148E158E168E178EFE
:1016E000C0A2D1A2E2A2F3A214A215A216A217A22E
:1016F000178706872031310524F06F5F7F4F20E088
:1017000030E0E90121963183208373836283A03125
:10171000B10514F49D0102C020E030E0D90111961A
:10172000358324838031910524F04F5F5F4F80E043
:1017300090E09C012F5F3F4F9187808757834683BE
:10174000B89687E0EC34F80719F0C9019E01AACFDA
:1017500010925D0760E082E597E092DC60E087E34D
:101760003CDA60E088E339DA60E089E336DA60E0A9
:101770008AE333DA61E08BE230DA61E08DE22DDA80
:1017800061E08FE22ADA61E081E327DA61E08AE250
:1017900024DA61E08CE221DA61E08EE21EDA61E0B7
:1017A00080E31BDA60E08AE29BD960E08CE298D9A2
:1017B00060E08EE295D960E080E392D960E08BE250
:1017C0008FD960E08DE28CD960E08FE289D960E04A
:1017D00081E386D960E086E300DACCE4D7E0FF2439
:1017E000F39408E415E410925403109253031092FA
:1017F00076031092750310925203F09251031092E7
:101800004C0361E084E16CD961E085E169D98091A4
:10181000B9008E7F8093B9008091B9008D7F80934D
:10182000B9000093B8001093BC0040E860E0CE011E
:101830006EDC6AE070E080E090E00BDA40E050E0BF
:101840006AE774E4CE0197DC40E050E068EC74E4B1
:10185000CE0191DC2396A7E0C235DA0709F0C3CFA9
:10186000BB24B394CCE2D4E040E050E060E070E40C
:10187000CE01FCDC688F798F8A8F9B8FA896B7E0AA
:10188000CC34DB0789F7C0E3D4E040E050E060E807
:101890007FE3CE01EBDC688F798F8A8F9B8FA896D0
:1018A000E7E0C035DE0789F7C4E3D4E08C819D8191
:1018B000049709F03CC020E030E04AE754E46C892A
:1018C0007D898E899F89E9D22B013C018FB7F894DD
:1018D000C0902803D0902903E0902A03F0902B03B6
:1018E0008FBF8C8D9D8DAE8DBF8DA7019601281B5E
:1018F000390B4A0B5B0BCA01B901C6D19B01AC0184
:10190000C301B201CAD220E03AEB4BE55AE428D138
:101910009B01AC01688579858A859B85B9D06887EC
:1019200079878A879B87CC8EDD8EEE8EFF8E20E0B6
:1019300030E04AE754E46C897D898E899F89ADD275
:101940006B017C01488C598C6A8C7B8CA3019201C1
:1019500003D187FF08C08E819F818F3F3FE09307AF
:1019600010F401960EC0A3019201C701B60191D2F5
:1019700018160CF074C08E819F81009709F46FC017
:1019800001979F838E83CE80DF80E880F9800A8173
:101990001B818BEC92E00E9426026E2D70E080E0AD
:1019A00090E04AE00E94E60186E093E00E94260271
:1019B0004AE060E070E0CB010E94E60188ED92E031
:1019C0000E942602B60180E090E04AE00E94E60113
:1019D00088EC92E00E94D501C801880F991F080F7A
:1019E000191F045B184FD8018C91B0927803809333
:1019F0007703109276031092750311968D919C9146
:101A00001297DC01ED91FC91FF24EE0CFF1CEE0C13
:101A1000FF1CB7016A5F7F4F0190F081E02D19959F
:101A200060E070E0F8018181928195D960E070E01A
:101A3000D80111968D919C9112978DD9B601F8011C
:101A40008181928188D96D2D70E0D80111968D9198
:101A50009C91129780D9F80181819281B4DA6C89C6
:101A60007D898E899F8942E00E94270287E093E06A
:101A70000E942602A89647E0C435D40709F016CF85
:101A800088EC92E00E94D5010E941204EBCE5058DF
:101A9000BB27AA270ED0ACC19DD130F0A2D120F037
:101AA00031F49F3F11F41EF492C10EF4E095E7FB70
:101AB0005FC1E92FAED180F3BA17620773078407BD
:101AC000950718F071F49EF5DDC10EF4E0950B2E2C
:101AD000BA2FA02D0B01B90190010C01CA01A00180
:101AE0001124FF27591B99F0593F50F4503E68F1DB
:101AF0001A16F040A22F232F342F4427585FF3CF1C
:101B0000469537952795A795F0405395C9F77EF4EC
:101B10001F16BA0B620B730B840BBAF09150A1F035
:101B2000FF0FBB1F661F771F881FC2F70EC0BA0FBB
:101B3000621F731F841F48F4879577956795B79543
:101B4000F7959E3F08F0B3CF9395880F08F099273B
:101B5000EE0F979587950895E7D008F481E00895F2
:101B60000CD046C13ED140F035D130F021F45F3F7A
:101B700019F0FEC0511187C12AC14BD198F39923A6
:101B8000C9F35523B1F3951B550BBB27AA27621741
:101B90007307840738F09F5F5F4F220F331F441F86
:101BA000AA1FA9F333D00E2E3AF0E0E830D09150BE
:101BB0005040E695001CCAF729D0FE2F27D0660FAB
:101BC000771F881FBB1F261737074807AB07B0E8EA
:101BD00009F0BB0B802DBF01FF2793585F4F2AF000
:101BE0009E3F510568F0C4C04EC15F3FECF3983E84
:101BF000DCF3869577956795B795F7959F5FC9F75D
:101C0000880F911D9695879597F90895E1E0660FE5
:101C1000771F881FBB1F621773078407BA0720F05E
:101C2000621B730B840BBA0BEE1F88F7E0950895C7
:101C3000F8D088F09F5790F0B92F9927B751A0F0AE
:101C4000D1F0660F771F881F991F1AF0BA95C9F750
:101C500012C0B13081F016D1B1E0089513C1672FE1
:101C6000782F8827B85F39F0B93FCCF38695779500
:101C70006795B395D9F73EF49095809570956195E9
:101C80007F4F8F4F9F4F0895E89409C097FB3EF414
:101C900090958095709561957F4F8F4F9F4F9923B9
:101CA000A9F0F92F96E9BB279395F6958795779537
:101CB0006795B795F111F8CFFAF4BB0F11F460FFF7
:101CC0001BC06F5F7F4F8F4F9F4F16C0882311F04F
:101CD00096E911C0772321F09EE8872F762F05C063
:101CE000662371F096E8862F70E060E02AF09A95FE
:101CF000660F771F881FDAF7880F9695879597F9F3
:101D00000895A9D080F09F3740F491110EF0BBC028
:101D100060E070E080E89FEB089526F41B16611DDB
:101D2000711D811D2BC045C0990F0008550FAA0BCE
:101D3000E0E8FEEF16161706E807F907C0F01216DE
:101D40001306E407F50798F0621B730B840B950BE1
:101D500039F40A2661F0232B242B252B21F4089536
:101D60000A2609F4A140A6958FEF811D811D0895D3
:101D700097F99F6780E870E060E00895882371F428
:101D8000772321F09850872B762F07C0662311F414
:101D900099270DC09051862B70E060E02AF09A954B
:101DA000660F771F881FDAF7880F9695879597F942
:101DB00008959F3F31F0915020F48795779567956E
:101DC000B795880F911D9695879597F908959FEF80
:101DD00080EC089500240A941616170618060906C2
:101DE000089500240A941216130614060506089591
:101DF000092E0394000C11F4882352F0BB0F40F419
:101E0000BF2B11F460FF04C06F5F7F4F8F4F9F4F58
:101E1000089557FD9058440F551F59F05F3F71F0DA
:101E20004795880F97FB991F61F09F3F79F0879541
:101E30000895121613061406551FF2CF4695F1DFCA
:101E400008C0161617061806991FF1CF869571055A
:101E5000610508940895E5DFA0F0BEE7B91788F49E
:101E6000BB279F3860F41616B11D672F782F88277F
:101E7000985FF7CF869577956795B11D93959639BD
:101E8000C8F30895E894BB2766277727CB0197F915
:101E900008954ADF08F48FEF08950BD0A9CF9ADF99
:101EA00028F09FDF18F0952309F062CF90CF11241E
:101EB000EACFAFDFA0F3959FD1F3950F50E0551F08
:101EC000629FF001729FBB27F00DB11D639FAA278F
:101ED000F00DB11DAA1F649F6627B00DA11D661FDE
:101EE000829F2227B00DA11D621F739FB00DA11DFF
:101EF000621F839FA00D611D221F749F3327A00DB9
:101F0000611D231F849F600D211D822F762F6A2F54
:101F100011249F5750408AF0E1F088234AF0EE0FD9
:101F2000FF1FBB1F661F771F881F91505040A9F7E6
:101F30009E3F510570F01CCFA6CF5F3FECF3983E5B
:101F4000DCF3869577956795B795F795E7959F5F4D
:101F5000C1F7FE2B880F911D9695879597F90895E7
:101F6000E3DE880B990B0895A1E21A2EAA1BBB1B76
:101F7000FD010DC0AA1FBB1FEE1FFF1FA217B30755
:101F8000E407F50720F0A21BB30BE40BF50B661F6B
:101F9000771F881F991F1A9469F76095709580952F
:101FA00090959B01AC01BD01CF010895EE0FFF1F7D
:101FB000881F8BBF0790F691E02D199481E090E087
:081FC000F89400C0F894FFCF73
:101FC800000000006E013A01D503B4010604E403E1
:101FD800F803000000001B05EC044A05C004E404F3
:101FE800D004C1040000000066083A014A0549050A
:101FF80000000000000000000100000000000000D8
:1020080000000100000000000100010000000000C5
:1020180000000000010000000100000001000000B5
:1020280000000100010000000100010001000000A3
:102038000000000000000100010000000000010095
:102048000000010000000100010001000000010083
:102058000000000001000100010000000100010073
:102068000000010001000100010001000100010061
:102078003738393A2B002D002F0031006E616E0081
:10208800696E66006F7666000D0A005365747469A0
:102098006E672050574D20002D3E00417474656DC9
:1020A8007074696E6720746F20736574206672653A
:1020B800712000457374696D617465642070726580
:1020C8002D7363616C653A200046696E616C2070FF
:1020D80072652D7363616C653A20004D6F646520ED
:0820E8006E6F772030780000D4
:00000001FF
