:1000000034C1000063C1000061C100005FC1000095
:100010005DC100005BC1000059C1000057C1000074
:1000200055C1000053C1000051C100004FC1000084
:100030004DC100004BC1000049C1000047C1000094
:1000400045C1000043C1000041C100003FC10000A4
:100050003DC100003BC1000039C100009FC4000049
:1000600035C1000049C300001EC300002FC10000BD
:100070002DC100002BC1000029C1000027C10000D4
:1000800025C1000023C1000021C100001FC10000E4
:100090001DC100001BC1000019C10000D0C4000038
:1000A00015C1000013C1000011C100000FC1000004
:1000B0000DC100000BC1000009C1000007C1000014
:1000C00005C1000003C1000001C10000FFC0000025
:1000D000FDC00000FBC00000F9C00000F7C0000038
:1000E000F5C00000E103E403D303D703DB031B04E3
:1000F000E803EC03F203F603FA0300040404080423
:100100001B040E041204160408000000BE922449C9
:10011000123EABAAAA2ABECDCCCC4C3E0000008039
:10012000BEABAAAAAA3E00000000BF000000803FAC
:100130000000000000084178D3BB4387D1133D196C
:100140000E3CC3BD4282AD2B3E68EC8276BED98F99
:10015000E1A93E4C80EFFFBE01C4FF7F3F000000DD
:10016000000000002100240027002A002D0030009C
:10017000330001010000040107010A010000220010
:10018000250028002B002E00310034000201000061
:10019000050108010B010505050507050808080804
:1001A000020202020A0A080804040404010101010F
:1001B000010101010303030303030303040707070A
:1001C0000C0C0C0C0C0C0C0C0202020206060606AF
:1001D000060606060B0B0B0B0B0B0B0B010210207C
:1001E000200808102040102040800201020108046D
:1001F0000201010204081020408080402010080401
:100200000201800402018040201008040201080459
:10021000020101020408102040800102040810209D
:10022000408000000A0B02090C0D0E0807030401B0
:1002300000000000000000000000000000000000BE
:10024000000000000000000000000000000012118B
:10025000100000000000000000000000000000008E
:100260000000000000000000A51611241FBECFEF03
:10027000D1E2DEBFCDBF00E00CBF13E0A0E0B2E0F2
:10028000E8E9F5E300E00BBF02C007900D92AC383F
:10029000B107D9F72AE0ACE8B3E001C01D92AE3750
:1002A000B207E1F711E0C5E3D1E000E006C0219715
:1002B0000109802FFE010E94BE1AC433D10780E0DD
:1002C0000807A9F70E94970B0C94CA1A99CEFC0153
:1002D000538D448D252F30E0842F90E0821B930BAB
:1002E000541710F0CF96089501970895FC01918D51
:1002F000828D981761F0828DDF01A80FB11D5D9688
:100300008C91928D9F5F9F73928F90E008958FEFF5
:100310009FEF0895FC01918D828D981731F0828DA9
:10032000E80FF11D858D90E008958FEF9FEF089500
:10033000FC01918D228D892F90E0805C9F4F821B64
:1003400091098F739927089585E594E0F1DF21E005
:10035000892B09F420E0822F0895FC01848DDF01B0
:10036000A80FB11DA35ABF4F2C91848D90E0019628
:100370008F739927848FA689B7892C93A089B18917
:100380008C9180648C93938D848D981306C0028821
:10039000F389E02D80818F7D80830895EF92FF9215
:1003A0000F931F93CF93DF93EC0181E0888F9B8D98
:1003B0008C8D981305C0E889F989808185FD23C05B
:1003C000F62E0B8D10E00F5F1F4F0F731127E02EDD
:1003D0008C8DE8120BC00FB607FCFACFE889F989BB
:1003E000808185FFF5CFCE01B8DFF2CF8B8DFE0186
:1003F000E80FF11DE35AFF4FF0820B8FEA89FB896A
:100400008081806207C0EE89FF896083E889F9896D
:1004100080818064808381E090E0DF91CF911F91A3
:100420000F91FF90EF900895CF93DF93EC01888DAB
:100430008823C1F0EA89FB89808185FD05C0A889F0
:10044000B9898C9186FD0EC00FB607FCF5CF80816F
:1004500085FFF2CFA889B9898C9185FFEDCFCE01B8
:100460007CDFE8CFDF91CF91089580E090E0892B89
:1004700019F06ADF811125C080E090E0892B41F0FE
:1004800080E090E0892B21F00E94000081111CC0C7
:1004900080E090E0892B41F080E090E0892B21F012
:1004A0000E940000811113C080E090E0892BA1F030
:1004B00080E090E0892B81F00E94000081110AC049
:1004C00008950E940000D8CF0E940000E1CF0E9452
:1004D0000000EACF0C94000008953FB7F894809193
:1004E0004D0490914E04A0914F04B091500426B554
:1004F000A89B05C02F3F19F00196A11DB11D3FBF5C
:10050000BA2FA92F982F8827820F911DA11DB11DE9
:10051000BC01CD0142E0660F771F881F991F4A95E5
:10052000D1F7089585ED8093BC008091BC0084FDD7
:10053000FCCF1092270408954091DC03262F30E071
:10054000240F311D21323105DCF4209127042430A1
:10055000C9F4FC0180E090E0861758F43091DC0388
:100560002191DC01A654BC4FA30FB11D2C93019621
:10057000F3CF8091DC03680F6093DC0380E0089583
:1005800081E0089582E008950895E0918D038091BF
:100590008C03E81730F4F0E0E85DFB4F808190E0D9
:1005A00008958FEF9FEF089590918D0380918C03B4
:1005B000981750F4E92FF0E0E85DFB4F208130E020
:1005C0009F5F90938D0302C02FEF3FEFC901089505
:1005D00080918C0390E020918D03821B91090895F6
:1005E000CF92DF92EF92FF920F931F93CF93DF93FF
:1005F0007C01262F972F8A0180915404882391F043
:10060000C62FD72F6E01C40ED51ECC15DD0569F09F
:100610006991D701ED91FC910190F081E02DC70126
:100620001995F3CF642F822F87DFC801DF91CF9117
:100630001F910F91FF90EF90DF90CF900895CF938F
:10064000DF931F92CDB7DEB7698320915404222334
:10065000D1F020915104203240F021E030E0FC0143
:100660003383228380E090E014C080915204E82F0D
:10067000F0E0E656FC4F998190838F5F809352049F
:100680008093510404C061E0CE01019655DF81E002
:1006900090E00F90DF91CF910895089580E090E071
:1006A00008950E94C61A1F920F920FB60F9211243E
:1006B0000BB60F922F933F934F935F936F937F935C
:1006C0008F939F93AF93BF93EF93FF9385E594E050
:1006D00044DEFF91EF91BF91AF919F918F917F91F8
:1006E0006F915F914F913F912F910F900BBE0F90A3
:1006F0000FBE0F901F9018951F920F920FB60F927A
:1007000011240BB60F922F938F939F93EF93FF9328
:10071000E0916504F09166048081E0916B04F091B2
:100720006C0482FD12C0908180916E048F5F8F7384
:1007300020916F04821751F0E0916E04F0E0EB5AC3
:10074000FB4F958F80936E0401C08081FF91EF91E4
:100750009F918F912F910F900BBE0F900FBE0F9016
:100760001F901895362F90E0FC01EE5DFD4F4491EF
:10077000FC01E452FE4F2491FC01EA56FE4F949195
:10078000992309F46BC0442309F455C050E0FA01E1
:100790003197E231F10508F04EC08827EE58FF4F3F
:1007A0008F4F0C94BE1A809180008F7707C0809184
:1007B00080008F7D03C080918000877F80938000C0
:1007C0003AC084B58F7702C084B58F7D84BD33C0B5
:1007D0008091B0008F7703C08091B0008F7D8093AF
:1007E000B00029C0809190008F7707C08091900061
:1007F0008F7D03C080919000877F809390001BC005
:100800008091A0008F7707C08091A0008F7D03C0EA
:100810008091A000877F8093A0000DC0809120016F
:100820008F7707C0809120018F7D03C080912001C8
:10083000877F80932001E92FF0E0EE0FFF1FE4583F
:10084000FE4FA591B4918FB7F894EC91311103C08C
:1008500020952E2301C02E2B2C938FBF0895CF936C
:10086000DF9390E0FC01E452FE4F2491FC01EA5634
:10087000FE4F8491882361F190E0880F991FFC015D
:10088000EE59FE4FC591D491FC01E458FE4FA5915D
:10089000B491611109C09FB7F89488812095822393
:1008A0008883EC912E230BC0623061F49FB7F894DB
:1008B0003881822F809583238883EC912E2B2C9373
:1008C0009FBF06C08FB7F894E8812E2B28838FBF77
:1008D000DF91CF910895863308F0865390917B0085
:1008E000282F2870977F922B90937B0087708064CD
:1008F00080937C0080917A00806480937A0080915C
:100900007A0086FDFCCF809178002091790090E0FC
:10091000922B08958F929F92AF92BF92CF92DF92C7
:10092000EF92FF926B017C01D8DD4B015C01C11499
:10093000D104E104F104E9F0D0DDDC01CB01881938
:100940009909AA09BB09883E9340A105B10578F32E
:1009500021E0C21AD108E108F10888EE880E83E090
:10096000981EA11CB11CC114D104E104F10421F7AB
:10097000DECFFF90EF90DF90CF90BF90AF909F9031
:100980008F9008952FB7F8946091490470914A04AC
:1009900080914B0490914C042FBF08951F920F92A9
:1009A0000FB60F9211242F933F938F939F93AF9382
:1009B000BF938091490490914A04A0914B04B09157
:1009C0004C043091480423E0230F2D3720F4019686
:1009D000A11DB11D05C026E8230F0296A11DB11D62
:1009E000209348048093490490934A04A0934B04B5
:1009F000B0934C0480914D0490914E04A0914F040B
:100A0000B09150040196A11DB11D80934D049093A7
:100A10004E04A0934F04B0935004BF91AF919F91A7
:100A20008F913F912F910F900FBE0F901F901895AF
:100A3000DC01ED91FC910190F081E02D19941F9261
:100A40000F920FB60F9211240BB60F922F933F9374
:100A50004F935F936F937F938F939F93AF93BF93C6
:100A6000EF93FF938091B900887F803609F49CC092
:100A700068F5883209F45BC090F4803109F454C001
:100A800038F4882309F4F6C0883009F44DC0F5C065
:100A9000883109F44CC0803209F45DC0EEC0803466
:100AA00009F468C048F4803309F455C0883309F06C
:100AB000E4C080932504D8C0803509F44FC0883540
:100AC00009F45DC0883409F0D8C0D6C0883909F46B
:100AD000C7C0A8F4883709F467C038F4883609F429
:100AE00063C0803709F460C0C8C0883809F4B8C052
:100AF000803909F45FC0803809F0BFC05BC0803B1B
:100B000009F486C038F4803A09F466C0883A09F4DA
:100B10007FC0B3C0803C09F4A7C0883C09F4A4C0DE
:100B2000883B09F48AC0A9C08091220410C090912A
:100B3000240480912304981770F5E091240481E047
:100B40008E0F80932404F0E0EF5FFB4F8081809351
:100B5000BB0085EC86C0809325048EC0E091240400
:100B600081E08E0F809324048091BB00F0E0EF5F62
:100B7000FB4F808390912404809123046EC0E09108
:100B8000240481E08E0F809324048091BB00F0E068
:100B9000EF5FFB4F80838091260481116DC081E05F
:100BA0008093210484EA61C083E08093270410923B
:100BB0000004CFCF80910004803208F051C0E09152
:100BC000000481E08E0F809300048091BB00F0E070
:100BD000E052FC4F8083BDCF85EC8093BC00109227
:100BE000270480910004803230F4E0910004F0E0AA
:100BF000E052FC4F10826091000470E0E091DE034F
:100C0000F091DF0380EE93E019951092000435C057
:100C100084E0809327041092DD031092DC03E091BE
:100C2000DA03F091DB0319958091DC03811105C093
:100C300081E08093DC031092BA03E091DD0381E050
:100C40008E0F8093DD03F0E0E654FC4F80818093AB
:100C5000BB009091DD038091DC03981708F479CFF5
:100C600085E88093BC0009C085EC8093BC0010929D
:100C7000270403C01092250455DCFF91EF91BF912A
:100C8000AF919F918F917F916F915F914F913F9124
:100C90002F910F900BBE0F900FBE0F901F901895C5
:100CA0001092270481E0809326041092210461E0D1
:100CB00084E158DD61E085E155DDE9EBF0E080811C
:100CC0008E7F808380818D7F808388E48093B800CD
:100CD00085E48093BC0008952091510490915304C1
:100CE000213208F04AC0809127048111FCCF32E004
:100CF0003093270431E0309326043FEF30932504EE
:100D00001092240420932304AAE9B3E041E054E0C4
:100D1000FA013E2F341B321718F43D913193F9CF6D
:100D20001092220420912204990F922B9093220476
:100D300090912104913061F4109221049091220449
:100D40009093BB009091BC0093FDF8CF95EC01C04F
:100D500095EE9093BC00909127049230E1F390912E
:100D600025049F3F79F080912504803241F08091E5
:100D70002504803331F084E005C081E003C082E0C7
:100D800001C083E010925204109251041092540456
:100D90000895FC01248131E03093540420935304DE
:100DA00010925204109251048385682B82EF94E0D4
:100DB00046DC82EF94E090CF0F931F93CF938C018A
:100DC000C62FE7DF6C2F6460C801E3DF6C2F6B7FF9
:100DD000C801DFDF83EC90E00197F1F7CF911F911D
:100DE0000F910895FF920F931F93CF93DF931F925C
:100DF000CDB7DEB78C01F62E962F907F692F642B2E
:100E0000C8014983D9DF80E1F89EB00111244981EE
:100E1000642BC8010F90DF91CF911F910F91FF902C
:100E2000CBCF41E0DFDF81E090E008950F931F9387
:100E3000CF93DF931F92CDB7DEB78C01DC018C918D
:100E400091E09093540480935304109252041092B2
:100E5000510411968D919C911297DC01ED91FC91BA
:100E60000190F081E02D49831995F80181819281EB
:100E7000DC01ED91FC910190F081E02D4981642F1E
:100E80001995F801818192810F90DF91CF911F9187
:100E90000F9122CF0F931F93CF93DF93EC01CB01E0
:100EA000BA0126E636E646E65FE30E94321A9B0167
:100EB000AC0160E27CEB8EEB95E40E944B1820E0E5
:100EC00030E040E85FE30E94E21720E030E040E0DD
:100ED0005FE30E94E3170E9421190E94B818062FB1
:100EE000888191E0909354048093530410925204AB
:100EF0001092510489819A81DC01ED91FC9101905D
:100F0000F081E02D60E0199589819A81E5DE888184
:100F1000909127049111FCCF91E090932704909336
:100F200026042FEF2093250410922404109223040A
:100F30009093220490912204880F892B809322049D
:100F400080912104813061F4109221048091220467
:100F50008093BB008091BC0083FDF8CF85EC01C07D
:100F600085EE8093BC00809127048130E1F380916D
:100F70002404811103C08091240401C081E0A1E018
:100F8000B4E028E234E0F9019E2F921B981718F480
:100F90009D919193F9CF10928D0380938C03898159
:100FA0009A81DC01ED91FC910284F385E02D199585
:100FB000182F8F76482F406160E0CE0137DF402F39
:100FC0006EEFCE0133DF412F60E0CE012FDF65E011
:100FD00070E080E090E09EDC412F406A60E0CE014E
:100FE000DF91CF911F910F9121CF8F929F92AF925E
:100FF000BF92CF92DF92EF92FF921F93CF93DF9336
:10100000EC016A017B0160918E0370918F038A81EC
:101010009B8168177907B9F0660F771FFB01E05FC6
:10102000FD4F61E080819EDBEA81FB81EE0FFF1FB7
:10103000E05FFD4F60E0808195DB8A819B8190932A
:101040008F0380938E03888199814FD361E070E094
:1010500080E090E05FDC1AE0812C912C5401EA8161
:10106000FB81E45FFD4F808136DCBC01990F880B6A
:10107000990B0E94E6189B01AC01C501B4010E94C6
:10108000E3174B015C01115051F720E030E040E2E2
:1010900051E40E944B18A70196010E94321A6B017D
:1010A0007C018EE580937C0080917B00877F80931C
:1010B0007B0080917A00806880937A0062E070E023
:1010C00080E090E027DC80917A00806480937A0051
:1010D00080917A0086FDFCCF209178008091790084
:1010E00030E0382B032E000C440B550B6EEB73E0F5
:1010F00081E190E00E94A417CA01B9010E94E6189C
:101100002FE632E143E85AE30E94321A20E030EC45
:101110004FE754E40E944B189B01AC01C701B60194
:101120000E94321ADF91CF911F91FF90EF90DF90D4
:10113000CF90BF90AF909F908F9008958F929F9285
:10114000AF92BF92CF92DF92EF92FF924B015C0180
:1011500010927D0A60E082E79AE01BDE13DC6B01EF
:101160007C0120E030E44CE156E4C501B4010E946A
:10117000321A4B015C0120E030E0A9010E94E9191C
:1011800020E030E040E05FE387FD05C0C501B40129
:101190000E94E31704C0C501B4010E94E2170E9437
:1011A000B318C60ED71EE81EF91EC0920402D092D4
:1011B0000502E0920602F0920702FF90EF90DF90A6
:1011C000CF90BF90AF909F908F900895FC01108AB0
:1011D000118A128A138A148A158A168A178A108E1F
:1011E000118E128E138E148E158E168E178E14A2DB
:1011F00010A211A212A213A216A215A28FEF93E0C1
:1012000090A787A315A616A617A610AA11AA12AA18
:1012100013AA14AADF01AF5BBF4F1D921D921D924E
:101220001C921397868597859C01220F331F820F8E
:10123000931F4FEF53E064858E59954FE8C00F938D
:101240001F93CF93DF938C01EB0177FF02C0C0E0C7
:10125000D0E077FD20C0809194038823D1F01092D4
:101260009403209102023091030237FD09C045E446
:10127000429FC001439F900D112482509B4FA6DFD7
:1012800081DB60939003709391038093920390931A
:101290009303C00FD11F46E050E020E030E085E42A
:1012A0002F5F3F4FD7FD06C0C431D1052CF0C0E001
:1012B000D0E002C0C3E1D0E08C9FF0018D9FF00D23
:1012C0001124E250FB4F65A176A16417750791F0D8
:1012D000C00FD11F2431310541F44230510504F3D0
:1012E0004150510920E030E0DBCF25313105C4F217
:1012F000CFEFDFEFCE01DF91CF911F910F910895D6
:10130000E091720AF091730A0190F081E02D682F4C
:1013100082E79AE01994CF92DF92EF92FF920F93B7
:101320001F93CF93DF936C017A018B01C0E0D0E073
:10133000CE15DF0589F0D8016D918D01D601ED91B3
:10134000FC910190F081E02DC6011995892B11F4D3
:101350007E0102C02196ECCFC701DF91CF911F9192
:101360000F91FF90EF90DF90CF900895009761F07C
:10137000FC0101900020E9F73197AF01481B590BA0
:10138000BC0182E79AE0C7CF80E090E008958F9299
:101390009F92AF92BF920F931F93CF93DF93CDB7DE
:1013A000DEB7A1970FB6F894DEBF0FBECDBF19A26E
:1013B000423008F44AE08E010F5D1F4F842E912CBD
:1013C000A12CB12CA50194010E94C017E62FB901F0
:1013D000CA0101501109EA3014F4E05D01C0E95C72
:1013E000D801EC93232B242B252B61F7C801BEDFFA
:1013F000A1960FB6F894DEBF0FBECDBFDF91CF919F
:101400001F910F91BF90AF909F908F900895EF9292
:10141000FF921F93CF93DF931F92CDB7DEB77C016E
:10142000152FDC018C9191E0909354048093530428
:10143000109252041092510411968D919C91129722
:10144000DC01ED91FC91B4E06B9F90011124B90196
:101450006A5F7F4F0190F081E02D4983199560E02C
:1014600070E0F70181819281E3DA60E070E0D701FA
:1014700011968D919C911297DBDA4981642F712F1F
:10148000F70181819281D4DA612F70E0D701119642
:101490008D919C911297CCDAF701818192810F9006
:1014A000DF91CF911F91FF90EF9016CC40E061E06B
:1014B00082E79AE097DC8BE39FE10197F1F70895CB
:1014C000CF93DF93CDB7DEB728970FB6F894DEBF82
:1014D0000FBECDBF28E0E8E6F2E0DE0111960190F4
:1014E0000D922A95E1F720917A0A261710F46FEFF2
:1014F000620FFE013196E60FF11DE60FF11D90819E
:10150000682F690F606840E082E79AE028960FB67E
:10151000F894DEBF0FBECDBFDF91CF9163CC26CF55
:10152000CF92DF92EF92FF92CF93DF9397FF17C096
:101530006B017C018DE2E4DEEC0166277727CB01AD
:101540006C197D098E099F094AE021DF8C0F9D1FD0
:10155000DF91CF91FF90EF90DF90CF9008954AE018
:10156000DF91CF91FF90EF90DF90CF9010CF8F92CF
:101570009F92AF92BF92CF92DF92EF92FF92CF9362
:10158000DF936B017C019B01AC010E94951A8823BB
:1015900019F080E893E027C046015701E894B7F8B6
:1015A0002FEF3FEF4FE75FE7C501B4010E94951AA7
:1015B00081110DC02FEF3FEF4FE75FE7C501B40189
:1015C0000E94471818161CF484E893E00CC02FEF13
:1015D0003FEF4FE75FE4C701B6010E94E919181613
:1015E0006CF488E893E0DF91CF91FF90EF90DF906B
:1015F000CF90BF90AF909F908F90B8CE2FEF3FEFDE
:101600004FE75FECC701B6010E94471887FDE9CF9D
:1016100020E030E0A901C701B6010E94471887FF0A
:1016200008C08DE26DDEEC01F7FAF094F7F8F09463
:1016300002C0C0E0D0E02AE037ED43EA5BE3C70137
:10164000B6010E94E3174B015C010E94B8186B01C0
:101650007C010E94E4189B01AC01C501B4010E9409
:10166000E2174B015C014AE0C701B60190DEC80FEA
:10167000D91F8EE245DEC80FD91F20E030E040E2DE
:1016800051E4C501B4010E94321A4B015C010E9471
:10169000B8186B01E12CF12C4AE0C701B60177DEE6
:1016A000C80FD91FC701B6010E94E4189B01AC0105
:1016B000C501B4010E94E21720E030E040E251E4AD
:1016C0000E94321A0E94B81880E090E04AE05FDE83
:1016D0008C0F9D1FDF91CF91FF90EF90DF90CF9007
:1016E000BF90AF909F908F9008950F931F93CF93CB
:1016F000DF9323E0880F991F2A95E1F7EC01C05989
:10170000DD4F08E61AE06881F80180812BD86A81F4
:10171000F801828127D86C81F801848123D86E81F9
:10172000F8018681DF91CF911F910F911BC8CF9354
:10173000DF93CDB7DEB72A970FB6F894DEBF0FBEA2
:10174000CDBF789484B5826084BD84B5816084BD4A
:1017500085B5826085BD85B5816085BD80916E004F
:10176000816080936E001092810080918100826080
:1017700080938100809181008160809381008091BD
:1017800080008160809380008091B10084608093AC
:10179000B1008091B00081608093B0008091910091
:1017A000826080939100809191008160809391008C
:1017B000809190008160809390008091A100826070
:1017C0008093A1008091A10081608093A10080910D
:1017D000A00081608093A0008091210182608093AD
:1017E000210180912101816080932101809120015C
:1017F00081608093200180917A00846080937A00D8
:1018000080917A00826080937A0080917A00816072
:1018100080937A0080917A00806880937A00109299
:10182000C10010928D0310928C03109252041092FA
:10183000510436DAE0916504F091660412E01083F9
:10184000E0916104F09162041082E0916304F091F0
:1018500064048FEC808310926D04E0916904F09130
:101860006A0486E08083E0916704F09168048081D7
:1018700080618083E0916704F091680480818860D2
:101880008083E0916704F0916804808180688083A0
:10189000E0916704F091680480818F7D808380915E
:1018A000770A88608093770A10937A0A62E370E07F
:1018B00080E090E02FD860917D0A82E79AE069DAB3
:1018C00068EE73E080E090E025D860E382E79AE07C
:1018D00073DAFBE4EF2EF6E4FF2EC7010197F1F770
:1018E00060E382E79AE068DAC7010197F1F760E305
:1018F00082E79AE061DA83E592E00197F1F760E22E
:1019000082E79AE059DA6091770A606240E082E704
:101910009AE068DA84E08093780A40E06CE082E73D
:101920009AE060DAC3DD1093790A40E066E082E76E
:101930009AE058DA40E062E082E79AE053DA8BE31B
:101940009FE10197F1F710927D0A60E082E79AE04B
:1019500020DA18D8609395037093960380939703C9
:101960009093980360E087E30E942F0460E088E38F
:101970000E942F0460E089E30E942F0460E08AE364
:101980000E942F0461E08BE20E942F0461E08DE24F
:101990000E942F0461E08FE20E942F0461E081E346
:1019A0000E942F0461E08AE20E942F0461E08CE231
:1019B0000E942F0461E08EE20E942F0461E080E328
:1019C0000E942F0460E08AE20E94B20360E08CE291
:1019D0000E94B20360E08EE20E94B20360E080E306
:1019E0000E94B20360E08BE20E94B20360E08DE2ED
:1019F0000E94B20360E08FE20E94B20360E081E3E4
:101A00000E94B20360E086E30E942F0402E61AE01F
:101A100010928D0310928C03109252041092510474
:101A20003FD940E860E0C80101DA6AE070E080E098
:101A300090E00E948A0440E050E06AE774E4C80144
:101A400029DA40E050E068EC74E4C80123DA0D5F65
:101A50001F4F2AE008361207D9F62EEF34E03A87F6
:101A60002987E12CF12C00E010E060E070E0F2E06A
:101A7000CF2ED12C89E090E066246394712C25E070
:101A800030E0412C512C40E050E022242A94B3E075
:101A90003B2E812C912CEAE7AE2EE4E4BE2EA985E4
:101AA000BA8511961C921E9213961C921E92129742
:101AB00015961C921E92149717961C921E921697BA
:101AC00019961C921E9218971B961C921E921A979A
:101AD0001D961C921E921C971F961C921E921E977A
:101AE000FD01108A118A128A138A54961D921D9242
:101AF0001D921C925797108E118E128E138E5C962B
:101B00001D921D921D921C925F9710A211A212A20B
:101B100013A2F701E250FB4F14A296961C921E925C
:101B2000959798963C922E929797FD0111A612A632
:101B300013A614A69D961D921D921D921C92D097DD
:101B400011AA12AA13AA14AAD5961D921D921D922B
:101B50001C92D89711AE12AE13AE14AEFD968082D1
:101B60009182A282B38234961082118212821382F1
:101B7000403151052CF0FFEF4F1A5F0A40E050E072
:101B8000DA011196BA83A983E985FA8551834083E6
:101B900053824282203131052CF0FFEF6F1A7F0A09
:101BA00020E030E0A9014F5F5F4F5C834B83A98544
:101BB000BA8515963C932E93149717967C926E9245
:101BC0001697803191052CF0BFEFCB1ADB0A80E02D
:101BD00090E09C012F5F3F4FE985FA8591878087D0
:101BE000D386C2866031710524F00F5F1F4F60E01D
:101BF00070E0AB014F5F5F4F5E834D83A985BA856F
:101C00001D967C936E931C971F961C930E931E97A4
:101C100098963C922E929797C801880F991F800F33
:101C2000911F4FEF53E08E59954F2F833887EFDB8D
:101C3000E985FA85EB5BFF4FFA87E987F5E4EF0E5C
:101C4000F11C2F81388544E6E41645E0F40609F4DA
:101C50004EC06D817E81C9012B813C8149815A81B1
:101C60001ECF20910202309103022215330509F0A4
:101C7000E0C18090900390909103A0909203B09067
:101C800093030E94C204681579058A059B0508F034
:101C900099C1FFEF2F1A3F0A25E4C20ED11C4981DA
:101CA0005A814B5B5F4F5A83498354E125163104B7
:101CB00009F01BC180919403882309F452C48091D8
:101CC00002029091030297FD4CC48090080290900C
:101CD0000902A0900A02B0900B020E94C20486166C
:101CE0009706A806B90608F4D6C40E9435020EEF7E
:101CF00014E080918E0390918F03D80112962D915C
:101D00003C91139782179307E9F0880F991FFC0104
:101D1000E05FFD4F61E080810E94B203D80112961E
:101D2000ED91FC911397EE0FFF1FE05FFD4F60E018
:101D300080810E94B203F8018281938190938F0386
:101D400080938E03D8018D919C91CFDC61E070E08F
:101D500080E090E00E948A04D8011296ED91FC91F7
:101D60001397E45FFD4F80810E946B04BC01990FC3
:101D7000880B990B0E94E6189B01AC0160E070ECA7
:101D80008FE794E40E944B1820E030E040E85FE3E6
:101D90000E94E21720E030E44CE156E40E94321A3F
:101DA0000E94F2196B017C0126ED34E649E759E304
:101DB0000E94321A2BEC38E444E85AE30E94E317FD
:101DC0004B015C012CE63FEC48E554E3C701B6014A
:101DD0000E94321AA70196010E94321AA7019601A9
:101DE0000E94321A9B01AC01C501B4010E94E317A5
:101DF0009B01AC0160E070E080E89FE30E944B181B
:101E000023E333E14AE853E40E94E217F80161A7B3
:101E100072A783A794A70B5B1F4FFAE002361F0738
:101E200009F067CF08E112E0C12CD12C40E050E06E
:101E300060E070E4C6018E5F9A4FD7D84B015C0119
:101E4000D8012D913D914D915D918D01F601E250AA
:101E5000FB4F7F010E94321A9B01AC01C501B40106
:101E60000E94E217D701D5966D937D938D939C9335
:101E7000D897B5E4CB0ED11CE4E6CE16E5E0DE063D
:101E8000A9F6A12CB12C40E050E060E87FE3C50149
:101E90008A5F9A4FAAD86B017C01850102501B4FC3
:101EA00022E835E14DE25CE30E94321A9B01AC016D
:101EB000C701B6010E94E317D801D9966D937D93AF
:101EC0008D939C93DC97B5E4AB0EB11CE4E6AE16A3
:101ED000E5E0BE06C1F65AE0C52E55E0D52E22E259
:101EE00035E03A832983212C312CF0909403FF2094
:101EF000A1F180910202909103028215930569F588
:101F000035E4329D8001339D100D112402501B4F8A
:101F1000D80195968D919C9196978B7F0297E9F0C9
:101F20008090900390909103A0909203B0909303BF
:101F30000E94C204681579058A059B0570F423E3A5
:101F400033E343E350E4F80165A976A987A990AD8E
:101F50000E94E91918160CF491C0A981BA81119652
:101F60008D919C911297892B09F49AC023E333E356
:101F700043E150E4A981BA8151966D917D918D9193
:101F80009C9154970E94471818160CF489C0F110C0
:101F900068CE60E070E080E89FE3D0D8B1E0B09315
:101FA00094030E94C204DC01CB01805F984DAF4FC7
:101FB000BF4F8093900390939103A0939203B093AB
:101FC0009303E3C0E5E4E29DC001E39D900D11247D
:101FD00082509B4FFBD8109294030E94C2046093DE
:101FE0009003709391038093920390939303609175
:101FF00002027091030281E090E021D990930302E4
:102000008093020297FD45CE0E94C204DC01CB0101
:1020100088579C4EAF4FBF4F80939003909391038E
:10202000A0939203B093930360E070E080E09FE39D
:1020300023C037FD09C0F5E4F29FC001F39F900D66
:10204000112482509B4FC2D80E94C204DC01CB01F4
:10205000805F984DAF4FBF4F809390039093910353
:10206000A0939203B0939303309203022092020252
:1020700060E070E080E89FE361D80BCE109294039B
:102080000E94C204DC01CB0188579C4EAF4FBF4F6A
:102090008093900390939103A0939203B093930342
:1020A000A981BA8111968D919C91129782309105E8
:1020B00009F470C034F4009771F0019709F443C03B
:1020C000E8CD8430910509F419C10CF4ABC0059733
:1020D00009F430C2DECDE981FA8181889288A38833
:1020E000B48823E333E343E350E4C501B4010E9421
:1020F000E91987FD16C0E2E0F0E0A981BA811296E5
:10210000FC93EE9311978091940381111CC060E0C1
:1021100070E080E89FE312D830920302209202021E
:1021200012C02DEC3CEC44E850E4C501B4010E941F
:10213000E91987FDAECDE3E0F0E0A981BA811296FE
:10214000FC93EE931197A981BA8111968D919C9180
:1021500012970197F9F42DEC3CEC44E850E45196C9
:102160006D917D918D919C9154970E94E91987FD05
:1021700090CD23E030E0E981FA813283218360E071
:1021800070E080E89FE30E949E0830920302209254
:1021900002027FCDA981BA8111968D919C911297EF
:1021A000029709F03FC013968D919C911497892B4B
:1021B00079F014961C921E921397F60182819381F6
:1021C0009C01220F331F820F931F40E050E0ACC1EF
:1021D00020E030E0A901A981BA8115966D917D9129
:1021E0008D919C91189753D787FF53CD2FEF33E0F4
:1021F000E981FA8134832383D60112968D919C91D3
:1022000013979C01220F331F820F931F4FEF53E050
:102210006C918E59954FFBD823E030E0E981FA812B
:1022200032832183D60154968D909D90AD90BC90C1
:10223000579781149104A104B10449F50E94C20486
:10224000DC01CB018854944FAF4FBF4FF601848B14
:10225000958BA68BB78B8091940381110AC060E0A7
:1022600070E080E89FE30E949E0830920302209273
:102270000202D60112968D919C9113979C01220F18
:10228000331F820F931F4FE458E06C912CC020E065
:1022900030E0A901E981FA81658576858785908995
:1022A000F6D6811123C00E94C204681579058A05FB
:1022B0009B0508F037C21AC00E94C204DC01CB01A2
:1022C0008854944FAF4FBF4FF601848B958BA68BEC
:1022D000B78B828193819C01220F331F820F931F42
:1022E00046E85BE060818E59954F91D8E4E0F0E0DC
:1022F000A981BA811296FC93EE93119723E333E3FD
:1023000043E350E4A981BA8151966D917D918D91FD
:102310009C915497BCD61816ECF02FEF33E0E9816E
:10232000FA8134832383D60112968D919C91139761
:102330009C01220F331F820F931F4FEF53E06C91CC
:102340008E59954F64D825E030E0E981FA813283D7
:102350002183F0C0A981BA8113968D919C91149725
:10236000009719F08F3F934031F52BE23CE0E98173
:10237000FA81348323830E94C204A981BA815D96C5
:102380006D937D938D939C9390978C91823080F088
:1023900013964D915C911497F601828193819C0173
:1023A000220F331F820F931F60818E59954F2FD8B4
:1023B000E4E0F0E0CFC0A981BA818C91823068F46A
:1023C000F60184889588A688B7880E94C20468159B
:1023D00079058A059B0508F010C220E030E04AE745
:1023E00054E4A981BA8155966D917D918D919C910E
:1023F00058970E94321A2B013C010E94C2044B01E3
:102400005C01E981FA81858D968DA78DB0A1A5012A
:102410009401281B390B4A0B5B0BCA01B901D4D6B6
:102420009B01AC01C301B2010E94321A20E03AEBD9
:102430004BE55AE430D69B01AC01A981BA811996CB
:102440006D917D918D919C911C97BDD5E981FA810B
:102450006187728783879487858E968EA78EB0A2B8
:102460008081823008F415CC20E030E04AE754E463
:10247000658976898789908DF5D74B015C0120E0CD
:1024800030E0A901A6D718160CF003CCE981FA8137
:10249000418C528C638C748CA3019201C501B401F0
:1024A000F6D5882309F4F5CBA981BA811396ED906E
:1024B000FC9014978701A5019401C301B20182D554
:1024C00052D61616170644F4BFEFEB16BFE0FB0614
:1024D0005CF40F5F1F4F0CC0672B31F01E141F04FC
:1024E0003CF48701015011090115E0E11E073CF49D
:1024F0000F3FF3E01F072CF40FEF13E002C00FEFC4
:102500001FE0E016F10609F4C4CBA981BA81149644
:102510001C930E931397F601828193819C01220FE5
:10252000331F820F931FA80160818E59954F0E941F
:10253000070AAFCB8091940381110AC060E070E07C
:1025400080E89FE30E949E083092030220920202DC
:10255000E6E0F0E0A981BA811296FC93EE93119720
:1025600098CB80E00E946B04209100023091010220
:102570002F3F3F4FB9F58E31910524F4109201029F
:10258000109200029C012E5131092238310530F49D
:1025900022E030E030930102209300029C01205A97
:1025A0003109203F310530F4E3E0F0E0F09301021F
:1025B000E09300029C01205931402639310530F466
:1025C00021E030E0309301022093000286529240D5
:1025D0008A3F910590F424E030E03093010220938B
:1025E00000020BC0843E924044F0109299038FEF9A
:1025F0009FEF9093010280930002009100021091DE
:1026000001020F3F4FEF140731F060E070E080E807
:102610009FE30E949E0880919903811156CB02305E
:10262000110579F03CF40115110589F1013011050E
:1026300071F14BCB03301105A1F00430110539F1D4
:1026400044CB81E08093990360E070E080E89FE3F1
:102650000E949E08609102027091030281E090E066
:102660000FC081E08093990360E070E080E89FE311
:102670000E949E0860910202709103028FEF9FEF0B
:102680000E941F0990930302809302021ECB81E0F7
:10269000809399031ACBC0900402D0900502E09079
:1026A0000602F0900702C114D104E104F10441F0E4
:1026B0000E94C20486169706A806B90608F4A4C0AC
:1026C000A0900202B09003025FEFA516B506F9F4E0
:1026D0008EEF9FEF90930302809302020E94560AAE
:1026E00060E081E00E94600A80E293E00E948F0A2D
:1026F00061E085E00E94600A8FE293E00E948F0A09
:1027000060E070E080E89FE30E949E08EECAB7FC9C
:10271000F3C20E94C2046C157D058E059F0508F466
:1027200084C0EAC2E981FA812081E22FF0E0A98128
:10273000BA8151964D915D916D917C915497DF01D5
:102740001496AA0FBB1FAA0FBB1F35E4329DC00110
:10275000339D900D1124A80FB91FA250BB4F4D936C
:102760005D936D937C931397A981BA8155964D9192
:102770005D916D917C9158973696EE0FFF1FEE0F8D
:10278000FF1FE80FF91FE250FB4F40835183628324
:1027900073832F5F2C93223008F48ECDD6011496CC
:1027A0002D913D914D915C91179718966D917D916A
:1027B0008D919C911B9706D49F7720E030E04AE7EB
:1027C00054E450D64B015C01F601248535854685DD
:1027D00057856089718982899389F4D39B01AC0103
:1027E0005F77C501B40157D4A981BA811D966D9355
:1027F0007D938D939C93509779CD23E030E0E981D0
:10280000FA8132832183E9CD0E94C204DC01CB012D
:102810008C509E4FAF4FBF4F809308029093090298
:10282000A0930A02B0930B024BCF15E41A9DC0018E
:102830001B9D900D1124FC01E250FB4F85A196A138
:102840008230910509F041C00E94560A60E083E0A1
:102850000E94600A8AE493E00E948F0A60E08BE0A5
:102860000E94600A60910202709103026F5F7F4FC5
:10287000072E000C880B990B0E94900A61E081E002
:102880000E94600A8DE693E00E948F0A61E08AE070
:102890000E94600A2091020230910302129FC0013F
:1028A000139F900D1124FC01E250FB4F65A976A9FE
:1028B00087A990AD0E94B70A61E08EE00E94600A8D
:1028C00089E593E00E948F0A10CA833091050CF0CD
:1028D00061C0009709F50E94560A60E083E00E94FB
:1028E000600A85E393E00E948F0A60E08BE00E941B
:1028F000600A60910202709103026F5F7F4F072EA2
:10290000000C880B990B0E94900A61E081E00E9404
:10291000600A8DE393E0D6CF019709F0E6C90E94E3
:10292000560A60E083E00E94600A8AE493E00E9415
:102930008F0A60E08BE00E94600A60910202709151
:1029400003026F5F7F4F072E000C880B990B0E94CC
:10295000900A61E083E00E94600A83E593E00E94B0
:102960008F0A61E088E00E94600A209102023091A3
:102970000302129FC001139F900D1124FC01E2502D
:10298000FB4F65A976A987A990AD0E94B70A61E0BF
:102990008CE094CF85309105D9F50E94560A60E00D
:1029A00083E00E94600A8AE493E00E948F0A60E05C
:1029B0008BE00E94600A60910202709103026F5FD7
:1029C0007F4F072E000C880B990B0E94900A61E044
:1029D00080E00E94600A8BE693E00E948F0A61E02B
:1029E0008BE00E94600A2091020230910302129F44
:1029F000C001139F900D1124FC01E250FB4F65A90B
:102A000076A987A990AD0E94B70A61E08FE056CF02
:102A10008630910509F07DC00E94560A60E083E08F
:102A20000E94600A86E793E00E948F0A60E08CE0D3
:102A30000E94600A60910202709103026F5F7F4FF3
:102A4000072E000C880B990B0E94900A61E082E02F
:102A50000E94600A2091020230910302129FC0017D
:102A6000139F900D1124FC01E250FB4FC5A4D6A486
:102A7000E7A4F0A820E030E0A901C701B601A9D47D
:102A800020E030E040E05FE387FD04C0C701B6010D
:102A90009AD203C0C701B60195D265D30E94900AAD
:102AA00061E086E00E94600A80E693E00E948F0A5F
:102AB00061E08AE00E94600A809102029091030224
:102AC00025E4289FF001299FF00D1124E250FB4FCF
:102AD000C1A8D2A8E3A8F4A820E030E0A901C7016A
:102AE000B60177D420E030E040E05FE387FD04C02A
:102AF000C701B60168D203C0C701B60163D233D3A0
:102B00000E94900A61E08DE00E94600A84E693E0F2
:102B1000D9CE049709F0E9C80E94560A60E081E026
:102B20000E94600A8BE593E00E948F0A60E085E0D6
:102B30000E94600A60910202709103026F5F7F4FF2
:102B4000072E000C880B990B0E94900A60E088E029
:102B50000E94600A2091020230910302129FC0017C
:102B6000139F900D1124FC01E250FB4FC5A4D6A485
:102B7000E7A4F0A820E030E0A901C701B60129D4FC
:102B800020E030E040E05FE387FD04C0C701B6010C
:102B90001AD203C0C701B60115D2E5D20E94900A2D
:102BA00060E08CE00E94600A80E693E00E948F0A59
:102BB00061E080E00E94600A2091020230910302ED
:102BC00015E4129FC001139F900D1124FC01E250E7
:102BD000FB4F65A976A987A990AD0E94B70A61E06D
:102BE00084E00E94600A89E593E00E948F0A61E018
:102BF00086E00E94600A2091020230910302129F37
:102C0000C001139F900D1124FC01E250FB4FC1A89D
:102C1000D2A8E3A8F4A820E030E0A901C701B601DA
:102C2000D8D320E030E040E05FE387FD04C0C70177
:102C3000B601C9D103C0C701B601C4D194D20E9464
:102C4000900A61E089E00E94600A84E693E00E94B5
:102C50008F0A61E08CE00E94600AC0900402D0906C
:102C60000502E0900602F090070288E8C81A83E1A6
:102C7000D80AE108F1080E94C20440910202509172
:102C8000030225E4249FF001259FF00D1124E2505A
:102C9000FB4F6C157D058E059F0568F461AD72AD27
:102CA00083AD94AD0E94B70A61E08FE00E94600A94
:102CB00087E693E007CEC1A4D2A4E3A4F4A420E065
:102CC00030E0A901C701B60184D320E030E040E044
:102CD0005FE387FD04C0C701B60175D103C0C7011A
:102CE000B60170D140D20E94900A61E08EE00E944D
:102CF000600A89E693E0E6CD0E94C2046C157D056A
:102D00008E059F0510F40C94750ECD28CE28CF2883
:102D100011F40C94750E8EEF9FEF90930302809345
:102D20000202109204021092050210920602109202
:102D300007020E94560A88E080937D0A60E082E7DD
:102D40009AE00E94C9060C94750ECF93DF931092FF
:102D500058041092570488EE93E0A0E0B0E080930E
:102D6000590490935A04A0935B04B0935C0424EF3D
:102D700032E0309356042093550425EC30E0309334
:102D800062042093610424EC30E0309364042093C7
:102D9000630420EC30E0309366042093650421EC5A
:102DA00030E0309368042093670422EC30E03093E5
:102DB0006A042093690426EC30E030936C0420937D
:102DC0006B0410926E0410926F04109270041092B3
:102DD0007104C2EFD4E01092F5041092F4048093D1
:102DE000F6049093F704A093F804B093F90486E0F6
:102DF00093E09093F3048093F2041092750A10927A
:102E0000740A88E193E09093730A8093720A8FE3C7
:102E10008093760A80E180937B0A82E080937C0A2B
:102E200010927D0A61E08AE20E942F0461E08CE248
:102E30000E942F0461E08EE20E942F0461E080E393
:102E40000E942F048AE290E09093690A8093680AB6
:102E50008CE290E090936B0A80936A0A8EE290E095
:102E600090936D0A80936C0A80E390E090936F0AD0
:102E700080936E0A80E48093620AD093640AC093C0
:102E8000630A81E48093650AD093670AC093660A57
:102E9000EEEFF4E08FEF93E040E050E06AE774E497
:102EA0001182108213821282158214821782168276
:102EB0001186108613861286158614861786168646
:102EC000108A118A128A138A148A158A168A178A16
:102ED000108E118E128E138E148E158E168E178EE6
:102EE00010A211A212A213A214A216A215A290A7B8
:102EF00087A311A612A613A614A615A616A617A692
:102F000010AA11AA12AA13AA14AA15AA16AA17AAD5
:102F100010AE11AE12AE13AE14AEDF01DD964D93BE
:102F20005D936D937C93139714961D921D921D9241
:102F30001C921397EB5BFF4F2AE0E236F20709F091
:102F4000AFCFDF91CF910895052E97FB16F4009433
:102F50000FD057FD05D014D007FC02D046F408C0AE
:102F600050954095309521953F4F4F4F5F4F0895B5
:102F700090958095709561957F4F8F4F9F4F0895E5
:102F8000A1E21A2EAA1BBB1BFD010DC0AA1FBB1F6D
:102F9000EE1FFF1FA217B307E407F50720F0A21BDF
:102FA000B30BE40BF50B661F771F881F991F1A944C
:102FB00069F760957095809590959B01AC01BD0176
:102FC000CF0108955058BB27AA270ED0B1C1A2D176
:102FD00030F0A7D120F031F49F3F11F41EF497C1D7
:102FE0000EF4E095E7FB64C1E92FB3D180F3BA1783
:102FF000620773078407950718F071F49EF5E2C124
:103000000EF4E0950B2EBA2FA02D0B01B901900103
:103010000C01CA01A0011124FF27591B99F0593F47
:1030200050F4503E68F11A16F040A22F232F342F8F
:103030004427585FF3CF469537952795A795F040DD
:103040005395C9F77EF41F16BA0B620B730B840BF2
:10305000BAF09150A1F0FF0FBB1F661F771F881FAA
:10306000C2F70EC0BA0F621F731F841F48F4879502
:1030700077956795B795F7959E3F08F0B3CF9395F1
:10308000880F08F09927EE0F979587950895ECD053
:1030900008F481E008950CD04BC143D140F03AD1FF
:1030A00030F021F45F3F19F003C151118CC12FC1E1
:1030B00050D198F39923C9F35523B1F3951B550BC0
:1030C000BB27AA2762177307840738F09F5F5F4FFB
:1030D000220F331F441FAA1FA9F333D00E2E3AF03C
:1030E000E0E830D091505040E695001CCAF729D056
:1030F000FE2F27D0660F771F881FBB1F26173707A5
:103100004807AB07B0E809F0BB0B802DBF01FF27D4
:1031100093585F4F2AF09E3F510568F0C9C053C1D4
:103120005F3FECF3983EDCF3869577956795B7950E
:10313000F7959F5FC9F7880F911D9695879597F929
:103140000895E1E0660F771F881FBB1F62177307A2
:103150008407BA0720F0621B730B840BBA0BEE1FB7
:1031600088F7E095089504D06894B1112CC10895B2
:10317000F8D088F09F5790F0B92F9927B751A0F059
:10318000D1F0660F771F881F991F1AF0BA95C9F7FB
:1031900012C0B13081F016D1B1E0089513C1672F8C
:1031A000782F8827B85F39F0B93FCCF386957795AB
:1031B0006795B395D9F73EF4909580957095619594
:1031C0007F4F8F4F9F4F0895E89409C097FB3EF4BF
:1031D00090958095709561957F4F8F4F9F4F992364
:1031E000A9F0F92F96E9BB279395F69587957795E2
:1031F0006795B795F111F8CFFAF4BB0F11F460FFA2
:103200001BC06F5F7F4F8F4F9F4F16C0882311F0F9
:1032100096E911C0772321F09EE8872F762F05C00D
:10322000662371F096E8862F70E060E02AF09A95A8
:10323000660F771F881FDAF7880F9695879597F99D
:103240000895A9D080F09F3740F491110EF0BBC0D3
:1032500060E070E080E89FEB089526F41B16611D86
:10326000711D811D2BC045C0990F0008550FAA0B79
:10327000E0E8FEEF16161706E807F907C0F0121689
:103280001306E407F50798F0621B730B840B950B8C
:1032900039F40A2661F0232B242B252B21F40895E1
:1032A0000A2609F4A140A6958FEF811D811D08957E
:1032B00097F99F6780E870E060E00895882371F4D3
:1032C000772321F09850872B762F07C0662311F4BF
:1032D00099270DC09051862B70E060E02AF09A95F6
:1032E000660F771F881FDAF7880F9695879597F9ED
:1032F00008959F3F31F0915020F487957795679519
:10330000B795880F911D9695879597F908959FEF2A
:1033100080EC089500240A9416161706180609066C
:10332000089500240A94121613061406050608953B
:10333000092E0394000C11F4882352F0BB0F40F4C3
:10334000BF2B11F460FF04C06F5F7F4F8F4F9F4F03
:10335000089557FD9058440F551F59F05F3F71F085
:103360004795880F97FB991F61F09F3F79F08795EC
:103370000895121613061406551FF2CF4695F1DF75
:1033800008C0161617061806991FF1CF8695710505
:10339000610508940895E5DFA0F0BEE7B91788F449
:1033A000BB279F3860F41616B11D672F782F88272A
:1033B000985FF7CF869577956795B11D9395963968
:1033C000C8F30895E894BB2766277727CB0197F9C0
:1033D00008954ADF08F48FEF08950EF08ACF97CF53
:1033E000689466CFBEDFC8F39923D1F3C6F3DF93A9
:1033F000CF931F930F93FF92C92FDD2788232AF0C5
:103400002197660F771F881FDAF720E030E040E849
:103410005FEB9FE3883920F0803E30F021968F7774
:10342000D2DDE8E0F1E003C0CEDDE5E3F1E081D0FC
:103430008B01BE01EC01FB2E6F5771097595771F4B
:10344000880B990BC3DE28E132E741E35FE316D036
:10345000AF2D9801AE01FF900F911F91CF91DF9199
:10346000C3DD66CF0BD064CF55DF28F05ADF18F0EC
:10347000952309F01DCF4BCF1124A5CF6ADFA0F310
:10348000959FD1F3950F50E0551F629FF001729FF9
:10349000BB27F00DB11D639FAA27F00DB11DAA1F18
:1034A000649F6627B00DA11D661F829F2227B00D65
:1034B000A11D621F739FB00DA11D621F839FA00DF0
:1034C000611D221F749F3327A00D611D231F849F40
:1034D000600D211D822F762F6A2F11249F57504097
:1034E0008AF0E1F088234AF0EE0FFF1FBB1F661F32
:1034F000771F881F91505040A9F79E3F510570F0EB
:10350000D7CE61CF5F3FECF3983EDCF3869577959D
:103510006795B795F795E7959F5FC1F7FE2B880FE5
:10352000911D9695879597F908959EDE880B990BC6
:103530000895DF93CF931F930F93FF92EF92DF9243
:103540007B018C01689405C0DA2EEF0197DFFE0144
:10355000E894A5912591359145915591AEF3EF01F0
:1035600043DDFE019701A801DA9479F7DF90EF902F
:10357000FF900F911F91CF91DF910895EE0FFF1FE4
:10358000881F8BBF0790F691E02D199481E090E0A1
:08359000F89400C0F894FFCF8D
:10359800FFFFFFFF10270000F40100003738393A19
:1035A8002B002D002F0031002422A33C89A18D3C43
:1035B800739E6E3C60B2153C2DD2D63C912DA63C34
:1035C800B079A83C0745A63CB5A48D3C5B24923C49
:1035D8008F91A83C94B77B3CCFD2AA3C344B0B3C90
:1035E8002A8CE83BFE8E873C7B2E933CD134BF3C33
:1035F800D134BF3C698FD13C000040001400540016
:1036080000000000000000000100000000000000B1
:10361800000001000000000001000100000000009F
:10362800000000000100000001000000010000008F
:10363800000001000100000001000100010000007D
:10364800000000000000010001000000000001006F
:10365800000001000000010001000100000001005D
:10366800000000000100010001000000010001004D
:10367800000001000100010001000100010001003B
:1036880000000000CE018B09670114029801760141
:103698008A01000000001F03F0024E03C402E80282
:1036A800D402C5020000000011078B094E034D0328
:1036B800426174746572792054657374657200563A
:1036C80065722032004261747465722000456D7025
:1036D80074792020536C6F74210042617474657290
:1036E8007920004C4F573A200056004261742D0053
:1036F8006D4168006D4F00410043005265436861A9
:103708007267696E6700426174746572696520004A
:0C3718006E616E00696E66006F766600E0
:00000001FF
