:1000000043C1000072C1000070C100006EC1000059
:100010006CC100006AC1000068C1000066C1000038
:1000200064C1000062C1000060C100005EC1000048
:100030005CC100005AC1000058C1000056C1000058
:1000400054C1000052C1000050C100004EC1000068
:100050004CC100004AC1000048C10000AEC400000D
:1000600044C1000058C300002DC300003EC1000081
:100070003CC100003AC1000038C1000036C1000098
:1000800034C1000032C1000030C100002EC10000A8
:100090002CC100002AC1000028C10000DFC40000FC
:1000A00024C1000022C1000020C100001EC10000C8
:1000B0001CC100001AC1000018C1000016C10000D8
:1000C00014C1000012C1000010C100000EC10000E8
:1000D0000CC100000AC1000008C1000006C10000F8
:1000E00004C10000EE103D1165119C11D61146129D
:1000F000631334155715A015C315A70E0416FE1665
:100100003F17F003F303E203E603EA032A04F703CD
:10011000FB030104050409040F04130417042A0453
:100120001D042104250408000000BE922449123E4B
:10013000ABAAAA2ABECDCCCC4C3E00000080BEAB00
:10014000AAAAAA3E00000000BF000000803F0000F5
:10015000000000084178D3BB4387D1133D190E3C02
:10016000C3BD4282AD2B3E68EC8276BED98FE1A939
:100170003E4C80EFFFBE01C4FF7F3F000000000047
:1001800000002100240027002A002D003000330049
:1001900001010000040107010A01000022002500FE
:1001A00028002B002E003100340002010000050160
:1001B00008010B01050505050705080808080202E6
:1001C00002020A0A080804040404010101010101F1
:1001D00001010303030303030303040707070C0CD4
:1001E0000C0C0C0C0C0C020202020606060606069B
:1001F00006060B0B0B0B0B0B0B0B01021020200840
:100200000810204010204080020102010804020171
:1002100001020408102040808040201008040201E0
:100220008004020180402010080402010804020139
:1002300001020408102040800102040810204080C0
:1002400000000A0B02090C0D0E0807030401000050
:10025000000000000000000000000000000000009E
:10026000000000000000000000000000121110005B
:10027000000000000000000000000000000000007E
:10028000000000000000C01711241FBECFEFD1E214
:10029000DEBFCDBF00E00CBF13E0A0E0B2E0E6EFB0
:1002A000F7E300E00BBF02C007900D92A23DB1073B
:1002B000D9F72AE0A2EDB3E001C01D92A43CB20739
:1002C000E1F711E0C4E4D1E000E006C021970109A4
:1002D000802FFE010E94ED1BC334D10780E0080788
:1002E000A9F70E94C80B0C94F91B8ACEFC01538D10
:1002F000448D252F30E0842F90E0821B930B541700
:1003000010F0CF96089501970895FC01918D828D8C
:10031000981761F0828DDF01A80FB11D5D968C9159
:10032000928D9F5F9F73928F90E008958FEF9FEF64
:100330000895FC01918D828D981731F0828DE80F20
:10034000F11D858D90E008958FEF9FEF0895FC01DA
:10035000918D228D892F90E0805C9F4F821B9109A7
:100360008F73992708958BE994E0F1DF21E0892BC1
:1003700009F420E0822F0895FC01848DDF01A80F8D
:10038000B11DA35ABF4F2C91848D90E001968F73BD
:100390009927848FA689B7892C93A089B1898C91DC
:1003A00080648C93938D848D981306C00288F389A2
:1003B000E02D80818F7D80830895EF92FF920F93CF
:1003C0001F93CF93DF93EC0181E0888F9B8D8C8D01
:1003D000981305C0E889F989808185FD23C0F62E30
:1003E0000B8D10E00F5F1F4F0F731127E02E8C8DC8
:1003F000E8120BC00FB607FCFACFE889F9898081B3
:1004000085FFF5CFCE01B8DFF2CF8B8DFE01E80F6F
:10041000F11DE35AFF4FF0820B8FEA89FB8980813F
:10042000806207C0EE89FF896083E889F98980814D
:100430008064808381E090E0DF91CF911F910F91E4
:10044000FF90EF900895CF93DF93EC01888D882380
:10045000C1F0EA89FB89808185FD05C0A889B98939
:100460008C9186FD0EC00FB607FCF5CF808185FF0D
:10047000F2CFA889B9898C9185FFEDCFCE017CDFC1
:10048000E8CFDF91CF91089580E090E0892B19F0BB
:100490006ADF811125C080E090E0892B41F080E087
:1004A00090E0892B21F00E94000081111CC080E0A7
:1004B00090E0892B41F080E090E0892B21F00E94B0
:1004C0000000811113C080E090E0892BA1F080E052
:1004D00090E0892B81F00E94000081110AC00895EC
:1004E0000E940000D8CF0E940000E1CF0E940000CF
:1004F000EACF0C94000008953FB7F89480919304DC
:1005000090919404A0919504B091960426B5A89B6F
:1005100005C02F3F19F00196A11DB11D3FBFBA2F95
:10052000A92F982F8827820F911DA11DB11DBC01F5
:10053000CD0142E0660F771F881F991F4A95D1F7BA
:10054000089585ED8093BC008091BC0084FDFCCFB4
:1005500010926D04089540912204262F30E0240F5C
:10056000311D21323105DCF420916D042430C9F4B1
:10057000FC0180E090E0861758F43091220421912C
:10058000DC01A050BC4FA30FB11D2C930196F3CFFB
:1005900080912204680F6093220480E0089581E036
:1005A000089582E008950895E091D3038091D203E5
:1005B000E81730F4F0E0E259FB4F808190E00895B5
:1005C0008FEF9FEF08959091D3038091D2039817F6
:1005D00050F4E92FF0E0E259FB4F208130E09F5FBB
:1005E0009093D30302C02FEF3FEFC901089580918C
:1005F000D20390E02091D303821B91090895CF92FA
:10060000DF92EF92FF920F931F93CF93DF937C01C2
:10061000262F972F8A0180919A04882391F0C62F64
:10062000D72F6E01C40ED51ECC15DD0569F069917A
:10063000D701ED91FC910190F081E02DC701199552
:10064000F3CF642F822F87DFC801DF91CF911F91F5
:100650000F91FF90EF90DF90CF900895CF93DF93AD
:100660001F92CDB7DEB7698320919A042223D1F07F
:1006700020919704203240F021E030E0FC013383E8
:10068000228380E090E014C080919804E82FF0E08D
:10069000E052FC4F998190838F5F80939804809300
:1006A000970404C061E0CE01019655DF81E090E03F
:1006B0000F90DF91CF910895089580E090E0089524
:1006C0000E94F51B1F920F920FB60F9211240BB6CA
:1006D0000F922F933F934F935F936F937F938F93DB
:1006E0009F93AF93BF93EF93FF938BE994E044DE26
:1006F000FF91EF91BF91AF919F918F917F916F91FA
:100700005F914F913F912F910F900BBE0F900FBEB5
:100710000F901F9018951F920F920FB60F921124F1
:100720000BB60F922F938F939F93EF93FF93E091CC
:10073000AB04F091AC048081E091B104F091B2047B
:1007400082FD12C090818091B4048F5F8F732091DD
:10075000B504821751F0E091B404F0E0E556FB4F88
:10076000958F8093B40401C08081FF91EF919F9198
:100770008F912F910F900BBE0F900FBE0F901F9077
:100780001895362F90E0FC01E05CFD4F4491FC0190
:10079000E650FE4F2491FC01EC54FE4F94919923B6
:1007A00009F46BC0442309F455C050E0FA013197B5
:1007B000E231F10508F04EC08827EF57FF4F8F4F09
:1007C0000C94ED1B809180008F7707C08091800092
:1007D0008F7D03C080918000877F809380003AC026
:1007E00084B58F7702C084B58F7D84BD33C080917E
:1007F000B0008F7703C08091B0008F7D8093B000F0
:1008000029C0809190008F7707C0809190008F7DE4
:1008100003C080919000877F809390001BC08091DF
:10082000A0008F7707C08091A0008F7D03C08091CA
:10083000A000877F8093A0000DC0809120018F775A
:1008400007C0809120018F7D03C080912001877FA8
:1008500080932001E92FF0E0EE0FFF1FE656FE4FD8
:10086000A591B4918FB7F894EC91311103C0209504
:100870002E2301C02E2B2C938FBF0895CF93DF938F
:1008800090E0FC01E650FE4F2491FC01EC54FE4F39
:100890008491882361F190E0880F991FFC01E05852
:1008A000FE4FC591D491FC01E656FE4FA591B4913F
:1008B000611109C09FB7F8948881209582238883AD
:1008C000EC912E230BC0623061F49FB7F89438810D
:1008D000822F809583238883EC912E2B2C939FBFAE
:1008E00006C08FB7F894E8812E2B28838FBFDF9145
:1008F000CF910895863308F0865390917B00282F7E
:100900002870977F922B90937B00877080648093F0
:100910007C0080917A00806480937A0080917A00D4
:1009200086FDFCCF809178002091790090E0922B99
:1009300008958F929F92AF92BF92CF92DF92EF92E3
:10094000FF926B017C01D8DD4B015C01C114D10425
:10095000E104F104E9F0D0DDDC01CB01881999094B
:10096000AA09BB09883E9340A105B10578F321E0AF
:10097000C21AD108E108F10888EE880E83E0981EBB
:10098000A11CB11CC114D104E104F10421F7DECF94
:10099000FF90EF90DF90CF90BF90AF909F908F909F
:1009A00008952FB7F89460918F047091900480910E
:1009B0009104909192042FBF08951F920F920FB649
:1009C0000F9211242F933F938F939F93AF93BF93D5
:1009D00080918F0490919004A0919104B091920421
:1009E00030918E0423E0230F2D3720F40196A11DB2
:1009F000B11D05C026E8230F0296A11DB11D20934D
:100A00008E0480938F0490939004A0939104B093EC
:100A100092048091930490919404A0919504B091D4
:100A200096040196A11DB11D8093930490939404A4
:100A3000A0939504B0939604BF91AF919F918F912D
:100A40003F912F910F900FBE0F901F901895DC01D2
:100A5000ED91FC910190F081E02D19941F920F927D
:100A60000FB60F9211240BB60F922F933F934F9313
:100A70005F936F937F938F939F93AF93BF93EF9306
:100A8000FF938091B900887F803609F49CC068F597
:100A9000883209F45BC090F4803109F454C038F412
:100AA000882309F4F6C0883009F44DC0F5C08831B8
:100AB00009F44CC0803209F45DC0EEC0803409F402
:100AC00068C048F4803309F455C0883309F0E4C0A5
:100AD00080936B04D8C0803509F44FC0883509F481
:100AE0005DC0883409F0D8C0D6C0883909F4C7C0C1
:100AF000A8F4883709F467C038F4883609F463C06D
:100B0000803709F460C0C8C0883809F4B8C080399B
:100B100009F45FC0803809F0BFC05BC0803B09F4B6
:100B200086C038F4803A09F466C0883A09F47FC078
:100B3000B3C0803C09F4A7C0883C09F4A4C0883B3A
:100B400009F48AC0A9C08091680410C090916A0419
:100B500080916904981770F5E0916A0481E08E0F26
:100B600080936A04F0E0E95BFB4F80818093BB00D7
:100B700085EC86C080936B048EC0E0916A0481E0AE
:100B80008E0F80936A048091BB00F0E0E95BFB4F1D
:100B9000808390916A04809169046EC0E0916A0438
:100BA00081E08E0F80936A048091BB00F0E0E95BE6
:100BB000FB4F808380916C0481116DC081E0809334
:100BC000670484EA61C083E080936D041092460458
:100BD000CFCF80914604803208F051C0E0914604A6
:100BE00081E08E0F809346048091BB00F0E0EA5DC7
:100BF000FB4F8083BDCF85EC8093BC0010926D04C9
:100C000080914604803230F4E0914604F0E0EA5DE1
:100C1000FB4F10826091460470E0E0912404F09153
:100C2000250486E294E019951092460435C084E0CC
:100C300080936D041092230410922204E09120040A
:100C4000F0912104199580912204811105C081E061
:100C50008093220410920004E091230481E08E0F1F
:100C600080932304F0E0E050FC4F80818093BB0030
:100C70009091230480912204981708F479CF85E895
:100C80008093BC0009C085EC8093BC0010926D0479
:100C900003C010926B0455DCFF91EF91BF91AF91AF
:100CA0009F918F917F916F915F914F913F912F9184
:100CB0000F900BBE0F900FBE0F901F9018951092C3
:100CC0006D0481E080936C041092670461E084E11C
:100CD00058DD61E085E155DDE9EBF0E080818E7F54
:100CE000808380818D7F808388E48093B80085E451
:100CF0008093BC000895209197049091990421322B
:100D000008F04AC080916D048111FCCF32E030932D
:100D10006D0431E030936C043FEF30936B0410921C
:100D20006A0420936904A0EEB3E047E454E0FA01BA
:100D30003E2F341B321718F43D913193F9CF1092A6
:100D4000680420916804990F922B90936804909105
:100D50006704913061F41092670490916804909355
:100D6000BB009091BC0093FDF8CF95EC01C095EECF
:100D70009093BC0090916D049230E1F390916B04DC
:100D80009F3F79F080916B04803241F080916B0439
:100D9000803331F084E005C081E003C082E001C00F
:100DA00083E0109298041092970410929A04089588
:100DB000FC01248131E030939A042093990410922D
:100DC0009804109297048385682B88E395E046DCAD
:100DD00088E395E090CF0F931F93CF938C01C62F9C
:100DE000E7DF6C2F6460C801E3DF6C2F6B7FC80105
:100DF000DFDF83EC90E00197F1F7CF911F910F9126
:100E00000895FF920F931F93CF93DF931F92CDB757
:100E1000DEB78C01F62E962F907F692F642BC801C8
:100E20004983D9DF80E1F89EB00111244981642B08
:100E3000C8010F90DF91CF911F910F91FF90CBCF01
:100E400041E0DFDF81E090E008950F931F93CF939F
:100E5000DF931F92CDB7DEB78C01DC018C9191E05E
:100E600090939A0480939904109298041092970496
:100E700011968D919C911297DC01ED91FC9101905E
:100E8000F081E02D49831995F80181819281DC017F
:100E9000ED91FC910190F081E02D4981642F19952D
:100EA000F801818192810F90DF91CF911F910F9175
:100EB00022CF0F931F93CF93DF93EC01CB01BA01A5
:100EC00026E636E646E65FE30E944D1B9B01AC0139
:100ED00060E27CEB8EEB95E40E94661920E030E046
:100EE00040E85FE30E94FD1820E030E040E05FE36F
:100EF0000E94FE180E943C1A0E94D319062F888176
:100F000091E090939A04809399041092980410921F
:100F1000970489819A81DC01ED91FC910190F08127
:100F2000E02D60E0199589819A81E5DE88819091B4
:100F30006D049111FCCF91E090936D0490936C043B
:100F40002FEF20936B0410926A041092690490931F
:100F5000680490916804880F892B809368048091BD
:100F60006704813061F41092670480916804809373
:100F7000BB008091BC0083FDF8CF85EC01C085EEFD
:100F80008093BC0080916D048130E1F380916A040C
:100F9000811103C080916A0401C081E0A7E4B4E03C
:100FA0002EE634E0F9019E2F921B981718F49D91BC
:100FB0009193F9CF1092D3038093D20389819A81C0
:100FC000DC01ED91FC910284F385E02D1995182F39
:100FD0008F76482F406160E0CE0137DF402F6EEF03
:100FE000CE0133DF412F60E0CE012FDF65E070E0FE
:100FF00080E090E09EDC412F406A60E0CE01DF910E
:10100000CF911F910F9121CF8F929F92AF92BF925C
:10101000CF92DF92EF92FF921F93CF93DF93EC0179
:101020006A017B016091D4037091D5038A819B8111
:1010300068177907B9F0660F771FFB01E05FFD4F76
:1010400061E080819EDBEA81FB81EE0FFF1FE05FA4
:10105000FD4F60E0808195DB8A819B819093D50371
:101060008093D4038881998126D261E070E080E08A
:1010700090E05FDC1AE0812C912C5401EA81FB8125
:10108000E45FFD4F808136DCBC01990F880B990B22
:101090000E94011A9B01AC01C501B4010E94FE1817
:1010A0004B015C01115051F720E030E040E251E487
:1010B0000E946619A70196010E944D1B6B017C01DD
:1010C0008EE580937C0080917B00877F80937B00FE
:1010D00080917A00806880937A0062E070E080E01E
:1010E00090E027DC80917A00806480937A00809180
:1010F0007A0086FDFCCF209178008091790030E065
:10110000382B032E000C440B550B64EB7BE281E182
:1011100090E00E94BF18CA01B9010E94011A2FE68F
:1011200032E143E85AE30E944D1B20E030E040E802
:101130005AE30E944D1B9B01AC01C701B6010E94FE
:101140004D1BDF91CF911F91FF90EF90DF90CF90DB
:10115000BF90AF909F908F9008958F929F92AF9283
:10116000BF92CF92DF92EF92FF924B015C011092FF
:10117000C30A60E088EB9AE01BDE13DC6B017C01A4
:1011800020E030E44CE156E4C501B4010E944D1B5F
:101190004B015C0120E030E0A9010E94041B20E02B
:1011A00030E040E05FE387FD05C0C501B4010E9467
:1011B000FE1804C0C501B4010E94FD180E94CE199A
:1011C000C60ED71EE81EF91EC0920402D092050278
:1011D000E0920602F0920702FF90EF90DF90CF902E
:1011E000BF90AF909F908F900895FC01108A118A54
:1011F000128A138A148A158A168A178A108E118EFB
:10120000128E138E148E158E168E178E14A210A2A7
:1012100011A212A213A216A215A28FEF93E090A71B
:1012200087A315A616A617A610AA11AA12AA13AA72
:1012300014AADF01AF5BBF4F1D921D921D921C923D
:101240001397868597859C01220F331F820F931F6A
:101250004FEF53E064858855954FA5C00F931F93BA
:10126000CF93DF938C01EB0177FD1FC08091DA03F0
:101270008823E9F01092DA032091020230910302F0
:1012800037FD09C045E4429FC001439F900D1124E2
:101290008C5B9A4FAADF85DB6093D6037093D703EC
:1012A0008093D8039093D90302C0C0E0D0E047E018
:1012B00050E020E030E085E4C00FD11FD7FD06C02C
:1012C000C431D1052CF0C0E0D0E002C0C3E1D0E0D1
:1012D0008C9FF0018D9FF00D1124EC5BFA4F65A1FE
:1012E00076A16417750791F02F5F3F4F24313105C8
:1012F00041F44730510501F745E050E020E030E08F
:10130000DBCF25313105C4F2CFEFDFEFCE01DF9126
:10131000CF911F910F910895DC01ED91FC91019007
:10132000F081E02D1994CF92DF92EF92FF920F930C
:101330001F93CF93DF936C017A018B01C0E0D0E063
:10134000CE15DF0589F0D8016D918D01D601ED91A3
:10135000FC910190F081E02DC6011995892B11F4C3
:101360007E0102C02196ECCFC701DF91CF911F9182
:101370000F91FF90EF90DF90CF9008956115710568
:1013800079F0FB0101900020E9F73197AF01461B8E
:10139000570BDC01ED91FC910280F381E02D199453
:1013A00080E090E00895EF92FF921F93CF93DF9338
:1013B0001F92CDB7DEB77C01152FDC018C9191E037
:1013C00090939A0480939904109298041092970431
:1013D00011968D919C911297DC01ED91FC91B4E0F6
:1013E0006B9F90011124B9016A5F7F4F0190F081DA
:1013F000E02D4983199560E070E0F70181819281C9
:1014000026DB60E070E0D70111968D919C911297D8
:101410001EDB4981642F712FF7018181928117DBD7
:10142000612F70E0D70111968D919C9112970FDB7F
:10143000F701818192810F90DF91CF911F91FF90F1
:10144000EF9059CC40E061E088EB9AE0DADC8BE386
:101450009FE10197F1F70895CF93DF93CDB7DEB702
:1014600028970FB6F894DEBF0FBECDBF28E0E8E6A0
:10147000F2E0DE01119601900D922A95E1F720919C
:10148000C00A261710F46FEF620FFE013196E60FC7
:10149000F11DE60FF11D9081682F690F606840E033
:1014A00088EB9AE028960FB6F894DEBF0FBECDBF4A
:1014B000DF91CF91A6CC0F931F93CF93DF9323E0BF
:1014C000880F991F2A95E1F7EC01C059DD4F0EEA0C
:1014D0001AE06881F801808154D96A81F80182811B
:1014E00050D96C81F80184814CD96E81F8018681D4
:1014F000DF91CF911F910F9144C962EC73E08BE9AA
:1015000094E03CCF4F925F926F927F92EF92FF9266
:101510000F931F93CF93DF93CDB7DEB7A1970FB68D
:10152000F894DEBF0FBECDBF7C01FA01CB0119A23A
:10153000223008F42AE08E010F5D1F4F422E512CFD
:10154000612C712CBF01A30192010E94DB18F901EB
:10155000CA01015011096A3014F4605D01C0695C70
:10156000D8016C93232B242B252B61F7B801C701DD
:1015700005DFA1960FB6F894DEBF0FBECDBFDF9199
:10158000CF911F910F91FF90EF907F906F905F90A0
:101590004F900895CF92DF92EF92FF92CF93DF9317
:1015A000AB01BC0177FF1BC06A017B016DE288EBD8
:1015B0009AE0B2DEEC0144275527BA014C195D09C7
:1015C0006E097F092AE088EB9AE09CDF8C0F9D1F53
:1015D000DF91CF91FF90EF90DF90CF9008952AE0B8
:1015E00088EB9AE0DF91CF91FF90EF90DF90CF9062
:1015F00089CF8F929F92AF92BF92CF92DF92EF925C
:10160000FF920F931F93CF93DF93EC016A017B014D
:101610009A01AB01C701B6010E94B01B882319F0E3
:1016200065EC73E027C046015701E894B7F82FEF47
:101630003FEF4FE75FE7C501B4010E94B01B811186
:101640000DC02FEF3FEF4FE75FE7C501B4010E94E8
:10165000621918161CF469EC73E00CC02FEF3FEF11
:101660004FE75FE4C701B6010E94041B181684F41B
:101670006DEC73E0CE01DF91CF911F910F91FF9040
:10168000EF90DF90CF90BF90AF909F908F9076CEED
:101690002FEF3FEF4FE75FECC701B6010E946219E1
:1016A00087FDE6CF20E030E0A901C701B6010E9426
:1016B000621987FF09C06DE2CE012EDE8C01F7FAB8
:1016C000F094F7F8F09402C000E010E02AE037ED63
:1016D00043EA5BE3C701B6010E94FE186B017C017F
:1016E0000E94D3194B015C010E94FF199B01AC01C0
:1016F000C701B6010E94FD186B017C012AE0B5010B
:10170000A401CE01FFDE080F191F6EE2CE0104DE38
:10171000080F191F20E030E040E251E4C701B60194
:101720000E944D1B4B015C010E94D3196B01E12CFF
:10173000F12C2AE0B701A601CE01E4DE080F191F43
:10174000C701B6010E94FF199B01AC01C501B4019C
:101750000E94FD1820E030E040E251E40E944D1B61
:101760000E94D319AB0160E070E02AE0CE01CADE2E
:10177000800F911FDF91CF911F910F91FF90EF90FC
:10178000DF90CF90BF90AF909F908F900895F6CD4F
:10179000CF93DF93CDB7DEB72A970FB6F894DEBFAD
:1017A0000FBECDBF789484B5826084BD84B581605E
:1017B00084BD85B5826085BD85B5816085BD80911C
:1017C0006E00816080936E00109281008091810094
:1017D000826080938100809181008160809381008C
:1017E000809180008160809380008091B10084604E
:1017F0008093B1008091B00081608093B0008091AF
:10180000910082608093910080919100816080932B
:101810009100809190008160809390008091A10060
:1018200082608093A1008091A10081608093A100DB
:101830008091A00081608093A0008091210182604E
:101840008093210180912101816080932101809109
:10185000200181608093200180917A0084608093D0
:101860007A0080917A00826080937A0080917A0079
:10187000816080937A0080917A00806880937A00FA
:101880001092C1001092D3031092D20310929804C8
:101890001092970414DAE091AB04F091AC0412E0DA
:1018A0001083E091A704F091A8041082E091A904AC
:1018B000F091AA048FEC80831092B304E091AF04FE
:1018C000F091B00486E08083E091AD04F091AE0425
:1018D000808180618083E091AD04F091AE048081CD
:1018E00088608083E091AD04F091AE0480818068CF
:1018F0008083E091AD04F091AE0480818F7D808380
:101900008091BD0A88608093BD0A1093C00A62E38B
:1019100070E080E090E00DD86091C30A88EB9AE017
:1019200047DA68EE73E080E090E003D860E388EB8C
:101930009AE051DAFBE4EF2EF6E4FF2EC70101979F
:10194000F1F760E388EB9AE046DAC7010197F1F717
:1019500060E388EB9AE03FDA83E592E00197F1F7E4
:1019600060E288EB9AE037DA6091BD0A606240E09D
:1019700088EB9AE046DA84E08093BE0A40E06CE0AF
:1019800088EB9AE03EDA5EDD1093BF0A40E066E045
:1019900088EB9AE036DA40E062E088EB9AE031DAF0
:1019A0008BE39FE10197F1F71092C30A60E088EBA7
:1019B0009AE0FED90E94D1046093DB037093DC03AC
:1019C0008093DD039093DE0360E087E30E943E0492
:1019D00060E088E30E943E0460E089E30E943E04E8
:1019E00060E08AE30E943E0461E08BE20E943E04D4
:1019F00061E08DE20E943E0461E08FE20E943E04BD
:101A000061E081E30E943E0461E08AE20E943E04BC
:101A100061E08CE20E943E0461E08EE20E943E049E
:101A200061E080E30E943E0460E08AE20E94C1031C
:101A300060E08CE20E94C10360E08EE20E94C1037C
:101A400060E080E30E94C10360E08BE20E94C1037A
:101A500060E08DE20E94C10360E08FE20E94C1035A
:101A600060E081E30E94C10360E086E30E943E04DF
:101A700008EA1AE01092D3031092D203109298044D
:101A8000109297041CD940E860E0C801DED96AE0F2
:101A900070E080E090E00E94990440E050E06AE746
:101AA00074E4C80106DA40E050E068EC74E4C80170
:101AB00000DA0D5F1F4F2AE00E3A1207D9F624E430
:101AC00035E03A872987E12CF12C00E010E060E056
:101AD00070E0F2E0CF2ED12C89E090E06624639490
:101AE000712C25E030E0412C512C40E050E02224C4
:101AF0002A94B3E03B2E812C912CEAE7AE2EE4E44D
:101B0000BE2EA985BA8511961C921E9213961C9220
:101B10001E92129715961C921E92149717961C925D
:101B20001E92169719961C921E9218971B961C923D
:101B30001E921A971D961C921E921C971F961C921D
:101B40001E921E97FD01108A118A128A138A5496DA
:101B50001D921D921D921C925797108E118E128EFF
:101B6000138E5C961D921D921D921C925F9710A27F
:101B700011A212A213A2F701EC5BFA4F14A29696DF
:101B80001C921E92959798963C922E929797FD01E3
:101B900011A612A613A614A69D961D921D921D9223
:101BA0001C92D09711AA12AA13AA14AAD5961D9214
:101BB0001D921D921C92D89711AE12AE13AE14AEA8
:101BC000FD9680829182A282B38234961082118225
:101BD00012821382403151052CF0FFEF4F1A5F0A39
:101BE00040E050E0DA011196BA83A983E985FA85CD
:101BF0005183408353824282203131052CF0FFEF24
:101C00006F1A7F0A20E030E0A9014F5F5F4F5C83CD
:101C10004B83A985BA8515963C932E9314971796F6
:101C20007C926E921697803191052CF0BFEFCB1A03
:101C3000DB0A80E090E09C012F5F3F4FE985FA8549
:101C400091878087D386C2866031710524F00F5F4B
:101C50001F4F60E070E0AB014F5F5F4F5E834D83CD
:101C6000A985BA851D967C936E931C971F961C932D
:101C70000E931E9798963C922E929797C801880FC4
:101C8000991F800F911F4FEF53E08855954F2F8379
:101C9000388789DBE985FA85EB5BFF4FFA87E987AF
:101CA000F5E4EF0EF11C2F81388544E6E41645E09B
:101CB000F40609F44EC06D817E81C9012B813C81FF
:101CC00049815A811ECF20910202309103022215D0
:101CD000330509F03BC28090D6039090D703A090C3
:101CE000D803B090D9030E94D104681579058A05FC
:101CF0009B0508F0F4C1FFEF2F1A3F0A29813A81B2
:101D00002B5B3F4F3A83298335E4C30ED11C44E15A
:101D10002416310409F078C18091DA03882309F48C
:101D20001CC5809102029091030297FD16C5809018
:101D3000080290900902A0900A02B0900B020E9443
:101D4000D10486169706A806B90608F487C50E942E
:101D5000440260E273E08BE994E019DDCEDB0E947F
:101D6000D1040091DB031091DC032091DD0330915D
:101D7000DE03DC01CB01801B910BA20BB30B883E71
:101D80009340A105B10508F4AFC004E415E08091CB
:101D9000D4039091D503D80112962D913C911397BD
:101DA00082179307E9F0880F991FFC01E05FFD4F50
:101DB00061E080810E94C103D8011296ED91FC91EF
:101DC0001397EE0FFF1FE05FFD4F60E080810E94E0
:101DD000C103F801828193819093D5038093D4034A
:101DE000D8018D919C9167DB61E070E080E090E02C
:101DF0000E949904D8011296ED91FC911397E45F2B
:101E0000FD4F80810E947A04BC01990F880B990BC9
:101E10000E94011A9B01AC0160E070EC8FE794E432
:101E20000E94661920E030E040E85FE30E94FD1860
:101E300020E030E44CE156E40E944D1B0E940D1B53
:101E40006B017C0126ED34E649E759E30E944D1B06
:101E50002BEC38E444E85AE30E94FE184B015C0185
:101E60002CE63FEC48E554E3C701B6010E944D1B48
:101E7000A70196010E944D1BA70196010E944D1BD0
:101E80009B01AC01C501B4010E94FE189B01AC018D
:101E900060E070E080E89FE30E94661923E333E18D
:101EA0004BE853E40E94FD18AB01BC01F80141A7C7
:101EB00052A763A774A78BE994E09BDB62E973E008
:101EC0008BE994E064DC0B5B1F4FFAE0083A1F07D4
:101ED00009F05DCF0E94D1046093DB037093DC03B3
:101EE0008093DD039093DE0308DB08E112E0A12C70
:101EF000B12C40E050E060E070E4C501885B9A4F8F
:101F000083D86B017C01D8012D913D914D915D915C
:101F10008D010E944D1B9B01AC01C701B6010E94BF
:101F2000FD18AB01BC01F501EC5BFA4F45AB56ABBC
:101F300067AB70AF8BE994E05CDB62E973E08BE93F
:101F400094E025DCB5E4AB0EB11CE4E6AE16E5E0AA
:101F5000BE0679F6D2DA00E010E040E050E060E83A
:101F60007FE3C801845B9A4F4FD86B017C0122E864
:101F700035E14DE25CE30E944D1B9B01AC01C701C2
:101F8000B6010E94FE18F801EC5BFA4F61AF72AF28
:101F900083AF94AF20E030E04AE754E40E944D1B49
:101FA000AB01BC018BE994E024DB62E973E08BE9CF
:101FB00094E0EDDB0B5B1F4F0436F5E01F0769F67D
:101FC0009CDA00E010E0F801EC5BFA4F47A150A565
:101FD00060E070E02AE08BE994E094DA62E973E073
:101FE0008BE994E0D4DB0B5B1F4F043625E012072E
:101FF00051F783DA40E555E05A83498358E6C52E08
:1020000055E0D52E212C312CF090DA03FF2099F1E8
:1020100080910202909103028215930561F555E4C7
:10202000529D8001539D100D11240C5B1A4FD80155
:1020300095968D919C9196970797E9F08090D6039D
:102040009090D703A090D803B090D9030E94D104F8
:10205000681579058A059B0570F423E333E343E3B0
:1020600050E4F80165A976A987A990AD0E94041BE8
:1020700018160CF491C0A981BA8159968D919C9142
:102080005A97892B09F49AC023E333E343E150E4E0
:10209000D60151966D917D918D919C9154970E949E
:1020A000621918160CF48AC0F1100DCE60E070E0D1
:1020B00080E89FE352D8B1E0B093DA030E94D104E4
:1020C000DC01CB01805F984DAF4FBF4F8093D603AB
:1020D0009093D703A093D803B093D903F1C0E5E45C
:1020E000E29DC001E39D900D11248C5B9A4F7DD839
:1020F0001092DA030E94D1046093D6037093D70341
:102100008093D8039093D9036091020270910302E7
:1021100081E090E0A3D8909303028093020297FDA0
:10212000EACD0E94D104DC01CB0188579C4EAF4F11
:10213000BF4F8093D6039093D703A093D803B09357
:10214000D90360E070E080E09FE323C037FD09C061
:10215000F5E4F29FC001F39F900D11248C5B9A4F20
:1021600044D80E94D104DC01CB01805F984DAF4F71
:10217000BF4F8093D6039093D703A093D803B09317
:10218000D903309203022092020260E070E080E8FE
:102190009FE30E94AD08AFCD1092DA030E94D104F4
:1021A000DC01CB0188579C4EAF4FBF4F8093D603C5
:1021B0009093D703A093D803B093D903A981BA8190
:1021C0005996ED91FC915A97E730F10508F093CDBF
:1021D0008827EE58FF4F8F4F0C94ED1BF601818836
:1021E0009288A388B4882DEC3CEC44E850E4C50107
:1021F000B4010E94041B87FD03C0E4E0F0E016C0B8
:1022000023E333E343E750E4C501B4010E94041B18
:1022100087FD13C02DEC3CEC44E850E4C501B4014B
:102220000E94621987FF09C0E2E0F0E0A981BA814B
:102230005A96FC93EE93599720C023E333E343E38C
:1022400050E4C501B4010E94041B87FD54CDE3E0B6
:10225000F0E0A981BA815A96FC93EE935997809148
:10226000DA0381110AC060E070E080E89FE30E9419
:10227000AD083092030220920202A981BA815996D8
:102280008D919C915A97019701F52DEC3CEC44E817
:1022900050E4F60161897289838994890E94041B44
:1022A00087FD29CDE4E0F0E0A981BA815A96FC933C
:1022B000EE93599760E070E080E89FE30E94AD08DC
:1022C000309203022092020216CDA981BA8159965A
:1022D0008D919C915A97029779F55B968D919C917F
:1022E0005C978F3F934081F42EE93CE0E981FA81CD
:1022F000348F238F828193819C01220F331F820FA1
:10230000931F4EE95CE023C223E333E343E750E449
:10231000D60151966D917D918D919C915497D2D714
:1023200087FFE9CC2FEF33E0E981FA81348F238FE7
:1023300043E050E0528F418FA981BA8159968D9127
:102340009C915A97039791F55B968D919C915C9720
:102350008F3F934009F4EEC12DEC3CEC44E850E48F
:10236000D60151966D917D918D919C9154970E94CB
:10237000041B87FDC0CC2FEF33E0E981FA81348F55
:10238000238F828193819C01220F331F820F931F21
:102390004FEF53E060818855954F05D8E4E0F0E0B9
:1023A000A981BA815A96FC93EE935997A981BA8173
:1023B00054968D909D90AD90BC9057978114910448
:1023C000A104B10459F50E94D104DC01CB01885469
:1023D000944FAF4FBF4FE981FA81848B958BA68BC9
:1023E000B78B8091DA0381110AC060E070E080E869
:1023F0009FE30E94AD083092030220920202A9815D
:10240000BA8112968D919C9113979C01220F331FD4
:10241000820F931F45E159E06C912CC020E030E021
:10242000A901F60165857685878590894BD781114D
:1024300025C00E94D104681579058A059B0508F01E
:1024400058C21CC00E94D104DC01CB018854944FB7
:10245000AF4FBF4FE981FA81848B958BA68BB78BE9
:10246000828193819C01220F331F820F931F4EE9BB
:102470005CE060818855954F0E94D309E5E0F0E06B
:10248000A981BA815A96FC93EE93599723E333E3DB
:1024900043E350E4D60151966D917D918D919C91CD
:1024A000549710D71816ECF02FEF33E0E981FA813A
:1024B000348F238F828193819C01220F331F820FDF
:1024C000931F4FEF53E060818855954F0E94D309C9
:1024D000E6E0F0E0A981BA815A96FC93EE93599711
:1024E000F2C0A981BA815B968D919C915C9700970F
:1024F00019F08F3F934029F52EE93CE0E981FA81FC
:10250000348F238F0E94D104D6015D966D937D9305
:102510008D939C9390978C91823080F0E981FA8121
:10252000438D548D828193819C01220F331F820F32
:10253000931F60818855954F0E94D309E5E0F0E034
:10254000E8C0D6018C918230D0F4E981FA81848888
:102550009588A688B7880E94D104681579058A05F0
:102560009B0568F0A981BA815B968D919C915C97DF
:1025700065E179E00E94D91B019709F423C220E0AC
:1025800030E04AE754E4F601658976898789908DC1
:102590000E944D1B2B013C010E94D1044B015C01A8
:1025A000F601858D968DA78DB0A1A5019401281BFC
:1025B000390B4A0B5B0BCA01B90121D79B01AC0156
:1025C000C301B2010E944D1B20E03AEB4BE55AE4F7
:1025D0007DD69B01AC01D60119966D917D918D91AF
:1025E0009C911C970BD6F60161877287838794872D
:1025F000858E968EA78EB0A28081823008F47BCB28
:1026000020E030E04AE754E4658976898789908D37
:102610000E944D1B4B015C0120E030E0A901F4D782
:1026200018160CF068CBF601418C528C638C748CBC
:10263000A3019201C501B40145D6882309F45BCBFF
:10264000A981BA815B96ED90FC905C978701A5010A
:102650009401C301B201D1D5A1D61616170644F4D0
:10266000BFEFEB16BFE0FB065CF40F5F1F4F0CC023
:10267000672B31F01E141F043CF48701015011092F
:102680000115E0E11E073CF40F3FF3E01F072CF4B7
:102690000FEF13E002C00FEF1FE0E016F10609F4A0
:1026A0002ACBA981BA815C961C930E935B971296F4
:1026B0008D919C9113979C01220F331F820F931FC2
:1026C000A8016C9145C020E030E040E750E4F601FD
:1026D000618972898389948997D787FD21C0EFEF3B
:1026E000F3E0A981BA815C96FC93EE935B97129616
:1026F0008D919C9113979C01220F331F820F931F82
:102700004FEF53E06C918855954F0E94D309E7E055
:10271000F0E0A981BA815A96FC93EE935997EBCADF
:10272000A981BA815B968D919C915C978F3F934074
:1027300009F0E1CAE981FA81148E138E82819381B6
:102740009C01220F331F820F931F40E050E06081F5
:102750008855954F0E94D309CECA80E00E947A0422
:1027600020910002309101022F3F3F4FA1F49C01C4
:102770002E5131092238310530F422E030E0309317
:10278000010220930002805A91098A3A910570F45F
:1027900083E090E007C0843E924044F01092DF0353
:1027A0008FEF9FEF9093010280930002009100024F
:1027B000109101020F3FBFEF1B0781F060E070E056
:1027C00080E89FE30E94AD086091020270910302CD
:1027D00077FF04C081E08093DF0323C08091DF0393
:1027E0008111A5CA0230110579F03CF401151105DB
:1027F00089F10130110571F19ACA03301105A1F078
:102800000430110539F193CA81E08093DF0360E061
:1028100070E080E89FE30E94AD0860910202709131
:10282000030281E090E00FC081E08093DF0360E06D
:1028300070E080E89FE30E94AD0860910202709111
:1028400003028FEF9FEF0E942E0990930302809363
:1028500002026DCA81E08093DF0369CAC09004025E
:10286000D0900502E0900602F0900702C114D10456
:10287000E104F10441F00E94D10486169706A806EF
:10288000B90608F4A6C000910202109103020F3F9E
:10289000EFEF1E0719F58EEF9FEF909303028093E1
:1028A00002020E94220A60E081E00E942C0A6BE58D
:1028B00073E088EB9AE00E94C70B61E085E00E941C
:1028C0002C0A6AE673E088EB9AE00E94C70B60E08E
:1028D00070E080E89FE30E94AD0839CA17FD8AC006
:1028E0000E94D1046C157D058E059F0508F4A8C0D3
:1028F00081C0F6012081E22FF0E0D60151964D9182
:102900005D916D917C915497DF011496AA0FBB1FC6
:10291000AA0FBB1F35E4329DC001339D900D1124D9
:10292000A80FB91FAC5BBA4F4D935D936D937C9329
:102930001397D60155964D915D916D917C91589765
:102940003696EE0FFF1FEE0FFF1FE80FF91FEC5B2F
:10295000FA4F40835183628373832F5F2C9322301D
:1029600008F470CDA981BA8114962D913D914D91B5
:102970005C91179718966D917D918D919C911B9705
:102980003CD49F7720E030E04AE754E486D64B0100
:102990005C01E981FA812485358546855785608902
:1029A00071898289938929D49B01AC015F77C50124
:1029B000B4018CD4D6011D966D937D938D939C9319
:1029C00050975CCD24E030E0E981FA81328F218F8D
:1029D000D6CD0E94D104DC01CB018C509E4FAF4F6D
:1029E000BF4F8093080290930902A0930A02B0930C
:1029F0000B0249CF0E94D1046C157D058E059F0501
:102A000008F4A5C9CD28CE28CF2809F4A0C98EEF97
:102A10009FEF90930302809302021092040210929F
:102A2000050210920602109207020E94220A88E014
:102A30008093C30A60E088EB9AE00E94D80687C9B9
:102A400085E4809FF001819FF00D1124EC5BFA4F2B
:102A500005A0F6A1E02DE830F10508F078C9882737
:102A6000E758FF4F8F4FB9C60E94220A60E083E00B
:102A70000E942C0A60E773E088EB9AE00E94C70B83
:102A800060E08BE00E942C0A6091020270910302C8
:102A90006F5F7F4F072E000C880B990B0E94CA0AAC
:102AA00061E081E00E942C0A68E773E044C00E9464
:102AB000220A60E083E00E942C0A65E873E088EB5C
:102AC0009AE00E94C70B60E08BE00E942C0A6091A4
:102AD0000202709103026F5F7F4F072E000C880B7C
:102AE000990B0E94CA0A61E083E00E942C0A6EE8FA
:102AF00073E088EB9AE00E94C70B61E088E00E94D7
:102B00002C0A809102029091030225E4289FF00193
:102B1000299FF00D1124EC5BFA4F45A956A967A92E
:102B200070AD88EB9AE00E94F90A61E08CE00E94A7
:102B30002C0A64E973E088EB9AE00E94C70B07C98E
:102B40000E94220A60E083E00E942C0A65E873E09C
:102B500088EB9AE00E94C70B60E08BE00E942C0A91
:102B600060910202709103026F5F7F4F072E000C8D
:102B7000880B990B0E94CA0A61E081E00E942C0A2E
:102B800066E973E0B6CF0E94220A60E083E00E940B
:102B90002C0A65E873E088EB9AE00E94C70B60E0BE
:102BA0008BE00E942C0A60910202709103026F5F19
:102BB0007F4F072E000C880B990B0E94CA0A61E018
:102BC00081E00E942C0A6FEA73E088EB9AE00E9491
:102BD000C70B61E08AE00E942C0A8091020290916A
:102BE000030225E4289FF001299FF00D1124EC5BDE
:102BF000FA4F45A956A967A970AD88EB9AE00E94E3
:102C0000F90A61E08EE093CF0E94220A60E081E041
:102C10000E942C0A6DE973E088EB9AE00E94C70BD2
:102C200060E085E00E942C0A60910202709103022C
:102C30006F5F7F4F072E000C880B990B0E94CA0A0A
:102C400060E088E00E942C0A8091020290910302C9
:102C500025E4289FF001299FF00D1124EC5BFA4F29
:102C6000C5A4D6A4E7A4F0A820E030E0A901C701DC
:102C7000B601CAD420E030E040E05FE387FD04C045
:102C8000C701B601BBD203C0C701B601B6D286D315
:102C90000E94CA0A60E08CE00E942C0A62EA73E09B
:102CA00088EB9AE00E94C70B61E080E00E942C0A4A
:102CB000809102029091030215E4189FF001199F80
:102CC000F00D1124EC5BFA4F45A956A967A970AD28
:102CD00088EB9AE00E94F90A61E084E00E942C0AE5
:102CE00064E973E088EB9AE00E94C70B61E086E03C
:102CF0000E942C0A8091020290910302189FF00119
:102D0000199FF00D1124EC5BFA4FC1A8D2A8E3A8DB
:102D1000F4A820E030E0A901C701B60175D420E095
:102D200030E040E05FE387FD04C0C701B60166D232
:102D300003C0C701B60161D231D30E94CA0A61E063
:102D400089E00E942C0A66EA73E088EB9AE00E9410
:102D5000C70B61E08CE00E942C0AC0900402D09066
:102D60000502E0900602F0900702F8E8CF1AF3E1BE
:102D7000DF0AE108F1080E94D1044091020250915B
:102D8000030225E4249FF001259FF00D1124EC5B44
:102D9000FA4F6C157D058E059F0578F441AD52AD57
:102DA00063AD74AD88EB9AE00E94F90A61E08FE0B0
:102DB0000E942C0A69EA73E0BECEC1A4D2A4E3A4A7
:102DC000F4A420E030E0A901C701B6011DD420E041
:102DD00030E040E05FE387FD04C0C701B6010ED2DA
:102DE00003C0C701B60109D2D9D20E94CA0A61E064
:102DF0008EE00E942C0A6BEA73E09DCE0E94220AAC
:102E000060E083E00E942C0A65E873E088EB9AE0BA
:102E10000E94C70B60E08BE00E942C0A60910202C6
:102E2000709103026F5F7F4F072E000C880B990B88
:102E30000E94CA0A61E080E00E942C0A6DEA73E0F9
:102E400088EB9AE00E94C70B61E08BE00E942C0A9D
:102E5000809102029091030225E4289FF001299FAE
:102E6000F00D1124EC5BFA4F45A956A967A970AD86
:102E700088EB9AE00E94F90A61E08FE058CE0E9448
:102E8000220A60E083E00E942C0A68EB73E088EB82
:102E90009AE00E94C70B60E08CE00E942C0A6091CF
:102EA0000202709103026F5F7F4F072E000C880BA8
:102EB000990B0E94CA0A61E082E00E942C0A80916C
:102EC00002029091030225E4289FF001299FF00D52
:102ED0001124EC5BFA4FC5A4D6A4E7A4F0A820E027
:102EE00030E0A901C701B6018FD320E030E040E017
:102EF0005FE387FD04C0C701B60180D103C0C701ED
:102F0000B6017BD14BD20E94CA0A61E086E00E94E2
:102F10002C0A62EA73E088EB9AE00E94C70B61E03A
:102F20008AE00E942C0A809102029091030225E41B
:102F3000289FF001299FF00D1124EC5BFA4FC1A8E6
:102F4000D2A8E3A8F4A820E030E0A901C701B601A7
:102F50005BD320E030E040E05FE387FD04C0C701C1
:102F6000B6014CD103C0C701B60147D117D20E94A8
:102F7000CA0A61E08DE00E942C0A66EA73E0DBCDAC
:102F8000CF93DF9310929E0410929D0488EE93E0FD
:102F9000A0E0B0E080939F049093A004A093A104CC
:102FA000B093A20424EF32E030939C0420939B045E
:102FB00025EC30E03093A8042093A70424EC30E003
:102FC0003093AA042093A90420EC30E03093AC04A1
:102FD0002093AB0421EC30E03093AE042093AD0499
:102FE00022EC30E03093B0042093AF0426EC30E0C4
:102FF0003093B2042093B1041092B4041092B5043B
:103000001092B6041092B704C8E3D5E010923B05C5
:1030100010923A0580933C0590933D05A0933E05A0
:10302000B0933F0586E093E090933905809338058F
:103030001092BB0A1092BA0A88E193E09093B90A01
:103040008093B80A8FE38093BC0A80E18093C10A21
:1030500082E08093C20A1092C30A61E08AE20E9471
:103060003E0461E08CE20E943E0461E08EE20E9438
:103070003E0461E080E30E943E048AE290E0909387
:10308000AF0A8093AE0A8CE290E09093B10A8093ED
:10309000B00A8EE290E09093B30A8093B20A80E384
:1030A00090E09093B50A8093B40A80E48093A80AD4
:1030B000D093AA0AC093A90A81E48093AB0AD09363
:1030C000AD0AC093AC0AE4E4F5E08FEF93E040E092
:1030D00050E06AE774E41182108213821282158232
:1030E0001482178216821186108613861286158620
:1030F000148617861686108A118A128A138A148AF1
:10310000158A168A178A108E118E128E138E148EBF
:10311000158E168E178E10A211A212A213A214A23F
:1031200016A215A290A787A311A612A613A614A6ED
:1031300015A616A617A610AA11AA12AA13AA14AAAF
:1031400015AA16AA17AA10AE11AE12AE13AE14AE7F
:10315000DF01DD964D935D936D937C9313971496E9
:103160001D921D921D921C921397EB5BFF4F2AE05C
:10317000E83AF20709F0AFCFDF91CF910895052E1D
:1031800097FB16F400940FD057FD05D014D007FC20
:1031900002D046F408C050954095309521953F4F98
:1031A0004F4F5F4F089590958095709561957F4F33
:1031B0008F4F9F4F0895A1E21A2EAA1BBB1BFD0142
:1031C0000DC0AA1FBB1FEE1FFF1FA217B307E40706
:1031D000F50720F0A21BB30BE40BF50B661F771F5E
:1031E000881F991F1A9469F760957095809590953E
:1031F0009B01AC01BD01CF0108955058BB27AA2700
:103200000ED0B1C1A2D130F0A7D120F031F49F3F50
:1032100011F41EF497C10EF4E095E7FB64C1E92FA9
:10322000B3D180F3BA17620773078407950718F0C4
:1032300071F49EF5E2C10EF4E0950B2EBA2FA02D8D
:103240000B01B90190010C01CA01A0011124FF2753
:10325000591B99F0593F50F4503E68F11A16F0404E
:10326000A22F232F342F4427585FF3CF469537954D
:103270002795A795F0405395C9F77EF41F16BA0B12
:10328000620B730B840BBAF09150A1F0FF0FBB1FC0
:10329000661F771F881FC2F70EC0BA0F621F731F09
:1032A000841F48F4879577956795B795F7959E3F66
:1032B00008F0B3CF9395880F08F09927EE0F9795F4
:1032C00087950895ECD008F481E008950CD04BC1A7
:1032D00043D140F03AD130F021F45F3F19F003C1FF
:1032E00051118CC12FC150D198F39923C9F35523A3
:1032F000B1F3951B550BBB27AA27621773078407E9
:1033000038F09F5F5F4F220F331F441FAA1FA9F39E
:1033100033D00E2E3AF0E0E830D091505040E69590
:10332000001CCAF729D0FE2F27D0660F771F881FF1
:10333000BB1F261737074807AB07B0E809F0BB0BE0
:10334000802DBF01FF2793585F4F2AF09E3F510504
:1033500068F0C9C053C15F3FECF3983EDCF386953B
:1033600077956795B795F7959F5FC9F7880F911D7A
:103370009695879597F90895E1E0660F771F881F66
:10338000BB1F621773078407BA0720F0621B730B19
:10339000840BBA0BEE1F88F7E095089504D068946B
:1033A000B1112CC10895F8D088F09F5790F0B92F33
:1033B0009927B751A0F0D1F0660F771F881F991F8A
:1033C0001AF0BA95C9F712C0B13081F016D1B1E048
:1033D000089513C1672F782F8827B85F39F0B93F58
:1033E000CCF3869577956795B395D9F73EF490958C
:1033F0008095709561957F4F8F4F9F4F0895E8940A
:1034000009C097FB3EF490958095709561957F4F2C
:103410008F4F9F4F9923A9F0F92F96E9BB279395DA
:10342000F695879577956795B795F111F8CFFAF4EA
:10343000BB0F11F460FF1BC06F5F7F4F8F4F9F4F1B
:1034400016C0882311F096E911C0772321F09EE879
:10345000872F762F05C0662371F096E8862F70E0DF
:1034600060E02AF09A95660F771F881FDAF7880FB9
:103470009695879597F90895A9D080F09F3740F4E5
:1034800091110EF0BBC060E070E080E89FEB089502
:1034900026F41B16611D711D811D2BC045C0990F9F
:1034A0000008550FAA0BE0E8FEEF16161706E8070E
:1034B000F907C0F012161306E407F50798F0621B2F
:1034C000730B840B950B39F40A2661F0232B242B04
:1034D000252B21F408950A2609F4A140A6958FEF23
:1034E000811D811D089597F99F6780E870E060E075
:1034F0000895882371F4772321F09850872B762F35
:1035000007C0662311F499270DC09051862B70E0F7
:1035100060E02AF09A95660F771F881FDAF7880F08
:103520009695879597F908959F3F31F0915020F433
:10353000879577956795B795880F911D969587958F
:1035400097F908959FEF80EC089500240A941616C9
:10355000170618060906089500240A941216130681
:10356000140605060895092E0394000C11F488230F
:1035700052F0BB0F40F4BF2B11F460FF04C06F5F2B
:103580007F4F8F4F9F4F089557FD9058440F551F01
:1035900059F05F3F71F04795880F97FB991F61F0D5
:1035A0009F3F79F087950895121613061406551F4C
:1035B000F2CF4695F1DF08C0161617061806991FB8
:1035C000F1CF86957105610508940895E5DFA0F0B7
:1035D000BEE7B91788F4BB279F3860F41616B11DF3
:1035E000672F782F8827985FF7CF8695779567950F
:1035F000B11D93959639C8F30895E894BB276627C3
:103600007727CB0197F908954ADF08F48FEF0895E3
:103610000EF08ACF97CF689466CFBEDFC8F39923A8
:10362000D1F3C6F3DF93CF931F930F93FF92C92F6C
:10363000DD2788232AF02197660F771F881FDAF786
:1036400020E030E040E85FEB9FE3883920F0803EE7
:1036500030F021968F77D2DDE6E2F1E003C0CEDDD7
:10366000E3E5F1E081D08B01BE01EC01FB2E6F5749
:1036700071097595771F880B990BC3DE28E132E736
:1036800041E35FE316D0AF2D9801AE01FF900F919B
:103690001F91CF91DF91C3DD66CF0BD064CF55DF93
:1036A00028F05ADF18F0952309F01DCF4BCF1124D5
:1036B000A5CF6ADFA0F3959FD1F3950F50E0551F7A
:1036C000629FF001729FBB27F00DB11D639FAA2777
:1036D000F00DB11DAA1F649F6627B00DA11D661FC6
:1036E000829F2227B00DA11D621F739FB00DA11DE7
:1036F000621F839FA00D611D221F749F3327A00DA1
:10370000611D231F849F600D211D822F762F6A2F3C
:1037100011249F5750408AF0E1F088234AF0EE0FC1
:10372000FF1FBB1F661F771F881F91505040A9F7CE
:103730009E3F510570F0D7CE61CF5F3FECF3983ECE
:10374000DCF3869577956795B795F795E7959F5F35
:10375000C1F7FE2B880F911D9695879597F90895CF
:103760009EDE880B990B0895DF93CF931F930F93E1
:10377000FF92EF92DF927B018C01689405C0DA2EF4
:10378000EF0197DFFE01E894A591259135914591D0
:103790005591AEF3EF0143DDFE019701A801DA94E4
:1037A00079F7DF90EF90FF900F911F91CF91DF910C
:1037B0000895AA1BBB1B51E107C0AA1FBB1FA61778
:1037C000B70710F0A61BB70B881F991F5A95A9F7CA
:1037D00080959095BC01CD010895EE0FFF1F881FC5
:1037E0008BBF0790F691E02D199481E090E0F8945A
:0637F00000C0F894FFCFB9
:1037F600FFFFFFFF10270000F40100003738393AB9
:103806002B002D002F0031002422A33C89A18D3CE2
:10381600739E6E3C60B2153C2DD2D63C912DA63CD3
:10382600B079A83C0745A63CB5A48D3C5B24923CE8
:103836008F91A83C94B77B3CCFD2AA3C344B0B3C2F
:103846002A8CE83BFE8E873C7B2E933CD134BF3CD2
:10385600D134BF3C698FD13C0000400014005400B5
:103866000000000000000000010000000000000051
:10387600000001000000000001000100000000003F
:10388600000000000100000001000000010000002F
:10389600000001000100000001000100010000001D
:1038A600000000000000010001000000000001000F
:1038B60000000100000001000100010000000100FD
:1038C60000000000010001000100000001000100ED
:1038D60000000100010001000100010001000100DB
:1038E60000000000DD01930976012302A70185018E
:1038F6009901000000002E03FF025D03D302F702C8
:10390600E302D40200000000200793095D035C0374
:103916002A2A2A2A2A2A2A2A2A2A2A2A2A2A2A2A01
:103926002A2A2A2A2A2A2A2A2A2A2A2A2A2A2A2AF1
:103936002A2A2A2A2A2A2A2A2A2A2A2A2A2A2A2AE1
:103946002A2A2A2A2A2A2A2A2A2A004261747465DD
:103956007279205465737465720056657220320060
:103966004261747465722000456D7074792020532D
:103976006C6F7421004261747465727920004C4F3B
:10398600573A2000560050726544697300426174CC
:103996002D006D4168006D4F0041004300526543A4
:1039A60068617267696E6700426174746572696501
:1039B60020000D0A006E616E00696E66006F766605
:0239C6000000FF
:00000001FF
