:1000000043C1000072C1000070C100006EC1000059
:100010006CC100006AC1000068C1000066C1000038
:1000200064C1000062C1000060C100005EC1000048
:100030005CC100005AC1000058C1000056C1000058
:1000400054C1000052C1000050C100004EC1000068
:100050004CC100004AC1000048C10000AFC300000D
:1000600044C100000C94150C0C94EB0B3EC1000035
:100070003CC100003AC1000038C1000036C1000098
:1000800034C1000032C1000030C100002EC10000A8
:100090002CC100002AC1000028C10000E0C30000FC
:1000A00024C1000022C1000020C100001EC10000C8
:1000B0001CC100001AC1000018C1000016C10000D8
:1000C00014C1000012C1000010C100000EC10000E8
:1000D0000CC100000AC1000008C1000006C10000F8
:1000E00004C10000F102F402E302E702EB022B0379
:1000F000F802FC02020306030A03100314031803A8
:100100002B031E0322032603CA08E50823093E0920
:100110003D0B7009590A8B0AA013D113D813D813B9
:10012000E0134C14991508000000BE922449123EB9
:10013000ABAAAA2ABECDCCCC4C3E00000080BEAB00
:10014000AAAAAA3E00000000BF000000803F0000F5
:10015000000000084178D3BB4387D1133D190E3C02
:10016000C3BD4282AD2B3E68EC8276BED98FE1A939
:100170003E4C80EFFFBE01C4FF7F3F000000000047
:1001800000002100240027002A002D003000330049
:1001900001010000040107010A01000022002500FE
:1001A00028002B002E003100340002010000050160
:1001B00008010B01050505050705080808080202E6
:1001C00002020A0A080804040404010101010101F1
:1001D00001010303030303030303040707070C0CD4
:1001E0000C0C0C0C0C0C020202020606060606069B
:1001F00006060B0B0B0B0B0B0B0B01021020200840
:100200000810204010204080020102010804020171
:1002100001020408102040808040201008040201E0
:100220008004020180402010080402010804020139
:1002300001020408102040800102040810204080C0
:1002400000000A0B02090C0D0E0807030401000050
:10025000000000000000000000000000000000009E
:10026000000000000000000000000000121110005B
:10027000000000000000000000000000000000007E
:10028000000000000000B71611241FBECFEFD1E21E
:10029000DEBFCDBF00E00CBF13E0A0E0B2E0E2EEB5
:1002A000F5E300E00BBF02C007900D92A03AB10742
:1002B000D9F72AE0A0EAB3E001C01D92A239B20743
:1002C000E1F711E0C4E4D1E000E006C021970109A4
:1002D000802FFE010E94DD1AC334D10780E0080799
:1002E000A9F70E94720E0C94EF1A8ACEFC01918D30
:1002F000228D892F90E0805C9F4F821B91098F7324
:100300009927089580E090E0892B21F00E94780BD6
:10031000811125C080E090E0892B41F080E090E0E1
:10032000892B21F00E94000081111CC080E090E028
:10033000892B41F080E090E0892B21F00E940000A1
:10034000811113C080E090E0892BA1F080E090E063
:10035000892B81F00E94000081110AC008950E943B
:100360000000D8CF0E940000E1CF0E940000EACF39
:100370000C94000008953FB7F89480915304909135
:100380005404A0915504B091560426B5A89B05C00D
:100390002F3F19F00196A11DB11D3FBFBA2FA92F04
:1003A000982F8827820F911DA11DB11DBC01CD0181
:1003B00042E0660F771F881F991F4A95D1F708956D
:1003C00085ED8093BC008091BC0084FDFCCF109231
:1003D0002D0408954091E203262F30E0240F311DB3
:1003E00021323105DCF420912D042430C9F4FC01C4
:1003F00080E090E0861758F43091E2032191DC010F
:10040000A054BC4FA30FB11D2C930196F3CF809144
:10041000E203680F6093E20380E0089581E00895AD
:1004200082E008950895E091580480915704E817F8
:1004300030F4F0E0E25DFB4F808190E008958FEFB3
:100440009FEF08959091580480915704981750F4A5
:10045000E92FF0E0E25DFB4F208130E09F5F909359
:10046000580402C02FEF3FEFC9010895809157044F
:1004700090E020915804821B91090895CF92DF9259
:10048000EF92FF920F931F93CF93DF937C01262F60
:10049000972F8A0180916804882391F0C62FD72F67
:1004A0006E01C40ED51ECC15DD0569F06991D7012A
:1004B000ED91FC910190F081E02DC7011995F3CFEA
:1004C000642F822F87DFC801DF91CF911F910F9199
:1004D000FF90EF90DF90CF900895CF93DF931F921E
:1004E000CDB7DEB76983209168042223D1F0209133
:1004F0006504203240F021E030E0FC0133832283A8
:1005000080E090E014C080916604E82FF0E0E056AF
:10051000FC4F998190838F5F80936604809365047C
:1005200004C061E0CE01019655DF81E090E00F90BC
:10053000DF91CF910895089580E090E008950E94A2
:10054000EB1AFC01848DDF01A80FB11DA35ABF4F28
:100550002C91848D90E001968F739927848FA689C2
:10056000B7892C93A089B1898C9180648C93938DE9
:10057000848D981306C00288F389E02D80818F7DD9
:1005800080830895362F90E0FC01E05CFD4F44919C
:10059000FC01E650FE4F2491FC01EC54FE4F949177
:1005A000992309F46BC0442309F455C050E0FA01C3
:1005B0003197E231F10508F04EC08827EE58FF4F21
:1005C0008F4F0C94DD1A809180008F7707C0809147
:1005D00080008F7D03C080918000877F80938000A2
:1005E0003AC084B58F7702C084B58F7D84BD33C097
:1005F0008091B0008F7703C08091B0008F7D809391
:10060000B00029C0809190008F7707C08091900042
:100610008F7D03C080919000877F809390001BC0E6
:100620008091A0008F7707C08091A0008F7D03C0CC
:100630008091A000877F8093A0000DC08091200151
:100640008F7707C0809120018F7D03C080912001AA
:10065000877F80932001E92FF0E0EE0FFF1FE65621
:10066000FE4FA591B4918FB7F894EC91311103C06E
:1006700020952E2301C02E2B2C938FBF0895CF934E
:10068000DF9390E0FC01E650FE4F2491FC01EC5416
:10069000FE4F8491882361F190E0880F991FFC013F
:1006A000E058FE4FC591D491FC01E656FE4FA5914E
:1006B000B491611109C09FB7F89488812095822375
:1006C0008883EC912E230BC0623061F49FB7F894BD
:1006D0003881822F809583238883EC912E2B2C9355
:1006E0009FBF06C08FB7F894E8812E2B28838FBF59
:1006F000DF91CF910895863308F0865390917B0067
:10070000282F2870977F922B90937B0087708064AE
:1007100080937C0080917A00806480937A0080913D
:100720007A0086FDFCCF809178002091790090E0DE
:10073000922B08958F929F92AF92BF92CF92DF92A9
:10074000EF92FF926B017C0116DE4B015C01C1143C
:10075000D104E104F104E9F00EDEDC01CB018819DB
:100760009909AA09BB09883E9340A105B10578F310
:1007700021E0C21AD108E108F10888EE880E83E072
:10078000981EA11CB11CC114D104E104F10421F78D
:10079000DECFFF90EF90DF90CF90BF90AF909F9013
:1007A0008F9008952FB7F89460914F047091500482
:1007B00080915104909152042FBF08951F920F927F
:1007C0000FB60F9211242F933F938F939F93AF9364
:1007D000BF9380914F0490915004A0915104B09127
:1007E000520430914E0423E0230F2D3720F401965C
:1007F000A11DB11D05C026E8230F0296A11DB11D44
:1008000020934E0480934F0490935004A09351047E
:10081000B09352048091530490915404A0915504D4
:10082000B09156040196A11DB11D8093530490937D
:100830005404A0935504B0935604BF91AF919F9177
:100840008F913F912F910F900FBE0F901F90189591
:10085000DC01ED91FC910190F081E02D19941F9243
:100860000F920FB60F9211240BB60F922F933F9356
:100870004F935F936F937F938F939F93AF93BF93A8
:10088000EF93FF938091B900887F803609F49CC074
:1008900068F5883209F45BC090F4803109F454C0E3
:1008A00038F4882309F4F6C0883009F44DC0F5C047
:1008B000883109F44CC0803209F45DC0EEC0803448
:1008C00009F468C048F4803309F455C0883309F04E
:1008D000E4C080932B04D8C0803509F44FC088351C
:1008E00009F45DC0883409F0D8C0D6C0883909F44D
:1008F000C7C0A8F4883709F467C038F4883609F40B
:1009000063C0803709F460C0C8C0883809F4B8C033
:10091000803909F45FC0803809F0BFC05BC0803BFC
:1009200009F486C038F4803A09F466C0883A09F4BC
:100930007FC0B3C0803C09F4A7C0883C09F4A4C0C0
:10094000883B09F48AC0A9C08091280410C0909106
:100950002A0480912904981770F5E0912A0481E017
:100960008E0F80932A04F0E0E95FFB4F8081809333
:10097000BB0085EC86C080932B048EC0E0912A04D6
:1009800081E08E0F80932A048091BB00F0E0E95F44
:10099000FB4F808390912A04809129046EC0E091DE
:1009A0002A0481E08E0F80932A048091BB00F0E03E
:1009B000E95FFB4F808380912C0481116DC081E041
:1009C0008093270484EA61C083E080932D04109211
:1009D0000604CFCF80910604803208F051C0E09128
:1009E000060481E08E0F809306048091BB00F0E046
:1009F000EA51FC4F8083BDCF85EC8093BC00109200
:100A00002D0480910604803230F4E0910604F0E079
:100A1000EA51FC4F10826091060470E0E091E4031B
:100A2000F091E50386EE93E019951092060435C027
:100A300084E080932D041092E3031092E203E0918E
:100A4000E003F091E10319958091E203811105C063
:100A500081E08093E2031092C003E091E30381E020
:100A60008E0F8093E303F0E0E054FC4F808180938D
:100A7000BB009091E3038091E203981708F479CFCB
:100A800085E88093BC0009C085EC8093BC0010927F
:100A90002D0403C010922B0493DCFF91EF91BF91C2
:100AA000AF919F918F917F916F915F914F913F9106
:100AB0002F910F900BBE0F900FBE0F901F901895A7
:100AC00010922D0481E080932C041092270461E0A1
:100AD00084E158DD61E085E155DDE9EBF0E08081FE
:100AE0008E7F808380818D7F808388E48093B800AF
:100AF00085E48093BC00089520916504909167047B
:100B0000213208F04AC080912D048111FCCF32E0DF
:100B100030932D0431E030932C043FEF30932B04BD
:100B200010922A0420932904A0EAB3E047E054E09D
:100B3000FA013E2F341B321718F43D913193F9CF4F
:100B40001092280420912804990F922B9093280446
:100B500090912704913061F4109227049091280419
:100B60009093BB009091BC0093FDF8CF95EC01C031
:100B700095EE9093BC0090912D049230E1F390910A
:100B80002B049F3F79F080912B04803241F08091BB
:100B90002B04803331F084E005C081E003C082E0A3
:100BA00001C083E0109266041092650410926804FC
:100BB0000895FC01248131E0309368042093670498
:100BC00010926604109265048385682B86E095E098
:100BD00084DC86E095E090CF0F931F93CF938C0138
:100BE000C62FE7DF6C2F6460C801E3DF6C2F6B7FDB
:100BF000C801DFDF83EC90E00197F1F7CF911F91FF
:100C00000F9108950F931F93CF938C01C62F607F90
:100C10006160E2DF80E1C89FB00111246160C8011A
:100C2000DBDF81E090E0CF911F910F9108950F934A
:100C30001F93CF93DF931F92CDB7DEB78C01DC01FA
:100C40008C9191E0909368048093670410926604FD
:100C50001092650411968D919C911297DC01ED9193
:100C6000FC910190F081E02D49831995F801818173
:100C70009281DC01ED91FC910190F081E02D4981A0
:100C8000642F1995F801818192810F90DF91CF91A6
:100C90001F910F9131CF0F931F93CF93DF93EC01EF
:100CA000CB01BA0126E636E646E65FE30E94511A1A
:100CB0009B01AC0160E27CEB8EEB95E40E946A182C
:100CC00020E030E040E85FE30E94011820E030E0DF
:100CD00040E05FE30E9402180E9440190E94D7186A
:100CE000062F888191E090936804809367041092A6
:100CF00066041092650489819A81DC01ED91FC9172
:100D00000190F081E02D60E0199589819A81F4DEEF
:100D1000888190912D049111FCCF91E090932D0446
:100D200090932C042FEF20932B0410922A041092FE
:100D300029049093280490912804880F892B80938C
:100D4000280480912704813061F410922704809157
:100D500028048093BB008091BC0083FDF8CF85EC14
:100D600001C085EE8093BC0080912D048130E1F3B9
:100D700080912A04811103C080912A0401C081E07E
:100D8000A7E0B4E02EE234E0F9019E2F921B981701
:100D900018F49D919193F9CF1092580480935704C1
:100DA00089819A81DC01ED91FC910284F385E02D2B
:100DB0001995182F8F76482F406160E0CE0137DFFC
:100DC000402F6EEFCE0133DF412F60E0CE012FDFE9
:100DD00065E070E080E090E0ADDC412F406A60E0CB
:100DE000CE01DF91CF911F910F9121CF0F931F93D0
:100DF000CF93DF938C01EB0177FD1EC080915F04E0
:100E00008823E1F010925F048091180290911902FA
:100E100025E4289FF001299FF00D1124EE5EFA4F82
:100E200016A215A2BFDC60935B0470935C048093F0
:100E30005D0490935E0402C0C0E0D0E047E050E063
:100E400020E030E085E4C00FD11FD7FD06C0C431DB
:100E5000D1052CF0C0E0D0E002C0C3E1D0E08C9F0F
:100E6000F0018D9FF00D1124EE5EFA4F65A176A181
:100E70006417750791F02F5F3F4F2431310541F41E
:100E80004730510501F745E050E020E030E0DBCF8E
:100E900025313105C4F2CFEFDFEFCE01DF91CF91E5
:100EA0001F910F9108958F929F92AF92BF92CF9210
:100EB000DF92EF92FF921F93CF93DF93EC016A01D1
:100EC0007B016091590470915A048A819B81681753
:100ED0007907B9F0660F771FFB01E05EFD4F61E017
:100EE000808150DBEA81FB81EE0FFF1FE05EFD4F4A
:100EF00060E0808147DB8A819B8190935A048093D4
:100F0000590488819981A1D561E070E080E090E08A
:100F100011DC1AE0812C912C5401EA81FB81E45E02
:100F2000FD4F8081E8DBBC01990F880B990B0E9473
:100F300005199B01AC01C501B4010E9402184B01C7
:100F40005C01115051F720E030E040E251E40E9492
:100F50006A18A70196010E94511A6B017C018EE567
:100F600080937C0080917B00877F80937B008091C1
:100F70007A00806880937A0062E070E080E090E020
:100F8000D9DB80917A00806480937A0080917A0026
:100F900086FDFCCF209178008091790030E0382BDD
:100FA000032E000C440B550B64EB7BE281E190E0D7
:100FB0000E94B417CA01B9010E9405192FE632E157
:100FC00043E85AE30E94511A20E030E040E85AE337
:100FD0000E94511A9B01AC01C701B6010E94511A2F
:100FE000DF91CF911F91FF90EF90DF90CF90BF9056
:100FF000AF909F908F9008958F929F92AF92BF92E3
:10100000CF92DF92EF92FF924B015C011092910A16
:1010100060E086E89AE0CDDDC5DB6B017C0120E075
:1010200030E44CE156E4C501B4010E94511A4B0171
:101030005C0120E030E0A9010E94081A20E030E0C5
:1010400040E05FE387FD05C0C501B4010E940218BE
:1010500004C0C501B4010E9401180E94D218C60E36
:10106000D71EE81EF91EC0920002D0920102E09243
:101070000202F0920302FF90EF90DF90CF90BF90BA
:10108000AF909F908F9008958F929F92AF92BF9252
:10109000CF92DF92EF92FF92CF93809004029090D4
:1010A0000502A0900602B09007027CDB8616970628
:1010B000A806B90608F0E1C2C0900002D090010273
:1010C000E0900202F0900302C114D104E104F104A3
:1010D00031F068DB86169706A806B90690F1809174
:1010E0001802909119028F3F2FEF920709F58EEFAA
:1010F0009FEF9093190280931802DCD460E081E0A6
:10110000E0D480E393E008D561E085E0DAD48FE3B2
:1011100093E002D560E070E080E89FE3CF91FF901C
:10112000EF90DF90CF90BF90AF909F908F9064CF63
:1011300097FD7AC237DB6C157D058E059F0588F01B
:1011400073C230DBDC01CB018C509E4FAF4FBF4FE1
:101150008093040290930502A0930602B0930702C5
:10116000BECF809118029091190225E4289FF001CA
:10117000299FF00D1124EE5EFA4F05A0F6A1E02D97
:10118000E830F10508F079C28827EC57FF4F8F4F00
:101190000C94DD1A8FD460E083E093D485E493E06F
:1011A000BBD460E08BE08DD460911802709119027D
:1011B0006F5F7F4F072E000C880B990BAED461E058
:1011C00081E07FD48DE493E034C074D460E083E0A8
:1011D00078D48AE593E0A0D460E08BE072D460918B
:1011E0001802709119026F5F7F4F072E000C880B59
:1011F000990B93D461E083E064D483E693E08CD4CC
:1012000061E088E05ED4809118029091190225E493
:10121000289FF001299FF00D1124EE5EFA4F65A979
:1012200076A987A990ADA0D461E08CE04AD489E684
:1012300093E0CF91FF90EF90DF90CF90BF90AF9071
:101240009F908F9069C436D460E083E03AD48AE5F9
:1012500093E062D460E08BE034D460911802709126
:1012600019026F5F7F4F072E000C880B990B55D426
:1012700061E081E026D48BE693E0C1CF1BD460E02F
:1012800083E01FD48AE593E047D460E08BE019D473
:1012900060911802709119026F5F7F4F072E000C4A
:1012A000880B990B3AD461E081E00BD481E893E09C
:1012B00033D461E08AE005D480911802909119023C
:1012C00025E4289FF001299FF00D1124EE5EFA4FCE
:1012D00065A976A987A990AD47D461E08EE0A6CF35
:1012E000E9D360E081E0EDD382E793E015D460E0DC
:1012F00085E0E7D360911802709119026F5F7F4F0C
:10130000072E000C880B990B08D460E088E0D9D335
:10131000809118029091190225E4289FF001299FDD
:10132000F00D1124EE5EFA4FC5A4D6A4E7A4F0A8F0
:1013300020E030E0A901C701B6010E94081A20E0B0
:1013400030E040E05FE387FD05C0C701B6010E94C1
:10135000021804C0C701B6010E9401180E94D218E9
:10136000DCD360E08CE0ADD387E793E0D5D361E0D8
:1013700080E0A7D38091180290911902C5E4C89F1C
:10138000F001C99FF00D1124EE5EFA4F65A976A910
:1013900087A990ADE9D361E084E093D389E693E037
:1013A000BBD361E086E08DD3809118029091190241
:1013B000C89FF001C99FF00D1124EE5EFA4FC1A83D
:1013C000D2A8E3A8F4A820E030E0A901C701B60143
:1013D0000E94081A20E030E040E05FE387FD05C08E
:1013E000C701B6010E94021804C0C701B6010E94DD
:1013F00001180E94D21891D361E089E062D38BE793
:1014000093E08AD361E08AE05CD360E086E89AE00A
:10141000F9DB61E08CE055D3C0900002D09001026E
:10142000E0900202F090030288E8C81A83E1D80A2B
:10143000E108F108B7D9409118025091190225E44A
:10144000249FF001259FF00D1124EE5EFA4F6C15DC
:101450007D058E059F0558F461AD72AD83AD94ADE9
:1014600083D361E08FE02DD38DE793E0E2CEC1A47A
:10147000D2A4E3A4F4A420E030E0A901C701B6019E
:101480000E94081A20E030E040E05FE387FD05C0DD
:10149000C701B6010E94021804C0C701B6010E942C
:1014A00001180E94D21839D361E08EE00AD361E0BE
:1014B000AFC000D360E083E004D38AE593E02CD38F
:1014C00060E08BE0FED260911802709119026F5FAC
:1014D0007F4F072E000C880B990B1FD361E080E033
:1014E000F0D28FE793E018D361E08BE0EAD28091ED
:1014F00018029091190225E4289FF001299FF00D10
:101500001124EE5EFA4F65A976A987A990AD2CD378
:1015100061E08FE08BCECED260E083E0D2D28AE869
:1015200093E0FAD260E08CE0CCD260911802709126
:1015300019026F5F7F4F072E000C880B990BEDD2BD
:1015400061E082E0BED2809118029091190225E4F8
:10155000289FF001299FF00D1124EE5EFA4FC5A4DB
:10156000D6A4E7A4F0A820E030E0A901C701B601A5
:101570000E94081A20E030E040E05FE387FD05C0EC
:10158000C701B6010E94021804C0C701B6010E943B
:1015900001180E94D218C1D261E086E092D287E79A
:1015A00093E0BAD261E08AE08CD2809118029091E7
:1015B000190225E4289FF001299FF00D1124EE5E09
:1015C000FA4FC1A8D2A8E3A8F4A820E030E0A9010E
:1015D000C701B6010E94081A20E030E040E05FE356
:1015E00087FD05C0C701B6010E94021804C0C701EB
:1015F000B6010E9401180E94D2188FD261E08DE0DE
:1016000060D28BE793E088D261E08EE05AD260E04E
:1016100086E89AE0CF91FF90EF90DF90CF90BF9057
:10162000AF909F908F90EECABDD86C157D058E054A
:101630009F0518F1CD28CE28CF28F9F08EEF9FEF27
:1016400090931902809318021092000210920102E6
:1016500010920202109203022DD288E08093910A28
:1016600060E086E89AE0CF91FF90EF90DF90CF9016
:10167000BF90AF909F908F909CCACF91FF90EF90BA
:10168000DF90CF90BF90AF909F908F900895FC0116
:10169000538D448D252F30E0842F90E0821B930BD7
:1016A000541710F0CF96089501970895FC01918D7D
:1016B000828D981761F0828DDF01A80FB11D5D96B4
:1016C0008C91928D9F5F9F73928F90E008958FEF22
:1016D0009FEF0895FC01918D828D981731F0828DD6
:1016E000E80FF11D858D90E008958FEF9FEF08952D
:1016F00089E694E00E94760121E0892B09F420E03C
:10170000822F0895EF92FF920F931F93CF93DF9351
:10171000EC0181E0888F9B8D8C8D981305C0E88942
:10172000F989808185FD24C0F62E0B8D10E00F5FB6
:101730001F4F0F731127E02E8C8DE8120CC00FB6CF
:1017400007FCFACFE889F989808185FFF5CFCE01C2
:101750000E94A102F1CF8B8DFE01E80FF11DE35A2B
:10176000FF4FF0820B8FEA89FB898081806207C07E
:10177000EE89FF896083E889F989808180648083AC
:1017800081E090E0DF91CF911F910F91FF90EF905A
:101790000895CF93DF93EC01888D8823C9F0EA89FF
:1017A000FB89808185FD05C0A889B9898C9186FD5A
:1017B0000FC00FB607FCF5CF808185FFF2CFA88957
:1017C000B9898C9185FFEDCFCE010E94A102E7CFB0
:1017D000DF91CF9108951F920F920FB60F921124AF
:1017E0000BB60F922F933F934F935F936F937F931B
:1017F0008F939F93AF93BF93EF93FF9389E694E00A
:101800000E94A102FF91EF91BF91AF919F918F91A3
:101810007F916F915F914F913F912F910F900BBEF0
:101820000F900FBE0F901F9018951F920F920FB63A
:101830000F9211240BB60F922F938F939F93EF93D8
:10184000FF93E0917904F0917A048081E0917F0424
:10185000F091800482FD12C09081809182048F5F9C
:101860008F7320918304821751F0E0918204F0E09D
:10187000E759FB4F958F8093820401C08081FF91CF
:10188000EF919F918F912F910F900BBE0F900FBEF4
:101890000F901F901895E091860AF091870A0190A9
:1018A000F081E02D682F86E89AE01994CF92DF92BC
:1018B000EF92FF920F931F93CF93DF936C017A0106
:1018C0008B01C0E0D0E0CE15DF0589F0D8016D9125
:1018D0008D01D601ED91FC910190F081E02DC601C2
:1018E0001995892B11F47E0102C02196ECCFC70116
:1018F000DF91CF911F910F91FF90EF90DF90CF90EC
:101900000895009761F0FC0101900020E9F73197FC
:10191000AF01481B590BBC0186E89AE0C7CF80E0B5
:1019200090E008958F929F92AF92BF920F931F9372
:10193000CF93DF93CDB7DEB7A1970FB6F894DEBF94
:101940000FBECDBF19A2423008F44AE08E010F5DF0
:101950001F4F842E912CA12CB12CA50194010E9423
:10196000D017E62FB901CA0101501109EA3014F469
:10197000E05D01C0E95CD801EC93232B242B252BDF
:1019800061F7C801BEDFA1960FB6F894DEBF0FBEA7
:10199000CDBFDF91CF911F910F91BF90AF909F90DE
:1019A0008F900895EF92FF921F93CF93DF931F9232
:1019B000CDB7DEB77C01152FDC018C9191E09093BF
:1019C000680480936704109266041092650411966F
:1019D0008D919C911297DC01ED91FC91B4E06B9F8D
:1019E00090011124B9016A5F7F4F0190F081E02DD1
:1019F0004983199560E070E0F701818192810E942E
:101A0000280460E070E0D70111968D919C911297A7
:101A10000E9428044981642F712FF70181819281EE
:101A20000E942804612F70E0D70111968D919C913E
:101A300012970E942804F701818192810F90DF9113
:101A4000CF911F91FF90EF9057C80F931F93CF93A3
:101A5000DF9323E0880F991F2A95E1F7EC01C05826
:101A6000DD4F0CE71AE06881F80180810E94C20214
:101A70006A81F80182810E94C2026C81F80184812E
:101A80000E94C2026E81F8018681DF91CF911F9181
:101A90000F910C94C202CF93C82F682F607F86E805
:101AA0009AE09AD880E1C89FB001112486E89AE0B4
:101AB000CF9192C881E0EFDF8BE39FE10197F1F7CF
:101AC0000895CF93DF93CDB7DEB728970FB6F8947C
:101AD000DEBF0FBECDBF98E0E8E7F2E0DE01119671
:101AE00001900D929A95E1F790918E0A961710F455
:101AF0006FEF690FFE013196E60FF11DE60FF11D44
:101B00009081890F806828960FB6F894DEBF0FBECB
:101B1000CDBFDF91CF91BFCFF4CECF92DF92EF92C6
:101B2000FF92CF93DF9397FF17C06B017C018DE28B
:101B3000B2DEEC0166277727CB016C197D098E098F
:101B40009F094AE0EFDE8C0F9D1FDF91CF91FF9040
:101B5000EF90DF90CF9008954AE0DF91CF91FF9012
:101B6000EF90DF90CF90DECE8F929F92AF92BF9298
:101B7000CF92DF92EF92FF92CF93DF936B017C01C4
:101B80009B01AC010E94B41A882319F084E993E008
:101B900027C046015701E894B7F82FEF3FEF4FE712
:101BA0005FE7C501B4010E94B41A81110DC02FEF87
:101BB0003FEF4FE75FE7C501B4010E9466181816B2
:101BC0001CF488E993E00CC02FEF3FEF4FE75FE490
:101BD000C701B6010E94081A18166CF48CE993E04C
:101BE000DF91CF91FF90EF90DF90CF90BF90AF90BB
:101BF0009F908F9086CE2FEF3FEF4FE75FECC701AE
:101C0000B6010E94661887FDE9CF20E030E0A90107
:101C1000C701B6010E94661887FF08C08DE23BDE4F
:101C2000EC01F7FAF094F7F8F09402C0C0E0D0E0CD
:101C30002AE037ED43EA5BE3C701B6010E940218D0
:101C40004B015C010E94D7186B017C010E940319B3
:101C50009B01AC01C501B4010E9401184B015C015C
:101C60004AE0C701B6015EDEC80FD91F8EE213DE5F
:101C7000C80FD91F20E030E040E251E4C501B401B3
:101C80000E94511A4B015C010E94D7186B01E12C94
:101C9000F12C4AE0C701B60145DEC80FD91FC701C4
:101CA000B6010E9403199B01AC01C501B4010E9459
:101CB000011820E030E040E251E40E94511A0E94F5
:101CC000D71880E090E04AE02DDE8C0F9D1FDF9159
:101CD000CF91FF90EF90DF90CF90BF90AF909F900B
:101CE0008F900895CF93DF93CDB7DEB728970FB6C7
:101CF000F894DEBF0FBECDBF789484B5826084BDFA
:101D000084B5816084BD85B5826085BD85B58160FF
:101D100085BD80916E00816080936E00109281007D
:101D20008091810082608093810080918100816038
:101D300080938100809180008160809380008091F9
:101D4000B10084608093B1008091B0008160809385
:101D5000B000809191008260809391008091910009
:101D600081608093910080919000816080939000C9
:101D70008091A10082608093A1008091A100816088
:101D80008093A1008091A00081608093A000809149
:101D900021018260809321018091210181608093E3
:101DA00021018091200181608093200180917A003F
:101DB000846080937A0080917A00826080937A00B8
:101DC00080917A00816080937A0080917A008068A7
:101DD00080937A001092C100109258041092570418
:101DE00010926604109265040E946005E0917904E7
:101DF000F0917A0482E08083E0917504F09176049A
:101E00001082E0917704F09178048FEC8083109237
:101E10008104E0917D04F0917E0486E08083E0916E
:101E20007B04F0917C04808180618083E0917B045D
:101E3000F0917C04808188608083E0917B04F09144
:101E40007C04808180688083E0917B04F0917C0435
:101E500080818F7D808380E41EDE00E112E0D80166
:101E60006D918D0186E89AE00E940206B2E0083189
:101E70001B07A9F788E40FDE08E012E0F801619182
:101E80008F0186E89AE00E940206F2E000311F0707
:101E9000A9F780918B0A886080938B0A12E01093D7
:101EA0008E0A62E370E080E090E00E949A03609105
:101EB000910A86E89AE00E94D90568EE73E080E016
:101EC00090E00E949A0360E386E89AE00E94EC05A5
:101ED0000BE4E02E06E4F02EC7010197F1F760E372
:101EE00086E89AE00E94EC05C7010197F1F760E3EC
:101EF00086E89AE00E94EC0583E592E00197F1F70D
:101F000060E286E89AE00E94EC0580918B0A80628C
:101F1000C2DD84E080938C0A8CE0BDDDCBDD1093C4
:101F20008D0A86E0B8DD82E0B6DD8BE39FE10197A4
:101F3000F1F7AAD80E94D203609360047093610401
:101F4000809362049093630460E087E30E943F0300
:101F500060E088E30E943F0360E089E30E943F0362
:101F600060E08AE30E943F0361E08BE20E943F034E
:101F700061E08DE20E943F0361E08FE20E943F0337
:101F800061E081E30E943F0361E08AE20E943F0337
:101F900061E08CE20E943F0361E08EE20E943F0319
:101FA00061E080E30E943F0360E08AE20E94C20297
:101FB00060E08CE20E94C20260E08EE20E94C202F7
:101FC00060E080E30E94C20260E08BE20E94C202F5
:101FD00060E08DE20E94C20260E08FE20E94C202D5
:101FE00060E081E30E94C20260E086E30E943F035A
:101FF00006E71AE0109258041092570410926604F3
:10200000109265040E94600540E860E0C8010E94EB
:1020100017066AE070E080E090E00E949A0340E0DA
:1020200050E06AE774E4C8010E944B0640E050E0CB
:1020300068EC74E4C8010E944B060D5F1F4F2AE054
:102040000C371207B9F622E135E038872F83E12CEF
:10205000F12C00E010E060E070E0F2E0CF2ED12C37
:1020600089E090E066246394712C25E030E0412CF7
:10207000512C40E050E0812C912CBAE7AB2EB4E417
:10208000BB2EAF81B88511961C921E9213961C929E
:102090001E92129715961C921E92149717961C92D8
:1020A0001E92169719961C921E9218971B961C92B8
:1020B0001E921A971D961C921E921C971F961C9298
:1020C0001E921E97FD01108A118A128A138A549655
:1020D0001D921D921D921C925797108E118E128E7A
:1020E000138E5C961D921D921D921C925F9710A2FA
:1020F00011A212A213A2F701EE5EFA4F14A2969655
:102100001C921E92959798961C921E929797FD018D
:1021100011A612A613A614A69D961D921D921D929D
:102120001C92D09711AA12AA13AA14AAD5961D928E
:102130001D921D921C92D89711AE12AE13AE14AE22
:10214000FD9680829182A282B3823496108211829F
:1021500012821382403151052CF0FFEF4F1A5F0AB3
:1021600040E050E0DA011196BA83A983EF81F88547
:102170005183408353824282203131052CF0FFEF9E
:102180006F1A7F0A20E030E0A9014F5F5F4F5C8348
:102190004B83AF81B88515963C932E931497179671
:1021A0007C926E921697803191052CF0BFEFCB1A7E
:1021B000DB0A80E090E01C01EFEF2E1A3E0AAF81AF
:1021C000B88519969C938E9318971B96DC92CE92A5
:1021D0001A976031710524F00F5F1F4F60E070E0C7
:1021E0009B012F5F3F4FEF81F885758764871787C5
:1021F000068710A617A2C801880F991F800F911F8C
:1022000040E050E08A58954F2D833E83CBDB4F81D1
:1022100058854B5B5F4F58874F8355E4E50EF11CA3
:102220002D813E8184E6E81685E0F806C9F1B90102
:10223000C1012B813C8149815A8123CF80911802B1
:10224000909119028215930509F017C280905B04E2
:1022500090905C04A0905D04B0905E040E94D20354
:10226000681579058A059B0508F098C1FFEF2F1ABC
:102270003F0A25E4C20ED11C49815A814B5B5F4F56
:102280005A83498354E12516310409F020C1809115
:102290005F04882309F46AC40E9444080E948201F2
:1022A0000E94D203009160041091610420916204A5
:1022B00030916304DC01CB01801B910BA20BB30BAB
:1022C000883E9340A105B10508F49EC002E115E0E7
:1022D0008091590490915A04D80112962D913C9105
:1022E000139782179307E9F0880F991FFC01E05EAE
:1022F000FD4F61E080810E94C202D8011296ED91EB
:10230000FC911397EE0FFF1FE05EFD4F60E08081B0
:102310000E94C202F8018281938190935A048093B3
:102320005904D8018D919C9190DB61E070E080E0D0
:1023300090E00E949A03D8011296ED91FC911397B8
:10234000E45EFD4F80810E947B03BC01990F880BE6
:10235000990B5BD79B01AC0160E070EC8FE794E4D4
:10236000B9D620E030E040E85FE34BD620E030E42F
:102370004CE156E40E94511A0E94111A6B017C0133
:1023800026ED34E649E759E30E94511A2BEC38E474
:1023900044E85AE337D64B015C012CE63FEC48E5B4
:1023A00054E3C701B6010E94511AA70196010E9489
:1023B000511AA70196010E94511A9B01AC01C50157
:1023C000B40120D69B01AC0160E070E080E89FE39F
:1023D00081D623E333E14BE853E413D6F80161A738
:1023E00072A783A794A70B5B1F4FFAE006371F075E
:1023F00009F06ECF0E94D203609360047093610471
:10240000809362049093630408E212E0C12CD12C03
:1024100040E050E060E070E4C6018A5E9A4F0E949E
:1024200053074B015C01D8012D913D914D915D9178
:102430008D01F601EE5EFA4F7F010E94511A9B0159
:10244000AC01C501B401DDD5D701D5966D937D935F
:102450008D939C93D897B5E4CB0ED11CE4E6CE16B1
:10246000E5E0DE06A9F6A12CB12C40E050E060E8E2
:102470007FE3C501865E9A4F0E9453076B017C0182
:1024800085010E5E1A4F22E835E14DE25CE30E94C1
:10249000511A9B01AC01C701B601B4D5D801D99638
:1024A0006D937D938D939C93DC97B5E4AB0EB11C3B
:1024B000E4E6AE16E5E0BE06C1F65EE1C52E55E0E7
:1024C000D52E26E335E03A832983212C312C109137
:1024D0005F04112351F18091180290911902821525
:1024E000930519F580905B0490905C04A0905D04C6
:1024F000B0905E040E94D203681579058A059B0599
:10250000A0F435E4329DF001339DF00D1124EE5E10
:10251000FA4F23E333E343E350E465A976A987A99F
:1025200090AD76D718160CF4A1C3A981BA81119683
:102530008D919C911297892B09F4F3C023E333E327
:1025400043E150E4A981BA8151966D917D918D91BD
:102550009C915497BBD518160CF4E3C011116ECEA4
:1025600060E070E080E89FE30E94FC07B1E0B09378
:102570005F040E94D203DC01CB01805F984DAF4F16
:10258000BF4F80935B0490935C04A0935D04B09371
:102590005E043092190220921802C3C025E4229DE5
:1025A000F001239DF00D1124EE5EFA4F108A118A7E
:1025B000128A138A148A158A168A178A108E118E27
:1025C000128E138E148E158E168E178E14A210A2D4
:1025D00011A212A213A216A215A210A617A215A646
:1025E00016A617A610AA11AA12AA13AA14AADF01E6
:1025F000AF5BBF4F1D921D921D921C921397868553
:1026000097859C01220F331F820F931F40E050E0FB
:1026100064858A58954FC6D910925F040E94D203F0
:1026200060935B0470935C0480935D0490935E04FC
:10263000609118027091190281E090E00E94F60604
:10264000909319028093180297FD10CE0E94D20336
:10265000DC01CB0188579C4EAF4FBF4F80935B048A
:1026600090935C04A0935D04B0935E0460E070E01E
:1026700080E09FE30E94FC07F9CD97FD3EC035E462
:10268000389FF001399FF00D1124EE5EFA4F108A49
:10269000118A128A138A148A158A168A178A108E4A
:1026A000118E128E138E148E158E168E178E14A206
:1026B00010A211A212A213A216A215A210A617A26E
:1026C00015A616A617A610AA11AA12AA13AA14AA2A
:1026D000DF01AF5BBF4F1D921D921D921C9213979D
:1026E000868597859C01220F331F820F931F40E040
:1026F00050E064858A58954F55D90E94D203609363
:102700005B0470935C0480935D0490935E0430924C
:1027100019022092180260E070E080E89FE30E94B6
:10272000FC07A981BA811196ED91FC911297E730CF
:10273000F10508F09BCD8827E457FF4F8F4F3DC729
:10274000E981FA8181889288A388B48823E333E3FE
:1027500043E850E4C501B4015BD687FD03C0E4E063
:10276000F0E0FDC123E333E343E350E4C501B401EA
:102770004FD687FD7BCD81E090E0A981BA8112968A
:102780009C938E93119780915F0481110AC060E041
:1027900070E080E89FE30E94FC07309219022092CB
:1027A0001802E981FA8181819281019709F45ECD55
:1027B000E4E0F0E0A981BA811296FC93EE931197C0
:1027C000D60154968D909D90AD90BC9057978114F2
:1027D0009104A104B10449F50E94D203DC01CB01AC
:1027E00084529A4FAF4FBF4FF601848B958BA68BC7
:1027F000B78B80915F0481110AC060E070E080E8CF
:102800009FE30E94FC073092190220921802D60121
:1028100012968D919C9113979C01220F331F820F6A
:10282000931F4FE851E06C912CC020E030E0A901EB
:10283000E981FA81658576858785908947D48111FC
:1028400023C00E94D203681579058A059B0508F00C
:1028500020C21AC00E94D203DC01CB0184529A4FDD
:10286000AF4FBF4FF601848B958BA68BB78B8281C0
:1028700093819C01220F331F820F931F4BE056E080
:1028800060818A58954F8ED8E5E0F0E0A981BA8141
:102890001296FC93EE93119723E333E343E350E462
:1028A000A981BA8151966D917D918D919C9154979A
:1028B0000DD4181674F180911802909119028215A6
:1028C000930521F480915F04811123C0E981FA818D
:1028D00014821382D60112968D919C9113979C01BC
:1028E000220F331F820F931F40E050E06C918A58F3
:1028F000954F58D826E030E0E981FA813283218370
:1029000080E090E0A0E7B0E4818B928BA38BB48B46
:10291000ADCCA981BA8113968D919C911497892B86
:1029200031F5EBE0F6E01496FC93EE9313970E94DA
:10293000D203A981BA815D966D937D938D939C930B
:1029400090978C91823080F013964D915C91149702
:10295000F601828193819C01220F331F820F931F06
:1029600060818A58954F1ED8E5E0F0E0F8C0A98153
:10297000BA818C91823068F4F60184889588A688A3
:10298000B7880E94D203681579058A059B0508F06F
:10299000E7C120E030E04AE754E4A981BA815596C6
:1029A0006D917D918D919C9158977BD52B013C0128
:1029B0000E94D2034B015C01E981FA81858D968DDD
:1029C000A78DB0A1A5019401281B390B4A0B5B0B05
:1029D000CA01B90118D49B01AC01C301B20161D590
:1029E00020E03AEB4BE55AE475D39B01AC01A98199
:1029F000BA8119966D917D918D919C911C9702D30E
:102A0000E981FA816187728783879487858E968EA4
:102A1000A78EB0A28081823008F428CC20E030E07C
:102A20004AE754E4658976898789908D3AD54B01C8
:102A30005C0120E030E0A901EBD418160CF016CCB4
:102A4000E981FA81418C528C638C748CA3019201D0
:102A5000C501B4013BD3882309F408CCA981BA810C
:102A60001396ED90FC9014978701A5019401C30182
:102A7000B201C7D297D35B019B0177FF04C0222725
:102A80003327261B370BB901330F880B990BBDD3A6
:102A90002DEC3CEC4CE45EE304D584D3DB012FEF5A
:102AA0003FE093D520ED37E040E050E05DD21A14CE
:102AB0001B0474F4BFEFEB16BFE0FB06B4F4121670
:102AC000130614F021E030E08701020F131F0DC040
:102AD000AB2859F01E141F0464F41216130614F0E8
:102AE00021E030E08701021B130B0115E0E11E0716
:102AF0002CF417FF05C000E010E002C00FEF1FE04C
:102B0000E016F10609F4B2CBA981BA8114961C93A0
:102B10000E931397F601828193819C01220F331F3C
:102B2000820F931FA80160818A58954F0E94D20C92
:102B30009DCB80915F04811110C08091180290910B
:102B4000190297FF0AC060E070E080E89FE30E94EE
:102B5000FC073092190220921802E7E0F0E0A98108
:102B6000BA811296FC93EE93119780CB0E947B035F
:102B700020911A0230911B022F3F3F4FA1F49C017C
:102B80002E5131092238310530F422E030E0309303
:102B90001B0220931A02805A91098A3A910570F417
:102BA00083E090E007C0843E924044F010926404B9
:102BB0008FEF9FEF90931B0280931A0200911A02ED
:102BC00010911B020F3FEFEF1E0781F060E070E0F5
:102BD00080E89FE30E94FC0760911802709119023F
:102BE00077FF04C081E08093640423C08091640473
:102BF000811152CB0230110579F03CF40115110519
:102C000089F10130110571F147CB03301105A1F0B5
:102C10000430110539F140CB81E08093640460E019
:102C200070E080E89FE30E94FC07609118027091B9
:102C3000190281E090E00FC081E08093640460E0BD
:102C400070E080E89FE30E94FC0760911802709199
:102C500019028FEF9FEF0E94F6069093190280935E
:102C600018021ACB81E08093640416CB10925F04A3
:102C70000E94D203DC01CB0188579C4EAF4FBF4F5F
:102C800080935B0490935C04A0935D04B0935E0416
:102C900048CDE981FA812081822F90E041895289D3
:102CA00063897489DC011496AA0FBB1FAA0FBB1F8E
:102CB00035E4329DF001339DF00D1124AE0FBF1F9E
:102CC000AE5EBA4F4D935D936D937C931397A9813C
:102CD000BA8155964D915D916D917C91589706966C
:102CE000880F991F880F991FE80FF91FEE5EFA4FA2
:102CF00040835183628373832F5F2C93223008F4C7
:102D0000A9CDD60114962D913D914D915C911797C7
:102D100018966D917D918D919C911B9772D19F77A3
:102D200020E030E04AE754E4BCD34B015C01F601FB
:102D3000248535854685578560897189828993897F
:102D400060D19B01AC015F77C501B401C3D1A981FA
:102D5000BA811D966D937D938D939C93509794CDDE
:102D600024E030E0E981FA813283218312CECF93CF
:102D7000DF9310926C0410926B0488EE93E0A0E055
:102D8000B0E080936D0490936E04A0936F04B093B1
:102D9000700424E033E030936A042093690425EC46
:102DA00030E0309376042093750424EC30E03093C7
:102DB00078042093770420EC30E030937A04209359
:102DC000790421EC30E030937C0420937B0422ECE6
:102DD00030E030937E0420937D0426EC30E0309385
:102DE000800420937F041092820410928304109236
:102DF000840410928504C6E0D5E010920905109273
:102E0000080580930A0590930B05A0930C05B093D9
:102E10000D0586E193E090930705809306051092D7
:102E2000890A1092880A88E293E09093870A809337
:102E3000860A8FE380938A0A80E180938F0A82E07A
:102E40008093900A1092910A61E08AE20E943F0307
:102E500061E08CE20E943F0361E08EE20E943F034A
:102E600061E080E30E943F038AE290E090937D0A54
:102E700080937C0A8CE290E090937F0A80937E0A94
:102E80008EE290E09093810A8093800A80E390E044
:102E90009093830A8093820A80E48093760AD09389
:102EA000780AC093770A81E48093790AD0937B0AE9
:102EB000C0937A0AE2E1F5E040E050E06AE774E4AA
:102EC0001182108213821282158214821782168256
:102ED0001186108613861286158614861786168626
:102EE000108A118A128A138A148A158A168A178AF6
:102EF000108E118E128E138E148E158E168E178EC6
:102F000010A211A212A213A214A216A215A210A618
:102F100017A211A612A613A614A615A616A617A6E2
:102F200010AA11AA12AA13AA14AA15AA16AA17AAB5
:102F300010AE11AE12AE13AE14AEDF01DD964D939E
:102F40005D936D937C93139714961D921D921D9221
:102F50001C921397EB5BFF4F8AE0E637F80709F006
:102F6000AFCFDF91CF910895052E97FB16F4009413
:102F70000FD057FD05D014D007FC02D046F408C08E
:102F800050954095309521953F4F4F4F5F4F089595
:102F900090958095709561957F4F8F4F9F4F0895C5
:102FA000A1E21A2EAA1BBB1BFD010DC0AA1FBB1F4D
:102FB000EE1FFF1FA217B307E407F50720F0A21BBF
:102FC000B30BE40BF50B661F771F881F991F1A942C
:102FD00069F760957095809590959B01AC01BD0156
:102FE000CF010895A29FB001B39FC001A39F700DB0
:102FF000811D1124911DB29F700D811D1124911D01
:1030000008955058BB27AA270ED0B1C1A2D130F0E5
:10301000A7D120F031F49F3F11F41EF497C10EF4B4
:10302000E095E7FB64C1E92FB3D180F3BA176207DB
:1030300073078407950718F071F49EF5E2C10EF44A
:10304000E0950B2EBA2FA02D0B01B90190010C01B8
:10305000CA01A0011124FF27591B99F0593F50F4D0
:10306000503E68F11A16F040A22F232F342F442728
:10307000585FF3CF469537952795A795F040539520
:10308000C9F77EF41F16BA0B620B730B840BBAF0F0
:103090009150A1F0FF0FBB1F661F771F881FC2F75B
:1030A0000EC0BA0F621F731F841F48F4879577956F
:1030B0006795B795F7959E3F08F0B3CF9395880F26
:1030C00008F09927EE0F979587950895ECD008F4AE
:1030D00081E008950CD04BC143D140F03AD130F09B
:1030E00021F45F3F19F003C151118CC12FC150D1A0
:1030F00098F39923C9F35523B1F3951B550BBB27BF
:10310000AA2762177307840738F09F5F5F4F220F6B
:10311000331F441FAA1FA9F333D00E2E3AF0E0E864
:1031200030D091505040E695001CCAF729D0FE2FB0
:1031300027D0660F771F881FBB1F26173707480742
:10314000AB07B0E809F0BB0B802DBF01FF279358F8
:103150005F4F2AF09E3F510568F0C9C053C15F3FE1
:10316000ECF3983EDCF3869577956795B795F795E0
:103170009F5FC9F7880F911D9695879597F90895D8
:10318000E1E0660F771F881FBB1F62177307840774
:10319000BA0720F0621B730B840BBA0BEE1F88F783
:1031A000E095089504D06894B1112CC10895F8D029
:1031B00088F09F5790F0B92F9927B751A0F0D1F020
:1031C000660F771F881F991F1AF0BA95C9F712C0AA
:1031D000B13081F016D1B1E0089513C1672F782F77
:1031E0008827B85F39F0B93FCCF386957795679516
:1031F000B395D9F73EF490958095709561957F4F82
:103200008F4F9F4F0895E89409C097FB3EF4909527
:103210008095709561957F4F8F4F9F4F9923A9F0AF
:10322000F92F96E9BB279395F6958795779567953E
:10323000B795F111F8CFFAF4BB0F11F460FF1BC082
:103240006F5F7F4F8F4F9F4F16C0882311F096E915
:1032500011C0772321F09EE8872F762F05C06623C3
:1032600071F096E8862F70E060E02AF09A95660F7C
:10327000771F881FDAF7880F9695879597F9089535
:10328000A9D080F09F3740F491110EF0BBC060E0F0
:1032900070E080E89FEB089526F41B16611D711DF8
:1032A000811D2BC045C0990F0008550FAA0BE0E8FF
:1032B000FEEF16161706E807F907C0F012161306F8
:1032C000E407F50798F0621B730B840B950B39F438
:1032D0000A2661F0232B242B252B21F408950A269E
:1032E00009F4A140A6958FEF811D811D089597F9DE
:1032F0009F6780E870E060E00895882371F4772389
:1033000021F09850872B762F07C0662311F4992758
:103310000DC09051862B70E060E02AF09A95660F00
:10332000771F881FDAF7880F9695879597F9089584
:103330009F3F31F0915020F4879577956795B79529
:10334000880F911D9695879597F908959FEF80ECCA
:10335000089500240A9416161706180609060895FB
:1033600000240A9412161306140605060895092E61
:103370000394000C11F4882352F0BB0F40F4BF2BD0
:1033800011F460FF04C06F5F7F4F8F4F9F4F089510
:1033900057FD9058440F551F59F05F3F71F0479506
:1033A000880F97FB991F61F09F3F79F087950895EB
:1033B000121613061406551FF2CF4695F1DF08C00A
:1033C000161617061806991FF1CF86957105610527
:1033D00008940895E5DFA0F0BEE7B91788F4BB278D
:1033E0009F3860F41616B11D672F782F8827985FD5
:1033F000F7CF869577956795B11D93959639C8F364
:103400000895E894BB2766277727CB0197F908959D
:103410004ADF08F48FEF08950EF08ACF97CF6894B3
:1034200066CFBEDFC8F39923D1F3C6F3DF93CF9302
:103430001F930F93FF92C92FDD2788232AF021972E
:10344000660F771F881FDAF720E030E040E85FEB77
:103450009FE3883920F0803E30F021968F77D2DDCF
:10346000E6E2F1E003C0CEDDE3E5F1E081D08B01DF
:10347000BE01EC01FB2E6F5771097595771F880B04
:10348000990BC3DE28E132E741E35FE316D0AF2DAD
:103490009801AE01FF900F911F91CF91DF91C3DD95
:1034A00066CF0BD064CF55DF28F05ADF18F0952394
:1034B00009F01DCF4BCF1124A5CF6ADFA0F3959F54
:1034C000D1F3950F50E0551F629FF001729FBB270B
:1034D000F00DB11D639FAA27F00DB11DAA1F649FB7
:1034E0006627B00DA11D661F829F2227B00DA11D6A
:1034F000621F739FB00DA11D621F839FA00D611DF0
:10350000221F749F3327A00D611D231F849F600D10
:10351000211D822F762F6A2F11249F5750408AF049
:10352000E1F088234AF0EE0FFF1FBB1F661F771FD5
:10353000881F91505040A9F79E3F510570F0D7CE9B
:1035400061CF5F3FECF3983EDCF386957795679506
:10355000B795F795E7959F5FC1F7FE2B880F911DF3
:103560009695879597F908959EDE880B990B089597
:10357000DF93CF931F930F93FF92EF92DF927B0124
:103580008C01689405C0DA2EEF0197DFFE01E89404
:10359000A5912591359145915591AEF3EF0143DD0C
:1035A000FE019701A801DA9479F7DF90EF90FF9080
:1035B0000F911F91CF91DF910895EE0FFF1F881F8C
:1035C0008BBF0790F691E02D19940CDDB7FF08959D
:1035D000821B930B089581E090E0F89400C0F8946A
:0235E000FFCF1B
:1035E20010270000F4010000001608080808060071
:1035F200000E1111110A1B00FFFFFFFF3738393A85
:103602002B002D002F0031002422A33C89A18D3CE8
:10361200739E6E3C60B2153C2DD2D63C912DA63CD9
:10362200B079A83C0745A63CB5A48D3C5B24923CEE
:103632008F91A83C94B77B3CCFD2AA3C344B0B3C35
:103642002A8CE83BFE8E873C7B2E933CD134BF3CD8
:10365200D134BF3C698FD13C0000400014005400BB
:103662000000000000000000010000000000000057
:103672000000010000000000010001000000000045
:103682000000000001000000010000000100000035
:103692000000010001000000010001000100000023
:1036A2000000000000000100010000000000010015
:1036B2000000010000000100010001000000010003
:1036C20000000000010001000100000001000100F3
:1036D20000000100010001000100010001000100E1
:1036E20000000000820B560C470BC90B7601560BEB
:1036F2006A0B000000006D023E029C0212023602BA
:1037020022021302000000000206560C9C029B02D9
:1037120042617474657279205465737465720056DF
:1037220065722032004261747465722000456D70CA
:1037320074792020536C6F74210042617474657235
:103742007920004C4F573A20005600507265446968
:1037520073004261742D006D4168006D004100529A
:10376200654368617267696E67004261747465726D
:10377200696520006E616E00696E66006F76660094
:00000001FF
