:1000000008C1000036C1000034C1000032C1000048
:1000100030C100002EC100002CC100002AC1000028
:1000200028C1000026C1000024C1000022C1000038
:1000300020C100001EC100001CC100001AC1000048
:1000400018C10000D5C7000014C1000012C1000093
:1000500010C100000EC100000CC10000B6C50000B8
:1000600008C10000C3C40000F5C3000002C10000C5
:1000700000C10000FEC00000FCC00000FAC000008B
:10008000F8C00000F6C00000F4C00000F2C000009C
:10009000F0C00000EEC00000ECC0000078C6000018
:1000A000E8C00000E6C00000E4C00000E2C00000BC
:1000B000E0C00000DEC00000DCC00000DAC00000CC
:1000C000D8C00000D6C00000D4C00000D2C00000DC
:1000D000D0C00000CEC00000CCC00000CAC00000EC
:1000E000C8C000005B055E054D0551055505950529
:1000F000620566056C05700574057A057E05820546
:10010000950588058C059005000021002400270036
:100110002A002D0030003300010100000401070116
:100120000A01010210202008081020401020408001
:1001300002010201080402010102040810204080AB
:100140008040201008040201800402018040201039
:100150000804020108040201010204081020408082
:100160000102040810204080050505050705080860
:100170000808020202020A0A080804040404010131
:100180000101010101010303030303030303040746
:1001900007070C0C0C0C0C0C0C0C020202020606DD
:1001A0000606060606060B0B0B0B0B0B0B0B0000D3
:1001B0002200250028002B002E003100340002010F
:1001C0000000050108010B0100000A0B02090C0DDB
:1001D0000E080703040100000000000000000000FA
:1001E000000000000000000000000000000000000F
:1001F00000000000121110000000000000000000CC
:100200000000000000000000000000000000660880
:10021000E50B11241FBECFEFD1E2DEBFCDBF00E062
:100220000CBF13E0A0E0B2E0EAECF0E200E00BBFAC
:1002300002C007900D92A633B107D9F726E0A6E3D6
:10024000B3E001C01D92AB30B207E1F711E0C8E0A6
:10025000D1E000E006C021970109802FFE010E9435
:100260002E0EC730D10780E00807A9F7EAD70C9413
:100270005410C6CEFC01538D448D252F30E0842FC1
:1002800090E0821B930B541710F0CF9608950197BE
:100290000895FC01918D828D981761F0828DDF01A8
:1002A000A80FB11D5D968C91928D9F5F9F73928F69
:1002B00090E008958FEF9FEF0895FC01918D828D5E
:1002C000981731F0828DE80FF11D858D90E008952B
:1002D0008FEF9FEF0895FC01918D228D892F90E083
:1002E000805C9F4F821B91098F7399270895FC01B1
:1002F000848DDF01A80FB11DA35ABF4F2C91848DAF
:1003000090E001968F739927848FA689B7892C93E3
:10031000A089B1898C9180648C93938D848D98137E
:1003200006C00288F389E02D80818F7D8083089547
:10033000EF92FF920F931F93CF93DF93EC0181E035
:10034000888F9B8D8C8D981305C0E889F9898081F1
:1003500085FD23C0F62E0B8D10E00F5F1F4F0F732E
:100360001127E02E8C8DE8120BC00FB607FCFACFD8
:10037000E889F989808185FFF5CFCE01B8DFF2CF1A
:100380008B8DFE01E80FF11DE35AFF4FF0820B8FBA
:10039000EA89FB898081806207C0EE89FF896083DA
:1003A000E889F98980818064808381E090E0DF9131
:1003B000CF911F910F91FF90EF900895CF93DF930E
:1003C000EC01888D8823C1F0EA89FB89808185FD55
:1003D00005C0A889B9898C9186FD0EC00FB607FCAF
:1003E000F5CF808185FFF2CFA889B9898C9185FFEF
:1003F000EDCFCE017CDFE8CFDF91CF91089586E38A
:1004000093E069DF21E0892B09F420E0822F089531
:1004100080E090E0892B19F0F2DF811125C080E0A7
:1004200090E0892B41F080E090E0892B21F00E9440
:10043000000081111CC080E090E0892B41F080E039
:1004400090E0892B21F00E940000811113C080E010
:1004500090E0892BA1F080E090E0892B81F00E9450
:10046000000081110AC008950E940000D8CF0E94A8
:100470000000E1CF0E940000EACF0C940000089534
:10048000CF92DF92EF92FF920F931F93CF93DF9360
:100490006C017A018B01C0E0D0E0CE15DF0589F058
:1004A000D8016D918D01D601ED91FC910190F08103
:1004B000E02DC6011995892B11F47E0102C0219609
:1004C000ECCFC701DF91CF911F910F91FF90EF907B
:1004D000DF90CF900895009761F0FC01019000201B
:1004E000E9F73197AF01481B590BBC0186E393E054
:1004F000C7CF80E090E00895CF93DF93ECDFEC016D
:1005000086E392E0E8DF8C0F9D1FDF91CF91089585
:100510008F929F92AF92BF920F931F93CF93DF93CF
:10052000CDB7DEB7A1970FB6F894DEBF0FBECDBF33
:1005300019A2423008F44AE08E010F5D1F4F842E4D
:10054000912CA12CB12CA50194010E940C0EE62F38
:10055000B901CA0101501109EA3014F4E05D01C08B
:10056000E95CD801EC93232B242B252B61F7C801E0
:10057000B2DFA1960FB6F894DEBF0FBECDBFDF91FC
:10058000CF911F910F91BF90AF909F908F90089542
:100590004F925F926F927F928F929F92AF92BF9293
:1005A000CF92DF92EF92FF926B017C01B42E9B0100
:1005B000AC010E94080E882319F089E392E027C05D
:1005C00026013701E89477F82FEF3FEF4FE75FE719
:1005D000C301B2010E94080E81110DC02FEF3FEF41
:1005E0004FE75FE7C301B2010E94520C18161CF4DA
:1005F0008DE392E00CC02FEF3FEF4FE75FE4C701C0
:10060000B6010E94A10D18167CF481E492E0FF90DF
:10061000EF90DF90CF90BF90AF909F908F907F90A2
:100620006F905F904F9057CF2FEF3FEF4FE75FEC0A
:10063000C701B6010E94520C87FDE7CF20E030E0F1
:10064000A901C701B6010E94520C87FF11C0E091B9
:100650003603F09137030190F081E02D6DE286E3DF
:1006600093E019954C01F7FAF094F7F8F09402C072
:10067000812C912CA12C60E070E080E09FE3AB1412
:1006800041F020E030E040E251E40E94560CA39497
:10069000F6CF9B01AC01C701B6010E94EE0B2B0106
:1006A0003C010E94C30C6B017C010E94EF0C9B017A
:1006B000AC01C301B2010E94ED0B2B013C014AE0E9
:1006C000C701B60125DF7C01E80CF91CBB2069F0ED
:1006D000E0913603F09137030190F081E02D6EE256
:1006E00086E393E01995E80EF91EDB2CDD2019F165
:1006F00020E030E040E251E4C301B2010E94A50DC8
:100700002B013C010E94C30C4B01A12CB12C4AE0EF
:10071000C501B401FDDEE80EF91EC501B4010E9459
:10072000EF0C9B01AC01C301B2010E94ED0B2B0148
:100730003C01DA94DBCFC701FF90EF90DF90CF90C0
:10074000BF90AF909F908F907F906F905F904F90F1
:1007500008954F925F926F927F928F929F92AF9285
:10076000BF92CF92DF92EF92FF926091640570E0AA
:1007700080E090E00E94EF0C20E030E04CE252E498
:100780000E94A50D20E030E042EC52E40E94EE0B06
:100790006B017C018091610590916205BC01990F0C
:1007A000880B990B0E94F10C4B015C018091630551
:1007B000682F70E080E090E00E94EF0C9B01AC019C
:1007C000C501B4010E94A50D2B013C019B01AC01A8
:1007D000C701B6010E94A50D20E034E244E75BE4C6
:1007E0000E94560C4B015C0126E636E646E65FE3C6
:1007F0000E94A10D181604F585E492E06CDE42E03B
:10080000C701B601C5DE8EE592E076DE8BE692E0AA
:1008100062DE42E0C301B201BBDE85E892E06CDE3D
:1008200088E892E058DE42E0C501B401B1DE85EA15
:1008300092E062DE80E001C081E0FF90EF90DF9007
:10084000CF90BF90AF909F908F907F906F905F9070
:100850004F9008951F920F920FB60F9211240BB66E
:100860000F922F933F934F935F936F937F938F9349
:100870009F93AF93BF93EF93FF9386E393E037DDAE
:10088000FF91EF91BF91AF919F918F917F916F9168
:100890005F914F913F912F910F900BBE0F900FBE24
:1008A0000F901F90189585ED8093BC008091BC003F
:1008B00084FDFCCF1092D905089540918E05262F16
:1008C00030E0240F311D21323105DCF42091D905AF
:1008D0002430C9F4FC0180E090E0861758F4309190
:1008E0008E052191DC01A459BA4FA30FB11D2C93A1
:1008F0000196F3CF80918E05680F60938E0580E09E
:10090000089581E0089582E0089508958FEF9FEFA4
:1009100008958FEF9FEF089580916B0590E091957A
:10092000819591090895CF92DF92EF92FF920F93F4
:100930001F93CF93DF937C01262F972F8A018091FD
:10094000DA05882391F0C62FD72F6E01C40ED51E6D
:10095000CC15DD0569F06991D701ED91FC9101900D
:10096000F081E02DC7011995F3CF642F822FA5DF09
:10097000C801DF91CF911F910F91FF90EF90DF9011
:10098000CF900895CF93DF931F92CDB7DEB76983E1
:100990002091DA052223D1F02091FD05203240F08C
:1009A00021E030E0FC013383228380E090E014C03A
:1009B0008091DB05E82FF0E0E452FA4F99819083B3
:1009C0008F5F8093DB058093FD0504C061E0CE015D
:1009D000019673DF81E090E00F90DF91CF91089551
:1009E000089580E090E008950E9447101F920F92B2
:1009F0000FB60F9211240BB60F922F938F939F93E4
:100A0000EF93FF93E0914603F09147038081E091DB
:100A10004C03F0914D0382FD12C0908180914F03F1
:100A20008F5F8F7320915003821751F0E0914F0335
:100A3000F0E0EA5CFC4F958F80934F0301C080810A
:100A4000FF91EF919F918F912F910F900BBE0F907F
:100A50000FBE0F901F901895362F90E0FC01E853C1
:100A6000FE4F4491FC01EE5DFE4F2491FC01E859DC
:100A7000FE4F9491992309F46BC0442309F455C0A7
:100A800050E0FA013197E231F10508F04EC08827B5
:100A9000EE58FF4F8F4F0C942E0E809180008F7771
:100AA00007C0809180008F7D03C080918000877F88
:100AB000809380003AC084B58F7702C084B58F7D63
:100AC00084BD33C08091B0008F7703C08091B000A7
:100AD0008F7D8093B00029C0809190008F7707C0F0
:100AE000809190008F7D03C080919000877F8093DC
:100AF00090001BC08091A0008F7707C08091A0005C
:100B00008F7D03C08091A000877F8093A0000DC0DF
:100B1000809120018F7707C0809120018F7D03C0D5
:100B200080912001877F80932001E92FF0E0EE0F74
:100B3000FF1FE255FE4FA591B4918FB7F894EC9149
:100B4000311103C020952E2301C02E2B2C938FBF73
:100B50000895CF93DF9390E0FC01EE5DFE4F24916A
:100B6000FC01E859FE4F8491882361F190E0880FE1
:100B7000991FFC01E85FFE4FC591D491FC01E2553D
:100B8000FE4FA591B491611109C09FB7F894888177
:100B9000209582238883EC912E230BC0623061F470
:100BA0009FB7F8943881822F809583238883EC91B6
:100BB0002E2B2C939FBF06C08FB7F894E8812E2B65
:100BC00028838FBFDF91CF9108951F920F920FB6A8
:100BD0000F9211242F933F938F939F93AF93BF93C3
:100BE0008091030690910406A0910506B091060637
:100BF0003091020623E0230F2D3720F40196A11D2A
:100C0000B11D05C026E8230F0296A11DB11D20933A
:100C100002068093030690930406A0930506B09302
:100C200006068091FE059091FF05A0910006B09107
:100C300001060196A11DB11D8093FE059093FF054D
:100C4000A0930006B0930106BF91AF919F918F9141
:100C50003F912F910F900FBE0F901F901895CF933B
:100C6000FC01C48121E02093DA05C093FC051092B9
:100C7000DB051092FD058385682B83ED93E082DE12
:100C80008091FD05813208F046C09091D9059111FF
:100C9000FCCF92E09093D90591E09093D8059FEF17
:100CA0009093D7051092D6058093D505ACEDB5E0AD
:100CB00025EB35E0F9019E2F921B981718F49D91B2
:100CC0009193F9CF1092B4058091B405CC0FC82B45
:100CD000C093B4058091B305813061F41092B305DF
:100CE0008091B4058093BB008091BC0083FDF8CF58
:100CF00085EC01C085EE8093BC008091D9058230DF
:100D0000E1F38091D7058F3F31F08091D705803294
:100D100011F08091D7051092DB051092FD0510921D
:100D2000DA05CF9108950F931F93CF938C01C62FAF
:100D3000646095DF6C2F6B7FC80191DF83EC90E0DE
:100D40000197F1F7CF911F910F9108950F931F9382
:100D5000CF93DF938C01C62FD62FD07FD1606D2F1C
:100D60007EDF6D2FC801DFDF80E1C89FB001112455
:100D7000C62FC1606C2FC80172DF6C2FC801D3DF92
:100D800081E090E0DF91CF911F910F9108951F9224
:100D90000F920FB60F9211240BB60F922F933F9321
:100DA0004F935F936F937F938F939F93AF93BF9373
:100DB000EF93FF938091B900887F803609F49CC03F
:100DC00068F5883209F45BC090F4803109F454C0AE
:100DD00038F4882309F4F6C0883009F44DC0F5C012
:100DE000883109F44CC0803209F45DC0EEC0803413
:100DF00009F468C048F4803309F455C0883309F019
:100E0000E4C08093D705D8C0803509F44FC0883539
:100E100009F45DC0883409F0D8C0D6C0883909F417
:100E2000C7C0A8F4883709F467C038F4883609F4D5
:100E300063C0803709F460C0C8C0883809F4B8C0FE
:100E4000803909F45FC0803809F0BFC05BC0803BC7
:100E500009F486C038F4803A09F466C0883A09F487
:100E60007FC0B3C0803C09F4A7C0883C09F4A4C08B
:100E7000883B09F48AC0A9C08091B40510C0909144
:100E8000D6058091D505981770F5E091D60581E0DB
:100E90008E0F8093D605F0E0EB54FA4F808180935B
:100EA000BB0085EC86C08093D7058EC0E091D60547
:100EB00081E08E0F8093D6058091BB00F0E0EB546B
:100EC000FA4F80839091D6058091D5056EC0E09150
:100ED000D60581E08E0F8093D6058091BB00F0E0AF
:100EE000EB54FA4F80838091D80581116DC081E069
:100EF0008093B30584EA61C083E08093D9051092A2
:100F0000B205CFCF8091B205803208F051C0E09198
:100F1000B20581E08E0F8093B2058091BB00F0E0B6
:100F2000EE56FA4F8083BDCF85EC8093BC001092C3
:100F3000D9058091B205803230F4E091B205F0E03D
:100F4000EE56FA4F10826091B20570E0E091900584
:100F5000F091910582E995E019951092B20535C09E
:100F600084E08093D90510928F0510928E05E09150
:100F70008C05F0918D05199580918E05811105C024
:100F800081E080938E0510926C05E0918F0581E0E1
:100F90008E0F80938F05F0E0E459FA4F80818093A3
:100FA000BB0090918F0580918E05981708F479CF3A
:100FB00085E88093BC0009C085EC8093BC0010924A
:100FC000D90503C01092D7056EDCFF91EF91BF9158
:100FD000AF919F918F917F916F915F914F913F91D1
:100FE0002F910F900BBE0F900FBE0F901F90189572
:100FF0001F920F920FB60F9211240BB60F922F93E0
:101000003F938F939F93AF93BF93EF93FF93789406
:10101000E0916705F09168052091650530916605BE
:10102000E20FF31F90910B019F7E90930B01909123
:1010300069051EBC20916405222339F1DF01119757
:101040003C919317879511973C919317879511972A
:101050003C919317879511973C919317879511971A
:101060003C919317879511973C919317879511970A
:101070003C919317879538973081931787950DB4D6
:1010800007FEFDCF8EBD2150D7CF0DB407FEFDCF9B
:1010900080910B01806180930B018091630598170B
:1010A00020F49F5F9093690502C010926905FF913B
:1010B000EF91BF91AF919F918F913F912F910F90A1
:1010C0000BBE0F900FBE0F901F9018951092390312
:1010D0001092380388EE93E0A0E0B0E080933A03EA
:1010E00090933B03A0933C03B0933D032AE032E08E
:1010F000309337032093360325EC30E030934303DD
:101100002093420324EC30E03093450320934403C2
:1011100020EC30E0309347032093460321EC30E08D
:10112000309349032093480322EC30E030934B0383
:1011300020934A0326EC30E030934D0320934C0378
:1011400010924F03109250031092510310925203C9
:101150001092D6031092D5038093D7039093D803AF
:10116000A093D903B093DA038CE192E09093D40377
:101170008093D30381E090E09093600580935F05B6
:101180001092620510926105109263051092640539
:10119000109266051092650510926905109254052B
:1011A000109253058EE292E0909352058093510580
:1011B0008FE38093550580E180935A0582E0809308
:1011C0005B0510925C0561E08AE2C3DC61E08CE2C1
:1011D000C0DC61E08EE2BDDC61E080E3BADC8AE283
:1011E00090E090934805809347058CE290E09093BF
:1011F0004A05809349058EE290E090934C058093D8
:101200004B0580E390E090934E0580934D05EFED04
:10121000F3E01182108212821382148215821682E8
:1012200017821086118612861386148615861686F6
:101230001786108A118A729685E0E734F80749F715
:101240000895789484B5826084BD84B5816084BD3E
:1012500085B5826085BD85B5816085BD80916E0054
:10126000816080936E001092810080918100826085
:1012700080938100809181008160809381008091C2
:1012800080008160809380008091B10084608093B1
:10129000B1008091B00081608093B0008091910096
:1012A0008260809391008091910081608093910091
:1012B000809190008160809390008091A100826075
:1012C0008093A1008091A10081608093A100809112
:1012D000A00081608093A0008091210182608093B2
:1012E0002101809121018160809321018091200161
:1012F00081608093200180917A00846080937A00DD
:1013000080917A00826080937A0080917A00816077
:1013100080937A0080917A00806880937A0010929E
:10132000C100EFEDF3E01182108212821382148269
:1013300015821682178210861186128613861486ED
:10134000158616861786108A118A729685E0E7340C
:10135000F80749F710925C0560E081E595E07FDCD5
:1013600061E08AE2F6DB61E08CE2F3DB61E08EE2D1
:10137000F0DB61E080E3EDDB60E08AE26DDB60E002
:101380008CE26ADB60E08EE267DB60E080E364DBD6
:1013900060E087E3DEDB60E088E3DBDB60E089E3DD
:1013A000D8DB60E08AE3D5DB60E08BE3D2DB60E092
:1013B00086E3CFDB61E08DE2CCDB8CB580628CBD57
:1013C0008CB58C7F8CBD8DB581608DBDCFB7F89409
:1013D00080916A05811123C0EDE9F1E08491E7E590
:1013E000F1E09491E82FF0E0EE0FFF1FE85FFE4F71
:1013F000A591B491EC91E92319F461E085E32CDB2C
:1014000061E085E3A6DB8CB580618CBD8CB5806422
:101410008CBD61E084E39DDB61E083E39ADB809136
:101420006A058F5F80936A05CFBFF89410916405B9
:1014300083E08093640588E190E090936605809353
:10144000650587D9C12FD0E08823C1F068E170E03D
:10145000809167059091680536D5909368058093D3
:101460006705CE0188319105C4F4E0916705F091DC
:101470006805E80FF91F10820196F4CF10936405F8
:10148000CE0123E0880F991F2A95E1F79093660516
:10149000809365058BEB92E02FD8789488EC90E0F0
:1014A000909362058093610584E68093630551D92A
:1014B000882309F471C180915F05909160058130A6
:1014C000910509F06AC02091810028602093810075
:1014D000209181002F7E20938100209180002D7F1C
:1014E00020938000209180002E7F20938000209107
:1014F0008100216020938100209181002D7F209325
:101500008100209181002B7F2093810090935E05C4
:1015100080935D056091610570916205072E000C56
:10152000880B990B5ED26B017C0180916305682F5B
:1015300070E080E090E053D220E030E040E85FE3EC
:101540004DD19B01AC01C701B601FFD29B01AC019B
:1015500060E074E284E79BE4A9D16B017C0120E0A8
:1015600030E0A901EED220E030E040E05FE387FD0B
:1015700004C0C701B60132D103C0C701B6012DD1E5
:10158000FDD161507109709389006093880080914A
:101590006F00826080936F00FCC0029709F0F9C071
:1015A0008091B100877F8093B1008091B00082600C
:1015B0008093B0008091B0008E7F8093B000C09186
:1015C0006105D0916205BE010D2E000C880B990BB0
:1015D00008D26B017C0110916305612F70E080E0FF
:1015E00090E0FDD120E030E040E85FE3F7D09B01E0
:1015F000AC01C701B601A9D29B01AC0160E074E265
:1016000084E79BE453D120E030E040E85FE3E5D09D
:101610006B017C0120E030E0A90193D220E030E0B2
:1016200040E05FE387FD04C0C701B601D7D003C027
:10163000C701B601D2D0A2D16F3F710509F054F4B1
:1016400081E090E090935E0580935D058091B1000C
:101650008B7F32C0611588E078077CF488E090E0E9
:1016600090935E0580935D058091B1008B7F8093A0
:10167000B1008091B100826024C0611580E27807DA
:101680007CF480E290E090935E0580935D0580910C
:10169000B1008B7F8093B1008091B100826025C042
:1016A00061157044A4F480E490E090935E0580930B
:1016B0005D058091B10084608093B1008091B1009C
:1016C0008D7F8093B1008091B1008E7F13C080E840
:1016D00090E090935E0580935D058091B1008460F9
:1016E0008093B1008091B1008D7F8093B100809193
:1016F000B10081608093B10060915D0570915E05DD
:10170000072E000C880B990B6CD19B01AC0160E09B
:1017100074E284E79BE4CAD06B017C01BE01DD0F5B
:10172000880B990B5ED14B015C01612F70E080E06A
:1017300090E055D120E030E040E85FE34FD09B01DE
:10174000AC01C501B40101D29B01AC01C701B601D6
:10175000ADD020E030E040E85FE33FD06B017C019A
:1017600020E030E0A901EDD120E030E040E05FE38F
:1017700087FD04C0C701B60131D003C0C701B6015F
:101780002CD0FCD06093B300809170008260809375
:10179000700080E090E006C084E093E00E947C024C
:1017A000F894F7CF2091650530916605821793076D
:1017B0004CF4E0916705F0916805E80FF91F10827D
:1017C0000196F0CF0E940802FDCF809167059091AD
:1017D0006805009709F0DFC208955058BB27AA2773
:1017E0000ED075C166D130F06BD120F031F49F3F3F
:1017F00011F41EF45BC10EF4E095E7FB51C1E92F33
:1018000077D180F3BA17620773078407950718F03A
:1018100071F49EF58FC10EF4E0950B2EBA2FA02D1A
:101820000B01B90190010C01CA01A0011124FF278D
:10183000591B99F0593F50F4503E68F11A16F04088
:10184000A22F232F342F4427585FF3CF4695379587
:101850002795A795F0405395C9F77EF41F16BA0B4C
:10186000620B730B840BBAF09150A1F0FF0FBB1FFA
:10187000661F771F881FC2F70EC0BA0F621F731F43
:10188000841F48F4879577956795B795F7959E3FA0
:1018900008F0B3CF9395880F08F09927EE0F97952E
:1018A00087950895D9D008F481E008950CD00FC130
:1018B00007D140F0FED030F021F45F3F19F0F0C0C6
:1018C000511139C1F3C014D198F39923C9F35523A9
:1018D000B1F3951B550BBB27AA2762177307840723
:1018E00038F09F5F5F4F220F331F441FAA1FA9F3D9
:1018F00033D00E2E3AF0E0E830D091505040E695CB
:10190000001CCAF729D0FE2F27D0660F771F881F2B
:10191000BB1F261737074807AB07B0E809F0BB0B1A
:10192000802DBF01FF2793585F4F2AF09E3F51053E
:1019300068F0B6C000C15F3FECF3983EDCF38695DB
:1019400077956795B795F7959F5FC9F7880F911DB4
:101950009695879597F90895E1E0660F771F881FA0
:10196000BB1F621773078407BA0720F0621B730B53
:10197000840BBA0BEE1F88F7E095089504D06894A5
:10198000B111D9C00895BCD088F09F5790F0B92FFD
:101990009927B751A0F0D1F0660F771F881F991FC4
:1019A0001AF0BA95C9F712C0B13081F0C3D0B1E0D6
:1019B0000895C0C0672F782F8827B85F39F0B93FE6
:1019C000CCF3869577956795B395D9F73EF49095C6
:1019D0008095709561957F4F8F4F9F4F0895E89444
:1019E00009C097FB3EF490958095709561957F4F67
:1019F0008F4F9F4F9923A9F0F92F96E9BB27939515
:101A0000F695879577956795B795F111F8CFFAF424
:101A1000BB0F11F460FF1BC06F5F7F4F8F4F9F4F55
:101A200016C0882311F096E911C0772321F09EE8B3
:101A3000872F762F05C0662371F096E8862F70E019
:101A400060E02AF09A95660F771F881FDAF7880FF3
:101A50009695879597F90895990F0008550FAA0B49
:101A6000E0E8FEEF16161706E807F907C0F01216B1
:101A70001306E407F50798F0621B730B840B950BB4
:101A800039F40A2661F0232B242B252B21F4089509
:101A90000A2609F4A140A6958FEF811D811D0895A6
:101AA00097F99F6780E870E060E008959FEF80EC11
:101AB000089500240A9416161706180609060895B4
:101AC00000240A9412161306140605060895092E1A
:101AD0000394000C11F4882352F0BB0F40F4BF2B89
:101AE00011F460FF04C06F5F7F4F8F4F9F4F0895C9
:101AF00057FD9058440F551F59F05F3F71F04795BF
:101B0000880F97FB991F61F09F3F79F087950895A3
:101B1000121613061406551FF2CF4695F1DF08C0C2
:101B2000161617061806991FF1CF869571056105DF
:101B300008940895E894BB2766277727CB0197F987
:101B400008958ADF08F48FEF08950BD0C0CFB1DF7E
:101B500028F0B6DF18F0952309F0A2CFA7CF112403
:101B6000EACFC6DFA0F3959FD1F3950F50E0551F44
:101B7000629FF001729FBB27F00DB11D639FAA27E2
:101B8000F00DB11DAA1F649F6627B00DA11D661F31
:101B9000829F2227B00DA11D621F739FB00DA11D52
:101BA000621F839FA00D611D221F749F3327A00D0C
:101BB000611D231F849F600D211D822F762F6A2FA8
:101BC00011249F5750408AF0E1F088234AF0EE0F2D
:101BD000FF1FBB1F661F771F881F91505040A9F73A
:101BE0009E3F510570F05CCFA6CF5F3FECF3983E6F
:101BF000DCF3869577956795B795F795E7959F5FA1
:101C0000C1F7FE2B880F911D9695879597F908953A
:101C100023DF880B990B0895A1E21A2EAA1BBB1B88
:101C2000FD010DC0AA1FBB1FEE1FFF1FA217B307A8
:101C3000E407F50720F0A21BB30BE40BF50B661FBE
:101C4000771F881F991F1A9469F760957095809582
:101C500090959B01AC01BD01CF010895EE0FFF1FD0
:101C6000881F8BBF0790F691E02D1994CF93DF93D7
:101C70008230910510F482E090E0E0910906F09145
:101C80000A0620E030E0C0E0D0E0309711F140815A
:101C9000518148175907C0F04817590761F48281EC
:101CA0009381209719F09B838A832BC090930A0617
:101CB0008093090626C02115310519F042175307F4
:101CC00018F49A01BE01DF01EF010280F381E02DDB
:101CD000DCCF2115310509F1281B390B24303105E2
:101CE00090F412968D919C9113976115710521F0D6
:101CF000FB019383828304C090930A0680930906B4
:101D0000FD01329644C0FD01E20FF31F81939193D0
:101D1000225031092D933C933AC02091070630910F
:101D20000806232B41F420910202309103023093E4
:101D30000806209307062091000230910102211528
:101D4000310541F42DB73EB7409104025091050290
:101D5000241B350BE0910706F0910806E217F30704
:101D6000A0F42E1B3F0B2817390778F0AC014E5F0B
:101D70005F4F2417350748F04E0F5F1F509308063A
:101D8000409307068193919302C0E0E0F0E0CF0119
:101D9000DF91CF9108950F931F93CF93DF93009717
:101DA00009F48CC0FC01329713821282009109065B
:101DB00010910A060115110581F420813181820FED
:101DC000931F20910706309108062817390779F5E7
:101DD000F0930806E093070671C0D80140E050E098
:101DE000AE17BF0750F412962D913C911397AD0199
:101DF0002115310509F1D901F3CF9D01DA013383B2
:101E0000228360817181860F971F8217930769F47F
:101E1000EC0128813981260F371F2E5F3F4F318318
:101E200020838A819B8193838283452B29F4F093BD
:101E30000A06E093090642C01396FC93EE931297AC
:101E4000ED01499159919E01240F351FE217F307C7
:101E500071F480819181840F951F029611969C9355
:101E60008E938281938113969C938E931297E0E0D8
:101E7000F0E0D80112968D919C911397009719F07C
:101E8000F8018C01F6CF8D919C9198012E5F3F4F08
:101E9000820F931F209107063091080628173907F3
:101EA00069F4309729F410920A061092090602C0CC
:101EB000138212821093080600930706DF91CF91D8
:101EC0001F910F9108956F927F928F929F92AF9280
:101ED000BF92CF92DF92EF92FF920F931F93CF9317
:101EE000DF93EC01009781F4CB01DF91CF911F913B
:101EF0000F91FF90EF90DF90CF90BF90AF909F90A9
:101F00008F907F906F90B2CEFC01E60FF71F9C017F
:101F100022503109E217F30708F4A8C0D9010D9146
:101F20001C91119706171707A8F00530110508F442
:101F30009BC0C80104978617970708F495C0025004
:101F40001109061B170B019311936D937C93CF011D
:101F500022DF8AC05B01A01AB10A4C01800E911EDB
:101F6000A0910906B0910A0640E050E0E12CF12C66
:101F7000109709F44AC0A815B905D1F56D907C9069
:101F80001197630182E0C80ED11CCA14DB0480F1F2
:101F9000A3014A195B096A0182E0C80ED11C12969E
:101FA000BC9012971396AC91B5E0CB16D10440F0DB
:101FB000B282A38351834083D9016D937C930AC07D
:101FC0000E5F1F4FC301800F911FF9019183808322
:101FD000EB2DFA2FE114F10431F0D7011396FC93A5
:101FE000EE93129741C0F0930A06E09309063CC0B5
:101FF0008D919C9111974817590708F4AC017D0108
:1020000012960D90BC91A02DB3CF809107069091B0
:10201000080688159905E1F446175707C8F480911A
:10202000000290910102009741F48DB79EB7409154
:10203000040250910502841B950BE817F907B0F4D0
:10204000F0930806E0930706F901718360830CC0E2
:10205000CB010CDE7C01009749F0A801BE011BD02A
:10206000CE0199DEC70104C0CE0102C080E090E03D
:10207000DF91CF911F910F91FF90EF90DF90CF9064
:10208000BF90AF909F908F907F906F90089581E068
:1020900090E0F89409C0FB01DC0102C001900D92B0
:1020A00041505040D8F7089511E0C8E0D1E000E079
:1020B00005C0802FFE01D2DD2196011DC930D10758
:0A20C00080E00807B1F7F894FFCFA5
:1020CA0000000B06800000000000980140023A015F
:1020DA00DE016B0149015D0100000000C2049304A6
:1020EA00F10485048C048904860400000000A60615
:1020FA004002F104F0040D0A006E616E00696E661A
:10210A00006F7666004E657720696E746572727527
:10211A007074206475726174696F6E203D00636C1F
:10212A006F636B206379636C6573004E6577206912
:10213A006E74657272757074206672657175656EFB
:10214A006379203D00487A004E657720696E746590
:10215A007272757074206C6F616420776F756C642D
:10216A002062652000202C207768696368206973E3
:10217A0020746F6F20686967682E00416D6F756EF5
:10218A0074206F662072656769737465727320695B
:10219A0073206E6F7420696E637265617365642C57
:1021AA002062656361757365206C6F616420776F67
:1021BA00756C64206265636F6D6520746F6F20684B
:1021CA0069676800496E746572727570747320610C
:1021DA0072652064697361626C656420626563611B
:1021EA00757365206C6F616420697320746F6F204A
:0621FA00686967682E0011
:00000001FF
