:100000000EC100003DC100003BC1000039C100002D
:1000100037C1000035C1000033C1000031C100000C
:100020002FC100002DC100002BC1000029C100001C
:1000300027C1000025C1000023C1000021C100002C
:100040001FC100001DC100001BC1000019C100003C
:1000500017C1000015C1000013C100005AC4000000
:100060000FC1000023C30000F8C2000009C1000056
:1000700007C1000005C1000003C1000001C100006C
:10008000FFC00000FDC00000FBC00000F9C0000080
:10009000F7C00000F5C00000F3C000008BC40000F2
:1000A000EFC00000EDC00000EBC00000E9C00000A0
:1000B000E7C00000E5C00000E3C00000E1C00000B0
:1000C000DFC00000DDC00000DBC00000D9C00000C0
:1000D000D7C00000D5C00000D3C00000D1C00000D0
:1000E000CFC00000BB03BE03AD03B103B503F503EE
:1000F000C203C603CC03D003D403DA03DE03E20356
:10010000F503E803EC03F0037A0EB40EC90EDE0E1D
:100110002410CE11E21100002100240027002A0043
:100120002D003000330001010000040107010A0125
:1001300000002200250028002B002E003100340092
:1001400002010000050108010B0105050505070571
:1001500008080808020202020A0A08080404040443
:10016000010101010101010103030303030303036F
:10017000040707070C0C0C0C0C0C0C0C02020202FE
:1001800006060606060606060B0B0B0B0B0B0B0BE7
:100190000102102020080810204010204080020199
:1001A000020108040201010204081020408080407E
:1001B000201008040201800402018040201008047D
:1001C000020108040201010204081020408001021B
:1001D00004081020408000000A0B02090C0D0E08D4
:1001E0000703040100000000000000000000000000
:1001F00000000000000000000000000000000000FF
:1002000000001211100000000000000000000000BB
:10021000000000000000000000000000F6131124A0
:100220001FBECFEFD1E2DEBFCDBF00E00CBF14E0B8
:10023000A0E0B2E0E6E9FFE200E00BBF02C00790F9
:100240000D92AC36B107D9F72AE0ACE6B4E001C0B4
:100250001D92A43BB207E1F711E0CFE0D1E000E04E
:1002600006C021970109802FFE010E94B717CE30EA
:10027000D10780E00807A9F70E94CB0A0C94C917A0
:10028000BFCEFC01538D448D252F30E0842F90E0AC
:10029000821B930B541710F0CF9608950197089581
:1002A000FC01918D828D981761F0828DDF01A80F7E
:1002B000B11D5D968C91928D9F5F9F73928F90E0A0
:1002C00008958FEF9FEF0895FC01918D828D98170F
:1002D00031F0828DE80FF11D858D90E008958FEF4C
:1002E0009FEF0895FC01918D228D892F90E0805C15
:1002F0009F4F821B91098F73992708958BE295E098
:10030000F1DF21E0892B09F420E0822F0895FC0120
:10031000848DDF01A80FB11DA35ABF4F2C91848D8E
:1003200090E001968F739927848FA689B7892C93C3
:10033000A089B1898C9180648C93938D848D98135E
:1003400006C00288F389E02D80818F7D8083089527
:10035000EF92FF920F931F93CF93DF93EC0181E015
:10036000888F9B8D8C8D981305C0E889F9898081D1
:1003700085FD23C0F62E0B8D10E00F5F1F4F0F730E
:100380001127E02E8C8DE8120BC00FB607FCFACFB8
:10039000E889F989808185FFF5CFCE01B8DFF2CFFA
:1003A0008B8DFE01E80FF11DE35AFF4FF0820B8F9A
:1003B000EA89FB898081806207C0EE89FF896083BA
:1003C000E889F98980818064808381E090E0DF9111
:1003D000CF911F910F91FF90EF900895CF93DF93EE
:1003E000EC01888D8823C1F0EA89FB89808185FD35
:1003F00005C0A889B9898C9186FD0EC00FB607FC8F
:10040000F5CF808185FFF2CFA889B9898C9185FFCE
:10041000EDCFCE017CDFE8CFDF91CF91089580E072
:1004200090E0892B19F06ADF811125C080E090E00F
:10043000892B41F080E090E0892B21F00E940000A0
:1004400081111CC080E090E0892B41F080E090E0B9
:10045000892B21F00E940000811113C080E090E000
:10046000892BA1F080E090E0892B81F00E940000B0
:1004700081110AC008950E940000D8CF0E94000098
:10048000E1CF0E940000EACF0C94000008953FB72E
:10049000F8948091210590912205A0912305B091B7
:1004A000240526B5A89B05C02F3F19F00196A11D74
:1004B000B11D3FBFBA2FA92F982F8827820F911DFA
:1004C000A11DB11DBC01CD0142E0660F771F881F41
:1004D000991F4A95D1F7089585ED8093BC008091CE
:1004E000BC0084FDFCCF1092FB0408954091B00441
:1004F000262F30E0240F311D21323105DCF420910C
:10050000FB042430C9F4FC0180E090E0861758F425
:100510003091B0042191DC01A257BB4FA30FB11D54
:100520002C930196F3CF8091B004680F6093B004D0
:1005300080E0089581E0089582E008950895E091B3
:10054000260580912505E81730F4F0E0E450FB4FD4
:10055000808190E008958FEF9FEF08959091260598
:1005600080912505981750F4E92FF0E0E450FB4FF7
:10057000208130E09F5F9093260502C02FEF3FEF70
:10058000C90108958091250590E020912605821BE0
:1005900091090895CF92DF92EF92FF920F931F93EC
:1005A000CF93DF937C01262F972F8A0180912A0514
:1005B000882391F0C62FD72F6E01C40ED51ECC15FF
:1005C000DD0569F06991D701ED91FC910190F08111
:1005D000E02DC7011995F3CF642F822F87DFC80163
:1005E000DF91CF911F910F91FF90EF90DF90CF900F
:1005F0000895CF93DF931F92CDB7DEB76983209123
:100600002A052223D1F020912705203240F021E055
:1006100030E0FC013383228380E090E014C08091BD
:100620002805E82FF0E0E259FB4F998190838F5F16
:10063000809328058093270504C061E0CE010196D0
:1006400055DF81E090E00F90DF91CF9108950895FC
:1006500080E090E008950E94C5171F920F920FB698
:100660000F9211240BB60F922F933F934F935F93EA
:100670006F937F938F939F93AF93BF93EF93FF936A
:100680008BE295E044DEFF91EF91BF91AF919F9196
:100690008F917F916F915F914F913F912F910F902B
:1006A0000BBE0F900FBE0F901F9018951F920F92C8
:1006B0000FB60F9211240BB60F922F938F939F9327
:1006C000EF93FF93E0913B05F0913C058081E09131
:1006D0004105F091420582FD12C090818091440550
:1006E0008F5F8F7320914505821751F0E09144058B
:1006F000F0E0E55DFA4F958F8093440501C080815D
:10070000FF91EF919F918F912F910F900BBE0F90C2
:100710000FBE0F901F901895362F90E0FC01EA5203
:10072000FE4F4491FC01E057FE4F2491FC01E65B33
:10073000FE4F9491992309F46BC0442309F455C0EA
:1007400050E0FA013197E231F10508F04EC08827F8
:10075000EE58FF4F8F4F0C94B717809180008F7722
:1007600007C0809180008F7D03C080918000877FCB
:10077000809380003AC084B58F7702C084B58F7DA6
:1007800084BD33C08091B0008F7703C08091B000EA
:100790008F7D8093B00029C0809190008F7707C033
:1007A000809190008F7D03C080919000877F80931F
:1007B00090001BC08091A0008F7707C08091A0009F
:1007C0008F7D03C08091A000877F8093A0000DC023
:1007D000809120018F7707C0809120018F7D03C019
:1007E00080912001877F80932001E92FF0E0EE0FB8
:1007F000FF1FE05DFE4FA591B4918FB7F894EC9187
:10080000311103C020952E2301C02E2B2C938FBFB6
:100810000895CF93DF9390E0FC01E057FE4F2491C1
:10082000FC01E65BFE4F8491882361F190E0880F24
:10083000991FFC01EA5EFE4FC591D491FC01E05D79
:10084000FE4FA591B491611109C09FB7F8948881BA
:10085000209582238883EC912E230BC0623061F4B3
:100860009FB7F8943881822F809583238883EC91F9
:100870002E2B2C939FBF06C08FB7F894E8812E2BA8
:1008800028838FBFDF91CF9108958F929F92AF926F
:10089000BF92CF92DF92EF92FF926B017C01F7DD66
:1008A0004B015C01C114D104E104F104E9F0EFDD76
:1008B000DC01CB0188199909AA09BB09883E93403C
:1008C000A105B10578F321E0C21AD108E108F108C9
:1008D00088EE880E83E0981EA11CB11CC114D104BF
:1008E000E104F10421F7DECFFF90EF90DF90CF908D
:1008F000BF90AF909F908F9008952FB7F89460911C
:100900001D0570911E0580911F05909120052FBF38
:1009100008951F920F920FB60F9211242F933F93B9
:100920008F939F93AF93BF9380911D0590911E0568
:10093000A0911F05B091200530911C0523E0230FE5
:100940002D3720F40196A11DB11D05C026E8230F07
:100950000296A11DB11D20931C0580931D05909347
:100960001E05A0931F05B09320058091210590914D
:100970002205A0912305B09124050196A11DB11D6A
:100980008093210590932205A0932305B09324051D
:10099000BF91AF919F918F913F912F910F900FBE7B
:1009A0000F901F901895DC01ED91FC910190F08162
:1009B000E02D19941F920F920FB60F9211240BB6CF
:1009C0000F922F933F934F935F936F937F938F93E8
:1009D0009F93AF93BF93EF93FF938091B900887F6C
:1009E000803609F49CC068F5883209F45BC090F445
:1009F000803109F454C038F4882309F4F6C08830F3
:100A000009F44DC0F5C0883109F44CC0803209F4B6
:100A10005DC0EEC0803409F468C048F4803309F446
:100A200055C0883309F0E4C08093F904D8C08035FC
:100A300009F44FC0883509F45DC0883409F0D8C086
:100A4000D6C0883909F4C7C0A8F4883709F467C04C
:100A500038F4883609F463C0803709F460C0C8C030
:100A6000883809F4B8C0803909F45FC0803809F0CB
:100A7000BFC05BC0803B09F486C038F4803A09F4FB
:100A800066C0883A09F47FC0B3C0803C09F4A7C0AF
:100A9000883C09F4A4C0883B09F48AC0A9C08091AD
:100AA000F60410C09091F8048091F704981770F53F
:100AB000E091F80481E08E0F8093F804F0E0EB52AF
:100AC000FB4F80818093BB0085EC86C08093F90446
:100AD0008EC0E091F80481E08E0F8093F80480913D
:100AE000BB00F0E0EB52FB4F80839091F8048091C3
:100AF000F7046EC0E091F80481E08E0F8093F80453
:100B00008091BB00F0E0EB52FB4F80838091FA04B0
:100B100081116DC081E08093F50484EA61C083E0B7
:100B20008093FB041092D404CFCF8091D404803200
:100B300008F051C0E091D40481E08E0F8093D4047A
:100B40008091BB00F0E0EC54FB4F8083BDCF85EC7F
:100B50008093BC001092FB048091D404803230F466
:100B6000E091D404F0E0EC54FB4F10826091D40487
:100B700070E0E091B204F091B30484EB94E0199535
:100B80001092D40435C084E08093FB041092B10429
:100B90001092B004E091AE04F091AF0419958091E9
:100BA000B004811105C081E08093B00410928E04DE
:100BB000E091B10481E08E0F8093B104F0E0E25740
:100BC000FB4F80818093BB009091B1048091B00471
:100BD000981708F479CF85E88093BC0009C085ECAC
:100BE0008093BC001092FB0403C01092F90474DCE3
:100BF000FF91EF91BF91AF919F918F917F916F91F5
:100C00005F914F913F912F910F900BBE0F900FBEB0
:100C10000F901F9018951092FB0481E08093FA04C6
:100C20001092F50461E084E177DD61E085E174DD37
:100C3000E9EBF0E080818E7F808380818D7F8083EF
:100C400088E48093B80085E48093BC0008952091E7
:100C5000270590912905213208F04AC08091FB04B4
:100C60008111FCCF32E03093FB0431E03093FA0481
:100C70003FEF3093F9041092F8042093F704AEE6A6
:100C8000B4E045ED54E0FA013E2F341B321718F45E
:100C90003D913193F9CF1092F6042091F604990F0B
:100CA000922B9093F6049091F504913061F4109298
:100CB000F5049091F6049093BB009091BC0093FDD5
:100CC000F8CF95EC01C095EE9093BC009091FB0499
:100CD0009230E1F39091F9049F3F79F08091F9040B
:100CE000803241F08091F904803331F084E005C016
:100CF00081E003C082E001C083E0109228051092D9
:100D0000270510922A050895FC01248131E03093D3
:100D10002A0520932905109228051092270583851E
:100D2000682B88EC95E065DC88EC95E090CF0F931C
:100D30001F93CF938C01C62FE7DF6C2F6460C8012F
:100D4000E3DF6C2F6B7FC801DFDF83EC90E001975E
:100D5000F1F7CF911F910F9108950F931F93CF93A8
:100D60008C01C62F607F6160E2DF80E1C89FB00127
:100D700011246160C801DBDF81E090E0CF911F9119
:100D80000F9108950F931F93CF93DF931F92CDB7C9
:100D9000DEB78C01DC018C9191E090932A05809361
:100DA0002905109228051092270511968D919C9186
:100DB0001297DC01ED91FC910190F081E02D4983C7
:100DC0001995F80181819281DC01ED91FC910190EE
:100DD000F081E02D4981642F1995F801818192817C
:100DE0000F90DF91CF911F910F9131CF0F931F93F0
:100DF000CF93DF93EC01CB01BA0126E636E646E657
:100E00005FE30E9450179B01AC0160E27CEB8EEB2C
:100E100095E40E94AE1520E030E040E85FE30E94D8
:100E2000451520E030E040E05FE30E9446150E9457
:100E300084160E941B16062F888191E090932A0544
:100E400080932905109228051092270589819A819F
:100E5000DC01ED91FC910190F081E02D60E01995AD
:100E600089819A81F4DE88819091FB049111FCCFF5
:100E700091E09093FB049093FA042FEF2093F904F0
:100E80001092F8041092F7049093F6049091F604EF
:100E9000880F892B8093F6048091F504813061F4EA
:100EA0001092F5048091F6048093BB008091BC0001
:100EB00083FDF8CF85EC01C085EE8093BC00809166
:100EC000FB048130E1F38091F804811103C080912B
:100ED000F80401C081E0A5EDB4E02CEF34E0F901A5
:100EE0009E2F921B981718F49D919193F9CF109211
:100EF00026058093250589819A81DC01ED91FC917D
:100F00000284F385E02D1995182F8F76482F4061C4
:100F100060E0CE0137DF402F6EEFCE0133DF412F8F
:100F200060E0CE012FDF65E070E080E090E0ADDCB6
:100F3000412F406A60E0CE01DF91CF911F910F9168
:100F400021CF1092B30A60E088EA9AE0DDDED5DCBA
:100F5000DC01CB01885A944EAF4FBF4F8093000203
:100F600090930102A0930202B093030208958EE5CC
:100F700080937C0080917B00877F80937B008091B1
:100F80007A00806880937A0062E070E080E090E010
:100F90007CDC80917A00806480937A0080917A0072
:100FA00086FDFCCF209178008091790030E0382BCD
:100FB000032E000C440B550B64EB7BE281E190E0C7
:100FC0000E94F814CA01B90108958F929F92AF92BE
:100FD000BF92CF92DF92EF92FF920F931F93CF9326
:100FE000DF938C016A017B0180916C0490916D0408
:100FF000D80112962D913C91139782179307D9F03F
:10100000880F991FFC01EE56FD4F61E0808184DB63
:10101000D8011296ED91FC911397EE0FFF1FEE563B
:10102000FD4F60E0808178DBF801828193819093AD
:101030006D0480936C04D801CD91DC9183E0CC0FDA
:10104000DD1F8A95E1F7C25FDD4F688180919E0ABE
:1010500063DB6A818091A00A5FDB6C818091A20AC8
:101060005BDB6E818091A40A57DB61E070E080E079
:1010700090E00BDCCAE0812C912C5401D80112962F
:10108000ED91FC911397E257FD4F9081963308F054
:10109000965380917B00292F2870877F822B809325
:1010A0007B009770906490937C0080917A008064BC
:1010B00080937A0080917A0086FDFCCF6091780061
:1010C0008091790070E0782B072E000C880B990B2B
:1010D0000E9449169B01AC01C501B4010E9446154E
:1010E0004B015C01C15051F620E030E040E251E498
:1010F0000E94AE15A70196010E9450176B017C015A
:1011000036DF0E9449162FE632E143E85AE30E9497
:10111000501720E030E040E85AE30E9450179B014E
:10112000AC01C701B6010E945017DF91CF911F910A
:101130000F91FF90EF90DF90CF90BF90AF909F9076
:101140008F900895DC01ED91FC910190F081E02DEC
:101150001994CF92DF92EF92FF920F931F93CF9348
:10116000DF936C017A018B01C0E0D0E0CE15DF0582
:1011700089F0D8016D918D01D601ED91FC9101901E
:10118000F081E02DC6011995892B11F47E0102C072
:101190002196ECCFC701DF91CF911F910F91FF9066
:1011A000EF90DF90CF9008956115710579F0FB0104
:1011B00001900020E9F73197AF01461B570BDC0186
:1011C000ED91FC910280F381E02D199480E090E094
:1011D00008954F925F926F927F92EF92FF920F93DA
:1011E0001F93CF93DF93CDB7DEB7A1970FB6F894D7
:1011F000DEBF0FBECDBF7C01FA01CB0119A22230A8
:1012000008F42AE08E010F5D1F4F422E512C612CF5
:10121000712CBF01A30192010E941415F901CA01AA
:10122000015011096A3014F4605D01C0695CD80195
:101230006C93232B242B252B61F7B801C701B4DF56
:10124000A1960FB6F894DEBF0FBECDBFDF91CF9150
:101250001F910F91FF90EF907F906F905F904F9054
:101260000895EF92FF921F93CF93DF931F92CDB714
:10127000DEB77C01152FDC018C9191E090932A055B
:1012800080932905109228051092270511968D91BB
:101290009C911297DC01ED91FC91B4E06B9F900161
:1012A0001124B9016A5F7F4F0190F081E02D4983DD
:1012B000199560E070E0F7018181928174DB60E054
:1012C00070E0D70111968D919C9112976CDB49814A
:1012D000642F712FF7018181928165DB612F70E0AE
:1012E000D70111968D919C9112975DDBF701818159
:1012F00092810F90DF91CF911F91FF90EF90A7CC3B
:101300006CE574E08BE295E04FCFAC0160E070E0FB
:101310002AE08BE295E05DCF8F929F92AF92BF92D1
:10132000CF92DF92EF92FF920F931F93CF93DF93B1
:10133000EC016A017B019A01AB01C701B6010E9471
:10134000B317882319F06FE574E027C046015701F1
:10135000E894B7F82FEF3FEF4FE75FE7C501B4011F
:101360000E94B31781110DC02FEF3FEF4FE75FE7EA
:10137000C501B4010E94AA1518161CF463E674E0B6
:101380000CC02FEF3FEF4FE75FE4C701B6010E94AB
:101390004C17181684F467E674E0CE01DF91CF9104
:1013A0001F910F91FF90EF90DF90CF90BF90AF9083
:1013B0009F908F90F9CE2FEF3FEF4FE75FECC70183
:1013C000B6010E94AA1587FDE6CF20E030E0A90112
:1013D000C701B6010E94AA1587FF09C06DE2CE01C0
:1013E000B1DE8C01F7FAF094F7F8F09402C000E057
:1013F00010E02AE037ED43EA5BE3C701B6010E9443
:1014000046156B017C010E941B164B015C010E947A
:1014100047169B01AC01C701B6010E9445156B013F
:101420007C012AE0B501A401CE01D3DE080F191F0B
:101430006EE2CE0187DE080F191F20E030E040E2A7
:1014400051E4C701B6010E9450174B015C010E9494
:101450001B166B01E12CF12C2AE0B701A601CE018D
:10146000B8DE080F191FC701B6010E9447169B017D
:10147000AC01C501B4010E94451520E030E040E216
:1014800051E40E9450170E941B16AB0160E070E00F
:101490002AE0CE019EDE800F911FDF91CF911F9138
:1014A0000F91FF90EF90DF90CF90BF90AF909F9003
:1014B0008F900895CF93C82F682F607F88EA9AE0B5
:1014C00036DC80E1C89FB001112488EA9AE0CF9110
:1014D0002ECC81E0EFDF8BE39FE10197F1F70895D8
:1014E000CF93DF93CDB7DEB728970FB6F894DEBF62
:1014F0000FBECDBF98E0EAEEF2E0DE01119601905A
:101500000D929A95E1F79091B00A961710F46FEF4B
:10151000690FFE013196E60FF11DE60FF11D908176
:10152000890F806828960FB6F894DEBF0FBECDBF36
:10153000DF91CF91BFCFCF92DF92EF92FF92CF9307
:10154000DF93AB01BC0177FF1BC06A017B016DE239
:1015500088EA9AE0F7DDEC0144275527BA014C19D7
:101560005D096E097F092AE088EA9AE032DE8C0F75
:101570009D1FDF91CF91FF90EF90DF90CF90089566
:101580002AE088EA9AE0DF91CF91FF90EF90DF9018
:10159000CF901FCE09CECF93DF93CDB7DEB728977C
:1015A0000FB6F894DEBF0FBECDBF789484B58260CD
:1015B00084BD84B5816084BD85B5826085BD85B5F7
:1015C000816085BD80916E00816080936E00109275
:1015D00081008091810082608093810080918100F0
:1015E0008160809381008091800081608093800081
:1015F0008091B10084608093B1008091B0008160DF
:101600008093B000809191008260809391008091DE
:10161000910081608093910080919000816080931F
:1016200090008091A10082608093A1008091A10030
:1016300081608093A1008091A00081608093A000D0
:10164000809121018260809321018091210181603C
:1016500080932101809120018160809320018091FD
:101660007A00846080937A0080917A00826080930F
:101670007A0080917A00816080937A0080917A006C
:10168000806880937A001092C10010922605109213
:1016900025051092280510922705BDDAE0913B053B
:1016A000F0913C0582E08083E0913705F0913805A8
:1016B0001082E0913905F0913A058FEC8083109209
:1016C0004305E0913F05F091400586E08083E0917D
:1016D0003D05F0913E05808180618083E0913D056C
:1016E000F0913E05808188608083E0913D05F09116
:1016F0003E05808180688083E0913D05F0913E0544
:1017000080818F7D808380E4D5DE04E012E0D80103
:101710006D918D0188EA9AE020DBB2E00C301B0766
:10172000B1F78091AD0A88608093AD0A12E0109302
:10173000B00A62E370E080E090E0A7D86091B30A5D
:1017400088EA9AE0E1DA68EE73E080E090E09DD804
:1017500060E388EA9AE0EBDAABE4EA2EA6E4FA2E3C
:10176000C7010197F1F760E388EA9AE0E0DAC70180
:101770000197F1F760E388EA9AE0D9DA83E592E02D
:101780000197F1F760E288EA9AE0D1DA8091AD0A38
:10179000806290DE84E08093AE0A8CE08BDE99DE7E
:1017A0001093AF0A86E086DE82E084DE8BE39FE161
:1017B0000197F1F700910C0210910D020F3FEFEF2E
:1017C0001E0789F48EEF9FEF90930D0280930C0219
:1017D00080DE60E081E084DE62E273E088EA9AE025
:1017E000D9DEAFDB37C017FD11C6C0900002D09024
:1017F0000102E0900202F09003027FD86C157D0593
:101800008E059F0508F42FC601C6823091050CF0A5
:1018100075C6892BF9F45DDE60E083E061DE61E38B
:1018200073E088EA9AE0B6DE60E08BE059DE609112
:101830000C0270910D026F5F7F4F072E000C880B1A
:10184000990B79DE61E081E04BDE6AE373E088EAC0
:101850009AE0A0DE60E087E30E94090460E088E38C
:101860000E94090460E089E30E94090460E08AE3C1
:101870000E94090461E08BE20E94090461E08DE2AC
:101880000E94090461E08FE20E94090461E081E3A3
:101890000E94090461E08AE20E94090461E08CE28E
:1018A0000E94090461E08EE20E94090461E080E385
:1018B0000E94090460E08AE20E948C0360E08CE2EE
:1018C0000E948C0360E08EE20E948C0360E080E363
:1018D0000E948C0360E08BE20E948C0360E08DE24A
:1018E0000E948C0360E08FE20E948C0360E081E341
:1018F0000E948C0360E086E30E94090408E91AE074
:1019000010922605109225051092280510922705A1
:1019100082D940E860E0C80135DA6AE070E080E032
:1019200090E00E94450440E050E06AE774E4C8019A
:101930005DDA40E050E068EC74E4C80157DA0D5F0E
:101940001F4FFAE00E391F07D9F604EF15E024ED1A
:1019500035E03A832983E12CF12C60E070E052E01D
:10196000C52ED12C89E090E066246394712C25E08B
:1019700030E0812C912CFAE7AF2EF4E4BF2EA98140
:10198000BA8111961C921E9213961C921E92129767
:1019900015961C921E92149717961C921E921697DB
:1019A00019961C921E9218971B961C921E921A97BB
:1019B000FD01148615861686178650961D921D9277
:1019C0001D921C925397148A158A168A178A589664
:1019D0001D921D921D921C925B97148E158E168E71
:1019E000178ED8011C9212961C921E921197149673
:1019F0001C921E921397F801158216821782108688
:101A000019961D921D921D921C921C971586168682
:101A10001786108A51961D921D921D921C92549702
:101A2000858A968AA78AB08E59961D921D921D921C
:101A30001C925C97203131052CF0BFEF6B1A7B0AAA
:101A400020E030E01901EFEF2E1A3E0AA981BA8199
:101A500011963C932E9313967C926E92129780313E
:101A600091052CF0BFEFCB1ADB0A80E090E02C014F
:101A7000EFEF4E1A5E0AA981BA8115969C938E9358
:101A800014971796DC92CE921697603171052CF060
:101A9000BFEFEB1AFB0A60E070E09B012F5F3F4F46
:101AA000E981FA8171876087F386E286D80114960E
:101AB0001C921E921397C701880F991F8E0D9F1DB0
:101AC00040E050E08856954F2D833E83CADBE98184
:101AD000FA81FD96FA83E983035C1F4F2D813E81D5
:101AE000E859FA4009F4BDC0B901C201910147CFDC
:101AF00040E050E060E070E4C50167DA6B017C0112
:101B0000D8012D913D914D915D918D010E9450170D
:101B10009B01AC01C701B601B8D7F50165A776A74F
:101B200087A790ABFDE3AF0EB11C22E00A3E12077F
:101B3000F9F6A12CB12C40E050E060E87FE3C5014C
:101B400088529A4F42DA6B017C0185010C521A4F80
:101B500022E835E14DE25CE30E9450179B01AC01A5
:101B6000C701B60193D7D801D1966D937D938D931C
:101B70009C93D497BDE3AB0EB11CE4ECAE16E4E04D
:101B8000BE06C9F624EF35E038872F8384EDC82ED2
:101B900085E0D82E22242394312CE12CF12CAF8126
:101BA000B88511960D911C9112970115110509F434
:101BB0006BC023E333E343E150E41D966D917D91C7
:101BC0008D919C915097C6D718160CF451C08DE397
:101BD0008E9DF0018F9DF00D1124EC52FA4F14866A
:101BE000158616861786108A118A128A138A148A15
:101BF000158A168A178A108E118E128E138E10A2D5
:101C0000148E158E168E178E12A211A214A213A274
:101C100015A216A217A210A611A612A613A614A604
:101C200011AE12AE13AE14AE828593859C01220FC5
:101C3000331F820F931F40E050E060858856954F18
:101C400010DB6EE573E08BE295E0A4DCC701019642
:101C50005CDB6AE673E08BE295E09CDC51DB0E9482
:101C60000F020AE912E024EDA22E25E0B22E40CFA9
:101C7000F8013197E730F10508F0B3C38827EC5736
:101C8000FF4F8F4F0C94B717EF81F88585849684AA
:101C9000A784B0882AE939E949E350E4C501B401D1
:101CA0000E944C1787FD09C0E2E0F0E0AF81B885E3
:101CB0001296FC93EE9311971DC023E333E343E3A5
:101CC00050E4C501B40146D718160CF08AC3E1E010
:101CD000F0E0AF81B8851296FC93EE931197809156
:101CE0000C0290910D0297FF05C02BD9F0920D02C6
:101CF000E0920C02AF81B88511968D919C9112975C
:101D0000019791F56EE573E08BE295E043DCC1014C
:101D1000FCDA61E773E08BE295E03CDCEF81F8856B
:101D200045855685678570898BE295E0F5DA68E729
:101D300073E08BE295E02EDC6BE773E08BE295E0DD
:101D400029DCAF81B88551964D915D916D917C9163
:101D500054978BE295E0E0DA68E773E08BE295E078
:101D600019DC63E873E010C36EE573E08BE295E085
:101D700011DCC101CADA6AE873E08BE295E00ADCA3
:101D8000BFDAE3E0F0E0AF81B8851296FC93EE9302
:101D900011976EE573E08BE295E0FCDBC101B5DAEB
:101DA0006AE973E08BE295E0F5DBAADAE4E0F0E0C3
:101DB000AF81B8851296FC93EE931197D6015C968D
:101DC0008D909D90AD90BC905F9781149104A1047B
:101DD000B10409F045C00E947D04DC01CB018452AE
:101DE0009A4FAF4FBF4FF601848F958FA68FB78F55
:101DF00080910C0290910D0297FF05C0A2D8F0923D
:101E00000D02E0920C02D6011A968D919C911B97BF
:101E10009C01220F331F820F931F4FE851E0189649
:101E20006C918856954F1DDA6EE573E08BE295E074
:101E3000B1DBC1016ADA64EA73E08BE295E0AADB08
:101E40006BEB73E08BE295E0A5DB91D822D72FE610
:101E500032E143E85AE30E945017AB01BC01CDC008
:101E600020E030E0A901EF81F885618572858385E6
:101E7000948570D68111E0C00E947D0468157905B3
:101E80008A059B0508F4D8C0AF81B8852C91822FB4
:101E900090E01D964D915D916D917C915097DC0184
:101EA0001396AA0FBB1FAA0FBB1F3DE33E9DF00177
:101EB0003F9DF00D1124AE0FBF1FAC52BA4F4D9392
:101EC0005D936D937C931397AF81B88551964D9137
:101ED0005D916D917C9154970596880F991F880F9D
:101EE000991FE80FF91FEC52FA4F40835183628328
:101EF00073832F5F2C93223008F484C0D6011C9684
:101F00002D913D914D915C911F9750966D917D91D2
:101F10008D919C915397B9D59F7720E030E04AE7A7
:101F200054E4BED74B015C01F6012489358946890A
:101F30005789608D718D828D938DA7D59B01AC01E2
:101F40005F77C501B4010AD6AF81B88519966D9344
:101F50007D938D939C931C976EE573E08BE295E0E7
:101F600019DBC101D2D967EC73E08BE295E012DB9B
:101F7000EF81F88541855285638574858BE295E014
:101F8000CBD966ED73E08BE295E004DBB9D96DEE59
:101F900073E08BE295E0FEDAD6011C964D915D91DF
:101FA0006D917C911F978BE295E0B6D966EF73E057
:101FB0008BE295E0EFDAF6014489558966897789E5
:101FC0008BE295E0A9D99CD96FEF73E08BE295E0A5
:101FD000E1DAD60150964D915D916D917C915397C8
:101FE0008BE295E099D968E074E08BE295E0D2DA73
:101FF000F601408D518D628D738D8BE295E08CD909
:102000007FD91AC00E947D04DC01CB0184529A4F13
:10201000AF4FBF4FF601848F958FA68FB78F828504
:1020200093859C01220F331F820F931F4BE056E0D4
:1020300060858856954F15D9E5E0F0E0AF81B88509
:102040001296FC93EE93119723E333E343E350E4BA
:10205000AF81B8851D966D917D918D919C91509722
:1020600079D518168CF16EE573E08BE295E092DA83
:10207000C1014BD961E174E08BE295E08BDA40D984
:10208000EF81F88514821382D6011A968D919C9166
:102090001B979C01220F331F820F931F40E050E0DB
:1020A00018966C918856954FDCD826E030E0EF8189
:1020B000F8853283218380E090E0A0E7B0E4858753
:1020C0009687A787B08B8DC1AF81B88513968D9108
:1020D0009C911497892B61F5EBE0F6E01496FC9344
:1020E000EE9313970E947D04AF81B88559966D9346
:1020F0007D938D939C935C978C91823080F01396A6
:102100004D915C911497F601828593859C01220F75
:10211000331F820F931F60858856954FA2D8E5E044
:10212000F0E0AF81B8851296FC93EE93119759C1F8
:10213000AF81B8858C91823068F4F601848C958CDF
:10214000A68CB78C0E947D04681579058A059B05CD
:1021500008F045C320E030E04AE754E4AF81B88599
:1021600051966D917D918D919C91549799D62B01AB
:102170003C010E947D044B015C01EF81F885818D5B
:10218000928DA38DB48DA5019401281B390B4A0BA8
:102190005B0BCA01B9017BD59B01AC01C301B20144
:1021A0007FD620E03AEB4BE55AE4D8D49B01AC0152
:1021B000AF81B88515966D917D918D919C91189701
:1021C00065D4EF81F8856583768387839087818ED8
:1021D000928EA38EB48E8081823008F48DC020E070
:1021E00030E04AE754E4618972898389948958D63A
:1021F0004B015C0120E030E0A9014ED618160CF02E
:102200007BC0AF81B88555962D913D914D915C91E4
:10221000589729833A834B835C83C501B4019AD4D0
:10222000882309F469C0EF81F88563807480830195
:10223000A501940169817A818B819C8126D4F6D491
:102240005B019B0177FF04C022273327261B370B36
:10225000B901330F880B990B1CD52DEC3CEC4CE4E9
:102260005EE31ED6E3D4DB012FEF3FE088D620EDFE
:1022700037E040E050E0BCD31A141B0474F4FFEFC5
:102280006F16FFE07F06B4F41216130614F021E077
:1022900030E08301020F131F0DC0AB2859F0161454
:1022A000170464F41216130614F021E030E08301E1
:1022B000021B130B011520E112072CF417FF05C0B8
:1022C00000E010E002C00FEF1FE060167106A1F001
:1022D000AF81B88514961C930E931397F6018285EF
:1022E00093859C01220F331F820F931FA8016085E5
:1022F0008856954F0E9431096EE573E08BE295E0B8
:1023000049D9C10102D866E274E08BE295E042D976
:10231000AF81B88515964D915D916D917C9118971F
:102320008BE295E00E948C0962E374E08BE295E019
:1023300031D920E030E04AE754E4EF81F885658543
:10234000768587859089ACD5AB01BC018BE295E0A1
:102350000E948C096CE374E08BE295E01BD920E0CD
:1023600030E04AE754E4AF81B88551966D917D9194
:102370008D919C91549794D5AB01BC018BE295E073
:102380000E948C0966E474E08BE295E003D9EF814A
:10239000F885838194810E94850921C080910C0277
:1023A00090910D0297FF06C00E94A107F0920D02C6
:1023B000E0920C02E7E0F0E0AF81B8851296FC9362
:1023C000EE9311976EE573E08BE295E0E3D8C101DF
:1023D0000E94850962E574E08BE295E0DBD80E94FB
:1023E0008009FFEFEF1AFF0A2FEF221A320A3DE3AE
:1023F000C30ED11C4F815885435C5F4F58874F8374
:1024000054E1E516F10409F0CACB29CCC0900002D2
:10241000D0900102E0900202F09003020E947D043D
:102420006C157D058E059F0508F414CACD28CE28AD
:10243000CF2809F40FCA8EEF9FEF90930D0280937F
:102440000C021092000210920102109202021092ED
:1024500003023FD888E08093B30A60E088EA9AE0FC
:102460000E948406F7C98DE3F82EF09EF001F19EDC
:10247000F00D1124EC52FA4F81A192A18130910507
:1024800009F0C3C926D860E083E02AD861E373E08D
:1024900088EA9AE07FD860E08BE022D860910C0255
:1024A00070910D026F5F7F4F072E000C880B990B08
:1024B00042D861E083E014D862E773E088EA9AE0EA
:1024C00069D861E088E00CD880910C0290910D02EF
:1024D000F89EF001F99EF00D1124EC52FA4F45A53B
:1024E00056A567A570A988EA9AE00E948C0961E068
:1024F0008CE00E94700A69E773E0A9C985309105F4
:1025000009F0DDC00E94690A60E081E00E94700A63
:1025100067E473E088EA9AE03DD860E085E00E94D5
:10252000700A60910C0270910D026F5F7F4F072E51
:10253000000C880B990B0E949B0A60E088E00E94C7
:10254000700A80910C0290910D02F89EF001F99EA4
:10255000F00D1124EC52FA4FC5A0D6A0E7A0F0A4CC
:1025600020E030E0A901C701B60196D420E030E0B8
:1025700040E05FE387FD04C0C701B60187D203C016
:10258000C701B60182D252D30E949B0A60E08CE060
:102590000E94700A6CE473E088EA9AE00E94CA0A1A
:1025A00061E080E00E94700A80910C0290910D021F
:1025B0001DE3189FF001199FF00D1124EC52FA4F02
:1025C00045A556A567A570A988EA9AE00E948C09DE
:1025D00061E084E00E94700A69E773E088EA9AE0AB
:1025E0000E94CA0A61E086E00E94700A80910C0293
:1025F00090910D02189FF001199FF00D1124EC52DB
:10260000FA4FC1A4D2A4E3A4F4A420E030E0A901CD
:10261000C701B60141D420E030E040E05FE387FD30
:1026200004C0C701B60132D203C0C701B6012DD222
:10263000FDD20E949B0A61E089E00E94700A60E579
:1026400073E088EA9AE00E94CA0A61E08AE00E9488
:10265000700A60E088EA9AE00E94AD0661E08CE0D2
:102660000E94700A80910C0290910D022DE3289F28
:10267000F001299FF00D1124EC52FA4FC1A8D2A805
:10268000E3A8F4A820E030E0A901C701B60104D412
:1026900020E030E040E05FE387FD04C0C701B60101
:1026A000F5D103C0C701B601F0D1C0D20E949B0A88
:1026B00061E08FE00E94700A62E573E0C8C8079786
:1026C00009F0C8C80E94690A60E083E00E94700AAD
:1026D00064E573E088EA9AE00E94CA0A60E08CE050
:1026E0000E94700A60910C0270910D026F5F7F4F23
:1026F000072E000C880B990B0E949B0A61E082E078
:102700000E94700A80910C0290910D02F89EF001D7
:10271000F99EF00D1124EC52FA4FC5A0D6A0E7A007
:10272000F0A420E030E0A901C701B601B5D320E054
:1027300030E040E05FE387FD04C0C701B601A6D1E9
:1027400003C0C701B601A1D171D20E949B0A61E00A
:1027500086E00E94700A6CE473E088EA9AE00E94C6
:10276000CA0A61E08AE00E94700A80910C0290918E
:102770000D022DE3289FF001299FF00D1124EC524A
:10278000FA4FC1A4D2A4E3A4F4A420E030E0A9014C
:10279000C701B60181D320E030E040E05FE387FD70
:1027A00004C0C701B60172D103C0C701B6016DD123
:1027B0003DD20E949B0A61E08DE00E94700A60E5B4
:1027C00073E088EA9AE00E94CA0A61E08EE00E9403
:1027D000700A60E088EA9AE00E94AD063BC824E0F7
:1027E00030E0EF81F88532832183B4CCCF93DF933F
:1027F00010922E0510922D0588EE93E0A0E0B0E037
:1028000080932F0590933005A0933105B093320546
:1028100026EF32E030932C0520932B0525EC30E099
:10282000309338052093370524EC30E030933A0597
:102830002093390520EC30E030933C0520933B0594
:1028400021EC30E030933E0520933D0522EC30E052
:102850003093400520933F0526EC30E0309342054D
:1028600020934105109244051092450510924605AB
:1028700010924705C8ECD5E01092CB051092CA051E
:102880008093CC059093CD05A093CE05B093CF0552
:1028900088E093E09093C9058093C8051092AB0A35
:1028A0001092AA0A8AE193E09093A90A8093A80A59
:1028B0008FE38093AC0A80E18093B10A82E0809339
:1028C000B20A1092B30A61E08AE20E94090461E050
:1028D0008CE20E94090461E08EE20E94090461E03A
:1028E00080E30E9409048AE290E090939F0A80931B
:1028F0009E0A8CE290E09093A10A8093A00A8EE257
:1029000090E09093A30A8093A20A80E390E09093D2
:10291000A50A8093A40A80E48093980AD0939A0A27
:10292000C093990A81E480939B0AD0939D0AC09337
:102930009C0AE4EDF5E0A4EFB5E040E050E06AE782
:1029400074E411821082138212821582148217821B
:1029500016821186108613861286148615861686B0
:102960001786108A118A128A138A148A158A168A7F
:10297000178A108E118E128E138E148E158E168E4F
:10298000178E1C9212961C921E92119714961C92EE
:102990001E92139715961D921D921D921C921897C8
:1029A00019961D921D921D921C921C971D961D92A8
:1029B0001D921D921C92509751961D921D921D9230
:1029C0001C92549755964D935D936D937C935897B5
:1029D00059961D921D921D921C925C97FD96DD9654
:1029E0008AE0E839F80709F0ACCFDF91CF9108957C
:1029F000052E97FB16F400940FD057FD05D014D088
:102A000007FC02D046F408C05095409530952195BA
:102A10003F4F4F4F5F4F089590958095709561950A
:102A20007F4F8F4F9F4F0895A1E21A2EAA1BBB1B09
:102A3000FD010DC0AA1FBB1FEE1FFF1FA217B3078A
:102A4000E407F50720F0A21BB30BE40BF50B661FA0
:102A5000771F881F991F1A9469F760957095809564
:102A600090959B01AC01BD01CF010895A29FB001DB
:102A7000B39FC001A39F700D811D1124911DB29FB2
:102A8000700D811D1124911D08955058BB27AA2750
:102A90000ED0B1C1A2D130F0A7D120F031F49F3FC8
:102AA00011F41EF497C10EF4E095E7FB64C1E92F21
:102AB000B3D180F3BA17620773078407950718F03C
:102AC00071F49EF5E2C10EF4E0950B2EBA2FA02D05
:102AD0000B01B90190010C01CA01A0011124FF27CB
:102AE000591B99F0593F50F4503E68F11A16F040C6
:102AF000A22F232F342F4427585FF3CF46953795C5
:102B00002795A795F0405395C9F77EF41F16BA0B89
:102B1000620B730B840BBAF09150A1F0FF0FBB1F37
:102B2000661F771F881FC2F70EC0BA0F621F731F80
:102B3000841F48F4879577956795B795F7959E3FDD
:102B400008F0B3CF9395880F08F09927EE0F97956B
:102B500087950895ECD008F481E008950CD04BC11E
:102B600043D140F03AD130F021F45F3F19F003C176
:102B700051118CC12FC150D198F39923C9F355231A
:102B8000B1F3951B550BBB27AA2762177307840760
:102B900038F09F5F5F4F220F331F441FAA1FA9F316
:102BA00033D00E2E3AF0E0E830D091505040E69508
:102BB000001CCAF729D0FE2F27D0660F771F881F69
:102BC000BB1F261737074807AB07B0E809F0BB0B58
:102BD000802DBF01FF2793585F4F2AF09E3F51057C
:102BE00068F0C9C053C15F3FECF3983EDCF38695B3
:102BF00077956795B795F7959F5FC9F7880F911DF2
:102C00009695879597F90895E1E0660F771F881FDD
:102C1000BB1F621773078407BA0720F0621B730B90
:102C2000840BBA0BEE1F88F7E095089504D06894E2
:102C3000B1112CC10895F8D088F09F5790F0B92FAA
:102C40009927B751A0F0D1F0660F771F881F991F01
:102C50001AF0BA95C9F712C0B13081F016D1B1E0BF
:102C6000089513C1672F782F8827B85F39F0B93FCF
:102C7000CCF3869577956795B395D9F73EF4909503
:102C80008095709561957F4F8F4F9F4F0895E89481
:102C900009C097FB3EF490958095709561957F4FA4
:102CA0008F4F9F4F9923A9F0F92F96E9BB27939552
:102CB000F695879577956795B795F111F8CFFAF462
:102CC000BB0F11F460FF1BC06F5F7F4F8F4F9F4F93
:102CD00016C0882311F096E911C0772321F09EE8F1
:102CE000872F762F05C0662371F096E8862F70E057
:102CF00060E02AF09A95660F771F881FDAF7880F31
:102D00009695879597F90895A9D080F09F3740F45C
:102D100091110EF0BBC060E070E080E89FEB089579
:102D200026F41B16611D711D811D2BC045C0990F16
:102D30000008550FAA0BE0E8FEEF16161706E80785
:102D4000F907C0F012161306E407F50798F0621BA6
:102D5000730B840B950B39F40A2661F0232B242B7B
:102D6000252B21F408950A2609F4A140A6958FEF9A
:102D7000811D811D089597F99F6780E870E060E0EC
:102D80000895882371F4772321F09850872B762FAC
:102D900007C0662311F499270DC09051862B70E06F
:102DA00060E02AF09A95660F771F881FDAF7880F80
:102DB0009695879597F908959F3F31F0915020F4AB
:102DC000879577956795B795880F911D9695879507
:102DD00097F908959FEF80EC089500240A94161641
:102DE000170618060906089500240A9412161306F9
:102DF000140605060895092E0394000C11F4882387
:102E000052F0BB0F40F4BF2B11F460FF04C06F5FA2
:102E10007F4F8F4F9F4F089557FD9058440F551F78
:102E200059F05F3F71F04795880F97FB991F61F04C
:102E30009F3F79F087950895121613061406551FC3
:102E4000F2CF4695F1DF08C0161617061806991F2F
:102E5000F1CF86957105610508940895E5DFA0F02E
:102E6000BEE7B91788F4BB279F3860F41616B11D6A
:102E7000672F782F8827985FF7CF86957795679586
:102E8000B11D93959639C8F30895E894BB2766273A
:102E90007727CB0197F908954ADF08F48FEF08955B
:102EA0000BD0A9CF9ADF28F09FDF18F0952309F007
:102EB00062CF90CF1124EACFAFDFA0F3959FD1F37B
:102EC000950F50E0551F629FF001729FBB27F00DD8
:102ED000B11D639FAA27F00DB11DAA1F649F66272D
:102EE000B00DA11D661F829F2227B00DA11D621F7C
:102EF000739FB00DA11D621F839FA00D611D221F36
:102F0000749F3327A00D611D231F849F600D211D19
:102F1000822F762F6A2F11249F5750408AF0E1F0BC
:102F200088234AF0EE0FFF1FBB1F661F771F881F05
:102F300091505040A9F79E3F510570F01CCFA6CF8D
:102F40005F3FECF3983EDCF3869577956795B795F0
:102F5000F795E7959F5FC1F7FE2B880F911D96951A
:102F6000879597F90895E3DE880B990B0895EE0F86
:102F7000FF1F881F8BBF0790F691E02D199476DD17
:102F8000B7FF0895821B930B089581E090E0F894B9
:062F900000C0F894FFCF21
:102F9600581B0000000E1111110A1B00FFFF000054
:102FA600000000000000010000000000000000001A
:102FB6000100000000000100010000000000000008
:102FC60000000100000001000000010000000000F8
:102FD60001000100000001000100010000000000E6
:102FE60000000000010001000000000001000000D8
:102FF60001000000010001000100000001000000C6
:1030060000000100010001000000010001000000B5
:103016000100010001000100010001000100373834
:10302600393A2B002D002F0031002422A33C89A120
:103036008D3C739E6E3C60B2153C2DD2D63C912DD4
:10304600A63CB079A83C0745A63CB5A48D3C5B24BC
:10305600923C8F91A83C94B77B3CCFD2AA3C344B90
:103066000B3C2A8CE83BFE8E873C7B2E933CD1346E
:10307600BF3CD134BF3C698FD13C000040001400F6
:10308600540000000000A801A9084101EE017201E8
:103096005001640100000000F902CA0228039E02E2
:1030A600C202AE029F0200000000AD06A908280376
:1030B600270342617474657279205465737465726E
:1030C60000426174746572792000456D70747920D0
:1030D60020536C6F7421004261742D006D416800AD
:1030E6006D00410042617474657269652000426139
:1030F600747465726965203A200020524553455420
:1031060000204C4F573A2000205600204C6F616437
:103116003A20002050574D3A20002050524544494D
:10312600534348415247494E47002043484152477E
:10313600494E470020494E4954207265736973749D
:10314600616E63652074696D657200202D2D2D20DA
:10315600564343203A200020726573697374616E8A
:103166006365203A2000206D4F686D20284945434D
:103176002036313936302D32303033290020205672
:103186002D31203A20002020492D31203A200020E0
:1031960020562D32203A20002020492D32203A2078
:1031A600002044495343484152474520636F6D70A0
:1031B6006C65746564002043617061636974793A73
:1031C6002000202D2D2D2056203A2000202D2D2D9B
:1031D6002041203A2000202D2D2D2050574D203AF9
:1031E60020002046494E4953484544000D0A006ECA
:0C31F600616E00696E66006F7666000076
:020000023000CC
:10E000000D9489F10D94B2F10D94B2F10D94B2F129
:10E010000D94B2F10D94B2F10D94B2F10D94B2F1F0
:10E020000D94B2F10D94B2F10D94B2F10D94B2F1E0
:10E030000D94B2F10D94B2F10D94B2F10D94B2F1D0
:10E040000D94B2F10D94B2F10D94B2F10D94B2F1C0
:10E050000D94B2F10D94B2F10D94B2F10D94B2F1B0
:10E060000D94B2F10D94B2F10D94B2F10D94B2F1A0
:10E070000D94B2F10D94B2F10D94B2F10D94B2F190
:10E080000D94B2F10D94B2F10D94B2F10D94B2F180
:10E090000D94B2F10D94B2F10D94B2F10D94B2F170
:10E0A0000D94B2F10D94B2F10D94B2F10D94B2F160
:10E0B0000D94B2F10D94B2F10D94B2F10D94B2F150
:10E0C0000D94B2F10D94B2F10D94B2F10D94B2F140
:10E0D0000D94B2F10D94B2F10D94B2F10D94B2F130
:10E0E0000D94B2F141546D656761323536300041AF
:10E0F000726475696E6F206578706C6F72657220DE
:10E1000073746B3530305632206279204D4C530099
:10E11000426F6F746C6F616465723E004875683F52
:10E1200000436F6D70696C6564206F6E203D200048
:10E130004350552054797065202020203D20005FF9
:10E140005F4156525F415243485F5F3D2000415658
:10E1500052204C696243205665723D20004743437C
:10E160002056657273696F6E203D20004350552024
:10E1700049442020202020203D20004C6F7720663D
:10E18000757365202020203D20004869676820665F
:10E190007573652020203D200045787420667573D6
:10E1A00065202020203D20004C6F636B2066757336
:10E1B000652020203D20004D617220203720323024
:10E1C000313300312E362E3800342E332E350056A2
:10E1D00023202020414444522020206F7020636F70
:10E1E00064652020202020696E73747275637469E1
:10E1F0006F6E2061646472202020496E74657272B3
:10E20000757074006E6F20766563746F7200726A49
:10E210006D702020006A6D70200057686174207056
:10E220006F72743A00506F7274206E6F7420737541
:10E2300070706F72746564004D7573742062652030
:10E2400061206C6574746572002000577269747483
:10E25000696E672045450052656164696E672045B7
:10E26000450045452065727220636E743D00504F35
:10E27000525400303D5A65726F2061646472003FF1
:10E280003D43505520737461747300403D454550C3
:10E29000524F4D207465737400423D426C696E6B41
:10E2A000204C454400453D44756D70204545505215
:10E2B0004F4D00463D44756D7020464C415348001B
:10E2C000483D48656C70004C3D4C69737420492F83
:10E2D0004F20506F72747300513D51756974005234
:10E2E0003D44756D702052414D00563D73686F7707
:10E2F00020696E7465727275707420566563746FF0
:10E30000727300593D506F727420626C696E6B00BD
:10E310002A0011241FBECFEFD1E2DEBFCDBF01E046
:10E320000CBF12E0A0E0B2E0EEE1FDEF03E00BBFB6
:10E3300002C007900D92A030B107D9F712E0A0E01B
:10E34000B2E001C01D92AE30B107E1F70F9460F367
:10E350000D948DFE01E20EBF0FEF0DBF11241FBE05
:10E360000D9460F30D9400F020E030E040ED57E0B4
:10E3700005C0FA013197F1F72F5F3F4F2817390792
:10E38000C0F308959C01260F311DC901A0E0B0E043
:10E390002F5F3F4FABBFFC018791882361F08093D3
:10E3A000C6008091C00086FFFCCF8091C0008064D1
:10E3B0008093C000EACF08958DE08093C6008091DD
:10E3C000C00086FFFCCF8091C00080648093C000B5
:10E3D0008AE08093C6008091C00086FFFCCF8091C8
:10E3E000C00080648093C00008950F94C2F10F9420
:10E3F000DCF10895FC019081992359F09093C600B7
:10E400008091C00086FFFCCF8091C0008064809323
:10E41000C0003196992379F70895282F982F929567
:10E420009F70892F805D8A3308F0895F8093C600D2
:10E430008091C00086FFFCCF8091C00080648093F3
:10E44000C000822F8F70982F905D9A3308F0995FEB
:10E450009093C6008091C00086FFFCCF8091C000E1
:10E4600080648093C00008959C01FB01853691056E
:10E470001CF46330710594F0C90164E670E00F94F8
:10E480002EFE605D7F4F6093C6008091C00086FFC6
:10E49000FCCF8091C00080648093C0002B30310598
:10E4A00014F43297B4F0C90164E670E00F942EFEC4
:10E4B0006AE070E00F942EFE605D7F4F6093C600AF
:10E4C0008091C00086FFFCCF8091C0008064809363
:10E4D000C000C9016AE070E00F942EFEC0968093E0
:10E4E000C6008091C00086FFFCCF8091C000806490
:10E4F0008093C00008951F93182F8EE692EE60E07F
:10E500000F94C2F11093C6008091C00086FFFCCF2B
:10E510008091C00080648093C0000F94DCF11F9153
:10E5200008952F923F924F925F926F927F928F92B7
:10E530009F92AF92BF92CF92DF92EF92FF920F9392
:10E540001F93DF93CF93CDB7DEB762970FB6F894E2
:10E55000DEBF0FBECDBF382E622ECA01DB015C01CB
:10E560006D01772420E2222E2E010894411C511CBB
:10E570008BC081E0A81680E0B80681E0C80680E084
:10E58000D80628F0C601AA27BB270F940DF2BB2797
:10E59000AD2D9C2D8B2D0F940DF28A2D0F940DF225
:10E5A0002092C6008091C00086FFFCCF8091C00001
:10E5B00080648093C0009DE29093C6008091C0006B
:10E5C00086FFFCCF8091C00080648093C0002092C1
:10E5D000C6008091C00086FFFCCF8091C00080649F
:10E5E0008093C00019828601750188249924A1E0D6
:10E5F0003A1651F03A1620F0B2E03B1661F409C029
:10E600000BBFF701779007C0C7010F9477FE782EF4
:10E6100002C0F7017080872D0F940DF22092C60082
:10E620008091C00086FFFCCF8091C0008064809301
:10E63000C000872D8052F401EF70F0708F3520F408
:10E64000E40DF51D708204C0E40DF51D8EE280839B
:10E650000894E11CF11C011D111D0894811C911CE2
:10E6600090E18916910409F0C2CF80E190E0A0E02A
:10E67000B0E0A80EB91ECA1EDB1E198AC2010F9493
:10E68000FAF10F94DCF16A94662009F072CF629679
:10E690000FB6F894DEBF0FBECDBFCF91DF911F91B3
:10E6A0000F91FF90EF90DF90CF90BF90AF909F9031
:10E6B0008F907F906F905F904F903F902F90089534
:10E6C0002F923F924F925F926F927F928F929F9282
:10E6D000AF92BF92CF92DF92EF92FF920F931F9370
:10E6E000DF93CF93CDB7DEB7CD53D1400FB6F894BB
:10E6F000DEBF0FBECDBF01E20EBF0FEF0DBF94B75F
:10E70000F894A89514BE80916000886180936000A1
:10E7100010926000789493FF05C0E0910002F091A0
:10E7200001021995279A2F9A8091C00082608093E8
:10E73000C00080E18093C40088E18093C1000000A4
:10E74000EE24FF24870144E0A42EB12CCC24DD2448
:10E7500024C0C5010197F1F70894E11CF11C011DCB
:10E76000111D21E2E2162EE4F20620E0020720E06D
:10E77000120718F031E0C32ED12CC801B70127ECE5
:10E780003BE140E050E00F9441FE611571058105C9
:10E79000910519F485B1805885B98091C00087FD35
:10E7A00003C0C114D104A9F2A6014F5F5F4FC25E3E
:10E7B000DE4F59834883CE51D140C25EDE4F8881FF
:10E7C0009981CE51D140019711F00D9410FEC05D9A
:10E7D000DE4F19821882C053D14060E0C15DDE4F28
:10E7E0001882CF52D14088249924C35DDE4F19820C
:10E7F0001882CD52D140C05EDE4F188219821A8233
:10E800001B82C052D140CE5CDE4F188219821A8220
:10E810001B82C253D140EE24FF2487010BBFF701B6
:10E8200007911691C45CDE4F19830883CC53D14005
:10E830000D940BFEC25EDE4F28813981CE51D1404E
:10E840002130310509F52091C600C25EDE4F1982E4
:10E850001882CE51D14022C02F5F3F4F4F4F5F4FA4
:10E86000213082E138078AE7480780E0580780F0C6
:10E87000C45CDE4FE881F981CC53D140EF5FFF4F9C
:10E8800019F0EE27FF27099420E030E040E050E047
:10E890008091C00087FFE0CF2091C600C35DDE4FAE
:10E8A00048815981CD52D1404F5F5F4FC35DDE4FEC
:10E8B00059834883CD52D140213209F063C64A3092
:10E8C000510508F05FC60894811C911C53E0851621
:10E8D000910409F059C600E010E018C081E280936D
:10E8E000C6008091C00086FFFCCF8091C00080648C
:10E8F0008093C0002F5F3F4F2931310579F70F9486
:10E90000DCF10F5F1F4F0530110519F020E030E0FA
:10E91000E5CF10920A0210920B0210920C02109294
:10E920000D02109206021092070210920802109235
:10E930000902109202021092030210920402109235
:10E9400005028FEE90EE60E00F94F5F180E191EE1C
:10E9500060E00F94C2F18091C00087FFFCCF9091DE
:10E96000C600903608F09F759032B8F09093C600BC
:10E970008091C00086FFFCCF8091C00080648093AE
:10E98000C000A0E2A093C6008091C00086FFFCCF2B
:10E990008091C00080648093C000983409F4D7C18E
:10E9A0009934B8F4923409F459C1933458F490333B
:10E9B00019F1903308F4E3C59F33A1F1903409F0C5
:10E9C000DEC5BDC0953409F470C1963409F0D7C5D1
:10E9D00098C1923509F42BC2933538F49C3409F46C
:10E9E000F5C1913509F0CBC518C2963509F445C279
:10E9F000993509F0C4C567C483E792EE62E00F94CD
:10EA0000F5F110920602109207021092080210927D
:10EA1000090210920A0210920B0210920C0210923C
:10EA20000D0213C18FE792EE62E00F94F5F18FEEC5
:10EA300090EE60E00F94F5F181E291EE60E00F94CA
:10EA4000C2F187EB91EE60E00F94F5F180E391EE77
:10EA500060E00F94C2F184EE90EE60E00F94F5F167
:10EA60008FE391EE60E00F94C2F186E090E061E008
:10EA700070E00F9434F20F94DCF18DE591EE60E0DC
:10EA80000F94C2F189EC91EE60E00F94F5F18EE401
:10EA900091EE60E00F94C2F183EC91EE60E00F9490
:10EAA000F5F18CE691EE60E00F94C2F18EE10F94E7
:10EAB0000DF288E90F940DF281E00F940DF20F949E
:10EAC000DCF18BE791EE60E00F94C2F119E0E0E039
:10EAD000F0E010935700E4918E2F0F940DF20F94F5
:10EAE000DCF18AE891EE60E00F94C2F1E3E0F0E03F
:10EAF00010935700E4918E2F0F940DF20F94DCF1D8
:10EB000089E991EE60E00F94C2F1E2E0F0E0109349
:10EB10005700E4918E2F0F940DF20F94DCF188EAE8
:10EB200091EE60E00F94C2F1E1E0F0E01093570045
:10EB30001491812F0F940DF20F94DCF107CF8BE825
:10EB400092EE62E00F94F5F18BE492EE60E00F94A8
:10EB5000F5F10F94DCF100E010E019C0C8016F2D51
:10EB60000F947FFEFF2031F489E492EE60E00F9471
:10EB7000C2F10BC0F092C6008091C00086FFFCCFAE
:10EB80008091C00080648093C0000F5F1F4FC80158
:10EB900081519F41A0E0B0E0ABBFFC01F790BAE229
:10EBA000FB1621F0E2E000301E07C1F60F94DCF105
:10EBB0000F94DCF187E592EE60E00F94F5F10F948D
:10EBC000DCF1CC24DD2400E010E01EC0C8010F946D
:10EBD00077FEF82E882331F489E492EE60E00F94FA
:10EBE000C2F10BC08093C6008091C00086FFFCCFAD
:10EBF0008091C00080648093C000FE1419F00894D6
:10EC0000C11CD11C0F5F1F4FC80181519F41A0E063
:10EC1000B0E0ABBFFC01E790FAE2EF1621F022E092
:10EC20000030120799F60F94DCF10F94DCF182E6C4
:10EC300092EE60E00F94C2F1C60161E070E00F94C3
:10EC400034F20F94DCF10F94DCF110920202109276
:10EC50000302109204021092050278CE89E992EE26
:10EC600062E00F94F5F1279A2F9A16C02F9880E052
:10EC700090E0E0EDF7E03197F1F7019684369105E9
:10EC8000C1F72F9A80E090E0E0EDF7E03197F1F7DF
:10EC9000019684369105C1F78091C00087FFE6CFC9
:10ECA0008091C00087FFFCCF64C485EA92EE62E0E9
:10ECB0000F94F5F140910202509103026091040219
:10ECC0007091050281E020E10F9491F2809102029F
:10ECD00090910302A0910402B091050280509F4FD1
:10ECE000AF4FBF4F8093020290930302A0930402A0
:10ECF000B093050280509041A040B04008F426CE69
:10ED0000A4CF83EB92EE62E00F94F5F140910602FE
:10ED100050910702609108027091090280E020E1A1
:10ED20000F9491F28091060290910702A09108023F
:10ED3000B091090280509F4FAF4FBF4F80930602A2
:10ED400090930702A0930802B0930902FFCD80ECD4
:10ED500092EE62E00F94F5F183E792EE60E00F949B
:10ED6000F5F18FE792EE60E00F94F5F18BE892EE0B
:10ED700060E00F94F5F189E992EE60E00F94F5F10F
:10ED800085EA92EE60E00F94F5F183EB92EE60E09D
:10ED90000F94F5F180EC92EE60E00F94F5F187ECC2
:10EDA00092EE60E00F94F5F188ED92EE60E00F9442
:10EDB000F5F18FED92EE60E00F94F5F18AEE92EEB0
:10EDC00060E00F94F5F183E093EEBDCD87EC92EE19
:10EDD00062E00F94F5F181E40F947BF282E40F94EA
:10EDE0007BF283E40F947BF284E40F947BF285E45E
:10EDF0000F947BF286E40F947BF287E40F947BF20E
:10EE000088E40F947BF28AE40F947BF28BE40F94F6
:10EE10007BF28CE40F947BF299CD88ED92EE62E068
:10EE20000F94F5F1772473948824992409C48FED05
:10EE300092EE62E00F94F5F140910A0250910B02BC
:10EE400060910C0270910D0282E020E10F9491F22A
:10EE500080910A0290910B02A0910C02B0910D02D8
:10EE600080509F4FAF4FBF4F80930A0290930B0289
:10EE7000A0930C02B0930D0269CD8AEE92EE62E08F
:10EE80000F94F5F184EE90EE60E00F94F5F18FECC5
:10EE900091EE60E00F94F5F1662477244301CC5D98
:10EEA000DE4F19821882C452D140D401C301B695F5
:10EEB000A79597958795CA5DDE4F88839983AA8326
:10EEC000BB83C652D140CC5DDE4FA881B981C4520C
:10EED000D1401196CC5DDE4FB983A883C452D14096
:10EEE000CD0162E070E00F9434F2B0E2B093C6005E
:10EEF0008091C00086FFFCCF8091C0008064809329
:10EF0000C000EDE2E093C6008091C00086FFFCCF18
:10EF10008091C00080648093C000F0E2F093C6004E
:10EF20008091C00086FFFCCF8091C00080648093F8
:10EF3000C000CA5DDE4FE880F9800A811B81C6529D
:10EF4000D140BB27A12F902F8F2D0F940DF2CA5DBA
:10EF5000DE4F8881C652D1400F940DF2B0E2FB2EF5
:10EF6000F092C6008091C00086FFFCCF8091C00067
:10EF700080648093C0000DE30093C6008091C000C0
:10EF800086FFFCCF8091C00080648093C00010E2B7
:10EF90001093C6008091C00086FFFCCF8091C00016
:10EFA00080648093C0008BBEF3012791C65DDE4F65
:10EFB0002883CA52D140A22EBB24CC24DD2408943D
:10EFC000611C711C811C911C8BBEF3018791282E42
:10EFD0003324442455240894611C711C811C911C09
:10EFE0008BBEF3013791C55DDE4F3883CB52D140E4
:10EFF0000894611C711C811C911C8BBEF30147910C
:10F00000C45DDE4F4883CC52D140ADEFEA2EAFEF66
:10F01000FA2EAFEF0A2FAFEF1A2F6E0C7F1C801E57
:10F02000911E142D032DF22CEE24EA0CFB1C0C1D5A
:10F030001D1D0F940DF220E22093C6008091C000A8
:10F0400086FFFCCF8091C00080648093C000C65DC5
:10F05000DE4F8881CA52D1400F940DF230E23093D6
:10F06000C6008091C00086FFFCCF8091C000806404
:10F070008093C000C45DDE4F8881CC52D1400F9494
:10F080000DF240E24093C6008091C00086FFFCCFA5
:10F090008091C00080648093C000C55DDE4F888190
:10F0A000CB52D1400F940DF250E25093C6008091A4
:10F0B000C00086FFFCCF8091C00080648093C000B8
:10F0C0008FEFE8168FEFF80680E0080780E018075A
:10F0D00031F484E092EE60E00F94C2F1DFC0D80119
:10F0E000C7018070907CA070B0708050904CA040A0
:10F0F000B040D1F52FEF3FE340E050E0E222F322B1
:10F1000004231523CA5DDE4FA880B980CA80DB8046
:10F11000C652D140AE0CBF1CC01ED11EAA0CBB1CD7
:10F12000CC1CDD1C8EE092EE60E00F94C2F1BB2798
:10F13000A12F902F8F2D0F940DF28E2D0F940DF285
:10F1400030E23093C6008091C00086FFFCCF8091F2
:10F15000C00080648093C0004EE34093C60080915D
:10F16000C00086FFFCCF87C08EE09EEFA0E0B0E03D
:10F17000E822F9220A231B239CE0E91694E9F90608
:10F1800090E0090790E0190709F088C0C45DDE4FE0
:10F19000A881CC52D140EA2EFF2400E010E0102FCD
:10F1A0000F2DFE2CEE24C55DDE4FB881CB52D14031
:10F1B000EB0EF11C011D111DD601C501817090706F
:10F1C000A070B070DC0199278827E80EF91E0A1F8D
:10F1D0001B1F20EF30E040E050E0A222B322C42207
:10F1E000D52241E1AA0CBB1CCC1CDD1C4A95D1F7F1
:10F1F000EA0CFB1C0C1D1D1D81E090E0A0E0B0E0BE
:10F20000282239224A225B2235E1220C331C441C7D
:10F21000551C3A95D1F7E20CF31C041D151D57013E
:10F220006801AA0CBB1CCC1CDD1C85E192EE60E0E1
:10F230000F94C2F1C801AA27BB270F940DF2BB2778
:10F24000A12F902F8F2D0F940DF28E2D0F940DF274
:10F2500090E29093C6008091C00086FFFCCF809121
:10F26000C00080648093C000AEE3A093C60080918C
:10F27000C00086FFFCCF8091C00080648093C000F6
:10F28000C601AA27BB270F940DF2BB27AD2D9C2DDD
:10F290008B2D0F940DF28A2D0F940DF20F94DCF14B
:10F2A000CC5DDE4FE881F981C452D140F99709F471
:10F2B0004DCBF4E0EF2EF12C012D112D6E0C7F1CA7
:10F2C000801E911EF2CD83E093EE62E00F94F5F183
:10F2D0008AE192EE60E00F94C2F18091C00087FF56
:10F2E000FCCF1091C6001F751093C6008091C0001E
:10F2F00086FFFCCF8091C00080648093C0000F9493
:10F30000DCF1812F81548A3108F036C1163409F4BA
:10F3100095C0173490F4133409F44EC0143430F40B
:10F320001134F1F0123409F01DC130C0143409F465
:10F3300059C0153409F016C16BC01A3409F4C4C0A1
:10F340001B3438F4173409F48FC0183409F00AC19B
:10F35000A1C01B3409F4D2C01C3409F003C1E8C0B9
:10F360008FEF81B90DC082B1809582B980E090E0C5
:10F37000E0EDF7E03197F1F70196883C9105C1F790
:10F380008091C00087FFEFCF12B8EFC08FEF84B934
:10F390000DC085B1809585B980E090E0E0EDF7E0A3
:10F3A0003197F1F70196883C9105C1F78091C00033
:10F3B00087FFEFCF15B8D9C08FEF87B90DC088B1DF
:10F3C000809588B980E090E0E0EDF7E03197F1F7C3
:10F3D0000196883C9105C1F78091C00087FFEFCF6F
:10F3E00018B8C3C08FEF8AB90DC08BB180958BB9A7
:10F3F00080E090E0E0EDF7E03197F1F70196883C8E
:10F400009105C1F78091C00087FFEFCF1BB8ADC059
:10F410008FEF8DB90DC08EB180958EB980E090E0F0
:10F42000E0EDF7E03197F1F70196883C9105C1F7DF
:10F430008091C00087FFEFCF1EB897C08FEF80BBD1
:10F440000DC081B3809581BB80E090E0E0EDF7E0F6
:10F450003197F1F70196883C9105C1F78091C00082
:10F4600087FFEFCF11BA81C08FEF83BB0DC084B38C
:10F47000809584BB80E090E0E0EDF7E03197F1F714
:10F480000196883C9105C1F78091C00087FFEFCFBE
:10F4900014BA6BC08FEF809301010FC080910201FD
:10F4A00080958093020180E090E0E0EDF7E03197F5
:10F4B000F1F70196883C9105C1F78091C00087FF64
:10F4C000EDCF1092020151C08FEF809304010FC065
:10F4D0008091050180958093050180E090E0E0ED4A
:10F4E000F7E03197F1F70196883C9105C1F78091DB
:10F4F000C00087FFEDCF1092050137C08FEF8093DA
:10F5000007010FC08091080180958093080180E079
:10F5100090E0E0EDF7E03197F1F70196883C910536
:10F52000C1F78091C00087FFEDCF109208011DC088
:10F530008FEF80930A010FC080910B01809580931B
:10F540000B0180E090E0E0EDF7E03197F1F70196F4
:10F55000883C9105C1F78091C00087FFEDCF1092E4
:10F560000B0103C085E292EEEEC98091C00087FFD7
:10F57000FCCF8091C600EAC988E392EEE4C98CE131
:10F5800091EEE1C988249924933011F1943028F444
:10F59000913089F09230B8F408C0953061F195301F
:10F5A000F0F0963009F048C043C02B3109F042C951
:10F5B00091E06BE13FC96227C15DDE4F2883CF52E6
:10F5C000D14092E037C9B22FA0E0622793E032C960
:10F5D000822F90E0A82BB92B622794E02BC92E3004
:10F5E00009F039C3622795E0C05DDE4F19821882A9
:10F5F000C053D1401FC9E1E0F0E0EC0FFD1FC05D3A
:10F60000DE4F08811981C053D140E00FF11F2083E4
:10F610000F5F1F4FC05DDE4F19830883C053D14079
:10F6200062270A171B0709F005C9D80196E002C92D
:10F63000261709F010C303C0973009F0FBC87724E0
:10F640009981933109F412C19431C8F4963009F4C8
:10F65000D8C0973050F4923009F406C1933009F4C1
:10F660006DC0913009F059C253C0913109F477C08F
:10F67000923108F0BBC0903109F04FC2F5C098310B
:10F6800009F487C0993150F4953109F4EFC09531F0
:10F6900008F4C6C1963109F040C2C2C19A3109F4DA
:10F6A0006CC09A3108F491C09B3109F45BC09D3164
:10F6B00009F033C29D81903359F48F81882311F46E
:10F6C0009EE11CC0813011F091E018C098E916C08D
:10F6D000892F807591F0903539F4E0E0F0E089E011
:10F6E0008093570094910AC0983539F4E3E0F0E034
:10F6F00089E080935700949101C090E01A821B82A8
:10F700008D818C831D829E831F8227E030E009C299
:10F710001A8288E08B8381E48C8386E58D8382E581
:10F720008E8389E48F8383E5888780E589878FE5E9
:10F730008A8782E38B872BE030E0F3C18A818139AD
:10F7400041F0823941F0803911F48FE005C080E04A
:10F7500003C082E001C08AE01A828B8344C0772410
:10F76000739482C08D81882311F48EE12CC0813086
:10F7700011F081E028C088E926C01A82E1E0F0E0BB
:10F7800089E08093570084918B831C8224E030E0D1
:10F79000C8C18B81803589F48C81883039F4E2E0EE
:10F7A000F0E089E08093570084910DC0E0E0F0E044
:10F7B00089E080935700849106C0E3E0F0E089E09F
:10F7C0008093570084911A82DFCF8D81836C99E0FA
:10F7D000E1E0F0E0082E90935700E89507B600FCB2
:10F7E000FDCF1A821B8223E030E09BC180EC8A832C
:10F7F000CE5CDE4F188219821A821B82C253D1401E
:10F800008EC18A8190E0A0E0B0E0582F44273327D2
:10F8100022278B8190E0A0E0B0E0DC0199278827C7
:10F82000282B392B4A2B5B2B8D8190E0A0E0B0E098
:10F83000282B392B4A2B5B2B8C8190E0A0E0B0E089
:10F84000BA2FA92F982F8827282B392B4A2B5B2BCF
:10F85000220F331F441F551FC05EDE4F288339839C
:10F860004A835B83C052D1401A8259C13A81C95C34
:10F87000DE4F3883C753D140CA5CDE4F1882C6536F
:10F88000D1408B81C82EDD24CA5CDE4F488159816E
:10F89000C653D140C42AD52A933109F082C0CE5C28
:10F8A000DE4F88819981AA81BB81C253D1408050AB
:10F8B000904CA340B04030F583E0CE5CDE4FE88052
:10F8C000F9800A811B81C253D140F70100935B008C
:10F8D00080935700E89507B600FCFDCFCE5CDE4F65
:10F8E000088119812A813B81C253D14000501F4FAA
:10F8F0002F4F3F4FCE5CDE4F088319832A833B8313
:10F90000C253D140C05EDE4F488159816A817B81FC
:10F91000C052D140DE011B9631E08C9111962C91A2
:10F9200011971296C75CDE4F2883C953D140C85C3B
:10F93000DE4F1882C853D14090E0C85CDE4FE881AA
:10F94000F981C853D1408E2B9F2B0C01FA01609393
:10F950005B0030935700E89511244E5F5F4F6F4F67
:10F960007F4F0EEFE02E0FEFF02ECE0CDF1CC114F8
:10F97000D10499F685E0C05EDE4F088119812A81A5
:10F980003B81C052D140F80120935B008093570027
:10F99000E89507B600FCFDCF81E180935700E8951C
:10F9A00035C0C05EDE4F88819981AA81BB81C0527B
:10F9B000D140B695A795979587957C018601ABE0D8
:10F9C000AA2EB12CAC0EBD1E0BC0D5016D915D01F0
:10F9D000C7010F947FFE0894E11CF11C01501040F8
:10F9E0000115110591F7A60160E070E0440F551F65
:10F9F000661F771FC05EDE4FE880F9800A811B8199
:10FA0000C052D1404E0D5F1D601F711F1A82C05E33
:10FA1000DE4F488359836A837B83C052D1407FC0C5
:10FA2000FA80C55CDE4FF882CB53D140C65CDE4F16
:10FA30001882CA53D1408B81C82EDD24C65CDE4FAC
:10FA400008811981CA53D140C02AD12A1A828981DA
:10FA5000BE016D5F7F4F843121F59601C05EDE4FA0
:10FA6000E880F9800A811B81C052D1400BBFF701A9
:10FA700087919691DB018C9311969C936E5F7F4FDB
:10FA8000D801C7010296A11DB11DC05EDE4F88835B
:10FA90009983AA83BB83C052D14022503040F1F6F3
:10FAA00036C0C05EDE4F288139814A815B81C052F9
:10FAB000D1400894C108D108760100E010E0089414
:10FAC000C11CD11C0894E11CF11C011D111DE20E8A
:10FAD000F31E041F151F21BDBB27A52F942F832FB5
:10FAE00082BD2F5F3F4F4F4F5F4FF89A80B5DB01CC
:10FAF0008D93BD012E153F054007510761F7C05E8C
:10FB0000DE4F288339834A835B83C052D1409601FC
:10FB10002D5F3F4FFB01108204C080EC8A8322E0FE
:10FB200030E08BE18093C6008091C00086FFFCCF5F
:10FB30008091C00080648093C000C15DDE4FF88179
:10FB4000CF52D140F093C6008091C00086FFFCCF19
:10FB50008091C00080648093C000432F3093C60022
:10FB60008091C00086FFFCCF8091C00080648093AC
:10FB7000C000922F2093C6008091C00086FFFCCF6A
:10FB80008091C00080648093C0008EE08093C600A6
:10FB90008091C00086FFFCCF8091C000806480937C
:10FBA000C00065E1C15DDE4FE880CF52D1406E25D7
:10FBB00069276427FE01319610C090819093C6009A
:10FBC0008091C00086FFFCCF31968091C000806498
:10FBD0008093C0006927215030402115310569F715
:10FBE0006093C6008091C00086FFFCCF8091C0006A
:10FBF00080648093C00085B1805885B9772081F4F6
:10FC0000C15DDE4F0881CF52D1400F5FC15DDE4F35
:10FC10000883CF52D14090E0A0E0B0E00D941AF4F8
:10FC200027982F9880E090E020ED37E0F901319798
:10FC3000F1F7019684369105C9F700008091C00064
:10FC40008D7F8093C00081E180935700E895EE2777
:10FC5000FF270994FFCF90E00D941AF497FB092E2B
:10FC600007260AD077FD04D02ED006D000201AF443
:10FC7000709561957F4F0895F6F7909581959F4F08
:10FC80000895A1E21A2EAA1BBB1BFD010DC0AA1FDD
:10FC9000BB1FEE1FFF1FA217B307E407F50720F0F5
:10FCA000A21BB30BE40BF50B661F771F881F991F70
:10FCB0001A9469F760957095809590959B01AC01B9
:10FCC000BD01CF010895AA1BBB1B51E107C0AA1FAC
:10FCD000BB1FA617B70710F0A61BB70B881F991FED
:10FCE0005A95A9F780959095BC01CD010895F99991
:10FCF000FECF92BD81BDF89A992780B50895262F31
:10FD0000F999FECF1FBA92BD81BD20BD0FB6F89400
:0EFD1000FA9AF99A0FBE01960895F894FFCF63
:040000033000E000E9
:00000001FF