:1000000007C1000036C1000034C1000032C1000049
:1000100030C100002EC100002CC100002AC1000028
:1000200028C1000026C1000024C1000022C1000038
:1000300020C100001EC100001CC100001AC1000048
:1000400018C1000016C1000014C1000012C1000058
:1000500010C100000EC100000CC1000032C600003B
:1000600008C100006CC3000041C3000002C10000D1
:1000700000C10000FEC00000FCC00000FAC000008B
:10008000F8C00000F6C00000F4C00000F2C000009C
:10009000F0C00000EEC00000ECC0000063C600002D
:1000A000E8C00000E6C00000E4C00000E2C00000BC
:1000B000E0C00000DEC00000DCC00000DAC00000CC
:1000C000D8C00000D6C00000D4C00000D2C00000DC
:1000D000D0C00000CEC00000CCC00000CAC00000EC
:1000E000C8C000009F05A205910595059905D90591
:1000F000A605AA05B005B405B805BE05C205C60526
:10010000D905CC05D005D405000021002400270026
:100110002A002D0030003300010100000401070116
:100120000A0100002200250028002B002E003100CB
:10013000340002010000050108010B010505050559
:10014000070508080808020202020A0A080804044F
:10015000040401010101010101010303030303037D
:100160000303040707070C0C0C0C0C0C0C0C02020C
:10017000020206060606060606060B0B0B0B0B0B09
:100180000B0B010210202008081020401020408096
:10019000020102010804020101020408102040804B
:1001A00080402010080402018004020180402010D9
:1001B0000804020108040201010204081020408022
:1001C000010204081020408000000A0B02090C0DF7
:1001D0000E080703040100000000000000000000FA
:1001E000000000000000000000000000000000000F
:1001F00000000000121110000000000000000000CC
:100200000000000000000000000000000000C40921
:1002100011241FBECFEFD1E2DEBFCDBF00E00CBF87
:1002200013E0A0E0B2E0E8ECFFE100E00BBF02C0A9
:1002300007900D92A832B107D9F727E0A8E2B3E002
:1002400001C01D92AC3CB207E1F711E0C8E0D1E07B
:1002500000E006C021970109802FFE010E94D60F01
:10026000C730D10780E00807A9F70E94990A0C94CB
:10027000E20FC6CECF92DF92EF92FF920F931F93C1
:10028000CF93DF936C017A018B01C0E0D0E0CE15F3
:10029000DF0589F0D8016D918D01D601ED91FC91BA
:1002A0000190F081E02DC6011995892B11F47E0192
:1002B00002C02196ECCFC701DF91CF911F910F9122
:1002C000FF90EF90DF90CF90089589E793E09ED262
:1002D00021E0892B09F420E0822F0895EF92FF920C
:1002E0000F931F93CF93DF93EC0181E0888F9B8D59
:1002F0008C8D981305C0E889F989808185FD23C01C
:10030000F62E0B8D10E00F5F1F4F0F731127E02E9D
:100310008C8DE8120BC00FB607FCFACFE889F9897B
:10032000808185FFF5CFCE01BAD3F2CF8B8DFE0150
:10033000E80FF11DE35AFF4FF0820B8FEA89FB892A
:100340008081806207C0EE89FF896083E889F9892E
:1003500080818064808381E090E0DF91CF911F9164
:100360000F91FF90EF900895CF93DF93EC01888D6C
:100370008823C1F0EA89FB89808185FD05C0A889B1
:10038000B9898C9186FD0EC00FB607FCF5CF808130
:1003900085FFF2CFA889B9898C9185FFEDCFCE0179
:1003A0007ED3E8CFDF91CF910895009761F0FC01F3
:1003B00001900020E9F73197AF01481B590BBC01B0
:1003C00089E793E057CF80E090E008958F929F9265
:1003D000AF92BF920F931F93CF93DF93CDB7DEB74A
:1003E000A1970FB6F894DEBF0FBECDBF19A2423061
:1003F00008F44AE08E010F5D1F4F842E912CA12C32
:10040000B12CA50194010E94B40FE62FB901CA01D5
:1004100001501109EA3014F4E05D01C0E95CD80133
:10042000EC93232B242B252B61F7C801BEDFA1966B
:100430000FB6F894DEBF0FBECDBFDF91CF911F91F5
:100440000F91BF90AF909F908F900895AECF4F9235
:100450005F926F927F928F929F92AF92BF92CF9254
:10046000DF92EF92FF926B017C01B42E9B01AC01F5
:100470000E94B00F882319F08CEB92E027C0260170
:100480003701E89477F82FEF3FEF4FE75FE7C301BD
:10049000B2010E94B00F81110DC02FEF3FEF4FE767
:1004A0005FE7C301B2010E94AC0D18161CF480EC8A
:1004B00092E00CC02FEF3FEF4FE75FE4C701B601BA
:1004C0000E94490F18167CF484EC92E0FF90EF90A4
:1004D000DF90CF90BF90AF909F908F907F906F9064
:1004E0005F904F9062CF2FEF3FEF4FE75FECC70178
:1004F000B6010E94AC0D87FDE7CF20E030E0A901F6
:10050000C701B6010E94AC0D87FF11C0E0917903CD
:10051000F0917A030190F081E02D6DE289E793E09C
:1005200019954C01F7FAF094F7F8F09402C0812C79
:10053000912CA12C60E070E080E09FE3AB1441F0CF
:1005400020E030E040E251E40E94B00DA394F6CFE9
:100550009B01AC01C701B6010E94480D2B013C0173
:100560000E94180E6B017C010E94440E9B01AC019D
:10057000C301B2010E94470D2B013C014AE0C701B3
:10058000B60124DF7C01E80CF91CBB2069F0E09186
:100590007903F0917A030190F081E02D6EE289E712
:1005A00093E01995E80EF91EDB2CDD2019F120E00F
:1005B00030E040E251E4C301B2010E944D0F2B0133
:1005C0003C010E94180E4B01A12CB12C4AE0C50140
:1005D000B401FCDEE80EF91EC501B4010E94440E10
:1005E0009B01AC01C301B2010E94470D2B013C01EC
:1005F000DA94DBCFC701FF90EF90DF90CF90BF90F0
:10060000AF909F908F907F906F905F904F900895E4
:10061000CF93DF93EC01888191E0909378038093EE
:100620007703109276031092750389819A81DC0119
:10063000ED91FC910190F081E02D60E019958981A8
:100640009A81C1D48881909152039111FCCF91E09D
:1006500090935203909351032FEF209350031092E5
:100660004F0310924E0390934D0390914D03880FCA
:10067000892B80934D0380914C03813061F410925B
:100680004C0380914D038093BB008091BC0083FD9F
:10069000F8CF85EC01C085EE8093BC0080915203B9
:1006A0008130E1F380914F03811103C080914F03AA
:1006B00001C081E0ACE2B3E025E533E0F9019E2F13
:1006C000921B981718F49D919193F9CF10925403AF
:1006D0008093530389819A81DC01ED91FC9102841E
:1006E000F385E02D1995DF91CF9108951F920F9218
:1006F0000FB60F9211240BB60F922F933F934F9387
:100700005F936F937F938F939F93AF93BF93EF9379
:10071000FF9389E793E0C3D1FF91EF91BF91AF9130
:100720009F918F917F916F915F914F913F912F9109
:100730000F900BBE0F900FBE0F901F9018951F9239
:100740000F920FB60F9211240BB60F922F938F9327
:100750009F93EF93FF93E0918903F0918A03808147
:10076000E0918F03F091900382FD12C090818091FF
:1007700092038F5F8F7320919303821751F0E09162
:100780009203F0E0E758FC4F958F8093920301C0ED
:100790008081FF91EF919F918F912F910F900BBED0
:1007A0000F900FBE0F901F901895FC01538D448D34
:1007B000252F30E0842F90E0821B930B541710F00C
:1007C000CF96089501970895FC01918D828D981719
:1007D00061F0828DDF01A80FB11D5D968C91928D25
:1007E0009F5F9F73928F90E008958FEF9FEF089522
:1007F000FC01918D828D981731F0828DE80FF11DEB
:10080000858D90E008958FEF9FEF0895FC01918D05
:10081000228D892F90E0805C9F4F821B91098F73FE
:100820009927089580E090E0892B19F04EDD811121
:1008300025C080E090E0892B41F080E090E0892B9A
:1008400021F00E94000081111CC080E090E0892B03
:1008500041F080E090E0892B21F00E94000081119E
:1008600013C080E090E0892BA1F080E090E0892B1C
:1008700081F00E94000081110AC008950E940000CA
:10088000D8CF0E940000E1CF0E940000EACF0C9474
:1008900000000895863308F0865390917B00282F3E
:1008A0002870977F922B90937B0087708064809351
:1008B0007C0080917A00806480937A0080917A0035
:1008C00086FDFCCF809178002091790090E0922BFA
:1008D00008953FB7F8948091C8079091C907A091F7
:1008E000CA07B091CB0726B5A89B05C02F3F19F0CA
:1008F0000196A11DB11D3FBFBA2FA92F982F8827A0
:10090000820F911DA11DB11DBC01CD0142E0660FFA
:10091000771F881F991F4A95D1F7089585ED809319
:10092000BC008091BC0084FDFCCF1092520308955E
:100930004091A207262F30E0240F311D21323105CE
:10094000DCF4209152032430C9F4FC0180E090E0F3
:10095000861758F43091A2072191DC01A058B84FB6
:10096000A30FB11D2C930196F3CF8091A207680FBE
:100970006093A20780E0089581E0089582E00895E1
:100980000895E091540380915303E81730F4F0E0A8
:10099000EB5AFC4F808190E008958FEF9FEF089510
:1009A0009091540380915303981750F4E92FF0E08D
:1009B000EB5AFC4F208130E09F5F9093540302C0BC
:1009C0002FEF3FEFC90108958091530390E02091EC
:1009D0005403821B91090895CF92DF92EF92FF9208
:1009E0000F931F93CF93DF937C01262F972F8A01BC
:1009F00080917803882391F0C62FD72F6E01C40E03
:100A0000D51ECC15DD0569F06991D701ED91FC91FA
:100A10000190F081E02DC7011995F3CF642F822F4B
:100A200087DFC801DF91CF911F910F91FF90EF9069
:100A3000DF90CF900895CF93DF931F92CDB7DEB7AD
:100A40006983209178032223D1F02091750320320D
:100A500040F021E030E0FC013383228380E090E02D
:100A600014C080917603E82FF0E0E05AF84F9981A6
:100A700090838F5F809376038093750304C061E059
:100A8000CE01019655DF81E090E00F90DF91CF918C
:100A90000895089580E090E008950E94DE0FFC0123
:100AA000848DDF01A80FB11DA35ABF4F2C91848DF7
:100AB00090E001968F739927848FA689B7892C932C
:100AC000A089B1898C9180648C93938D848D9813C7
:100AD00006C00288F389E02D80818F7D8083089590
:100AE000362F90E0FC01E853FE4F4491FC01EE5795
:100AF000FE4F2491FC01E45CFE4F9491992309F48C
:100B00006BC0442309F455C050E0FA013197E2313B
:100B1000F10508F04EC08827EE58FF4F8F4F0C9418
:100B2000D60F809180008F7707C0809180008F7DE5
:100B300003C080918000877F809380003AC084B595
:100B40008F7702C084B58F7D84BD33C08091B000A3
:100B50008F7703C08091B0008F7D8093B00029C053
:100B6000809190008F7707C0809190008F7D03C0A7
:100B700080919000877F809390001BC08091A0009F
:100B80008F7707C08091A0008F7D03C08091A00067
:100B9000877F8093A0000DC0809120018F7707C0D0
:100BA000809120018F7D03C080912001877F8093F9
:100BB0002001E92FF0E0EE0FFF1FEE5DFE4FA59143
:100BC000B4918FB7F894EC91311103C020952E2386
:100BD00001C02E2B2C938FBF0895CF93DF9390E00D
:100BE000FC01EE57FE4F2491FC01E45CFE4F849122
:100BF000882361F190E0880F991FFC01E85FFE4FA8
:100C0000C591D491FC01EE5DFE4FA591B4916111A7
:100C100009C09FB7F8948881209582238883EC913E
:100C20002E230BC0623061F49FB7F8943881822F75
:100C3000809583238883EC912E2B2C939FBF06C035
:100C40008FB7F894E8812E2B28838FBFDF91CF9147
:100C500008958F929F92AF92BF92CF92DF92EF92C0
:100C6000FF926B017C0135DE4B015C01C114D104A4
:100C7000E104F104E9F02DDEDC01CB0188199909CA
:100C8000AA09BB09883E9340A105B10578F321E08C
:100C9000C21AD108E108F10888EE880E83E0981E98
:100CA000A11CB11CC114D104E104F10421F7DECF71
:100CB000FF90EF90DF90CF90BF90AF909F908F907C
:100CC00008951F920F920FB60F9211242F933F9306
:100CD0008F939F93AF93BF938091280390912903A3
:100CE000A0912A03B0912B033091C70723E0230F73
:100CF0002D3720F40196A11DB11D05C026E8230F54
:100D00000296A11DB11D2093C707809328039093DD
:100D10002903A0932A03B0932B038091C8079091D5
:100D2000C907A091CA07B091CB070196A11DB11DBB
:100D30008093C8079093C907A093CA07B093CB07C5
:100D4000BF91AF919F918F913F912F910F900FBEC7
:100D50000F901F901895DC01ED91FC910190F081AE
:100D6000E02D19941F920F920FB60F9211240BB61B
:100D70000F922F933F934F935F936F937F938F9334
:100D80009F93AF93BF93EF93FF938091B900887FB8
:100D9000803609F49CC068F5883209F45BC090F491
:100DA000803109F454C038F4882309F4F6C088303F
:100DB00009F44DC0F5C0883109F44CC0803209F403
:100DC0005DC0EEC0803409F468C048F4803309F493
:100DD00055C0883309F0E4C080935003D8C08035F3
:100DE00009F44FC0883509F45DC0883409F0D8C0D3
:100DF000D6C0883909F4C7C0A8F4883709F467C099
:100E000038F4883609F463C0803709F460C0C8C07C
:100E1000883809F4B8C0803909F45FC0803809F017
:100E2000BFC05BC0803B09F486C038F4803A09F447
:100E300066C0883A09F47FC0B3C0803C09F4A7C0FB
:100E4000883C09F4A4C0883B09F48AC0A9C08091F9
:100E50004D0310C090914F0380914E03981770F589
:100E6000E0914F0381E08E0F80934F03F0E0E45D4B
:100E7000FC4F80818093BB0085EC86C0809350033B
:100E80008EC0E0914F0381E08E0F80934F038091DD
:100E9000BB00F0E0E45DFC4F808390914F038091B4
:100EA0004E036EC0E0914F0381E08E0F80934F039D
:100EB0008091BB00F0E0E45DFC4F808380915103A2
:100EC00081116DC081E080934C0384EA61C083E0AE
:100ED000809352031092C607CFCF8091C60780320D
:100EE00008F051C0E091C60781E08E0F8093C607DD
:100EF0008091BB00F0E0EA55F84F8083BDCF85ECD0
:100F00008093BC00109252038091C607803230F467
:100F1000E091C607F0E0EA55F84F10826091C607ED
:100F200070E0E091A407F091A50786EA97E0199593
:100F30001092C60735C084E0809352031092A30735
:100F40001092A207E091A007F091A1071995809156
:100F5000A207811105C081E08093A207109280074B
:100F6000E091A30781E08E0F8093A307F0E0E058A3
:100F7000F84F80818093BB009091A3078091A207D6
:100F8000981708F479CF85E88093BC0009C085ECF8
:100F90008093BC001092520303C010925003BEDC39
:100FA000FF91EF91BF91AF919F918F917F916F9141
:100FB0005F914F913F912F910F900BBE0F900FBEFD
:100FC0000F901F901895209175039091770321320F
:100FD00008F04AC0809152038111FCCF32E0309377
:100FE000520331E0309351033FEF3093500310929E
:100FF0004F0320934E03A0E6B7E04CE253E0FA0122
:101000003E2F341B321718F43D913193F9CF1092D3
:101010004D0320914D03990F922B90934D03909186
:101020004C03913061F410924C0390914D039093D6
:10103000BB009091BC0093FDF8CF95EC01C095EEFC
:101040009093BC00909152039230E1F39091500341
:101050009F3F79F080915003803241F0809150039E
:10106000803331F084E005C081E003C082E001C03C
:1010700083E010927603109275031092780308951E
:10108000FC01248131E030937803209377031092A0
:101090007603109275038385682B86E194E0CBDCA0
:1010A00086E194E090CF0F931F93CF938C01C62FCE
:1010B0006460E6DF6C2F6B7FC801E2DF83EC90E0B9
:1010C0000197F1F7CF911F910F9108950F931F93FF
:1010D000CF93DF938C01C62FD62FD07FD1606D2F99
:1010E000CFDF6D2FC801DFDF80E1C89FB001112481
:1010F000C62FC1606C2FC801C3DF6C2FC801D3DFBE
:1011000081E090E0DF91CF911F910F9108950F93AF
:101110001F93CF93DF931F92CDB7DEB78C01DC0115
:101120008C9191E0909378038093770310927603EB
:101130001092750311968D919C911297DC01ED919F
:10114000FC910190F081E02D49831995F80181818E
:101150009281DC01ED91FC910190F081E02D4981BB
:10116000642F1995F801818192810F90DF91CF91C1
:101170001F910F9128CFCF92DF92EF92FF920F93A2
:101180001F93CF93DF93EC016A017B018BED92E01B
:101190005DD942E0C701B6015AD988EC92E005D981
:1011A00026E636E646E65FE3C701B60176D69B0142
:1011B000AC0160E27CEB8EEB95E4D2D420E030E031
:1011C00040E85FE364D46B017C0183EF92E03ED999
:1011D00042E0C701B6013BD988EC92E0E6D820E0B6
:1011E00030E040E05FE3C701B60152D48AD520D594
:1011F000062F89E093E02AD9602F70E080E090E02C
:101200004AE0E4D888EC92E0D0D8CE0101DA182F79
:101210008F76482F406160E0CE0179DF402F6EEF7E
:10122000CE0175DF412F60E0CE0171DF65E070E037
:1012300080E090E00EDD412F406A60E0CE0167DF84
:101240008BE193E003D9CE01E3D9682F70E080E011
:1012500090E040E1BBD888EC92E0DF91CF911F9104
:101260000F91FF90EF90DF90CF909FC88F929F9249
:10127000AF92BF92CF92DF92EF92FF920F931F93A4
:10128000CF93DF938C016A017B0180915E0790917F
:101290005F07D80112962D913C91139782179307FF
:1012A000D9F0880F991FFC01EC54FD4F61E080815B
:1012B00017DCD8011296ED91FC911397EE0FFF1FEA
:1012C000EC54FD4F60E080810BDCF801828193815A
:1012D00090935F0780935E07D801CD91DC9183E006
:1012E000CC0FDD1F8A95E1F7C05DDD4F68818091ED
:1012F0002204F6DB6A8180912404F2DB6C81809108
:101300002604EEDB6E8180912804EADBD801129678
:10131000ED91FC911397E055FD4F8081BBDACAE057
:10132000812C912C5401D8011296ED91FC911397C8
:10133000E055FD4F8081AEDABC01990F880B990B07
:10134000A5D49B01AC01C501B401A2D34B015C0142
:10135000C15049F720E030E040E251E401D4A70158
:1013600096019BD52AE038E240EA5BE396D5DF910F
:10137000CF911F910F91FF90EF90DF90CF90BF9092
:10138000AF909F908F900895CF93DF9310927C033E
:1013900010927B0388EE93E0A0E0B0E080937D03A1
:1013A00090937E03A0937F03B093800324E032E008
:1013B00030937A032093790325EC30E03093860351
:1013C0002093850324EC30E0309388032093870337
:1013D00020EC30E030938A032093890321EC30E045
:1013E00030938C0320938B0322EC30E030938E03F8
:1013F00020938D0326EC30E03093900320938F03ED
:1014000010929203109293031092940310929503FA
:10141000C6E1D4E0109219041092180480931A04C3
:1014200090931B04A0931C04B0931D0486E192E0EA
:101430009093170480931604109255071092540746
:1014400088E292E090935307809352078FE3809352
:10145000560780E180935B0782E080935C071092DF
:101460005D0761E08AE2B9DB61E08CE2B6DB61E056
:101470008EE2B3DB61E080E3B0DB8AE290E0909340
:101480002304809322048CE290E0909325048093BF
:1014900024048EE290E0909327048093260480E356
:1014A00090E0909329048093280480E480934C0773
:1014B000D0934E07C0934D0781E480934F07D0939C
:1014C0005107C0935007ECE2F4E080E090E0AAE717
:1014D000B4E4118210821382128215821482178260
:1014E0001682118610861386128615861486178634
:1014F0001686108A118A128A138A148A158A168A05
:10150000178A108E118E128E138E148E158E168ED3
:10151000178E80A391A3A2A3B3A314A215A216A20F
:1015200017A2B89627E0EC34F20799F6DF91CF9135
:101530000895789484B5826084BD84B5816084BD4B
:1015400085B5826085BD85B5816085BD80916E0061
:10155000816080936E001092810080918100826092
:1015600080938100809181008160809381008091CF
:1015700080008160809380008091B10084608093BE
:10158000B1008091B00081608093B00080919100A3
:10159000826080939100809191008160809391009E
:1015A000809190008160809390008091A100826082
:1015B0008093A1008091A10081608093A10080911F
:1015C000A00081608093A0008091210182608093BF
:1015D000210180912101816080932101809120016E
:1015E00081608093200180917A00846080937A00EA
:1015F00080917A00826080937A0080917A00816085
:1016000080937A0080917A00806880937A001092AB
:10161000C100E0918903F0918A0382E08083E09128
:101620008503F09186031082E0918703F09188038F
:101630008FEC808310929103E0918D03F0918E03E3
:1016400086E08083E0918B03F0918C038081806140
:101650008083E0918B03F0918C038081886080838C
:10166000E0918B03F0918C03808180688083E0910E
:101670008B03F0918C0380818F7D8083ECE2F4E01A
:1016800040E050E080E090E0A9E0B0E061E070E090
:1016900025E030E0C12CD12CCAE7EC2EC4E4FC2EAE
:1016A00000EA1FE0118210821382128215821482D6
:1016B0001782168211861086138612861586148666
:1016C000108A118A128A138A148A158A168A178A2E
:1016D000108E118E128E138E148E158E168E178EFE
:1016E000C0A2D1A2E2A2F3A214A215A216A217A22E
:1016F000178706872031310524F06F5F7F4F20E088
:1017000030E0E90121963183208373836283A03125
:10171000B10514F49D0102C020E030E0D90111961A
:10172000358324838031910524F04F5F5F4F80E043
:1017300090E09C012F5F3F4F9187808757834683BE
:10174000B89687E0EC34F80719F0C9019E01AACFDA
:1017500010925D0760E082E597E092DC60E087E34D
:101760003CDA60E088E339DA60E089E336DA60E0A9
:101770008AE333DA61E08BE230DA61E08DE22DDA80
:1017800061E08FE22ADA61E081E327DA61E08AE250
:1017900024DA61E08CE221DA61E08EE21EDA61E0B7
:1017A00080E31BDA60E08AE29BD960E08CE298D9A2
:1017B00060E08EE295D960E080E392D960E08BE250
:1017C0008FD960E08DE28CD960E08FE289D960E04A
:1017D00081E386D960E086E300DACCE4D7E0FF2439
:1017E000F39408E415E410925403109253031092FA
:1017F00076031092750310925203F09251031092E7
:101800004C0361E084E16CD961E085E169D98091A4
:10181000B9008E7F8093B9008091B9008D7F80934D
:10182000B9000093B8001093BC0040E860E0CE011E
:101830006EDC6AE070E080E090E00BDA40E050E0BF
:101840006AE774E4CE0197DC40E050E068EC74E4B1
:10185000CE0191DC2396A7E0C235DA0709F0C3CFA9
:10186000BB24B394CCE2D4E040E050E060E070E40C
:10187000CE01FCDC688F798F8A8F9B8FA896B7E0AA
:10188000CC34DB0789F7C0E3D4E040E050E060E807
:101890007FE3CE01EBDC688F798F8A8F9B8FA896D0
:1018A000E7E0C035DE0789F7C4E3D4E08C819D8191
:1018B000049709F03CC020E030E04AE754E46C892A
:1018C0007D898E899F89E9D22B013C018FB7F894DD
:1018D000C0902803D0902903E0902A03F0902B03B6
:1018E0008FBF8C8D9D8DAE8DBF8DA7019601281B5E
:1018F000390B4A0B5B0BCA01B901C6D19B01AC0184
:10190000C301B201CAD220E03AEB4BE55AE428D138
:101910009B01AC01688579858A859B85B9D06887EC
:1019200079878A879B87CC8EDD8EEE8EFF8E20E0B6
:1019300030E04AE754E46C897D898E899F89ADD275
:101940006B017C01488C598C6A8C7B8CA3019201C1
:1019500003D187FF08C08E819F818F3F3FE09307AF
:1019600010F401960EC0A3019201C701B60191D2F5
:1019700018160CF074C08E819F81009709F46FC017
:1019800001979F838E83CE80DF80E880F9800A8173
:101990001B818BEC92E00E9426026E2D70E080E0AD
:1019A00090E04AE00E94E60186E093E00E94260271
:1019B0004AE060E070E0CB010E94E60188ED92E031
:1019C0000E942602B60180E090E04AE00E94E60113
:1019D00088EC92E00E94D501C801880F991F080F7A
:1019E000191F045B184FD8018C91B0927803809333
:1019F0007703109276031092750311968D919C9146
:101A00001297DC01ED91FC91FF24EE0CFF1CEE0C13
:101A1000FF1CB7016A5F7F4F0190F081E02D19959F
:101A200060E070E0F8018181928195D960E070E01A
:101A3000D80111968D919C9112978DD9B601F8011C
:101A40008181928188D96D2D70E0D80111968D9198
:101A50009C91129780D9F80181819281B4DA6C89C6
:101A60007D898E899F8942E00E94270287E093E06A
:101A70000E942602A89647E0C435D40709F016CF85
:101A800088EC92E00E94D5010E941204EBCE5058DF
:101A9000BB27AA270ED0ACC19DD130F0A2D120F037
:101AA00031F49F3F11F41EF492C10EF4E095E7FB70
:101AB0005FC1E92FAED180F3BA17620773078407BD
:101AC000950718F071F49EF5DDC10EF4E0950B2E2C
:101AD000BA2FA02D0B01B90190010C01CA01A00180
:101AE0001124FF27591B99F0593F50F4503E68F1DB
:101AF0001A16F040A22F232F342F4427585FF3CF1C
:101B0000469537952795A795F0405395C9F77EF4EC
:101B10001F16BA0B620B730B840BBAF09150A1F035
:101B2000FF0FBB1F661F771F881FC2F70EC0BA0FBB
:101B3000621F731F841F48F4879577956795B79543
:101B4000F7959E3F08F0B3CF9395880F08F099273B
:101B5000EE0F979587950895E7D008F481E00895F2
:101B60000CD046C13ED140F035D130F021F45F3F7A
:101B700019F0FEC0511187C12AC14BD198F39923A6
:101B8000C9F35523B1F3951B550BBB27AA27621741
:101B90007307840738F09F5F5F4F220F331F441F86
:101BA000AA1FA9F333D00E2E3AF0E0E830D09150BE
:101BB0005040E695001CCAF729D0FE2F27D0660FAB
:101BC000771F881FBB1F261737074807AB07B0E8EA
:101BD00009F0BB0B802DBF01FF2793585F4F2AF000
:101BE0009E3F510568F0C4C04EC15F3FECF3983E84
:101BF000DCF3869577956795B795F7959F5FC9F75D
:101C0000880F911D9695879597F90895E1E0660FE5
:101C1000771F881FBB1F621773078407BA0720F05E
:101C2000621B730B840BBA0BEE1F88F7E0950895C7
:101C3000F8D088F09F5790F0B92F9927B751A0F0AE
:101C4000D1F0660F771F881F991F1AF0BA95C9F750
:101C500012C0B13081F016D1B1E0089513C1672FE1
:101C6000782F8827B85F39F0B93FCCF38695779500
:101C70006795B395D9F73EF49095809570956195E9
:101C80007F4F8F4F9F4F0895E89409C097FB3EF414
:101C900090958095709561957F4F8F4F9F4F9923B9
:101CA000A9F0F92F96E9BB279395F6958795779537
:101CB0006795B795F111F8CFFAF4BB0F11F460FFF7
:101CC0001BC06F5F7F4F8F4F9F4F16C0882311F04F
:101CD00096E911C0772321F09EE8872F762F05C063
:101CE000662371F096E8862F70E060E02AF09A95FE
:101CF000660F771F881FDAF7880F9695879597F9F3
:101D00000895A9D080F09F3740F491110EF0BBC028
:101D100060E070E080E89FEB089526F41B16611DDB
:101D2000711D811D2BC045C0990F0008550FAA0BCE
:101D3000E0E8FEEF16161706E807F907C0F01216DE
:101D40001306E407F50798F0621B730B840B950BE1
:101D500039F40A2661F0232B242B252B21F4089536
:101D60000A2609F4A140A6958FEF811D811D0895D3
:101D700097F99F6780E870E060E00895882371F428
:101D8000772321F09850872B762F07C0662311F414
:101D900099270DC09051862B70E060E02AF09A954B
:101DA000660F771F881FDAF7880F9695879597F942
:101DB00008959F3F31F0915020F48795779567956E
:101DC000B795880F911D9695879597F908959FEF80
:101DD00080EC089500240A941616170618060906C2
:101DE000089500240A941216130614060506089591
:101DF000092E0394000C11F4882352F0BB0F40F419
:101E0000BF2B11F460FF04C06F5F7F4F8F4F9F4F58
:101E1000089557FD9058440F551F59F05F3F71F0DA
:101E20004795880F97FB991F61F09F3F79F0879541
:101E30000895121613061406551FF2CF4695F1DFCA
:101E400008C0161617061806991FF1CF869571055A
:101E5000610508940895E5DFA0F0BEE7B91788F49E
:101E6000BB279F3860F41616B11D672F782F88277F
:101E7000985FF7CF869577956795B11D93959639BD
:101E8000C8F30895E894BB2766277727CB0197F915
:101E900008954ADF08F48FEF08950BD0A9CF9ADF99
:101EA00028F09FDF18F0952309F062CF90CF11241E
:101EB000EACFAFDFA0F3959FD1F3950F50E0551F08
:101EC000629FF001729FBB27F00DB11D639FAA278F
:101ED000F00DB11DAA1F649F6627B00DA11D661FDE
:101EE000829F2227B00DA11D621F739FB00DA11DFF
:101EF000621F839FA00D611D221F749F3327A00DB9
:101F0000611D231F849F600D211D822F762F6A2F54
:101F100011249F5750408AF0E1F088234AF0EE0FD9
:101F2000FF1FBB1F661F771F881F91505040A9F7E6
:101F30009E3F510570F01CCFA6CF5F3FECF3983E5B
:101F4000DCF3869577956795B795F795E7959F5F4D
:101F5000C1F7FE2B880F911D9695879597F90895E7
:101F6000E3DE880B990B0895A1E21A2EAA1BBB1B76
:101F7000FD010DC0AA1FBB1FEE1FFF1FA217B30755
:101F8000E407F50720F0A21BB30BE40BF50B661F6B
:101F9000771F881F991F1A9469F76095709580952F
:101FA00090959B01AC01BD01CF010895EE0FFF1F7D
:101FB000881F8BBF0790F691E02D199481E090E087
:081FC000F89400C0F894FFCF73
:101FC800000000006E013A01D503B4010604E403E1
:101FD800F803000000001B05EC044A05C004E404F3
:101FE800D004C1040000000066083A014A0549050A
:101FF80000000000000000000100000000000000D8
:1020080000000100000000000100010000000000C5
:1020180000000000010000000100000001000000B5
:1020280000000100010000000100010001000000A3
:102038000000000000000100010000000000010095
:102048000000010000000100010001000000010083
:102058000000000001000100010000000100010073
:102068000000010001000100010001000100010061
:102078003738393A2B002D002F0031006E616E0081
:10208800696E66006F7666000D0A005365747469A0
:102098006E672050574D20002D3E00417474656DC9
:1020A8007074696E6720746F20736574206672653A
:1020B800712000457374696D617465642070726580
:1020C8002D7363616C653A200046696E616C2070FF
:1020D80072652D7363616C653A20004D6F646520ED
:0820E8006E6F772030780000D4
:020000023000CC
:10E000000D9489F10D94B2F10D94B2F10D94B2F129
:10E010000D94B2F10D94B2F10D94B2F10D94B2F1F0
:10E020000D94B2F10D94B2F10D94B2F10D94B2F1E0
:10E030000D94B2F10D94B2F10D94B2F10D94B2F1D0
:10E040000D94B2F10D94B2F10D94B2F10D94B2F1C0
:10E050000D94B2F10D94B2F10D94B2F10D94B2F1B0
:10E060000D94B2F10D94B2F10D94B2F10D94B2F1A0
:10E070000D94B2F10D94B2F10D94B2F10D94B2F190
:10E080000D94B2F10D94B2F10D94B2F10D94B2F180
:10E090000D94B2F10D94B2F10D94B2F10D94B2F170
:10E0A0000D94B2F10D94B2F10D94B2F10D94B2F160
:10E0B0000D94B2F10D94B2F10D94B2F10D94B2F150
:10E0C0000D94B2F10D94B2F10D94B2F10D94B2F140
:10E0D0000D94B2F10D94B2F10D94B2F10D94B2F130
:10E0E0000D94B2F141546D656761323536300041AF
:10E0F000726475696E6F206578706C6F72657220DE
:10E1000073746B3530305632206279204D4C530099
:10E11000426F6F746C6F616465723E004875683F52
:10E1200000436F6D70696C6564206F6E203D200048
:10E130004350552054797065202020203D20005FF9
:10E140005F4156525F415243485F5F3D2000415658
:10E1500052204C696243205665723D20004743437C
:10E160002056657273696F6E203D20004350552024
:10E1700049442020202020203D20004C6F7720663D
:10E18000757365202020203D20004869676820665F
:10E190007573652020203D200045787420667573D6
:10E1A00065202020203D20004C6F636B2066757336
:10E1B000652020203D20004D617220203720323024
:10E1C000313300312E362E3800342E332E350056A2
:10E1D00023202020414444522020206F7020636F70
:10E1E00064652020202020696E73747275637469E1
:10E1F0006F6E2061646472202020496E74657272B3
:10E20000757074006E6F20766563746F7200726A49
:10E210006D702020006A6D70200057686174207056
:10E220006F72743A00506F7274206E6F7420737541
:10E2300070706F72746564004D7573742062652030
:10E2400061206C6574746572002000577269747483
:10E25000696E672045450052656164696E672045B7
:10E26000450045452065727220636E743D00504F35
:10E27000525400303D5A65726F2061646472003FF1
:10E280003D43505520737461747300403D454550C3
:10E29000524F4D207465737400423D426C696E6B41
:10E2A000204C454400453D44756D70204545505215
:10E2B0004F4D00463D44756D7020464C415348001B
:10E2C000483D48656C70004C3D4C69737420492F83
:10E2D0004F20506F72747300513D51756974005234
:10E2E0003D44756D702052414D00563D73686F7707
:10E2F00020696E7465727275707420566563746FF0
:10E30000727300593D506F727420626C696E6B00BD
:10E310002A0011241FBECFEFD1E2DEBFCDBF01E046
:10E320000CBF12E0A0E0B2E0EEE1FDEF03E00BBFB6
:10E3300002C007900D92A030B107D9F712E0A0E01B
:10E34000B2E001C01D92AE30B107E1F70F9460F367
:10E350000D948DFE01E20EBF0FEF0DBF11241FBE05
:10E360000D9460F30D9400F020E030E040ED57E0B4
:10E3700005C0FA013197F1F72F5F3F4F2817390792
:10E38000C0F308959C01260F311DC901A0E0B0E043
:10E390002F5F3F4FABBFFC018791882361F08093D3
:10E3A000C6008091C00086FFFCCF8091C0008064D1
:10E3B0008093C000EACF08958DE08093C6008091DD
:10E3C000C00086FFFCCF8091C00080648093C000B5
:10E3D0008AE08093C6008091C00086FFFCCF8091C8
:10E3E000C00080648093C00008950F94C2F10F9420
:10E3F000DCF10895FC019081992359F09093C600B7
:10E400008091C00086FFFCCF8091C0008064809323
:10E41000C0003196992379F70895282F982F929567
:10E420009F70892F805D8A3308F0895F8093C600D2
:10E430008091C00086FFFCCF8091C00080648093F3
:10E44000C000822F8F70982F905D9A3308F0995FEB
:10E450009093C6008091C00086FFFCCF8091C000E1
:10E4600080648093C00008959C01FB01853691056E
:10E470001CF46330710594F0C90164E670E00F94F8
:10E480002EFE605D7F4F6093C6008091C00086FFC6
:10E49000FCCF8091C00080648093C0002B30310598
:10E4A00014F43297B4F0C90164E670E00F942EFEC4
:10E4B0006AE070E00F942EFE605D7F4F6093C600AF
:10E4C0008091C00086FFFCCF8091C0008064809363
:10E4D000C000C9016AE070E00F942EFEC0968093E0
:10E4E000C6008091C00086FFFCCF8091C000806490
:10E4F0008093C00008951F93182F8EE692EE60E07F
:10E500000F94C2F11093C6008091C00086FFFCCF2B
:10E510008091C00080648093C0000F94DCF11F9153
:10E5200008952F923F924F925F926F927F928F92B7
:10E530009F92AF92BF92CF92DF92EF92FF920F9392
:10E540001F93DF93CF93CDB7DEB762970FB6F894E2
:10E55000DEBF0FBECDBF382E622ECA01DB015C01CB
:10E560006D01772420E2222E2E010894411C511CBB
:10E570008BC081E0A81680E0B80681E0C80680E084
:10E58000D80628F0C601AA27BB270F940DF2BB2797
:10E59000AD2D9C2D8B2D0F940DF28A2D0F940DF225
:10E5A0002092C6008091C00086FFFCCF8091C00001
:10E5B00080648093C0009DE29093C6008091C0006B
:10E5C00086FFFCCF8091C00080648093C0002092C1
:10E5D000C6008091C00086FFFCCF8091C00080649F
:10E5E0008093C00019828601750188249924A1E0D6
:10E5F0003A1651F03A1620F0B2E03B1661F409C029
:10E600000BBFF701779007C0C7010F9477FE782EF4
:10E6100002C0F7017080872D0F940DF22092C60082
:10E620008091C00086FFFCCF8091C0008064809301
:10E63000C000872D8052F401EF70F0708F3520F408
:10E64000E40DF51D708204C0E40DF51D8EE280839B
:10E650000894E11CF11C011D111D0894811C911CE2
:10E6600090E18916910409F0C2CF80E190E0A0E02A
:10E67000B0E0A80EB91ECA1EDB1E198AC2010F9493
:10E68000FAF10F94DCF16A94662009F072CF629679
:10E690000FB6F894DEBF0FBECDBFCF91DF911F91B3
:10E6A0000F91FF90EF90DF90CF90BF90AF909F9031
:10E6B0008F907F906F905F904F903F902F90089534
:10E6C0002F923F924F925F926F927F928F929F9282
:10E6D000AF92BF92CF92DF92EF92FF920F931F9370
:10E6E000DF93CF93CDB7DEB7CD53D1400FB6F894BB
:10E6F000DEBF0FBECDBF01E20EBF0FEF0DBF94B75F
:10E70000F894A89514BE80916000886180936000A1
:10E7100010926000789493FF05C0E0910002F091A0
:10E7200001021995279A2F9A8091C00082608093E8
:10E73000C00080E18093C40088E18093C1000000A4
:10E74000EE24FF24870144E0A42EB12CCC24DD2448
:10E7500024C0C5010197F1F70894E11CF11C011DCB
:10E76000111D21E2E2162EE4F20620E0020720E06D
:10E77000120718F031E0C32ED12CC801B70127ECE5
:10E780003BE140E050E00F9441FE611571058105C9
:10E79000910519F485B1805885B98091C00087FD35
:10E7A00003C0C114D104A9F2A6014F5F5F4FC25E3E
:10E7B000DE4F59834883CE51D140C25EDE4F8881FF
:10E7C0009981CE51D140019711F00D9410FEC05D9A
:10E7D000DE4F19821882C053D14060E0C15DDE4F28
:10E7E0001882CF52D14088249924C35DDE4F19820C
:10E7F0001882CD52D140C05EDE4F188219821A8233
:10E800001B82C052D140CE5CDE4F188219821A8220
:10E810001B82C253D140EE24FF2487010BBFF701B6
:10E8200007911691C45CDE4F19830883CC53D14005
:10E830000D940BFEC25EDE4F28813981CE51D1404E
:10E840002130310509F52091C600C25EDE4F1982E4
:10E850001882CE51D14022C02F5F3F4F4F4F5F4FA4
:10E86000213082E138078AE7480780E0580780F0C6
:10E87000C45CDE4FE881F981CC53D140EF5FFF4F9C
:10E8800019F0EE27FF27099420E030E040E050E047
:10E890008091C00087FFE0CF2091C600C35DDE4FAE
:10E8A00048815981CD52D1404F5F5F4FC35DDE4FEC
:10E8B00059834883CD52D140213209F063C64A3092
:10E8C000510508F05FC60894811C911C53E0851621
:10E8D000910409F059C600E010E018C081E280936D
:10E8E000C6008091C00086FFFCCF8091C00080648C
:10E8F0008093C0002F5F3F4F2931310579F70F9486
:10E90000DCF10F5F1F4F0530110519F020E030E0FA
:10E91000E5CF10920A0210920B0210920C02109294
:10E920000D02109206021092070210920802109235
:10E930000902109202021092030210920402109235
:10E9400005028FEE90EE60E00F94F5F180E191EE1C
:10E9500060E00F94C2F18091C00087FFFCCF9091DE
:10E96000C600903608F09F759032B8F09093C600BC
:10E970008091C00086FFFCCF8091C00080648093AE
:10E98000C000A0E2A093C6008091C00086FFFCCF2B
:10E990008091C00080648093C000983409F4D7C18E
:10E9A0009934B8F4923409F459C1933458F490333B
:10E9B00019F1903308F4E3C59F33A1F1903409F0C5
:10E9C000DEC5BDC0953409F470C1963409F0D7C5D1
:10E9D00098C1923509F42BC2933538F49C3409F46C
:10E9E000F5C1913509F0CBC518C2963509F445C279
:10E9F000993509F0C4C567C483E792EE62E00F94CD
:10EA0000F5F110920602109207021092080210927D
:10EA1000090210920A0210920B0210920C0210923C
:10EA20000D0213C18FE792EE62E00F94F5F18FEEC5
:10EA300090EE60E00F94F5F181E291EE60E00F94CA
:10EA4000C2F187EB91EE60E00F94F5F180E391EE77
:10EA500060E00F94C2F184EE90EE60E00F94F5F167
:10EA60008FE391EE60E00F94C2F186E090E061E008
:10EA700070E00F9434F20F94DCF18DE591EE60E0DC
:10EA80000F94C2F189EC91EE60E00F94F5F18EE401
:10EA900091EE60E00F94C2F183EC91EE60E00F9490
:10EAA000F5F18CE691EE60E00F94C2F18EE10F94E7
:10EAB0000DF288E90F940DF281E00F940DF20F949E
:10EAC000DCF18BE791EE60E00F94C2F119E0E0E039
:10EAD000F0E010935700E4918E2F0F940DF20F94F5
:10EAE000DCF18AE891EE60E00F94C2F1E3E0F0E03F
:10EAF00010935700E4918E2F0F940DF20F94DCF1D8
:10EB000089E991EE60E00F94C2F1E2E0F0E0109349
:10EB10005700E4918E2F0F940DF20F94DCF188EAE8
:10EB200091EE60E00F94C2F1E1E0F0E01093570045
:10EB30001491812F0F940DF20F94DCF107CF8BE825
:10EB400092EE62E00F94F5F18BE492EE60E00F94A8
:10EB5000F5F10F94DCF100E010E019C0C8016F2D51
:10EB60000F947FFEFF2031F489E492EE60E00F9471
:10EB7000C2F10BC0F092C6008091C00086FFFCCFAE
:10EB80008091C00080648093C0000F5F1F4FC80158
:10EB900081519F41A0E0B0E0ABBFFC01F790BAE229
:10EBA000FB1621F0E2E000301E07C1F60F94DCF105
:10EBB0000F94DCF187E592EE60E00F94F5F10F948D
:10EBC000DCF1CC24DD2400E010E01EC0C8010F946D
:10EBD00077FEF82E882331F489E492EE60E00F94FA
:10EBE000C2F10BC08093C6008091C00086FFFCCFAD
:10EBF0008091C00080648093C000FE1419F00894D6
:10EC0000C11CD11C0F5F1F4FC80181519F41A0E063
:10EC1000B0E0ABBFFC01E790FAE2EF1621F022E092
:10EC20000030120799F60F94DCF10F94DCF182E6C4
:10EC300092EE60E00F94C2F1C60161E070E00F94C3
:10EC400034F20F94DCF10F94DCF110920202109276
:10EC50000302109204021092050278CE89E992EE26
:10EC600062E00F94F5F1279A2F9A16C02F9880E052
:10EC700090E0E0EDF7E03197F1F7019684369105E9
:10EC8000C1F72F9A80E090E0E0EDF7E03197F1F7DF
:10EC9000019684369105C1F78091C00087FFE6CFC9
:10ECA0008091C00087FFFCCF64C485EA92EE62E0E9
:10ECB0000F94F5F140910202509103026091040219
:10ECC0007091050281E020E10F9491F2809102029F
:10ECD00090910302A0910402B091050280509F4FD1
:10ECE000AF4FBF4F8093020290930302A0930402A0
:10ECF000B093050280509041A040B04008F426CE69
:10ED0000A4CF83EB92EE62E00F94F5F140910602FE
:10ED100050910702609108027091090280E020E1A1
:10ED20000F9491F28091060290910702A09108023F
:10ED3000B091090280509F4FAF4FBF4F80930602A2
:10ED400090930702A0930802B0930902FFCD80ECD4
:10ED500092EE62E00F94F5F183E792EE60E00F949B
:10ED6000F5F18FE792EE60E00F94F5F18BE892EE0B
:10ED700060E00F94F5F189E992EE60E00F94F5F10F
:10ED800085EA92EE60E00F94F5F183EB92EE60E09D
:10ED90000F94F5F180EC92EE60E00F94F5F187ECC2
:10EDA00092EE60E00F94F5F188ED92EE60E00F9442
:10EDB000F5F18FED92EE60E00F94F5F18AEE92EEB0
:10EDC00060E00F94F5F183E093EEBDCD87EC92EE19
:10EDD00062E00F94F5F181E40F947BF282E40F94EA
:10EDE0007BF283E40F947BF284E40F947BF285E45E
:10EDF0000F947BF286E40F947BF287E40F947BF20E
:10EE000088E40F947BF28AE40F947BF28BE40F94F6
:10EE10007BF28CE40F947BF299CD88ED92EE62E068
:10EE20000F94F5F1772473948824992409C48FED05
:10EE300092EE62E00F94F5F140910A0250910B02BC
:10EE400060910C0270910D0282E020E10F9491F22A
:10EE500080910A0290910B02A0910C02B0910D02D8
:10EE600080509F4FAF4FBF4F80930A0290930B0289
:10EE7000A0930C02B0930D0269CD8AEE92EE62E08F
:10EE80000F94F5F184EE90EE60E00F94F5F18FECC5
:10EE900091EE60E00F94F5F1662477244301CC5D98
:10EEA000DE4F19821882C452D140D401C301B695F5
:10EEB000A79597958795CA5DDE4F88839983AA8326
:10EEC000BB83C652D140CC5DDE4FA881B981C4520C
:10EED000D1401196CC5DDE4FB983A883C452D14096
:10EEE000CD0162E070E00F9434F2B0E2B093C6005E
:10EEF0008091C00086FFFCCF8091C0008064809329
:10EF0000C000EDE2E093C6008091C00086FFFCCF18
:10EF10008091C00080648093C000F0E2F093C6004E
:10EF20008091C00086FFFCCF8091C00080648093F8
:10EF3000C000CA5DDE4FE880F9800A811B81C6529D
:10EF4000D140BB27A12F902F8F2D0F940DF2CA5DBA
:10EF5000DE4F8881C652D1400F940DF2B0E2FB2EF5
:10EF6000F092C6008091C00086FFFCCF8091C00067
:10EF700080648093C0000DE30093C6008091C000C0
:10EF800086FFFCCF8091C00080648093C00010E2B7
:10EF90001093C6008091C00086FFFCCF8091C00016
:10EFA00080648093C0008BBEF3012791C65DDE4F65
:10EFB0002883CA52D140A22EBB24CC24DD2408943D
:10EFC000611C711C811C911C8BBEF3018791282E42
:10EFD0003324442455240894611C711C811C911C09
:10EFE0008BBEF3013791C55DDE4F3883CB52D140E4
:10EFF0000894611C711C811C911C8BBEF30147910C
:10F00000C45DDE4F4883CC52D140ADEFEA2EAFEF66
:10F01000FA2EAFEF0A2FAFEF1A2F6E0C7F1C801E57
:10F02000911E142D032DF22CEE24EA0CFB1C0C1D5A
:10F030001D1D0F940DF220E22093C6008091C000A8
:10F0400086FFFCCF8091C00080648093C000C65DC5
:10F05000DE4F8881CA52D1400F940DF230E23093D6
:10F06000C6008091C00086FFFCCF8091C000806404
:10F070008093C000C45DDE4F8881CC52D1400F9494
:10F080000DF240E24093C6008091C00086FFFCCFA5
:10F090008091C00080648093C000C55DDE4F888190
:10F0A000CB52D1400F940DF250E25093C6008091A4
:10F0B000C00086FFFCCF8091C00080648093C000B8
:10F0C0008FEFE8168FEFF80680E0080780E018075A
:10F0D00031F484E092EE60E00F94C2F1DFC0D80119
:10F0E000C7018070907CA070B0708050904CA040A0
:10F0F000B040D1F52FEF3FE340E050E0E222F322B1
:10F1000004231523CA5DDE4FA880B980CA80DB8046
:10F11000C652D140AE0CBF1CC01ED11EAA0CBB1CD7
:10F12000CC1CDD1C8EE092EE60E00F94C2F1BB2798
:10F13000A12F902F8F2D0F940DF28E2D0F940DF285
:10F1400030E23093C6008091C00086FFFCCF8091F2
:10F15000C00080648093C0004EE34093C60080915D
:10F16000C00086FFFCCF87C08EE09EEFA0E0B0E03D
:10F17000E822F9220A231B239CE0E91694E9F90608
:10F1800090E0090790E0190709F088C0C45DDE4FE0
:10F19000A881CC52D140EA2EFF2400E010E0102FCD
:10F1A0000F2DFE2CEE24C55DDE4FB881CB52D14031
:10F1B000EB0EF11C011D111DD601C501817090706F
:10F1C000A070B070DC0199278827E80EF91E0A1F8D
:10F1D0001B1F20EF30E040E050E0A222B322C42207
:10F1E000D52241E1AA0CBB1CCC1CDD1C4A95D1F7F1
:10F1F000EA0CFB1C0C1D1D1D81E090E0A0E0B0E0BE
:10F20000282239224A225B2235E1220C331C441C7D
:10F21000551C3A95D1F7E20CF31C041D151D57013E
:10F220006801AA0CBB1CCC1CDD1C85E192EE60E0E1
:10F230000F94C2F1C801AA27BB270F940DF2BB2778
:10F24000A12F902F8F2D0F940DF28E2D0F940DF274
:10F2500090E29093C6008091C00086FFFCCF809121
:10F26000C00080648093C000AEE3A093C60080918C
:10F27000C00086FFFCCF8091C00080648093C000F6
:10F28000C601AA27BB270F940DF2BB27AD2D9C2DDD
:10F290008B2D0F940DF28A2D0F940DF20F94DCF14B
:10F2A000CC5DDE4FE881F981C452D140F99709F471
:10F2B0004DCBF4E0EF2EF12C012D112D6E0C7F1CA7
:10F2C000801E911EF2CD83E093EE62E00F94F5F183
:10F2D0008AE192EE60E00F94C2F18091C00087FF56
:10F2E000FCCF1091C6001F751093C6008091C0001E
:10F2F00086FFFCCF8091C00080648093C0000F9493
:10F30000DCF1812F81548A3108F036C1163409F4BA
:10F3100095C0173490F4133409F44EC0143430F40B
:10F320001134F1F0123409F01DC130C0143409F465
:10F3300059C0153409F016C16BC01A3409F4C4C0A1
:10F340001B3438F4173409F48FC0183409F00AC19B
:10F35000A1C01B3409F4D2C01C3409F003C1E8C0B9
:10F360008FEF81B90DC082B1809582B980E090E0C5
:10F37000E0EDF7E03197F1F70196883C9105C1F790
:10F380008091C00087FFEFCF12B8EFC08FEF84B934
:10F390000DC085B1809585B980E090E0E0EDF7E0A3
:10F3A0003197F1F70196883C9105C1F78091C00033
:10F3B00087FFEFCF15B8D9C08FEF87B90DC088B1DF
:10F3C000809588B980E090E0E0EDF7E03197F1F7C3
:10F3D0000196883C9105C1F78091C00087FFEFCF6F
:10F3E00018B8C3C08FEF8AB90DC08BB180958BB9A7
:10F3F00080E090E0E0EDF7E03197F1F70196883C8E
:10F400009105C1F78091C00087FFEFCF1BB8ADC059
:10F410008FEF8DB90DC08EB180958EB980E090E0F0
:10F42000E0EDF7E03197F1F70196883C9105C1F7DF
:10F430008091C00087FFEFCF1EB897C08FEF80BBD1
:10F440000DC081B3809581BB80E090E0E0EDF7E0F6
:10F450003197F1F70196883C9105C1F78091C00082
:10F4600087FFEFCF11BA81C08FEF83BB0DC084B38C
:10F47000809584BB80E090E0E0EDF7E03197F1F714
:10F480000196883C9105C1F78091C00087FFEFCFBE
:10F4900014BA6BC08FEF809301010FC080910201FD
:10F4A00080958093020180E090E0E0EDF7E03197F5
:10F4B000F1F70196883C9105C1F78091C00087FF64
:10F4C000EDCF1092020151C08FEF809304010FC065
:10F4D0008091050180958093050180E090E0E0ED4A
:10F4E000F7E03197F1F70196883C9105C1F78091DB
:10F4F000C00087FFEDCF1092050137C08FEF8093DA
:10F5000007010FC08091080180958093080180E079
:10F5100090E0E0EDF7E03197F1F70196883C910536
:10F52000C1F78091C00087FFEDCF109208011DC088
:10F530008FEF80930A010FC080910B01809580931B
:10F540000B0180E090E0E0EDF7E03197F1F70196F4
:10F55000883C9105C1F78091C00087FFEDCF1092E4
:10F560000B0103C085E292EEEEC98091C00087FFD7
:10F57000FCCF8091C600EAC988E392EEE4C98CE131
:10F5800091EEE1C988249924933011F1943028F444
:10F59000913089F09230B8F408C0953061F195301F
:10F5A000F0F0963009F048C043C02B3109F042C951
:10F5B00091E06BE13FC96227C15DDE4F2883CF52E6
:10F5C000D14092E037C9B22FA0E0622793E032C960
:10F5D000822F90E0A82BB92B622794E02BC92E3004
:10F5E00009F039C3622795E0C05DDE4F19821882A9
:10F5F000C053D1401FC9E1E0F0E0EC0FFD1FC05D3A
:10F60000DE4F08811981C053D140E00FF11F2083E4
:10F610000F5F1F4FC05DDE4F19830883C053D14079
:10F6200062270A171B0709F005C9D80196E002C92D
:10F63000261709F010C303C0973009F0FBC87724E0
:10F640009981933109F412C19431C8F4963009F4C8
:10F65000D8C0973050F4923009F406C1933009F4C1
:10F660006DC0913009F059C253C0913109F477C08F
:10F67000923108F0BBC0903109F04FC2F5C098310B
:10F6800009F487C0993150F4953109F4EFC09531F0
:10F6900008F4C6C1963109F040C2C2C19A3109F4DA
:10F6A0006CC09A3108F491C09B3109F45BC09D3164
:10F6B00009F033C29D81903359F48F81882311F46E
:10F6C0009EE11CC0813011F091E018C098E916C08D
:10F6D000892F807591F0903539F4E0E0F0E089E011
:10F6E0008093570094910AC0983539F4E3E0F0E034
:10F6F00089E080935700949101C090E01A821B82A8
:10F700008D818C831D829E831F8227E030E009C299
:10F710001A8288E08B8381E48C8386E58D8382E581
:10F720008E8389E48F8383E5888780E589878FE5E9
:10F730008A8782E38B872BE030E0F3C18A818139AD
:10F7400041F0823941F0803911F48FE005C080E04A
:10F7500003C082E001C08AE01A828B8344C0772410
:10F76000739482C08D81882311F48EE12CC0813086
:10F7700011F081E028C088E926C01A82E1E0F0E0BB
:10F7800089E08093570084918B831C8224E030E0D1
:10F79000C8C18B81803589F48C81883039F4E2E0EE
:10F7A000F0E089E08093570084910DC0E0E0F0E044
:10F7B00089E080935700849106C0E3E0F0E089E09F
:10F7C0008093570084911A82DFCF8D81836C99E0FA
:10F7D000E1E0F0E0082E90935700E89507B600FCB2
:10F7E000FDCF1A821B8223E030E09BC180EC8A832C
:10F7F000CE5CDE4F188219821A821B82C253D1401E
:10F800008EC18A8190E0A0E0B0E0582F44273327D2
:10F8100022278B8190E0A0E0B0E0DC0199278827C7
:10F82000282B392B4A2B5B2B8D8190E0A0E0B0E098
:10F83000282B392B4A2B5B2B8C8190E0A0E0B0E089
:10F84000BA2FA92F982F8827282B392B4A2B5B2BCF
:10F85000220F331F441F551FC05EDE4F288339839C
:10F860004A835B83C052D1401A8259C13A81C95C34
:10F87000DE4F3883C753D140CA5CDE4F1882C6536F
:10F88000D1408B81C82EDD24CA5CDE4F488159816E
:10F89000C653D140C42AD52A933109F082C0CE5C28
:10F8A000DE4F88819981AA81BB81C253D1408050AB
:10F8B000904CA340B04030F583E0CE5CDE4FE88052
:10F8C000F9800A811B81C253D140F70100935B008C
:10F8D00080935700E89507B600FCFDCFCE5CDE4F65
:10F8E000088119812A813B81C253D14000501F4FAA
:10F8F0002F4F3F4FCE5CDE4F088319832A833B8313
:10F90000C253D140C05EDE4F488159816A817B81FC
:10F91000C052D140DE011B9631E08C9111962C91A2
:10F9200011971296C75CDE4F2883C953D140C85C3B
:10F93000DE4F1882C853D14090E0C85CDE4FE881AA
:10F94000F981C853D1408E2B9F2B0C01FA01609393
:10F950005B0030935700E89511244E5F5F4F6F4F67
:10F960007F4F0EEFE02E0FEFF02ECE0CDF1CC114F8
:10F97000D10499F685E0C05EDE4F088119812A81A5
:10F980003B81C052D140F80120935B008093570027
:10F99000E89507B600FCFDCF81E180935700E8951C
:10F9A00035C0C05EDE4F88819981AA81BB81C0527B
:10F9B000D140B695A795979587957C018601ABE0D8
:10F9C000AA2EB12CAC0EBD1E0BC0D5016D915D01F0
:10F9D000C7010F947FFE0894E11CF11C01501040F8
:10F9E0000115110591F7A60160E070E0440F551F65
:10F9F000661F771FC05EDE4FE880F9800A811B8199
:10FA0000C052D1404E0D5F1D601F711F1A82C05E33
:10FA1000DE4F488359836A837B83C052D1407FC0C5
:10FA2000FA80C55CDE4FF882CB53D140C65CDE4F16
:10FA30001882CA53D1408B81C82EDD24C65CDE4FAC
:10FA400008811981CA53D140C02AD12A1A828981DA
:10FA5000BE016D5F7F4F843121F59601C05EDE4FA0
:10FA6000E880F9800A811B81C052D1400BBFF701A9
:10FA700087919691DB018C9311969C936E5F7F4FDB
:10FA8000D801C7010296A11DB11DC05EDE4F88835B
:10FA90009983AA83BB83C052D14022503040F1F6F3
:10FAA00036C0C05EDE4F288139814A815B81C052F9
:10FAB000D1400894C108D108760100E010E0089414
:10FAC000C11CD11C0894E11CF11C011D111DE20E8A
:10FAD000F31E041F151F21BDBB27A52F942F832FB5
:10FAE00082BD2F5F3F4F4F4F5F4FF89A80B5DB01CC
:10FAF0008D93BD012E153F054007510761F7C05E8C
:10FB0000DE4F288339834A835B83C052D1409601FC
:10FB10002D5F3F4FFB01108204C080EC8A8322E0FE
:10FB200030E08BE18093C6008091C00086FFFCCF5F
:10FB30008091C00080648093C000C15DDE4FF88179
:10FB4000CF52D140F093C6008091C00086FFFCCF19
:10FB50008091C00080648093C000432F3093C60022
:10FB60008091C00086FFFCCF8091C00080648093AC
:10FB7000C000922F2093C6008091C00086FFFCCF6A
:10FB80008091C00080648093C0008EE08093C600A6
:10FB90008091C00086FFFCCF8091C000806480937C
:10FBA000C00065E1C15DDE4FE880CF52D1406E25D7
:10FBB00069276427FE01319610C090819093C6009A
:10FBC0008091C00086FFFCCF31968091C000806498
:10FBD0008093C0006927215030402115310569F715
:10FBE0006093C6008091C00086FFFCCF8091C0006A
:10FBF00080648093C00085B1805885B9772081F4F6
:10FC0000C15DDE4F0881CF52D1400F5FC15DDE4F35
:10FC10000883CF52D14090E0A0E0B0E00D941AF4F8
:10FC200027982F9880E090E020ED37E0F901319798
:10FC3000F1F7019684369105C9F700008091C00064
:10FC40008D7F8093C00081E180935700E895EE2777
:10FC5000FF270994FFCF90E00D941AF497FB092E2B
:10FC600007260AD077FD04D02ED006D000201AF443
:10FC7000709561957F4F0895F6F7909581959F4F08
:10FC80000895A1E21A2EAA1BBB1BFD010DC0AA1FDD
:10FC9000BB1FEE1FFF1FA217B307E407F50720F0F5
:10FCA000A21BB30BE40BF50B661F771F881F991F70
:10FCB0001A9469F760957095809590959B01AC01B9
:10FCC000BD01CF010895AA1BBB1B51E107C0AA1FAC
:10FCD000BB1FA617B70710F0A61BB70B881F991FED
:10FCE0005A95A9F780959095BC01CD010895F99991
:10FCF000FECF92BD81BDF89A992780B50895262F31
:10FD0000F999FECF1FBA92BD81BD20BD0FB6F89400
:0EFD1000FA9AF99A0FBE01960895F894FFCF63
:040000033000E000E9
:00000001FF