:1000000034C1000063C1000061C100005FC1000095
:100010005DC100005BC1000059C1000057C1000074
:1000200055C1000053C1000051C100004FC1000084
:100030004DC100004BC1000049C1000047C1000094
:1000400045C1000043C1000041C100003FC10000A4
:100050003DC100003BC1000039C100009FC4000049
:1000600035C1000049C300001EC300002FC10000BD
:100070002DC100002BC1000029C1000027C10000D4
:1000800025C1000023C1000021C100001FC10000E4
:100090001DC100001BC1000019C10000D0C4000038
:1000A00015C1000013C1000011C100000FC1000004
:1000B0000DC100000BC1000009C1000007C1000014
:1000C00005C1000003C1000001C10000FFC0000025
:1000D000FDC00000FBC00000F9C00000F7C0000038
:1000E000F5C00000E103E403D303D703DB031B04E3
:1000F000E803EC03F203F603FA0300040404080423
:100100001B040E041204160408000000BE922449C9
:10011000123EABAAAA2ABECDCCCC4C3E0000008039
:10012000BEABAAAAAA3E00000000BF000000803FAC
:100130000000000000084178D3BB4387D1133D196C
:100140000E3CC3BD4282AD2B3E68EC8276BED98F99
:10015000E1A93E4C80EFFFBE01C4FF7F3F000000DD
:10016000000000002100240027002A002D0030009C
:10017000330001010000040107010A010000220010
:10018000250028002B002E00310034000201000061
:10019000050108010B010505050507050808080804
:1001A000020202020A0A080804040404010101010F
:1001B000010101010303030303030303040707070A
:1001C0000C0C0C0C0C0C0C0C0202020206060606AF
:1001D000060606060B0B0B0B0B0B0B0B010210207C
:1001E000200808102040102040800201020108046D
:1001F0000201010204081020408080402010080401
:100200000201800402018040201008040201080459
:10021000020101020408102040800102040810209D
:10022000408000000A0B02090C0D0E0807030401B0
:1002300000000000000000000000000000000000BE
:10024000000000000000000000000000000012118B
:10025000100000000000000000000000000000008E
:1002600000000000000000000D1711241FBECFEF9A
:10027000D1E2DEBFCDBF00E00CBF13E0A0E0B2E0F2
:10028000E8E6F6E300E00BBF02C007900D92AC3841
:10029000B107D9F72AE0ACE8B3E001C01D92A0385D
:1002A000B207E1F711E0C5E3D1E000E006C0219715
:1002B0000109802FFE010E94261BC433D10780E074
:1002C0000807A9F70E94A90B0C94321B99CEFC01D8
:1002D000538D448D252F30E0842F90E0821B930BAB
:1002E000541710F0CF96089501970895FC01918D51
:1002F000828D981761F0828DDF01A80FB11D5D9688
:100300008C91928D9F5F9F73928F90E008958FEFF5
:100310009FEF0895FC01918D828D981731F0828DA9
:10032000E80FF11D858D90E008958FEF9FEF089500
:10033000FC01918D228D892F90E0805C9F4F821B64
:1003400091098F739927089587E594E0F1DF21E003
:10035000892B09F420E0822F0895FC01848DDF01B0
:10036000A80FB11DA35ABF4F2C91848D90E0019628
:100370008F739927848FA689B7892C93A089B18917
:100380008C9180648C93938D848D981306C0028821
:10039000F389E02D80818F7D80830895EF92FF9215
:1003A0000F931F93CF93DF93EC0181E0888F9B8D98
:1003B0008C8D981305C0E889F989808185FD23C05B
:1003C000F62E0B8D10E00F5F1F4F0F731127E02EDD
:1003D0008C8DE8120BC00FB607FCFACFE889F989BB
:1003E000808185FFF5CFCE01B8DFF2CF8B8DFE0186
:1003F000E80FF11DE35AFF4FF0820B8FEA89FB896A
:100400008081806207C0EE89FF896083E889F9896D
:1004100080818064808381E090E0DF91CF911F91A3
:100420000F91FF90EF900895CF93DF93EC01888DAB
:100430008823C1F0EA89FB89808185FD05C0A889F0
:10044000B9898C9186FD0EC00FB607FCF5CF80816F
:1004500085FFF2CFA889B9898C9185FFEDCFCE01B8
:100460007CDFE8CFDF91CF91089580E090E0892B89
:1004700019F06ADF811125C080E090E0892B41F0FE
:1004800080E090E0892B21F00E94000081111CC0C7
:1004900080E090E0892B41F080E090E0892B21F012
:1004A0000E940000811113C080E090E0892BA1F030
:1004B00080E090E0892B81F00E94000081110AC049
:1004C00008950E940000D8CF0E940000E1CF0E9452
:1004D0000000EACF0C94000008953FB7F894809193
:1004E0004F0490915004A0915104B091520426B54C
:1004F000A89B05C02F3F19F00196A11DB11D3FBF5C
:10050000BA2FA92F982F8827820F911DA11DB11DE9
:10051000BC01CD0142E0660F771F881F991F4A95E5
:10052000D1F7089585ED8093BC008091BC0084FDD7
:10053000FCCF1092290408954091DE03262F30E06D
:10054000240F311D21323105DCF42091290424309F
:10055000C9F4FC0180E090E0861758F43091DE0386
:100560002191DC01A454BC4FA30FB11D2C93019623
:10057000F3CF8091DE03680F6093DE0380E008957F
:1005800081E0089582E008950895E0918D038091BF
:100590008C03E81730F4F0E0E65DFB4F808190E0DB
:1005A00008958FEF9FEF089590918D0380918C03B4
:1005B000981750F4E92FF0E0E65DFB4F208130E022
:1005C0009F5F90938D0302C02FEF3FEFC901089505
:1005D00080918C0390E020918D03821B91090895F6
:1005E000CF92DF92EF92FF920F931F93CF93DF93FF
:1005F0007C01262F972F8A0180915604882391F041
:10060000C62FD72F6E01C40ED51ECC15DD0569F09F
:100610006991D701ED91FC910190F081E02DC70126
:100620001995F3CF642F822F87DFC801DF91CF9117
:100630001F910F91FF90EF90DF90CF900895CF938F
:10064000DF931F92CDB7DEB7698320915604222332
:10065000D1F020915304203240F021E030E0FC0141
:100660003383228380E090E014C080915404E82F0B
:10067000F0E0E456FC4F998190838F5F809354049F
:100680008093530404C061E0CE01019655DF81E000
:1006900090E00F90DF91CF910895089580E090E071
:1006A00008950E942E1B1F920F920FB60F921124D5
:1006B0000BB60F922F933F934F935F936F937F935C
:1006C0008F939F93AF93BF93EF93FF9387E594E04E
:1006D00044DEFF91EF91BF91AF919F918F917F91F8
:1006E0006F915F914F913F912F910F900BBE0F90A3
:1006F0000FBE0F901F9018951F920F920FB60F927A
:1007000011240BB60F922F938F939F93EF93FF9328
:10071000E0916704F09168048081E0916D04F091AC
:100720006E0482FD12C09081809170048F5F8F7380
:1007300020917104821751F0E0917004F0E0E95AC1
:10074000FB4F958F8093700401C08081FF91EF91E2
:100750009F918F912F910F900BBE0F900FBE0F9016
:100760001F901895362F90E0FC01EE5DFD4F4491EF
:10077000FC01E452FE4F2491FC01EA56FE4F949195
:10078000992309F46BC0442309F455C050E0FA01E1
:100790003197E231F10508F04EC08827EE58FF4F3F
:1007A0008F4F0C94261B809180008F7707C080911B
:1007B00080008F7D03C080918000877F80938000C0
:1007C0003AC084B58F7702C084B58F7D84BD33C0B5
:1007D0008091B0008F7703C08091B0008F7D8093AF
:1007E000B00029C0809190008F7707C08091900061
:1007F0008F7D03C080919000877F809390001BC005
:100800008091A0008F7707C08091A0008F7D03C0EA
:100810008091A000877F8093A0000DC0809120016F
:100820008F7707C0809120018F7D03C080912001C8
:10083000877F80932001E92FF0E0EE0FFF1FE4583F
:10084000FE4FA591B4918FB7F894EC91311103C08C
:1008500020952E2301C02E2B2C938FBF0895CF936C
:10086000DF9390E0FC01E452FE4F2491FC01EA5634
:10087000FE4F8491882361F190E0880F991FFC015D
:10088000EE59FE4FC591D491FC01E458FE4FA5915D
:10089000B491611109C09FB7F89488812095822393
:1008A0008883EC912E230BC0623061F49FB7F894DB
:1008B0003881822F809583238883EC912E2B2C9373
:1008C0009FBF06C08FB7F894E8812E2B28838FBF77
:1008D000DF91CF910895863308F0865390917B0085
:1008E000282F2870977F922B90937B0087708064CD
:1008F00080937C0080917A00806480937A0080915C
:100900007A0086FDFCCF809178002091790090E0FC
:10091000922B08958F929F92AF92BF92CF92DF92C7
:10092000EF92FF926B017C01D8DD4B015C01C11499
:10093000D104E104F104E9F0D0DDDC01CB01881938
:100940009909AA09BB09883E9340A105B10578F32E
:1009500021E0C21AD108E108F10888EE880E83E090
:10096000981EA11CB11CC114D104E104F10421F7AB
:10097000DECFFF90EF90DF90CF90BF90AF909F9031
:100980008F9008952FB7F89460914B0470914C04A8
:1009900080914D0490914E042FBF08951F920F92A5
:1009A0000FB60F9211242F933F938F939F93AF9382
:1009B000BF9380914B0490914C04A0914D04B09151
:1009C0004E0430914A0423E0230F2D3720F4019682
:1009D000A11DB11D05C026E8230F0296A11DB11D62
:1009E00020934A0480934B0490934C04A0934D04AD
:1009F000B0934E0480914F0490915004A091510403
:100A0000B09152040196A11DB11D80934F049093A3
:100A10005004A0935104B0935204BF91AF919F91A1
:100A20008F913F912F910F900FBE0F901F901895AF
:100A3000DC01ED91FC910190F081E02D19941F9261
:100A40000F920FB60F9211240BB60F922F933F9374
:100A50004F935F936F937F938F939F93AF93BF93C6
:100A6000EF93FF938091B900887F803609F49CC092
:100A700068F5883209F45BC090F4803109F454C001
:100A800038F4882309F4F6C0883009F44DC0F5C065
:100A9000883109F44CC0803209F45DC0EEC0803466
:100AA00009F468C048F4803309F455C0883309F06C
:100AB000E4C080932704D8C0803509F44FC088353E
:100AC00009F45DC0883409F0D8C0D6C0883909F46B
:100AD000C7C0A8F4883709F467C038F4883609F429
:100AE00063C0803709F460C0C8C0883809F4B8C052
:100AF000803909F45FC0803809F0BFC05BC0803B1B
:100B000009F486C038F4803A09F466C0883A09F4DA
:100B10007FC0B3C0803C09F4A7C0883C09F4A4C0DE
:100B2000883B09F48AC0A9C08091240410C0909128
:100B3000260480912504981770F5E091260481E041
:100B40008E0F80932604F0E0ED5FFB4F8081809351
:100B5000BB0085EC86C0809327048EC0E0912604FC
:100B600081E08E0F809326048091BB00F0E0ED5F62
:100B7000FB4F808390912604809125046EC0E09104
:100B8000260481E08E0F809326048091BB00F0E064
:100B9000ED5FFB4F80838091280481116DC081E05F
:100BA0008093230484EA61C083E080932904109237
:100BB0000204CFCF80910204803208F051C0E0914E
:100BC000020481E08E0F809302048091BB00F0E06C
:100BD000EE51FC4F8083BDCF85EC8093BC0010921A
:100BE000290480910204803230F4E0910204F0E0A4
:100BF000EE51FC4F10826091020470E0E091E0033E
:100C0000F091E10382EE93E019951092020435C051
:100C100084E0809329041092DF031092DE03E091B8
:100C2000DC03F091DD0319958091DE03811105C08D
:100C300081E08093DE031092BC03E091DF0381E04A
:100C40008E0F8093DF03F0E0E454FC4F80818093AB
:100C5000BB009091DF038091DE03981708F479CFF1
:100C600085E88093BC0009C085EC8093BC0010929D
:100C7000290403C01092270455DCFF91EF91BF9126
:100C8000AF919F918F917F916F915F914F913F9124
:100C90002F910F900BBE0F900FBE0F901F901895C5
:100CA0001092290481E0809328041092230461E0CB
:100CB00084E158DD61E085E155DDE9EBF0E080811C
:100CC0008E7F808380818D7F808388E48093B800CD
:100CD00085E48093BC0008952091530490915504BD
:100CE000213208F04AC0809129048111FCCF32E002
:100CF0003093290431E0309328043FEF30932704E8
:100D00001092260420932504ACE9B3E043E054E0BC
:100D1000FA013E2F341B321718F43D913193F9CF6D
:100D20001092240420912404990F922B9093240470
:100D300090912304913061F4109223049091240443
:100D40009093BB009091BC0093FDF8CF95EC01C04F
:100D500095EE9093BC00909129049230E1F390912C
:100D600027049F3F79F080912704803241F08091E1
:100D70002704803331F084E005C081E003C082E0C5
:100D800001C083E010925404109253041092560450
:100D90000895FC01248131E03093560420935504DA
:100DA00010925404109253048385682B84EF94E0CE
:100DB00046DC84EF94E090CF0F931F93CF938C0188
:100DC000C62FE7DF6C2F6460C801E3DF6C2F6B7FF9
:100DD000C801DFDF83EC90E00197F1F7CF911F911D
:100DE0000F910895FF920F931F93CF93DF931F925C
:100DF000CDB7DEB78C01F62E962F907F692F642B2E
:100E0000C8014983D9DF80E1F89EB00111244981EE
:100E1000642BC8010F90DF91CF911F910F91FF902C
:100E2000CBCF41E0DFDF81E090E008950F931F9387
:100E3000CF93DF931F92CDB7DEB78C01DC018C918D
:100E400091E09093560480935504109254041092AC
:100E5000530411968D919C911297DC01ED91FC91B8
:100E60000190F081E02D49831995F80181819281EB
:100E7000DC01ED91FC910190F081E02D4981642F1E
:100E80001995F801818192810F90DF91CF911F9187
:100E90000F9122CF0F931F93CF93DF93EC01CB01E0
:100EA000BA0126E636E646E65FE30E949A1A9B01FF
:100EB000AC0160E27CEB8EEB95E40E94B31820E07D
:100EC00030E040E85FE30E944A1820E030E040E074
:100ED0005FE30E944B180E9489190E942019062F77
:100EE000888191E0909356048093550410925404A5
:100EF0001092530489819A81DC01ED91FC9101905B
:100F0000F081E02D60E0199589819A81E5DE888184
:100F1000909129049111FCCF91E090932904909332
:100F200028042FEF20932704109226041092250402
:100F30009093240490912404880F892B8093240497
:100F400080912304813061F4109223048091240461
:100F50008093BB008091BC0083FDF8CF85EC01C07D
:100F600085EE8093BC00809129048130E1F380916B
:100F70002604811103C08091260401C081E0A3E012
:100F8000B4E02AE234E0F9019E2F921B981718F47E
:100F90009D919193F9CF10928D0380938C03898159
:100FA0009A81DC01ED91FC910284F385E02D199585
:100FB000182F8F76482F406160E0CE0137DF402F39
:100FC0006EEFCE0133DF412F60E0CE012FDF65E011
:100FD00070E080E090E09EDC412F406A60E0CE014E
:100FE000DF91CF911F910F9121CF8F929F92AF925E
:100FF000BF92CF92DF92EF92FF921F93CF93DF9336
:10100000EC016A017B0160918E0370918F038A81EC
:101010009B8168177907B9F0660F771FFB01E05FC6
:10102000FD4F61E080819EDBEA81FB81EE0FFF1FB7
:10103000E05FFD4F60E0808195DB8A819B8190932A
:101040008F0380938E038881998161D361E070E082
:1010500080E090E05FDC1AE0812C912C5401EA8161
:10106000FB81E45FFD4F808136DCBC01990F880B6A
:10107000990B0E944E199B01AC01C501B4010E945D
:101080004B184B015C01115051F720E030E040E279
:1010900051E40E94B318A70196010E949A1A6B01AD
:1010A0007C018EE580937C0080917B00877F80931C
:1010B0007B0080917A00806880937A0062E070E023
:1010C00080E090E027DC80917A00806480937A0051
:1010D00080917A0086FDFCCF209178008091790084
:1010E00030E0382B032E000C440B550B6EEB73E0F5
:1010F00081E190E00E940C18CA01B9010E944E19CA
:101100002FE632E143E85AE30E949A1A20E030E0E9
:1011100040E85AE30E949A1A9B01AC01C701B6014C
:101120000E949A1ADF91CF911F91FF90EF90DF906C
:10113000CF90BF90AF909F908F9008958F929F9285
:10114000AF92BF92CF92DF92EF92FF924B015C0180
:1011500010927F0A60E084E79AE01BDE13DC6B01EB
:101160007C0120E030E44CE156E4C501B4010E946A
:101170009A1A4B015C0120E030E0A9010E94511A4B
:1011800020E030E040E05FE387FD05C0C501B40129
:101190000E944B1804C0C501B4010E944A180E9465
:1011A0001B19C60ED71EE81EF91EC0920402D0926B
:1011B0000502E0920602F0920702FF90EF90DF90A6
:1011C000CF90BF90AF909F908F900895FC01108AB0
:1011D000118A128A138A148A158A168A178A108E1F
:1011E000118E128E138E148E158E168E178E14A2DB
:1011F00010A211A212A213A216A215A28FEF93E0C1
:1012000090A787A315A616A617A610AA11AA12AA18
:1012100013AA14AADF01AF5BBF4F1D921D921D924E
:101220001C921397868597859C01220F331F820F8E
:10123000931F4FEF53E064858C59954FFAC0FF928E
:101240000F931F93CF93DF938C01F42EEB0177FF65
:1012500002C0C0E0D0E077FD2AC0809194038823CB
:10126000D1F010929403209102023091030237FDD5
:1012700009C045E4429FC001439F900D1124805056
:101280009B4FA4DF7FDB6093900370939103809367
:10129000920390939303C00FD11FFF2051F0D7FD0D
:1012A00032C0C431D105BCF1C0E0D0E034C0F1108F
:1012B000F8CF46E050E020E030E085E42F5F3F4F7C
:1012C000D7FD06C0C431D1052CF0C0E0D0E002C08B
:1012D000C3E1D0E08C9FF0018D9FF00D1124E05010
:1012E000FB4F65A176A164177507A9F0C00FD11F48
:1012F0002431310559F44230510504F3415051096C
:1013000020E030E0DBCFC3E1D0E005C0253131057E
:10131000ACF2CFEFDFEFCE01DF91CF911F910F91B4
:10132000FF900895E091740AF091750A0190F081A0
:10133000E02D682F84E79AE01994CF92DF92EF9224
:10134000FF920F931F93CF93DF936C017A018B0170
:10135000C0E0D0E0CE15DF0589F0D8016D918D0198
:10136000D601ED91FC910190F081E02DC601199517
:10137000892B11F47E0102C02196ECCFC701DF91C9
:10138000CF911F910F91FF90EF90DF90CF90089534
:10139000009761F0FC0101900020E9F73197AF015F
:1013A000481B590BBC0184E79AE0C7CF80E090E06E
:1013B00008958F929F92AF92BF920F931F93CF93F6
:1013C000DF93CDB7DEB7A1970FB6F894DEBF0FBE9F
:1013D000CDBF19A2423008F44AE08E010F5D1F4FC5
:1013E000842E912CA12CB12CA50194010E942818C7
:1013F000E62FB901CA0101501109EA3014F4E05D89
:1014000001C0E95CD801EC93232B242B252B61F739
:10141000C801BEDFA1960FB6F894DEBF0FBECDBFE8
:10142000DF91CF911F910F91BF90AF909F908F90C0
:101430000895EF92FF921F93CF93DF931F92CDB742
:10144000DEB77C01152FDC018C9191E0909356045E
:1014500080935504109254041092530411968D9168
:101460009C911297DC01ED91FC91B4E06B9F90018F
:101470001124B9016A5F7F4F0190F081E02D49830B
:10148000199560E070E0F70181819281D1DA60E026
:1014900070E0D70111968D919C911297C9DA49811C
:1014A000642F712FF70181819281C2DA612F70E080
:1014B000D70111968D919C911297BADAF70181812B
:1014C00092810F90DF91CF911F91FF90EF9004CC0C
:1014D00040E061E084E79AE085DC8BE39FE10197DF
:1014E000F1F70895CF93DF93CDB7DEB728970FB606
:1014F000F894DEBF0FBECDBF28E0E8E6F2E0DE01E3
:10150000119601900D922A95E1F720917C0A2617F9
:1015100010F46FEF620FFE013196E60FF11DE60F3A
:10152000F11D9081682F690F606840E084E79AE0C0
:1015300028960FB6F894DEBF0FBECDBFDF91CF91D6
:1015400051CC26CFCF92DF92EF92FF92CF93DF93D1
:1015500097FF17C06B017C018DE2E4DEEC0166278A
:101560007727CB016C197D098E099F094AE021DF9D
:101570008C0F9D1FDF91CF91FF90EF90DF90CF9068
:1015800008954AE0DF91CF91FF90EF90DF90CF90E8
:1015900010CF8F929F92AF92BF92CF92DF92EF9235
:1015A000FF92CF93DF936B017C019B01AC010E9402
:1015B000FD1A882319F080E893E027C046015701FF
:1015C000E894B7F82FEF3FEF4FE75FE7C501B401AD
:1015D0000E94FD1A81110DC02FEF3FEF4FE75FE72B
:1015E000C501B4010E94AF1818161CF484E893E0FA
:1015F0000CC02FEF3FEF4FE75FE4C701B6010E9439
:10160000511A18166CF488E893E0DF91CF91FF909F
:10161000EF90DF90CF90BF90AF909F908F90B8CE1B
:101620002FEF3FEF4FE75FECC701B6010E94AF1805
:1016300087FDE9CF20E030E0A901C701B6010E9493
:10164000AF1887FF08C08DE26DDEEC01F7FAF09469
:10165000F7F8F09402C0C0E0D0E02AE037ED43EAAA
:101660005BE3C701B6010E944B184B015C010E946D
:1016700020196B017C010E944C199B01AC01C50132
:10168000B4010E944A184B015C014AE0C701B6014F
:1016900090DEC80FD91F8EE245DEC80FD91F20E0AB
:1016A00030E040E251E4C501B4010E949A1A4B01B6
:1016B0005C010E9420196B01E12CF12C4AE0C7016A
:1016C000B60177DEC80FD91FC701B6010E944C19B9
:1016D0009B01AC01C501B4010E944A1820E030E032
:1016E00040E251E40E949A1A0E94201980E090E0A2
:1016F0004AE05FDE8C0F9D1FDF91CF91FF90EF904E
:10170000DF90CF90BF90AF909F908F9008950F93F0
:101710001F93CF93DF9323E0880F991F2A95E1F75A
:10172000EC01C059DD4F0AE61AE06881F8018081BA
:1017300019D86A81F801828115D86C81F8018481F9
:1017400011D86E81F8018681DF91CF911F910F91A1
:1017500009C8CF93DF93CDB7DEB72A970FB6F894B9
:10176000DEBF0FBECDBF789484B5826084BD84B5E2
:10177000816084BD85B5826085BD85B5816085BD8C
:1017800080916E00816080936E0010928100809144
:1017900081008260809381008091810081608093CC
:1017A0008100809180008160809380008091B100F1
:1017B00084608093B1008091B00081608093B0001C
:1017C000809191008260809391008091910081606E
:1017D000809391008091900081608093900080912F
:1017E000A10082608093A1008091A100816080931C
:1017F000A1008091A00081608093A00080912101D0
:101800008260809321018091210181608093210178
:101810008091200181608093200180917A00846012
:1018200080937A0080917A00826080937A00809120
:101830007A00816080937A0080917A00806880933A
:101840007A001092C10010928D0310928C031092B6
:1018500054041092530424DAE0916704F091680470
:1018600012E01083E0916304F09164041082E0912F
:101870006504F09166048FEC808310926F04E09110
:101880006B04F0916C0486E08083E0916904F09130
:101890006A04808180618083E0916904F0916A0428
:1018A000808188608083E0916904F0916A0480817E
:1018B00080688083E0916904F0916A0480818F7D63
:1018C00080838091790A88608093790A10937C0ADA
:1018D00062E370E080E090E01DD860917F0A84E7C9
:1018E0009AE057DA68EE73E080E090E013D860E3A6
:1018F00084E79AE061DAFBE4EF2EF6E4FF2EC701FD
:101900000197F1F760E384E79AE056DAC70101979F
:10191000F1F760E384E79AE04FDA83E592E001971C
:10192000F1F760E284E79AE047DA6091790A606251
:1019300040E084E79AE056DA84E080937A0A40E057
:101940006CE084E79AE04EDAC3DD10937B0A40E056
:1019500066E084E79AE046DA40E062E084E79AE0F5
:1019600041DA8BE39FE10197F1F710927F0A60E083
:1019700084E79AE00EDA06D8609395037093960395
:10198000809397039093980360E087E30E942F046D
:1019900060E088E30E942F0460E089E30E942F0446
:1019A00060E08AE30E942F0461E08BE20E942F0432
:1019B00061E08DE20E942F0461E08FE20E942F041B
:1019C00061E081E30E942F0461E08AE20E942F041B
:1019D00061E08CE20E942F0461E08EE20E942F04FD
:1019E00061E080E30E942F0460E08AE20E94B2037B
:1019F00060E08CE20E94B20360E08EE20E94B203DB
:101A000060E080E30E94B20360E08BE20E94B203D8
:101A100060E08DE20E94B20360E08FE20E94B203B8
:101A200060E081E30E94B20360E086E30E942F043D
:101A300004E61AE010928D0310928C031092540465
:101A4000109253042DD940E860E0C801EFD96AE054
:101A500070E080E090E00E948A0440E050E06AE795
:101A600074E4C80117DA40E050E068EC74E4C8019F
:101A700011DA0D5F1F4F2AE00A361207D9F620E06F
:101A800035E03A872987E12CF12C00E010E060E096
:101A900070E0F2E0CF2ED12C89E090E066246394D0
:101AA000712C25E030E0412C512C40E050E0222404
:101AB0002A94B3E03B2E812C912CEAE7AE2EE4E48D
:101AC000BE2EA985BA8511961C921E9213961C9261
:101AD0001E92129715961C921E92149717961C929E
:101AE0001E92169719961C921E9218971B961C927E
:101AF0001E921A971D961C921E921C971F961C925E
:101B00001E921E97FD01108A118A128A138A54961A
:101B10001D921D921D921C925797108E118E128E3F
:101B2000138E5C961D921D921D921C925F9710A2BF
:101B300011A212A213A2F701E050FB4F14A2969635
:101B40001C921E92959798963C922E929797FD0123
:101B500011A612A613A614A69D961D921D921D9263
:101B60001C92D09711AA12AA13AA14AAD5961D9254
:101B70001D921D921C92D89711AE12AE13AE14AEE8
:101B8000FD9680829182A282B38234961082118265
:101B900012821382403151052CF0FFEF4F1A5F0A79
:101BA00040E050E0DA011196BA83A983E985FA850D
:101BB0005183408353824282203131052CF0FFEF64
:101BC0006F1A7F0A20E030E0A9014F5F5F4F5C830E
:101BD0004B83A985BA8515963C932E931497179637
:101BE0007C926E921697803191052CF0BFEFCB1A44
:101BF000DB0A80E090E09C012F5F3F4FE985FA858A
:101C000091878087D386C2866031710524F00F5F8B
:101C10001F4F60E070E0AB014F5F5F4F5E834D830D
:101C2000A985BA851D967C936E931C971F961C936D
:101C30000E931E9798963C922E929797C801880F04
:101C4000991F800F911F4FEF53E08C59954F2F83B1
:101C50003887EFDBE985FA85EB5BFF4FFA87E98789
:101C6000F5E4EF0EF11C2F81388544E6E41645E0DB
:101C7000F40609F481C16D817E81C9012B813C810B
:101C800049815A811ECF80918E0390918F03D80194
:101C900012962D913C91139782179307E9F0880FC4
:101CA000991FFC01E05FFD4F61E080810E94B2035B
:101CB000D8011296ED91FC911397EE0FFF1FE05F94
:101CC000FD4F60E080810E94B203F8018281938120
:101CD00090938F0380938E03D8018D919C9117DD93
:101CE00061E070E080E090E00E948A04D8011296E2
:101CF000ED91FC911397E45FFD4F80810E946B048E
:101D0000BC01990F880B990B0E944E199B01AC01E5
:101D100060E070EC8FE794E40E94B31820E030E0BC
:101D200040E85FE30E944A1820E030E44CE156E4CA
:101D30000E949A1A0E945A1A6B017C0126ED34E621
:101D400049E759E30E949A1A2BEC38E444E85AE335
:101D50000E944B184B015C012CE63FEC48E554E334
:101D6000C701B6010E949A1AA70196010E949A1A09
:101D7000A70196010E949A1A9B01AC01C501B4010A
:101D80000E944B189B01AC0160E070E080E89FE38B
:101D90000E94B31823E333E14AE853E40E944A184F
:101DA000F801208131812A30310509F4E8C020E0B2
:101DB00030E0A9010E944A18D80199966D937D934D
:101DC0008D939C939C970B5B1F4FBAE004361B07C7
:101DD00009F059CF08E112E0C12CD12C40E050E0CD
:101DE00060E070E4C6018C5F9A4FFFD84B015C0144
:101DF000F80121913191419151918F01C60180509B
:101E00009B4F7C01C501B4010E949A1A9B01AC0151
:101E1000C501B4010E944A18D701D5966D937D93F0
:101E20008D939C93D897B5E4CB0ED11CE4E6CE16E7
:101E3000E5E0DE0699F6A12CB12C40E050E060E828
:101E40007FE3C501885F9A4FD0D86B017C01850183
:101E500000501B4F22E835E14DE25CE30E949A1AE4
:101E60009B01AC01C701B6010E944B18D801D9965D
:101E70006D937D938D939C93DC97B5E4AB0EB11C71
:101E8000E4E6AE16E5E0BE06C1F610929A031092A3
:101E900099032CE035E03A83298354E2C52E55E0BE
:101EA000D52E212C312CF0909403F1106DC0A98116
:101EB000BA8159968D919C915A97892B09F4ADC09E
:101EC00023E333E343E150E4D60151966D917D91D4
:101ED0008D919C9154970E94AF1818160CF49DC0D8
:101EE000F1101CC460E070E080E89FE327D9B1E006
:101EF000B09394030E94C204DC01CB01805F984D33
:101F0000AF4FBF4F8093900390939103A0939203A0
:101F1000B09393033092030220920202BFEF2B1A78
:101F20003B0AE981FA81EB5BFF4FFA83E983F5E431
:101F3000CF0ED11C24E12216310409F0B4CF8091D8
:101F40009403882309F4F8C280910202909103025D
:101F500097FDF2C28090080290900902A0900A02B8
:101F6000B0900B020E94C20486169706A806B90616
:101F700008F48DC30E94350200E015E084CE20E015
:101F800030E040E651E416CF8091020290910302C6
:101F90008215930509F08BCF35E4329D8001339D86
:101FA000100D112400501B4FD80195968D919C91D6
:101FB00096978B7F029709F47ACF80909003909048
:101FC0009103A0909203B09093030E94C2046815FD
:101FD00079058A059B0508F06ACF23E333E343E3E1
:101FE00050E4F80165A976A987A990AD0E94511A1D
:101FF00018160CF05CCF109294030E94C204DC010E
:10200000CB0188579C4EAF4FBF4F80939003909366
:102010009103A0939203B0939303A981BA81599637
:102020008D919C915A978230910509F47DC034F4CA
:10203000009771F0019709F450C06BC2843091058C
:1020400009F438C10CF4C7C0059709F44EC261C247
:10205000F60181889288A388B48823E333E343E3BD
:1020600050E4C501B4010E94511A87FD24C0E2E08A
:10207000F0E0A981BA815A96FC93EE9359970E9499
:10208000C204DC01CB018854944FAF4FBF4FE981AC
:10209000FA81848B958BA68BB78B809194038111E9
:1020A0001CC060E070E080E89FE348D830920302F3
:1020B0002092020212C02DEC3CEC44E850E4C50131
:1020C000B4010E94511A87FD24C2E3E0F0E0A98127
:1020D000BA815A96FC93EE935997A981BA81599681
:1020E0008D919C915A970197F9F42DEC3CEC44E8C2
:1020F00050E4F60161897289838994890E94511A9A
:1021000087FD07C2E3E0F0E0A981BA815A96FC930B
:10211000EE93599760E070E080E89FE30FD830922B
:10212000030220920202F5C1A981BA8159968D91CC
:102130009C915A97029709F04EC054968D909D90AD
:10214000AD90BC9057970E94C204681579058A0526
:102150009B0508F4DEC1E981FA81148A158A168A82
:10216000178A838D948D892B69F0148E138E82814A
:1021700093819C01220F331F820F931F40E050E098
:102180006081AEC120E030E0A901A981BA815D96ED
:102190006D917D918D919C919097E1D787FFB9C109
:1021A0002FEF33E0E981FA81348F238F828193818D
:1021B0009C01220F331F820F931F4FEF53E060816A
:1021C0008C59954F36D9E3E0F0E0A981BA815A964F
:1021D000FC93EE935997A981BA8154968D909D9066
:1021E000AD90BC90579781149104A104B10459F5A6
:1021F0000E94C204DC01CB018854944FAF4FBF4F03
:10220000E981FA81848B958BA68BB78B809194039F
:1022100081110AC060E070E080E89FE30E949E08A0
:102220003092030220920202A981BA8112968D9106
:102230009C9113979C01220F331F820F931F4FE431
:1022400058E06C912CC020E030E0A901F6016585D2
:1022500076858785908983D7811124C00E94C20426
:10226000681579058A059B0508F0D1C21BC00E943C
:10227000C204DC01CB018854944FAF4FBF4FE981BA
:10228000FA81848B958BA68BB78B828193819C017D
:10229000220F331F820F931F46E85BE060818C5949
:1022A000954FC7D8E4E0F0E0A981BA815A96FC9333
:1022B000EE93599723E333E343E350E4D601519679
:1022C0006D917D918D919C91549749D71816E4F0AA
:1022D0002FEF33E0E981FA81348F238F828193815C
:1022E0009C01220F331F820F931F4FEF53E0608139
:1022F0008C59954F9ED8E5E0F0E0A981BA815A96B5
:10230000FC93EE935997F1C0A981BA815B968D91A8
:102310009C915C97009719F08F3F934051F52BE209
:102320003CE0E981FA81348F238F0E94C204D601F8
:102330005D966D937D938D939C9390978C91823055
:1023400078F0E981FA81438D548D828193819C01DB
:10235000220F331F820F931F60818C59954F69D8CC
:10236000E4E0F0E0A981BA815A96FC93EE93599784
:10237000D0C0D6018C91823070F4E981FA818488D2
:102380009588A688B7880E94C204681579058A05D1
:102390009B0508F0A5C220E030E04AE754E4D601EE
:1023A00055966D917D918D919C9158970E949A1AA6
:1023B0002B013C010E94C2044B015C01F601858D9A
:1023C000968DA78DB0A1A5019401281B390B4A0B4E
:1023D0005B0BCA01B90160D79B01AC01C301B2011B
:1023E0000E949A1A20E03AEB4BE55AE4BCD69B01D6
:1023F000AC01D60119966D917D918D919C911C97A0
:102400004AD6F6016187728783879487858E968E78
:10241000A78EB0A28081823008F47BC020E030E03B
:102420004AE754E4658976898789908D0E949A1AD3
:102430004B015C0120E030E0A9010E94511A1816FE
:102440000CF067C0F601418C528C638C748CA30134
:102450009201C501B40183D6882309F45AC0A98129
:10246000BA815B96ED90FC905C978701A501940181
:10247000C301B2010FD6DFD61616170644F4BFEF1C
:10248000EB16BFE0FB065CF40F5F1F4F0CC0672B21
:1024900031F01E141F043CF487010150110901158D
:1024A000E0E11E073CF40F3FF3E01F072CF40FEFB1
:1024B00013E002C00FEF1FE0E016F10651F1A98111
:1024C000BA815C961C930E935B9712968D919C91AA
:1024D00013979C01220F331F820F931FA8016C9149
:1024E0008C59954F0E94190A14C080919403811150
:1024F0000AC060E070E080E89FE30E949E0830928E
:1025000003022092020226E030E0E981FA81328F54
:10251000218FA981BA8159968D919C915A970697DE
:1025200009F0FCCC8091990390919A0301969093C5
:102530009A0380939903F2CC80E00E946B0420916F
:102540000002309101022F3F3F4FB9F58E319105C6
:1025500024F410920102109200029C012E513109C4
:102560002238310530F422E030E03093010220932C
:1025700000029C01205A3109203F310530F4A3E0CC
:10258000B0E0B0930102A09300029C0120593140B9
:102590002639310530F421E030E0309301022093F8
:1025A0000002865292408A3F910590F4E4E0F0E008
:1025B000F0930102E09300020BC0843E924044F08D
:1025C00010929B038FEF9FEF909301028093000284
:1025D00000910002109101020F3F2FEF120731F01E
:1025E00060E070E080E89FE30E949E0880919B037A
:1025F0008111B0CC0230110581F044F401151105B0
:1026000009F441C001301105F1F1A4CC03301105EA
:10261000E1F004301105B9F19DCC81E080939B037A
:1026200060E070E080E89FE30E949E0841E08091B6
:10263000990390919A03892B09F040E0609102027E
:102640007091030281E090E017C081E080939B03CA
:1026500060E070E080E89FE30E949E0841E0809186
:10266000990390919A03892B09F040E0609102024E
:10267000709103028FEF9FEF0E941F099093030256
:102680008093020267CC81E080939B0363CCC0906F
:102690000402D0900502E0900602F0900702C114F7
:1026A000D104E104F10441F00E94C20486169706A9
:1026B000A806B90608F41BC1A0900202B09003025C
:1026C0003FEFA316B306F9F48EEF9FEF909303024A
:1026D000809302020E94680A60E081E00E94720A10
:1026E00080E293E00E94A10A61E085E00E94720A04
:1026F0008FE293E00E94A10A60E070E080E89FE32F
:102700000E949E0837CCB7FC03C10E94C2046C151E
:102710007D058E059F0508F421C1FAC020910202B3
:10272000309103022215330509F04AC080909003CE
:1027300090909103A0909203B09093030E94C204E2
:10274000681579058A059B0508F4E8CBE5E4E29D68
:10275000C001E39D900D112480509B4F0E94E6081C
:10276000109294030E94C2046093900370939103AB
:1027700080939203909393036091020270910302FD
:1027800040E081E090E00E941F0990930302809353
:10279000020297FDC3CB0E94C204DC01CB01885723
:1027A0009C4EAF4FBF4F8093900390939103A093A3
:1027B0009203B093930360E070E080E09FE324C055
:1027C00037FD0AC0F5E4F29FC001F39F900D11247C
:1027D00080509B4F0E94E6080E94C204DC01CB019E
:1027E000805F984DAF4FBF4F8093900390939103BC
:1027F000A0939203B09393033092030220920202BB
:1028000060E070E080E89FE30E949E0887CBF601BD
:102810002081E22FF0E0D60151964D915D916D91AE
:102820007C915497DF011496AA0FBB1FAA0FBB1F00
:1028300035E4329DC001339D900D1124A80FB91FBE
:10284000A050BB4F4D935D936D937C931397D6012E
:1028500055964D915D916D917C9158973696EE0FFE
:10286000FF1FEE0FFF1FE80FF91FE050FB4F4083E3
:102870005183628373832F5F2C93223008F4F7CC4B
:10288000A981BA8114962D913D914D915C91179734
:1028900018966D917D918D919C911B97FBD39F779D
:1028A00020E030E04AE754E445D64B015C01E98181
:1028B000FA812485358546855785608971898289A5
:1028C0009389E8D39B01AC015F77C501B4014BD478
:1028D000D6011D966D937D938D939C935097E2CC7A
:1028E00023E030E0E981FA81328F218F54CD0E94BC
:1028F000C204DC01CB018C509E4FAF4FBF4F809381
:10290000080290930902A0930A02B0930B02D4CE5E
:102910000E94C2046C157D058E059F0508F42ACB24
:10292000CD28CE28CF2809F425CB8EEF9FEF9093AA
:102930000302809302021092040210920502109288
:102940000602109207020E94680A88E080937F0ABC
:1029500060E084E79AE00E94C9060CCB15E41A9D5A
:10296000F0011B9DF00D1124E050FB4F85A196A1B5
:102970008230910509F040C00E94680A60E083E05F
:102980000E94720A8AE493E00E94A10A60E08BE050
:102990000E94720A60910202709103026F5F7F4F82
:1029A000072E000C880B990B0E94A20A61E081E0BF
:1029B0000E94720A8DE693E00E94A10A61E08AE01B
:1029C0000E94720A8091020290910302189FF00106
:1029D000199FF00D1124E050FB4F65A976A987A936
:1029E00090AD0E94C90A61E08EE00E94720A89E5FA
:1029F00093E00E94A10ABECA833091050CF060C02A
:102A0000009709F50E94680A60E083E00E94720A5C
:102A100085E393E00E94A10A60E08BE00E94720AC5
:102A200060910202709103026F5F7F4F072E000CCE
:102A3000880B990B0E94A20A61E081E00E94720A51
:102A40008DE393E0D6CF019709F094CA0E94680AFB
:102A500060E083E00E94720A8AE493E00E94A10A87
:102A600060E08BE00E94720A6091020270910302A2
:102A70006F5F7F4F072E000C880B990B0E94A20AF4
:102A800061E083E00E94720A83E593E00E94A10A5C
:102A900061E088E00E94720A809102029091030234
:102AA000189FF001199FF00D1124E050FB4F65A90C
:102AB00076A987A990AD0E94C90A61E08CE095CF04
:102AC00085309105D1F50E94680A60E083E00E949C
:102AD000720A8AE493E00E94A10A60E08BE00E94FF
:102AE000720A60910202709103026F5F7F4F072E9E
:102AF000000C880B990B0E94A20A61E080E00E9402
:102B0000720A8BE693E00E94A10A61E08BE00E94CA
:102B1000720A8091020290910302189FF001199F9E
:102B2000F00D1124E050FB4F65A976A987A990AD5F
:102B30000E94C90A61E08FE058CF8630910509F004
:102B40007CC00E94680A60E083E00E94720A86E707
:102B500093E00E94A10A60E08CE00E94720A6091FA
:102B60000202709103026F5F7F4F072E000C880BEB
:102B7000990B0E94A20A61E082E00E94720A809191
:102B8000020290910302189FF001199FF00D112489
:102B9000E050FB4FC5A4D6A4E7A4F0A820E030E0A5
:102BA000A901C701B6017DD420E030E040E05FE339
:102BB00087FD04C0C701B6016ED203C0C701B601CC
:102BC00069D239D30E94A20A61E086E00E94720AAB
:102BD00080E693E00E94A10A61E08AE00E94720A06
:102BE000809102029091030225E4289FF001299F21
:102BF000F00D1124E050FB4FC1A8D2A8E3A8F4A81F
:102C000020E030E0A901C701B6014BD420E030E05C
:102C100040E05FE387FD04C0C701B6013CD203C0BA
:102C2000C701B60137D207D30E94A20A61E08DE046
:102C30000E94720A84E693E0DCCE049709F09AC9F8
:102C40000E94680A60E081E00E94720A8BE593E0CE
:102C50000E94A10A60E085E00E94720A609102026F
:102C6000709103026F5F7F4F072E000C880B990B4A
:102C70000E94A20A60E088E00E94720A809102022B
:102C800090910302189FF001199FF00D1124E0505C
:102C9000FB4FC5A4D6A4E7A4F0A820E030E0A9012A
:102CA000C701B601FED320E030E040E05FE387FDDE
:102CB00004C0C701B601EFD103C0C701B601EAD114
:102CC000BAD20E94A20A60E08CE00E94720A80E6FA
:102CD00093E00E94A10A61E080E00E94720A809164
:102CE00002029091030215E4189FF001199FF00D64
:102CF0001124E050FB4F65A976A987A990AD0E94E9
:102D0000C90A61E084E00E94720A89E593E00E94AA
:102D1000A10A61E086E00E94720A8091020290910D
:102D20000302189FF001199FF00D1124E050FB4F92
:102D3000C1A8D2A8E3A8F4A820E030E0A901C70107
:102D4000B601AFD320E030E040E05FE387FD04C090
:102D5000C701B601A0D103C0C701B6019BD16BD298
:102D60000E94A20A61E089E00E94720A84E693E070
:102D70000E94A10A61E08CE00E94720AC0900402E5
:102D8000D0900502E0900602F090070248E8C41ACD
:102D900043E1D40AE108F1080E94C2044091020212
:102DA0005091030225E4249FF001259FF00D11248A
:102DB000E050FB4F6C157D058E059F0568F461ADF5
:102DC00072AD83AD94AD0E94C90A61E08FE00E94AC
:102DD000720A87E693E00DCEC1A4D2A4E3A4F4A4C2
:102DE00020E030E0A901C701B6015BD320E030E06C
:102DF00040E05FE387FD04C0C701B6014CD103C0CA
:102E0000C701B60147D117D20E94A20A61E08EE045
:102E10000E94720A89E693E0ECCDCF93DF93109283
:102E20005A041092590488EE93E0A0E0B0E0809339
:102E30005B0490935C04A0935D04B0935E0424EF64
:102E400032E0309358042093570425EC30E030935F
:102E500064042093630424EC30E0309366042093F0
:102E6000650420EC30E0309368042093670421EC83
:102E700030E030936A042093690422EC30E0309310
:102E80006C0420936B0426EC30E030936E042093A6
:102E90006D041092700410927104109272041092DA
:102EA0007304C4EFD4E01092F7041092F6048093F8
:102EB000F8049093F904A093FA04B093FB0486E01D
:102EC00093E09093F5048093F4041092770A1092A3
:102ED000760A88E193E09093750A8093740A8FE3F1
:102EE0008093780A80E180937D0A82E080937E0A55
:102EF00010927F0A61E08AE20E942F0461E08CE276
:102F00000E942F0461E08EE20E942F0461E080E3C2
:102F10000E942F048AE290E090936B0A80936A0AE1
:102F20008CE290E090936D0A80936C0A8EE290E0C0
:102F300090936F0A80936E0A80E390E09093710AF9
:102F40008093700A80E48093640AD093660AC093E9
:102F5000650A81E48093670AD093690AC093680A7E
:102F6000E0E0F5E08FEF93E040E050E06AE774E4E2
:102F700011821082138212821582148217821682A5
:102F80001186108613861286158614861786168675
:102F9000108A118A128A138A148A158A168A178A45
:102FA000108E118E128E138E148E158E168E178E15
:102FB00010A211A212A213A214A216A215A290A7E7
:102FC00087A311A612A613A614A615A616A617A6C1
:102FD00010AA11AA12AA13AA14AA15AA16AA17AA05
:102FE00010AE11AE12AE13AE14AEDF01DD964D93EE
:102FF0005D936D937C93139714961D921D921D9271
:103000001C921397EB5BFF4F2AE0E436F20709F0BE
:10301000AFCFDF91CF910895052E97FB16F4009462
:103020000FD057FD05D014D007FC02D046F408C0DD
:1030300050954095309521953F4F4F4F5F4F0895E4
:1030400090958095709561957F4F8F4F9F4F089514
:10305000A1E21A2EAA1BBB1BFD010DC0AA1FBB1F9C
:10306000EE1FFF1FA217B307E407F50720F0A21B0E
:10307000B30BE40BF50B661F771F881F991F1A947B
:1030800069F760957095809590959B01AC01BD01A5
:10309000CF0108955058BB27AA270ED0B1C1A2D1A5
:1030A00030F0A7D120F031F49F3F11F41EF497C106
:1030B0000EF4E095E7FB64C1E92FB3D180F3BA17B2
:1030C000620773078407950718F071F49EF5E2C153
:1030D0000EF4E0950B2EBA2FA02D0B01B901900133
:1030E0000C01CA01A0011124FF27591B99F0593F77
:1030F00050F4503E68F11A16F040A22F232F342FBF
:103100004427585FF3CF469537952795A795F0400C
:103110005395C9F77EF41F16BA0B620B730B840B21
:10312000BAF09150A1F0FF0FBB1F661F771F881FD9
:10313000C2F70EC0BA0F621F731F841F48F4879531
:1031400077956795B795F7959E3F08F0B3CF939520
:10315000880F08F09927EE0F979587950895ECD082
:1031600008F481E008950CD04BC143D140F03AD12E
:1031700030F021F45F3F19F003C151118CC12FC110
:1031800050D198F39923C9F35523B1F3951B550BEF
:10319000BB27AA2762177307840738F09F5F5F4F2A
:1031A000220F331F441FAA1FA9F333D00E2E3AF06B
:1031B000E0E830D091505040E695001CCAF729D085
:1031C000FE2F27D0660F771F881FBB1F26173707D4
:1031D0004807AB07B0E809F0BB0B802DBF01FF2704
:1031E00093585F4F2AF09E3F510568F0C9C053C104
:1031F0005F3FECF3983EDCF3869577956795B7953E
:10320000F7959F5FC9F7880F911D9695879597F958
:103210000895E1E0660F771F881FBB1F62177307D1
:103220008407BA0720F0621B730B840BBA0BEE1FE6
:1032300088F7E095089504D06894B1112CC10895E1
:10324000F8D088F09F5790F0B92F9927B751A0F088
:10325000D1F0660F771F881F991F1AF0BA95C9F72A
:1032600012C0B13081F016D1B1E0089513C1672FBB
:10327000782F8827B85F39F0B93FCCF386957795DA
:103280006795B395D9F73EF49095809570956195C3
:103290007F4F8F4F9F4F0895E89409C097FB3EF4EE
:1032A00090958095709561957F4F8F4F9F4F992393
:1032B000A9F0F92F96E9BB279395F6958795779511
:1032C0006795B795F111F8CFFAF4BB0F11F460FFD1
:1032D0001BC06F5F7F4F8F4F9F4F16C0882311F029
:1032E00096E911C0772321F09EE8872F762F05C03D
:1032F000662371F096E8862F70E060E02AF09A95D8
:10330000660F771F881FDAF7880F9695879597F9CC
:103310000895A9D080F09F3740F491110EF0BBC002
:1033200060E070E080E89FEB089526F41B16611DB5
:10333000711D811D2BC045C0990F0008550FAA0BA8
:10334000E0E8FEEF16161706E807F907C0F01216B8
:103350001306E407F50798F0621B730B840B950BBB
:1033600039F40A2661F0232B242B252B21F4089510
:103370000A2609F4A140A6958FEF811D811D0895AD
:1033800097F99F6780E870E060E00895882371F402
:10339000772321F09850872B762F07C0662311F4EE
:1033A00099270DC09051862B70E060E02AF09A9525
:1033B000660F771F881FDAF7880F9695879597F91C
:1033C00008959F3F31F0915020F487957795679548
:1033D000B795880F911D9695879597F908959FEF5A
:1033E00080EC089500240A9416161706180609069C
:1033F000089500240A94121613061406050608956B
:10340000092E0394000C11F4882352F0BB0F40F4F2
:10341000BF2B11F460FF04C06F5F7F4F8F4F9F4F32
:10342000089557FD9058440F551F59F05F3F71F0B4
:103430004795880F97FB991F61F09F3F79F087951B
:103440000895121613061406551FF2CF4695F1DFA4
:1034500008C0161617061806991FF1CF8695710534
:10346000610508940895E5DFA0F0BEE7B91788F478
:10347000BB279F3860F41616B11D672F782F882759
:10348000985FF7CF869577956795B11D9395963997
:10349000C8F30895E894BB2766277727CB0197F9EF
:1034A00008954ADF08F48FEF08950EF08ACF97CF82
:1034B000689466CFBEDFC8F39923D1F3C6F3DF93D8
:1034C000CF931F930F93FF92C92FDD2788232AF0F4
:1034D0002197660F771F881FDAF720E030E040E879
:1034E0005FEB9FE3883920F0803E30F021968F77A4
:1034F000D2DDE8E0F1E003C0CEDDE5E3F1E081D02C
:103500008B01BE01EC01FB2E6F5771097595771F7A
:10351000880B990BC3DE28E132E741E35FE316D065
:10352000AF2D9801AE01FF900F911F91CF91DF91C8
:10353000C3DD66CF0BD064CF55DF28F05ADF18F01B
:10354000952309F01DCF4BCF1124A5CF6ADFA0F33F
:10355000959FD1F3950F50E0551F629FF001729F28
:10356000BB27F00DB11D639FAA27F00DB11DAA1F47
:10357000649F6627B00DA11D661F829F2227B00D94
:10358000A11D621F739FB00DA11D621F839FA00D1F
:10359000611D221F749F3327A00D611D231F849F6F
:1035A000600D211D822F762F6A2F11249F575040C6
:1035B0008AF0E1F088234AF0EE0FFF1FBB1F661F61
:1035C000771F881F91505040A9F79E3F510570F01A
:1035D000D7CE61CF5F3FECF3983EDCF386957795CD
:1035E0006795B795F795E7959F5FC1F7FE2B880F15
:1035F000911D9695879597F908959EDE880B990BF6
:103600000895DF93CF931F930F93FF92EF92DF9272
:103610007B018C01689405C0DA2EEF0197DFFE0173
:10362000E894A5912591359145915591AEF3EF011F
:1036300043DDFE019701A801DA9479F7DF90EF905E
:10364000FF900F911F91CF91DF910895EE0FFF1F13
:10365000881F8BBF0790F691E02D199481E090E0D0
:08366000F89400C0F894FFCFBC
:10366800FFFFFFFF10270000F40100003738393A48
:103678002B002D002F0031002422A33C89A18D3C72
:10368800739E6E3C60B2153C2DD2D63C912DA63C63
:10369800B079A83C0745A63CB5A48D3C5B24923C78
:1036A8008F91A83C94B77B3CCFD2AA3C344B0B3CBF
:1036B8002A8CE83BFE8E873C7B2E933CD134BF3C62
:1036C800D134BF3C698FD13C000040001400540045
:1036D80000000000000000000100000000000000E1
:1036E80000000100000000000100010000000000CF
:1036F80000000000010000000100000001000000BF
:1037080000000100010000000100010001000000AC
:10371800000000000000010001000000000001009E
:10372800000001000000010001000100000001008C
:10373800000000000100010001000000010001007C
:10374800000001000100010001000100010001006A
:1037580000000000CE019D0967011402980176015E
:103768008A01000000001F03F0024E03C402E802B1
:10377800D402C5020000000011079D094E034D0345
:103788004261747465727920546573746572005669
:1037980065722032004261747465722000456D7054
:1037A80074792020536C6F742100426174746572BF
:1037B8007920004C4F573A200056004261742D0082
:1037C8006D4168006D4F00410043005265436861D8
:1037D8007267696E6700426174746572696520007A
:0C37E8006E616E00696E66006F76660010
:00000001FF
