:1000000034C1000063C1000061C100005FC1000095
:100010005DC100005BC1000059C1000057C1000074
:1000200055C1000053C1000051C100004FC1000084
:100030004DC100004BC1000049C1000047C1000094
:1000400045C1000043C1000041C100003FC10000A4
:100050003DC100003BC1000039C100009FC4000049
:1000600035C1000065C200003AC200002FC1000087
:100070002DC100002BC1000029C1000027C10000D4
:1000800025C1000023C1000021C100001FC10000E4
:100090001DC100001BC1000019C10000D0C4000038
:1000A00015C1000013C1000011C100000FC1000004
:1000B0000DC100000BC1000009C1000007C1000014
:1000C00005C1000003C1000001C10000FFC0000025
:1000D000FDC00000FBC00000F9C00000F7C0000038
:1000E000F5C00000FD020003EF02F302F702370340
:1000F000040308030E03120316031C032003240346
:1001000037032A032E03320308000000BE9224495D
:10011000123EABAAAA2ABECDCCCC4C3E0000008039
:10012000BEABAAAAAA3E00000000BF000000803FAC
:100130000000000000084178D3BB4387D1133D196C
:100140000E3CC3BD4282AD2B3E68EC8276BED98F99
:10015000E1A93E4C80EFFFBE01C4FF7F3F000000DD
:10016000000000002100240027002A002D0030009C
:10017000330001010000040107010A010000220010
:10018000250028002B002E00310034000201000061
:10019000050108010B010505050507050808080804
:1001A000020202020A0A080804040404010101010F
:1001B000010101010303030303030303040707070A
:1001C0000C0C0C0C0C0C0C0C0202020206060606AF
:1001D000060606060B0B0B0B0B0B0B0B010210207C
:1001E000200808102040102040800201020108046D
:1001F0000201010204081020408080402010080401
:100200000201800402018040201008040201080459
:10021000020101020408102040800102040810209D
:10022000408000000A0B02090C0D0E0807030401B0
:1002300000000000000000000000000000000000BE
:10024000000000000000000000000000000012118B
:10025000100000000000000000000000000000008E
:100260000000000000000000230E11241FBECFEF8D
:10027000D1E2DEBFCDBF00E00CBF13E0A0E0B2E0F2
:10028000E6E4F4E200E00BBF02C007900D92AC324E
:10029000B107D9F729E0ACE2B3E001C01D92A03B61
:1002A000B207E1F711E0C5E3D1E000E006C0219715
:1002B0000109802FFE010E941512C433D10780E08E
:1002C0000807A9F70E945A0A0C94211299CEFC0142
:1002D000538D448D252F30E0842F90E0821B930BAB
:1002E000541710F0CF96089501970895FC01918D51
:1002F000828D981761F0828DDF01A80FB11D5D9688
:100300008C91928D9F5F9F73928F90E008958FEFF5
:100310009FEF0895FC01918D828D981731F0828DA9
:10032000E80FF11D858D90E008958FEF9FEF089500
:10033000FC01918D228D892F90E0805C9F4F821B64
:1003400091098F739927089581EF93E0F1DF21E000
:10035000892B09F420E0822F0895FC01848DDF01B0
:10036000A80FB11DA35ABF4F2C91848D90E0019628
:100370008F739927848FA689B7892C93A089B18917
:100380008C9180648C93938D848D981306C0028821
:10039000F389E02D80818F7D80830895EF92FF9215
:1003A0000F931F93CF93DF93EC0181E0888F9B8D98
:1003B0008C8D981305C0E889F989808185FD23C05B
:1003C000F62E0B8D10E00F5F1F4F0F731127E02EDD
:1003D0008C8DE8120BC00FB607FCFACFE889F989BB
:1003E000808185FFF5CFCE01B8DFF2CF8B8DFE0186
:1003F000E80FF11DE35AFF4FF0820B8FEA89FB896A
:100400008081806207C0EE89FF896083E889F9896D
:1004100080818064808381E090E0DF91CF911F91A3
:100420000F91FF90EF900895CF93DF93EC01888DAB
:100430008823C1F0EA89FB89808185FD05C0A889F0
:10044000B9898C9186FD0EC00FB607FCF5CF80816F
:1004500085FFF2CFA889B9898C9185FFEDCFCE01B8
:100460007CDFE8CFDF91CF91089580E090E0892B89
:1004700019F06ADF811125C080E090E0892B41F0FE
:1004800080E090E0892B21F00E94000081111CC0C7
:1004900080E090E0892B41F080E090E0892B21F012
:1004A0000E940000811113C080E090E0892BA1F030
:1004B00080E090E0892B81F00E94000081110AC049
:1004C00008950E940000D8CF0E940000E1CF0E9452
:1004D0000000EACF0C94000008950E941D121F92A4
:1004E0000F920FB60F9211240BB60F922F933F93DA
:1004F0004F935F936F937F938F939F93AF93BF932C
:10050000EF93FF9381EF93E028DFFF91EF91BF918D
:10051000AF919F918F917F916F915F914F913F919B
:100520002F910F900BBE0F900FBE0F901F9018953C
:100530001F920F920FB60F9211240BB60F922F93AA
:100540008F939F93EF93FF93E0910104F091020446
:100550008081E0910704F091080482FD12C090812F
:1005600080910A048F5F8F7320910B04821751F0E2
:10057000E0910A04F0E0EF50FC4F958F80930A045D
:1005800001C08081FF91EF919F918F912F910F90EA
:100590000BBE0F900FBE0F901F901895362F90E056
:1005A000FC01EE5DFD4F4491FC01E452FE4F2491AD
:1005B000FC01EA56FE4F9491992309F46BC0442341
:1005C00009F455C050E0FA013197E231F10508F025
:1005D0004EC08827EE58FF4F8F4F0C941512809114
:1005E00080008F7707C0809180008F7D03C080914D
:1005F0008000877F809380003AC084B58F7702C0E7
:1006000084B58F7D84BD33C08091B0008F7703C0E7
:100610008091B0008F7D8093B00029C080919000C0
:100620008F7707C0809190008F7D03C080919000EC
:10063000877F809390001BC08091A0008F7707C0B8
:100640008091A0008F7D03C08091A000877F809360
:10065000A0000DC0809120018F7707C080912001FC
:100660008F7D03C080912001877F80932001E92F37
:10067000F0E0EE0FFF1FE458FE4FA591B4918FB745
:10068000F894EC91311103C020952E2301C02E2B3C
:100690002C938FBF0895CF93DF9390E0FC01E45239
:1006A000FE4F2491FC01EA56FE4F8491882361F1AC
:1006B00090E0880F991FFC01EE59FE4FC591D4912F
:1006C000FC01E458FE4FA591B491611109C09FB798
:1006D000F8948881209582238883EC912E230BC087
:1006E000623061F49FB7F8943881822F809583231C
:1006F0008883EC912E2B2C939FBF06C08FB7F89464
:10070000E8812E2B28838FBFDF91CF910895863308
:1007100008F0865390917B00282F2870977F922BAA
:1007200090937B008770806480937C0080917A0036
:10073000806480937A0080917A0086FDFCCF80915E
:1007400078002091790090E0922B08953FB7F894BB
:100750008091ED039091EE03A091EF03B091F0032F
:1007600026B5A89B05C02F3F19F00196A11DB11D0C
:100770003FBFBA2FA92F982F8827820F911DA11D47
:10078000B11DBC01CD0142E0660F771F881F991F84
:100790004A95D1F7089585ED8093BC008091BC0007
:1007A00084FDFCCF1092C703089540917C03262F4F
:1007B00030E0240F311D21323105DCF42091C703D4
:1007C0002430C9F4FC0180E090E0861758F43091A1
:1007D0007C032191DC01A65ABC4FA30FB11D2C93C1
:1007E0000196F3CF80917C03680F60937C0380E0D7
:1007F000089581E0089582E008950895E0912D0321
:1008000080912C03E81730F4F0E0E853FC4F80812E
:1008100090E008958FEF9FEF089590912D038091C0
:100820002C03981750F4E92FF0E0E853FC4F208197
:1008300030E09F5F90932D0302C02FEF3FEFC9017F
:10084000089580912C0390E020912D03821B910943
:100850000895CF92DF92EF92FF920F931F93CF9361
:10086000DF937C01262F972F8A0180913103882303
:1008700091F0C62FD72F6E01C40ED51ECC15DD0505
:1008800069F06991D701ED91FC910190F081E02D23
:10089000C7011995F3CF642F822F87DFC801DF913D
:1008A000CF911F910F91FF90EF90DF90CF9008951F
:1008B000CF93DF931F92CDB7DEB7698320913103C9
:1008C0002223D1F020912E03203240F021E030E0AD
:1008D000FC013383228380E090E014C080912F03D9
:1008E000E82FF0E0E65CFC4F998190838F5F809366
:1008F0002F0380932E0304C061E0CE01019655DFE3
:1009000081E090E00F90DF91CF910895089580E00D
:1009100090E008958F929F92AF92BF92CF92DF9214
:10092000EF92FF926B017C0111DF4B015C01C1145E
:10093000D104E104F104E9F009DFDC01CB018819FD
:100940009909AA09BB09883E9340A105B10578F32E
:1009500021E0C21AD108E108F10888EE880E83E090
:10096000981EA11CB11CC114D104E104F10421F7AB
:10097000DECFFF90EF90DF90CF90BF90AF909F9031
:100980008F9008952FB7F8946091E9037091EA036E
:100990008091EB039091EC032FBF08951F920F926B
:1009A0000FB60F9211242F933F938F939F93AF9382
:1009B000BF938091E9039091EA03A091EB03B0917A
:1009C000EC033091E80323E0230F2D3720F4019648
:1009D000A11DB11D05C026E8230F0296A11DB11D62
:1009E0002093E8038093E9039093EA03A093EB0339
:1009F000B093EC038091ED039091EE03A091EF038F
:100A0000B091F0030196A11DB11D8093ED03909369
:100A1000EE03A093EF03B093F003BF91AF919F91CA
:100A20008F913F912F910F900FBE0F901F901895AF
:100A3000DC01ED91FC910190F081E02D19941F9261
:100A40000F920FB60F9211240BB60F922F933F9374
:100A50004F935F936F937F938F939F93AF93BF93C6
:100A6000EF93FF938091B900887F803609F49CC092
:100A700068F5883209F45BC090F4803109F454C001
:100A800038F4882309F4F6C0883009F44DC0F5C065
:100A9000883109F44CC0803209F45DC0EEC0803466
:100AA00009F468C048F4803309F455C0883309F06C
:100AB000E4C08093C503D8C0803509F44FC08835A1
:100AC00009F45DC0883409F0D8C0D6C0883909F46B
:100AD000C7C0A8F4883709F467C038F4883609F429
:100AE00063C0803709F460C0C8C0883809F4B8C052
:100AF000803909F45FC0803809F0BFC05BC0803B1B
:100B000009F486C038F4803A09F466C0883A09F4DA
:100B10007FC0B3C0803C09F4A7C0883C09F4A4C0DE
:100B2000883B09F48AC0A9C08091C20310C090918B
:100B3000C4038091C303981770F5E091C40381E06A
:100B40008E0F8093C403F0E0EF55FC4F80818093BB
:100B5000BB0085EC86C08093C5038EC0E091C403C2
:100B600081E08E0F8093C4038091BB00F0E0EF55CD
:100B7000FC4F80839091C4038091C3036EC0E091C9
:100B8000C40381E08E0F8093C4038091BB00F0E02A
:100B9000EF55FC4F80838091C60381116DC081E0C9
:100BA0008093C10384EA61C083E08093C7031092FD
:100BB000A003CFCF8091A003803208F051C0E09114
:100BC000A00381E08E0F8093A0038091BB00F0E032
:100BD000E058FC4F8083BDCF85EC8093BC00109221
:100BE000C7038091A003803230F4E091A003F0E0CD
:100BF000E058FC4F10826091A00370E0E0917E030A
:100C0000F0917F0380E893E019951092A00335C01E
:100C100084E08093C70310927D0310927C03E091DF
:100C20007A03F0917B03199580917C03811105C0B3
:100C300081E080937C0310925A03E0917D0381E070
:100C40008E0F80937D03F0E0E65AFC4F8081809305
:100C5000BB0090917D0380917C03981708F479CFB5
:100C600085E88093BC0009C085EC8093BC0010929D
:100C7000C70303C01092C5038EDDFF91EF91BF91B2
:100C8000AF919F918F917F916F915F914F913F9124
:100C90002F910F900BBE0F900FBE0F901F901895C5
:100CA0001092C70381E08093C6031092C10361E0F4
:100CB00084E174DC61E085E171DCE9EBF0E08081E6
:100CC0008E7F808380818D7F808388E48093B800CD
:100CD00085E48093BC00089520912E039091300309
:100CE000213208F04AC08091C7038111FCCF32E065
:100CF0003093C70331E03093C6033FEF3093C50311
:100D00001092C4032093C303AAE3B3E041EA53E083
:100D1000FA013E2F341B321718F43D913193F9CF6D
:100D20001092C2032091C203990F922B9093C20399
:100D30009091C103913061F41092C1039091C2036C
:100D40009093BB009091BC0093FDF8CF95EC01C04F
:100D500095EE9093BC009091C7039230E1F390918F
:100D6000C5039F3F79F08091C503803241F08091A7
:100D7000C503803331F084E005C081E003C082E028
:100D800001C083E010922F0310922E0310923103C2
:100D900008950F931F93CF93DF931F92CDB7DEB7C4
:100DA0008C01DC018C9191E09093310380933003AE
:100DB00010922F0310922E0311968D919C911297F1
:100DC000DC01ED91FC910190F081E02D49831995B2
:100DD000F80181819281DC01ED91FC910190F0811B
:100DE000E02D4981642F1995F801818192810F903E
:100DF000DF91CF911F910F916FCF0F931F93CF93DF
:100E0000DF93EC01CB01BA0126E636E646E65FE366
:100E10000E94650F9B01AC0160E27CEB8EEB95E4D8
:100E20000E94BC1020E030E040E85FE30E945710D1
:100E300020E030E040E05FE30E9458100E94501133
:100E40000E942411062F888191E0909331038093B2
:100E5000300310922F0310922E0389819A81DC01B6
:100E6000ED91FC910190F081E02D60E01995898170
:100E70009A8132DF88819091C7039111FCCF91E074
:100E80009093C7039093C6032FEF2093C50310924E
:100E9000C4031092C3039093C2039091C203880FBE
:100EA000892B8093C2038091C103813061F4109239
:100EB000C1038091C2038093BB008091BC0083FD7D
:100EC000F8CF85EC01C085EE8093BC008091C7030C
:100ED0008130E1F38091C403811103C08091C40388
:100EE00001C081E0A1EAB3E028EC33E0F9019E2FD4
:100EF000921B981718F49D919193F9CF10922D039E
:100F000080932C0389819A81DC01ED91FC9102840C
:100F1000F385E02D1995182F8F76482F406160E0FA
:100F2000CE0137DF402F6EEFCE0133DF412F60E07F
:100F3000CE012FDF65E070E080E090E0EBDC412F38
:100F4000406A60E0CE01DF91CF911F910F9121CFD8
:100F5000FC01248131E0309331032093300310925F
:100F60002F0310922E038385682B86ED94E0A0DC7E
:100F700086ED94E0B1CE0F931F93CF938C01C62FD3
:100F80006460E6DF6C2F6B7FC801E2DF83EC90E0EA
:100F90000197F1F7CF911F910F9108950F931F9330
:100FA000CF93DF938C01C62FD62FD07FD1606D2FCA
:100FB000CFDF6D2FC801DFDF80E1C89FB0011124B2
:100FC000C62FC1606C2FC801C3DF6C2FC801D3DFEF
:100FD00081E090E0DF91CF911F910F9108958F9262
:100FE0009F92AF92BF92CF92DF92EF92FF921F93A8
:100FF000CF93DF93EC014A015B01BFD01AE0C12C13
:10100000D12C7601E981F0E0E050FE4F80817FDB5A
:10101000BC01990F880B990BF9D69B01AC01C70154
:10102000B6010E9458106B017C01115059F720E065
:1010300030E040E251E40E94BC10A501940145D784
:101040006B017C018EE580937C0080917B00877F23
:1010500080937B0080917A00806880937A0062E0C0
:1010600070E080E090E056DC80917A0080648093AC
:101070007A0080917A0086FDFCCF209178008091E3
:10108000790030E0382B032E000C440B550B6EEB2F
:1010900073E081E190E0EFD7CA01B901B7D62FE63E
:1010A00032E143E85AE311D720E030E040E85AE368
:1010B0000CD79B01AC01C701B60107D7DF91CF91D7
:1010C0001F91FF90EF90DF90CF90BF90AF909F90D7
:1010D0008F900895CF92DF92EF92FF920F931F931C
:1010E000CF93DF936C017A018B01C0E0D0E0CE1585
:1010F000DF0589F0D8016D918D01D601ED91FC914C
:101100000190F081E02DC6011995892B11F47E0123
:1011100002C02196ECCFC701DF91CF911F910F91B3
:10112000FF90EF90DF90CF900895E1EFF3E0A0897A
:10113000B18982E08C93A485B5851C92A685B7857C
:101140008FEC8C93108EA489B58986E08C93A2894C
:10115000B3898C9180618C93A289B3898C918860CA
:101160008C93A289B3898C9180688C930288F389CF
:10117000E02D80818F7D80830895CF93DF93EC01F4
:101180002091980930919909898190E028173907B1
:10119000B9F0220F331FF901EC57FD4F61E0808158
:1011A000FDD9E981F0E0EE0FFF1FEC57FD4F60E045
:1011B0008081F4D9898190E090939909809398096E
:1011C000C88188E0C89FE0011124CC5FDD4F6881B1
:1011D0008091A609E3D96A818091A809DFD96C8141
:1011E0008091AA09DBD96E818091AC09D7D961E0E1
:1011F00070E080E090E0DF91CF918CCB8F929F9256
:10120000AF92BF92CF92DF92EF92FF926B017C017F
:10121000B9DB4B015C01C60ED71EE81EF91EB2DB1E
:10122000681579058A059B0528F0C616D706E806D5
:10123000F906A8F7FF90EF90DF90CF90BF90AF90A6
:101240009F908F9008956115710579F0FB010190D1
:101250000020E9F73197AF01461B570BDC01ED91F8
:10126000FC910280F381E02D199480E090E00895D4
:101270004F925F926F927F92EF92FF920F931F9324
:10128000CF93DF93CDB7DEB7A1970FB6F894DEBF4B
:101290000FBECDBF7C01FA01CB0119A2223008F4A8
:1012A0002AE08E010F5D1F4F422E512C612C712CB4
:1012B000BF01A3019201BDD6F901CA010150110974
:1012C0006A3014F4605D01C0695CD8016C93232B13
:1012D000242B252B69F7B801C701B5DFA1960FB6FE
:1012E000F894DEBF0FBECDBFDF91CF911F910F915C
:1012F000FF90EF907F906F905F904F9008954F9286
:101300005F926F927F928F929F92AF92BF92CF9295
:10131000DF92EF92FF926B017C01B42E9B01AC0136
:101320000E94EC11882319F06FE173E025C02601BB
:101330003701E89477F82FEF3FEF4FE75FE7C301FE
:10134000B2010E94EC1181110CC02FEF3FEF4FE76B
:101350005FE7C301B20154D518161CF463E273E0D1
:101360000BC02FEF3FEF4FE75FE4C701B601EBD7AC
:1013700018168CF467E273E081EF93E0FF90EF9032
:10138000DF90CF90BF90AF909F908F907F906F90A5
:101390005F904F9058CF2FEF3FEF4FE75FECC701C3
:1013A000B6012ED587FDE6CF20E030E0A901C701C8
:1013B000B60126D587FF11C0E091F103F091F20349
:1013C0000190F081E02D6DE281EF93E019954C01E1
:1013D000F7FAF094F7F8F09402C0812C912CA12C2C
:1013E00060E070E080E09FE3AB1439F020E030E093
:1013F00040E251E4C1D6A394F7CF9B01AC01C701F1
:10140000B60156D62B013C011FD76B017C01FCD4E1
:101410009B01AC01C301B2014AD62B013C012AE079
:10142000B701A60181EF93E023DF7C01E80CF91CF2
:10143000BB2069F0E091F103F091F2030190F0819B
:10144000E02D6EE281EF93E01995E80EF91EDB2C9A
:10145000DD2009F120E030E040E251E4C301B201B7
:1014600034D52B013C01F0D64B01A12CB12C2AE044
:10147000B501A40181EF93E0FBDEE80EF91EC50182
:10148000B401C2D49B01AC01C301B20110D62B013F
:101490003C01DA94DDCFC701FF90EF90DF90CF9051
:1014A000BF90AF909F908F907F906F905F904F9084
:1014B0000895C9CECF93DF93CDB7DEB7C254D1091B
:1014C0000FB6F894DEBF0FBECDBF789484B58260AE
:1014D00084BD84B5816084BD85B5826085BD85B5D8
:1014E000816085BD80916E00816080936E00109256
:1014F00081008091810082608093810080918100D1
:101500008160809381008091800081608093800061
:101510008091B10084608093B1008091B0008160BF
:101520008093B000809191008260809391008091BF
:101530009100816080939100809190008160809300
:1015400090008091A10082608093A1008091A10011
:1015500081608093A1008091A00081608093A000B1
:10156000809121018260809321018091210181601D
:1015700080932101809120018160809320018091DE
:101580007A00846080937A0080917A0082608093F0
:101590007A0080917A00816080937A0080917A004D
:1015A000806880937A001092C1001092D204109249
:1015B000D3041092D4041092D50410929004109287
:1015C0009104109292041092930468EB7BE080E007
:1015D00090E014DE81EF93E09093D1048093D004E7
:1015E000A4DDD0D960939004709391048093920409
:1015F000909393046CEB72E08091D0049091D104AD
:1016000058DF6AE070E080E090E0F8DD81E08093F0
:10161000A40446DB8ADD60E087E33DD860E088E330
:101620003AD860E089E337D860E08AE334D861E0F3
:101630008BE231D861E08DE22ED861E08FE22BD8C9
:1016400061E081E328D861E08AE225D861E08CE29C
:1016500022D861E08EE21FD861E080E31CD860E010
:101660008AE20E94CE0260E08CE20E94CE0260E03C
:101670008EE20E94CE0260E080E30E94CE0260E033
:101680008BE20E94CE0260E08DE20E94CE0260E01A
:101690008FE20E94CE0260E081E30E94CE0202E966
:1016A00019E010922D0310922C0310922F03109228
:1016B0002E03F6DA40E860E0C8016BDB6AE070E018
:1016C00080E090E027D940E050E06AE774E4C80188
:1016D00094DB40E050E068EC74E4C8018EDB0D5F01
:1016E0001F4F29E008391207E1F602E015E0C12C8E
:1016F000D12C60E070E082E0A82EB12C89E090E06F
:1017000066246394712C25E030E0412C512C40E09C
:1017100050E0DE0111961D01F101BCE3EB2E1192A8
:10172000EA94E9F7F101D80190970F2EFCE3FF2E20
:10173000F02D01900D92FA94E1F7403151052CF013
:101740004FEF441A540A40E050E0DA011196BEAF60
:10175000ADAFF80137974083319640822031310593
:101760002CF0BFEF6B1A7B0A20E030E0A9014F5F3D
:101770005F4FF80135972083319660828031910563
:101780002CF0EFEFAE1ABE0A80E090E09C012F5FD4
:101790003F4FF801339780833196A0826031710505
:1017A0002CF0FFEFCF1ADF0A60E070E04B018FEF03
:1017B000881A980AF80131976083D801CC92EFEF2C
:1017C000F3E05396FC93EE9352977601FF24C70102
:1017D000880F991F8E0D9F1DDC01AE56B64F7D01FF
:1017E0008C91B1E0B09331038093300310922F03BA
:1017F00010922E03F70181819281DC01ED91FC9121
:10180000660F771F660F771F6A5F7F4F0190F08129
:10181000E02D22962FAF229723963FAF23974FAF0D
:1018200021965FAF2197199560E070E0F701818103
:101830009281FED860E070E0D70111968D919C9165
:101840001297F6D86FEF73E0F70181819281F0D89B
:1018500063E070E0D70111968D919C911297E8D8C2
:10186000F7018181928138DA045C1F4F22962FADF7
:10187000229723963FAD23974FAD21965FAD2197D9
:10188000F9E0023B1F0731F0B401C9019A014DADE7
:101890005EAD42CF84EF882E99249394A12CB12C75
:1018A00071D8672B682B692B39F46CD862307105BD
:1018B0008105910508F4FAC065D8609336037093EA
:1018C00037038093380390933903009132031091CA
:1018D0003303209134033091350360177107820779
:1018E000930740F46093320370933303809334037F
:1018F0009093350300913203109133032091340308
:10190000309135036B017C01C01AD10AE20AF30A57
:10191000970186010A3F11052105310508F4C6C06B
:1019200060933203709333038093340390933503B1
:1019300080929C0490929D04A0929E04B0929F0479
:101940001092A0041092A1041092A2041092A30479
:101950008091940490919504A0919604B09197047D
:101960008093980490939904A0939A04B0939B0455
:1019700009D860939404709395048093960490938F
:10198000970400D86093900470939104809392041C
:10199000909393040E94C2046B017C016EEC72E090
:1019A0008091D0049091D10484DD2AE041E050E0A0
:1019B00060E070E08091D0049091D10459DC65ED35
:1019C00072E08091D0049091D10473DD2AE0B701D8
:1019D000A6018091D0049091D1044ADC67ED72E0B9
:1019E0008091D0049091D10464DD80919404909111
:1019F0009504A0919604B0919704B701A601481BE5
:101A0000590B6A0B7B0B2AE08091D0049091D10492
:101A10002FDC67ED72E08091D0049091D10449DD14
:101A200040919404509195046091960470919704AC
:101A30008091980490919904A0919A04B0919B048C
:101A4000481B590B6A0B7B0B2AE08091D0049091C4
:101A5000D1040EDC69ED72E08091D0049091D10444
:101A600028DD0E94C204AB01BC012AE08091D004B1
:101A70009091D104FDDB0091D0041091D1046BED65
:101A800072E0C801E0DB6BEC72E0C801DCDB65E012
:101A900070E080E090E0B2DB0E94C20460939404A6
:101AA00070939504809396049093970462EE72E08D
:101AB00081EF93E0FEDC6BEC72E081EF93E0C3DB3F
:101AC00000E010E0C80185509B4F57DBC8018E51E4
:101AD0009B4F1C01DC015A96EC91F0E0E050FE4F68
:101AE00080810E948703BC01990F880B990B8ED1CE
:101AF0009B01AC0160E070EC8FE794E43DD320E003
:101B000030E040E85FE3D3D220E030E44CE156E43B
:101B1000DCD122D46B017C0126ED34E649E759E3A0
:101B2000D4D12BEC38E444E85AE3C2D22B013C0177
:101B30002CE63FEC48E554E3C701B601C6D1A70146
:101B40009601C3D1A7019601C0D19B01AC01C3018D
:101B5000B201AED29B01AC0160E070E080E89FE38F
:101B60000BD323E333E14AE853E4A1D2F101218D01
:101B70002A3021F020E030E0A90104C020E030E06C
:101B800040E651E494D260D3D10195966C93462FF0
:101B900050E060E070E02AE081EF93E069DB6DE106
:101BA00073E081EF93E085DC045C1F4F003BB4E001
:101BB0001B0709F087CF6BEC72E081EF93E043DB0A
:101BC0000DEF14E040E050E060E070E4C80107DA97
:101BD000F8016787708B818B928B42E090DB6DE11F
:101BE00073E081EF93E065DC045C1F4FF9E00D3A90
:101BF0001F0741F70FEF14E040E050E060E87FE39B
:101C0000C801EDD9D80151966D937D938D939C9326
:101C1000549720E030E04AE754E457D142E06FDBCC
:101C20006DE173E081EF93E044DC045C1F4FB9E0A9
:101C30000F3A1B0709F76BEC72E081EF93E003DBCF
:101C40000E9435022DCECF93DF931092F4031092B1
:101C5000F30388EE93E0A0E0B0E08093F503909367
:101C6000F603A093F703B093F80320E932E0309332
:101C7000F2032093F10325EC30E03093FE03209330
:101C8000FD0324EC30E0309300042093FF0320ECAC
:101C900030E0309302042093010421EC30E03093D3
:101CA00004042093030422EC30E0309306042093D4
:101CB000050426EC30E030930804209307041092CA
:101CC0000A0410920B0410920C0410920D0410924E
:101CD0009404109295041092960410929704109216
:101CE00098041092990410929A0410929B041092F6
:101CF0009C0410929D0410929E0410929F041092D6
:101D0000A0041092A1041092A2041092A304C6EDA4
:101D1000D4E01092D9041092D8048093DA049093FE
:101D2000DB04A093DC04B093DD0482EA92E090939C
:101D3000D7048093D60461E08AE20E944B0361E0FD
:101D40008CE20E944B0361E08EE20E944B0361E053
:101D500080E30E944B038AE290E09093A70980936E
:101D6000A6098CE290E09093A9098093A8098EE2DD
:101D700090E09093AB098093AA0980E390E0909360
:101D8000AD098093AC0980E480939209D0939409C3
:101D9000C093930981E480939509D0939709C093E8
:101DA000960910929D0910929C0984EB92E0909301
:101DB0009B0980939A098FE380939E0980E1809329
:101DC000A30982E08093A4091092A509E2EEF4E051
:101DD0001082118212821382148215821682178257
:101DE0001086118612861386148615861686178627
:101DF000FC9689E0E239F80759F7DF91CF91089511
:101E000040D008F481E00895E89409C097FB3EF4BF
:101E100090958095709561957F4F8F4F9F4F992337
:101E2000A9F0F92F96E9BB279395F69587957795B5
:101E30006795B795F111F8CFFAF4BB0F11F460FF75
:101E40001BC06F5F7F4F8F4F9F4F16C0882311F0CD
:101E500096E911C0772321F09EE8872F762F05C0E1
:101E6000662371F096E8862F70E060E02AF09A957C
:101E7000660F771F881FDAF7880F9695879597F971
:101E80000895990F0008550FAA0BE0E8FEEF16160B
:101E90001706E807F907C0F012161306E407F5075E
:101EA00098F0621B730B840B950B39F40A2661F0D2
:101EB000232B242B252B21F408950A2609F4A14075
:101EC000A6958FEF811D811D08950BD078C069D034
:101ED00028F06ED018F0952309F05AC05FC0112485
:101EE000A2C07ED0A0F3959FD1F3950F50E0551F6F
:101EF000629FF001729FBB27F00DB11D639FAA275F
:101F0000F00DB11DAA1F649F6627B00DA11D661FAD
:101F1000829F2227B00DA11D621F739FB00DA11DCE
:101F2000621F839FA00D611D221F749F3327A00D88
:101F3000611D231F849F600D211D822F762F6A2F24
:101F400011249F5750408AF0E1F088234AF0EE0FA9
:101F5000FF1FBB1F661F771F881F91505040A9F7B6
:101F60009E3F510570F014C05EC05F3FECF3983E99
:101F7000DCF3869577956795B795F795E7959F5F1D
:101F8000C1F7FE2B880F911D9695879597F90895B7
:101F900097F99F6780E870E060E008959FEF80EC1C
:101FA000089500240A9416161706180609060895BF
:101FB00000240A9412161306140605060895092E25
:101FC0000394000C11F4882352F0BB0F40F4BF2B94
:101FD00011F460FF04C06F5F7F4F8F4F9F4F0895D4
:101FE00057FD9058440F551F59F05F3F71F04795CA
:101FF000880F97FB991F61F09F3F79F087950895AF
:10200000121613061406551FF2CF4695F1DF08C0CD
:10201000161617061806991FF1CF869571056105EA
:1020200008940895E894BB2766277727CB0197F992
:102030000895A1E21A2EAA1BBB1BFD010DC0AA1F09
:10204000BB1FEE1FFF1FA217B307E407F50720F021
:10205000A21BB30BE40BF50B661F771F881F991F9C
:102060001A9469F760957095809590959B01AC01E5
:10207000BD01CF010895052E97FB16F400940FD0F3
:1020800057FD05D0D6DF07FC02D046F408C05095B6
:102090004095309521953F4F4F4F5F4F0895909554
:1020A0008095709561957F4F8F4F9F4F0895505841
:1020B000BB27AA270ED083CF74DF30F079DF20F062
:1020C00031F49F3F11F41EF469CF0EF4E095E7FB65
:1020D0005FCFE92F85DF80F3BA17620773078407A4
:1020E000950718F071F49EF59DCF0EF4E0950B2E38
:1020F000BA2FA02D0B01B90190010C01CA01A0015A
:102100001124FF27591B99F0593F50F4503E68F1B4
:102110001A16F040A22F232F342F4427585FF3CFF5
:10212000469537952795A795F0405395C9F77EF4C6
:102130001F16BA0B620B730B840BBAF09150A1F00F
:10214000FF0FBB1F661F771F881FC2F70EC0BA0F95
:10215000621F731F841F48F4879577956795B7951D
:10216000F7959E3F08F0B3CF9395880F08F0992715
:10217000EE0F9795879508950CD021CF19DF40F089
:1021800010DF30F021F45F3F19F002CF51114BCF37
:1021900005CF26DF98F39923C9F35523B1F3951B97
:1021A000550BBB27AA2762177307840738F09F5F78
:1021B0005F4F220F331F441FAA1FA9F333D00E2EE7
:1021C0003AF0E0E830D091505040E695001CCAF754
:1021D00029D0FE2F27D0660F771F881FBB1F261719
:1021E00037074807AB07B0E809F0BB0B802DBF01EC
:1021F000FF2793585F4F2AF09E3F510568F0C8CEE5
:1022000012CF5F3FECF3983EDCF3869577956795A8
:10221000B795F7959F5FC9F7880F911D969587959C
:1022200097F90895E1E0660F771F881FBB1F6217BB
:1022300073078407BA0720F0621B730B840BBA0B79
:10224000EE1F88F7E0950895D3DE88F09F5790F051
:10225000B92F9927B751A0F0D1F0660F771F881FCB
:10226000991F1AF0BA95C9F712C0B13081F0DADEC1
:10227000B1E00895D7CE672F782F8827B85F39F05F
:10228000B93FCCF3869577956795B395D9F73EF42A
:1022900090958095709561957F4F8F4F9F4F0895D2
:1022A0003BD080F09F3740F491110EF0BCCE60E03F
:1022B00070E080E89FEB089526F41B16611D711DE8
:1022C000811D01C01BC0882371F4772321F0985031
:1022D000872B762F07C0662311F499270DC09051E4
:1022E000862B70E060E02AF09A95660F771F881FB2
:1022F000DAF7880F9695879597F908959F3F31F003
:10230000915020F4879577956795B795880F911D23
:102310009695879597F908956BDEA0F0BEE7B917FB
:1023200088F4BB279F3860F41616B11D672F782FED
:102330008827985FF7CF869577956795B11D939518
:102340009639C8F308959DDD08F48FEF08950EF0D7
:10235000D5CF24CE68941CCE4BDEC8F39923D1F39D
:10236000C6F3DF93CF931F930F93FF92C92FDD27FF
:1023700088232AF02197660F771F881FDAF720E05D
:1023800030E040E85FEB9FE3883920F0803E30F09A
:1023900021968F778DDEE8E0F1E003C089DEE5E38A
:1023A000F1E01ED08B01BE01EC01FB2E6F577109CD
:1023B0007595771F880B990B29DD28E132E741E3FA
:1023C0005FE38FDDAF2D9801AE01FF900F911F915C
:1023D000CF91DF917EDEF3CD54DD880B990B08950C
:1023E000DF93CF931F930F93FF92EF92DF927B01C6
:1023F0008C01689405C0DA2EEF0173DDFE01E894CC
:10240000A5912591359145915591AEF3EF0161DE8E
:10241000FE019701A801DA9479F7DF90EF90FF9021
:102420000F911F91CF91DF910895EE0FFF1F881F2D
:102430008BBF0790F691E02D199481E090E0F8941D
:0624400000C0F894FFCF7C
:102446003738393A000000000000000001000000A3
:102456000000000000000100000000000100010073
:102466000000000000000000010000000100000064
:102476000100000000000100010000000100010051
:102486000100000000000000000001000100000043
:102496000000010000000100000001000100010031
:1024A6000000010000000000010001000100000022
:1024B600010001000000010001000100010001000F
:1024C600010001002B002D002F003100000000004C
:1024D600CE016A0867011402980176018A0100009C
:1024E6000000580429048704FD0321040D04FE039B
:1024F60000000000CE076A0887048604564D445043
:10250600565F317C315F564D4450560D0A00564D8C
:102516004450455F003A323A007C005F564D4450C5
:1025260045002A2A2A2A2A2A2A2A2A2A2A2A2A2A14
:102536002A2A2A2A2A2A2A2A2A2A2A2A2A2A2A2AF5
:102546002A2A2A2A2A2A2A2A2A2A2A2A2A2A2A2AE5
:102556002A2A2A2A2A2A2A2A2A2A2A2A0020006EEF
:0C256600616E00696E66006F7666000012
:00000001FF
